:020000040000FA
:2000000000500020810F0000790F0000610F00007D0F00007D0F00007D0F00000000000044
:200020000000000000000000000000007D0F00007D0F0000000000007D0F00007D0F000090
:20004000AD3B00007D0F00002D4400007D0F0000A9320000513800007D0F00007D0F0000B3
:200060007D0F0000814400007D0F00007D0F00007D0F00007D0F00007D0F00007D0F0000E7
:200080007D0F00007D0F00007D0F00007D0F00007D0F00007D0F00007D0F00007D0F000000
:2000A0007D0F00007D0F00007D0F00007D0F00007D0F00007D0F00007D0F00007D0F0000E0
:2000C0007D0F0000C9460000294B1B689B0702D44FF000407047F0B5002083B0452102F090
:2000E00035F90DF106010120022201F071F838B901A8022101F096F84FF0004003B0F0BD13
:200100000DF106010020022201F062F80028EFD0BDF806305BBA9CB2200BADF8043015F00D
:20012000ABFF15F04DFB0646C4F30B000F4615F0B3FF0DA3D3E9002304460D46304639468D
:2001400016F010F802460B462046294616F00AF816F0A2FA074916F0FDFB16F04BFD03B02A
:20016000F0BD00BFAFF300807B14AE47E17A843F440A00200000C84208B51F4B1B68032BFF
:2001800033D1431E012B30D81C4A1D4B012812881B8812D0184615F06FFF0022194B15F054
:2001A000E1FF0022184B15F0DDFF16F075FA174916F0D0FB16F01EFD08BD104615F05CFFB7
:2001C0000022104B15F0CEFF09A3D3E9002315F0C9FF00220E4B15F011FE16F05DFA0B4938
:2001E00016F0B8FB16F006FD08BD4FF0004008BD0000000000A06440680A0020622C0020B0
:20020000642C00200000F03E000059400000C84200004440000000002DE9F041664B1B685E
:2002200053B1044600216548062217F00FF914F0380606D162073ED14FF000463046BDE83A
:20024000F08102F0A1FF5E4D286007E002F09CFF2A686FF009039B1AC34203D501F0E0FB99
:200260000028F3D0574B1B78D907E5D5534D0120682102F06BF829463B20062200F0A8FF9C
:2002800006460020014602F061F8002E7ED02F786E78A878E9782A796B79202C6F702E7086
:2002A000E870A9706A712B715AD0102C65D0082C66D00026C2E702F067FF414D286007E02D
:2002C00002F062FF2A686FF009039B1AC34203D501F0A6FB0028F3D03A4B1B78DB07ABD545
:2002E000364D0120682102F031F829464320062200F06EFF074600284DD095F8008095F833
:2003000001C095F802E0EF782A796B790020014685F8018085F800C085F803E0AF706A71C3
:200320002B7102F013F8042C06D0022C2BD0012C84D1B5F9040001E0B5F9000015F0ACFE83
:200340001BA3D3E9002316F037F816F0A5F91E4916F000FB16F04EFC06463046BDE8F08197
:20036000B5F9000001F086FA174916F0F3FA16F041FC06463046BDE8F081B5F90200F1E768
:20038000B5F90400EEE7B5F90200D7E72846062100F048FF50E72846062100F043FF384620
:2003A000394601F0D3FF4FF0004647E7AFF300800000000000606040980A0020700A0020CA
:2003C000AC2C0020792C00200000C842000000002DE9F04F144623F00047024657EA0400C0
:2003E0000E468FB01D469C46214634D06E4B26F0004A9A459346B14626DC24D09F4223DC1C
:20040000694B9F4200F08F80B9F1000FC0F28F804FF0000879BB644B9F4200F0A580634B00
:200420009F4267D0BCF1804F00F0E283604B9C4521D1B9F1000F1EDB104631460FB0BDE872
:20044000F04F15F03DBB62B10AF1404000F5801050EA0B0007D10346544918460FB0BDE888
:20046000F08F5745CCDD53480FB0BDE8F04F15F025BC4FF0000810463146CDF808C0009261
:2004800015F0E4FB009ADDF808C0BBF1000F20D04FEAD97909F1FF3958EA09037AD0464BB0
:2004A0009F4240F38F8003F104739F4240F31084424B9A4540F39283BCF1000F40F392834E
:2004C00037A1D1E900010B46024615F04BFE0346C3E7BAF1000F04D0344B29F0404E9E4518
:2004E000D6D1BCF1000FC0F2B683B9F1000F08DB0346B2E7BCF1000FC0F25284134631461C
:20050000ABE70AF1404A0AF5801A58EA0A0340F05E8402460B4615F071FC0B46024615F021
:200520004BFF034699E700293FF46EAF8CE7244B9F422CDCA3F154739F427FF769AF40F268
:2005400013403B15834240F34B84C3F58663033321FA03F000FA03F38B427FF459AF00F024
:200560000100C0F1020855E70AF1404303F5801353EA0B0300F03983104B9A4540F364832F
:20058000BCF1000FC0F22E832346294665E74FF002083FE7104631463346BCE7AFF300809E
:2005A0009C7500883CE4377E0000F07F0000F03F0000E03FA88901000000E041FFFFEF3F91
:2005C000FFFF3F43BAF5801F4FF0000205DACA4B15F0C8FD8A466FF034024FEA2A53C74E1E
:2005E000CAF3130AA3F2FF334AF07F571344B2450C9347F4401740F3D083C14B9A4540F327
:2006000007840026B4460C9BA7F5801701330C933946BC4B4FEACC0C6344D3E900AB524645
:200620005B46CDF834C0CDE9060115F0E7FB52465B46CDE90801DDE9060115F0E1FB0246CE
:200640000B460020B04915F0B7FE02460B46DDE90801CDE90A2315F085FD02460B46CDE955
:200660000223CDE904237B1043F0005303F5002399190020002306460F460293DDE9022336
:200680001046194632463B46CDE9000115F06AFD02460B46DDE9080115F0B0FB5246CDE923
:2006A00008015B463046394615F0A8FB02460B46DDE9060115F0A2FB02460B46DDE900018B
:2006C00015F050FD02460B46DDE9080115F096FBDDE90A2315F046FDDDE90423CDE90601E5
:2006E0001046194615F03EFD02460B4606460F4615F038FD6EA3D3E9002382468B46304692
:20070000394615F02FFD6CA3D3E9002315F078FB32463B4615F026FD69A3D3E9002315F0B2
:200720006FFB32463B4615F01DFD67A3D3E9002315F066FB32463B4615F014FD64A3D3E916
:20074000002315F05DFB32463B4615F00BFD62A3D3E9002315F054FB02460B46504659460D
:2007600015F000FDDDE9042306460F46DDE9000115F046FBDDE9062315F0F4FC32463B46FF
:2007800015F03EFBDDE9006782468B4632463B463046394615F0E6FC00225C4BCDE90801F8
:2007A00015F02EFB52465B4615F02AFB02980F460646DDE9000132463B4615F0D3FC324661
:2007C0003B46CDE90001DDE9060115F0CBFC0022CDE906014D4B3046394615F00FFBDDE907
:2007E000082315F00BFB02460B465046594615F005FBDDE9042315F0B5FC02460B46DDE9EE
:20080000060115F0FDFA82468B46DDE9000152465B4615F0F5FA32A3D3E9002302980F46A5
:20082000064615F09FFC30A3D3E90023CDE904013046394615F096FCDDE90023CDE906012D
:200840003046394615F0DAFA02460B465046594615F0D4FA26A3D3E9002315F083FC0246B5
:200860000B46DDE9060115F0CBFADDF834C0284BCDF818C06344D3E9002315F0C1FACDE9BB
:2008800000010C9815F008FC06460F46DDE90401204BDDF818C09C44DDE90023DCE900ABED
:2008A00015F0AEFA52465B4636E000BFAFF30080EF4E454A287ECA3F65DBC9934A86CD3F68
:2008C00001411DA96074D13F4D268F515555D53FFFAB6FDBB66DDB3F033333333333E33FC6
:2008E000000000E009C7EE3FF5015B14E02F3EBEFD033ADC09C7EE3F000040438E980300EC
:2009000079B60B00207A01000000F03F00000840107A0100007A0100CDE906AB15F070FAAF
:2009200032463B4615F06CFA029832463B4682468B4615F063FADDE9062315F05FFADDE9B2
:20094000042315F05BFA02460B46DDE9000115F055FACDE9020108F1FF3858EA09030CBF60
:20096000D54BD64B0022CDE904230023CDE900450093DDE90067204632463B46294615F086
:200980003DFA52465B4615F0EDFBDDE90223804689462046294615F0E5FB02460B464046A1
:2009A000494615F02DFA04460D465246304639465B46CDE9024515F0D5FB06460F462046D8
:2009C0003B462946324615F01BFABD4B824699428946884640F3138101F13F4303F5E00337
:2009E000034340F0E581A0A3D3E90023DDE9020115F006FA324604460D463B465046494670
:200A000015F0FCF902460B462046294615F03AFE002840F0CD814C462015A0F2FE304FF4C1
:200A2000801101414144C1F30A50A64CA0F2FF35C1F3130BC0F5826003302C414BF4801BB5
:200A400021EA040300224BFA00FB3946304615F0D5F906460F46DDE902018BEAE87B0BEB22
:200A6000D87B32463B464FEA0B5A15F0C9F980A3D3E90023002420460D4615F073FB3246FB
:200A8000804689463B462046294615F0B7F902460B46DDE9020115F0B1F977A3D3E90023AC
:200AA00015F060FB76A3D3E9002306460F462046294615F057FB02460B463046394615F07E
:200AC0009FF906460F4632463B464046494615F097F942464B4604460D4615F08FF90246AF
:200AE0000B463046394615F089F92246804689462B462046294615F035FB63A3D3E90023CC
:200B000006460F4615F02EFB61A3D3E9002315F075F932463B4615F025FB5FA3D3E90023B1
:200B200015F06EF932463B4615F01CFB5CA3D3E9002315F063F932463B4615F013FB5AA3EC
:200B4000D3E9002315F05CF932463B4615F00AFB02460B462046294615F050F906460F46FC
:200B600032463B462046294615F0FCFA0022CDE900014FF080433046394615F03FF9024657
:200B80000B46DDE9000115F017FC424606460F464B462046294615F0E5FA42464B4615F094
:200BA0002FF902460B463046394615F027F922462B4615F023F902460B4600203F4915F01A
:200BC0001DF98A44BAF5801F0246C0F227815346DDE9040115F0C6FA03463EE4BCF1000FF1
:200BE000FFF66EAC0023194637E40B46334934E433461046314615F0B5FA03462DE4324B93
:200C000021F000449C4240F3FA80304B0B4403430CD132463B4615F0F1F802460B46DDE9C1
:200C2000020115F01BFD00283FF4F6AE20A3D3E90023DDE9040115F095FA1DA3D3E90023F5
:200C400015F090FA034608E4BCF1000FCADA234605F1004101E402460B460020174915F0CD
:200C6000ABFB42E4AFF30080FE822B654715973C00000000432EE63FEF39FAFE422EE63FFC
:200C8000396CA80C615C20BED0A4BE726937663EF16BD2C541BDBB3E2CDE25AF6A56113FA0
:200CA00093BDBE166CC1663F3E5555555555C53F59F3F8C21F6EA5010000F0BF0000F03F3C
:200CC000FFFF8F40FFFF0F00FFCB904000346F3F634B9A4582DD634B9A453FF7EDAB002255
:200CE000604B15F08BF854A3D3E9002306460F4615F038FA52A3D3E90023CDE90001304612
:200D0000394615F02FFA3246CDE902013B463046394615F027FA002282468B4630463946A9
:200D2000514B15F01FFA02460B4647A1D1E9000115F064F832463B4615F014FA02460B46B7
:200D400000204A4915F05AF802460B465046594615F008FA3EA3D3E9002315F003FA0246AA
:200D60000B46DDE9020115F049F806460F46DDE9000132463B4615F043F8DDE90023002069
:200D800082468B4615F03AF802460B463046394615F034F8CDE90201DDE50026B44637E40E
:200DA000334600202F4915F007FB0346FFF755BB29A3D3E90023DDE9040115F0D3F926A3BC
:200DC000D3E9002315F0CEF90346FFF746BBB8F1010F03467FF441AB01F10041FFF73DBBA6
:200DE00000297FF446ABC3F58263033347FA03F000FA03F3BB4217D08846FFF710BB1B4B96
:200E00009C423FF709AEDDE90023924693462EE64FF480264FF0010CFFF7FABB5A4600F0E9
:200E200027F802460B46D3E600F00100C0F10208FFF7F5BAAFF30080000000604715F73FDC
:200E400044DF5DF80BAE543E555555555555D53FFE822B654715F73F9C7500883CE4377EAD
:200E6000FEFFEF3F0000F03F0000D03F0000E03FF8B5C1F30A5604460D460B46174616BB0D
:200E800021F00043034332D00022314B15F06AF9304A044697420D460B4637DB40F2FE72BB
:200EA000C1F30A56363E3E44964215DD24A1D1E9000122462B4614F095FF21A3D3E90023CA
:200EC00015F050F9F8BD40F2FF72964224D040F2FE723E449642E9DC002E09DD23F0FF4376
:200EE00023F4E00343EA065520462946F8BDF8BD16F1350F15DA4CF250339F42D6DC12A1F0
:200F0000D1E9000122462B4614F06CFF0EA3D3E9002315F027F9F8BD02460B4614F070FF58
:200F2000F8BD23F0FF4323F4E003363643EA0655204629460022084B15F014F9F8BD00BFE9
:200F40009C7500883CE4377E59F3F8C21F6EA50100005043B03CFFFF0000903CAFF300807F
:200F6000044B1A68B2F5806F03D01B689B0500D4FEE7704728ED00E0FEE700BFFEE700BF67
:200F800008B508F023FB104A104B9A420DD2D0430F4918440B4620F003000430084453F818
:200FA000041B834242F8041BF9D10A480A494FF000028842B8BF40F8042BFADB04F0B2FD24
:200FC000FFF7CEFF08BD00BF0000002063090020E0C301006809002096340020F0B5002733
:200FE00006463C463D4683B0304605F0CDFD0195019B9C4206DD00BF019B01330193019B86
:201000009C42F8DC304605F0D5FD0195019BC4F5C874A34206DA00BF019B01330193019B36
:20102000A342F8DB0137B7F5487F06D0B7F5C87FCCBFC7F548743C46D6E703B0F0BD00BF23
:2010400038B5194D194C2B6820465B68012198472B6801210A461B682046984708F08CFBCF
:2010600002F0FAFD02F07CFD00F0F2FD05F0E2FD05F0B6FD0120FFF7B1FF0D490D4A0E48F7
:2010800009680123136003600B691020A2F5FF521268984708F074FB02F078F8BDE838401A
:2010A0000020FFF79BBF00BFD801001000400340B00100100C4009400800094008B541F2FE
:2010C000342003F017FA02F05DFB05F0C9FC074802F080FB0648082102F022FA05F0E0FBA3
:2010E000BDE808400020FFF779BF00BF0D6A0000DC2C0020F0B585B0002602A80821294C0F
:201100000096019602F00CFA9DF80F309DF80E70E56A43EA072748F2A5110220A847394699
:201120000320A84731460120A847636B02A908221D4D0B209847A46A01206946A0472B68A7
:20114000022B1ADC022001A9A04778B92B68022B08DC0021154805F0EBF90020FFF73EFF3A
:2011600005B0F0BD1248019909F08CFA2B68022BEFDD104809F086FAEBE70F490F4A104862
:2011800009F080FA0F4809F07DFA2B68022BD9DD09490A4A0A4809F075FA00990A4809F05B
:2011A00071FACFE7407B0100E8060020D0070020907A01006CA80100507A0100587A01008F
:2011C000407A0100687A0100807A010002F074BB10B582B002AC04F8010D134620460A4697
:2011E000012100F0CDFF02B010BD00BF0C4B18708AB110B4541EE4B20C44013911F8010F4A
:20120000A14203F8010FF9D1511CC9B204485DF8044B00F055BE511CC9B2014800F050BE0C
:201220009009002029B1CC230139C9B243540029FAD17047813801289ABF024B186800200D
:20124000704700BFF0090020024B032202481A6005F072BDF0090020D07A010010B5044632
:2012600082B07721002001F071F84CB98DF807400DF107010122F420FFF7B8FF02B010BDF0
:2012800025238DF80730F3E730B5802885B016D0812810D11D4C206878B151B30120FFF709
:2012A000DDFF1B4803211B4A002304F0CBFD0220206005B030BD154B186805B030BD134C62
:2012C000012500207721256001F040F8124918228820FFF77DFF04A9B62301F8013D2A46A6
:2012E000E020FFF783FF0020FFF7B8FF206805B030BD0748019104F0CDFD01990846FFF702
:20130000ADFF01231846236005B030BDF0090020D009002049120000B8090020F8B5544BE0
:201320001B68032B40F09C80431E012B00F29880504D062200210446284616F087F80020D6
:20134000772101F003F82946F7200622FFF740FF00287ED0E978484A2B796879090341EA01
:201360000311168841EA1013C6EB131101FB01F1B2F9047076000913B2F90200C6EBD303C5
:2013800007FB01F100FB03F0891301EBE0204710A7F57A4E4FEAAE0606FB06F6B2F908107B
:2013A000B2F90A70731301FB0EF103FB07F3B2F90E70491007FB0EF701EBE303B2F806C0C4
:2013C0009B14B2F910E003F50043F61279000CFB03F30EFB06172E786978B2F90CE095F839
:2013E00002C036034FEA0E4546EA0111DB13906105EBA70741EA1C1127D040F6354549421D
:20140000A1EB273105FB01F101F1434101F5A0010029B3BFB1FBF3F34900B1FBF3F35B0086
:20142000D90801FB01F1B2F91450B2F916609F08490B05FB07F501FB06F1B2F912606A1329
:2014400002EB2131314403EB2113012C0BD01846F8BD28460621FFF7E5FE4FF00040F8BDF9
:201460004FF00040F8BD00EB800080300012F8BDF0090020B0090020B809002081380128A1
:201480009ABF024B18680020704700BF180A0020024B032202481A6005F04EBC180A0020D7
:2014A000E07A010010B504464421002000F04EFF002C064B14BF1024002402201C8019463B
:2014C000BDE810400246FFF791BE00BF602C002010B5802882B017D0812811D11D4C20681D
:2014E00080B1002929D00120FFF7DCFF1A4824211A4A002304F0A6FC0220206002B010BDC2
:20150000144B186802B010BD154C0B2023689B6B984723680B209B694FF480419847236849
:201520004FF08041DB690B2098470020FFF7BAFF084B0120186002B010BD0748019104F04E
:20154000A9FC01990846FFF7ADFF01231846236002B010BD180A0020F809002091140000D0
:20156000B401001038B5344B1B68032B07D1820705D003280FD0012805D0022807D04FF00B
:201580000043184638BD2D4B1B68184638BD2C4B1B68184638BD2B4D44210446002000F0E3
:2015A000D5FE294604200222FFF712FE70BB264D25480421FFF736FE00202C786B78A97879
:2015C000EA7843EA042442EA01220028D7D0900815F06CF94FF0745115F0BCF91B4915F00D
:2015E000B9F915F007FB154B154D1860A00815F05DF94FF0745115F0ADF9144915F0AAF941
:2016000015F0F8FA01232860184638BD2B885BBA2B805B040C4DCBD5012029460222FFF75F
:20162000D7FD0028C4D02046A91C0222FFF7D0FD0028C2D1BCE700BF180A0020F40900208C
:20164000200A0020602C00201C0A002000007A44014B1868704700BF440A002070B506466F
:201660000E4C82B000204521256800F06FFE76B905F002054FF486532560ADF806300DF1C9
:20168000060102220120FFF7B1FD02B070BD41F2C2020123ADF806202360F0E7440A0020CD
:2016A00000B5002083B0452100F050FE01200DF106010222FFF78CFDBDF90630002B08DBBB
:2016C00008481021084A002304F0BCFB03B05DF804FB064805F030FB054B02221A6003B053
:2016E0005DF804FB240A0020A1160000007B0100440A0020802810B50DD0812809D10C4688
:2017000071B90D4804F0C6FB2046FFF7A7FF204610BD002010BD0020FFF7A0FF002010BDD1
:201720000120FFF79BFF04481021044A002304F089FB012010BD00BF240A0020A1160000E0
:20174000813801289ABF024B18680020704700BF680A002038B5114C114A23780321116084
:20176000ABB1104D0020432100F0F0FD0421284600F07AFC20700020014600F0E7FD2A88D9
:201780006B880948094952BA5BBA02800B80012323700748BDE8384005F0CEBA782C002021
:2017A000680A00206C0A0020622C0020642C0020107B010030B5802883B023D081281DD1CD
:2017C000254C2068E0B100293DD0244D2B785BB14321002000F0BAFD002000F00DFC28704D
:2017E0000020014600F0B2FD1D4803211D4A002304F028FB0220206003B030BD164B186896
:2018000003B030BD0024184B184D2146042218481C802C8015F01AFE2046432100F096FD9D
:2018200002A91023022021F8023D0246FFF7DEFC0A4B21461870204600F088FD064B0120A7
:20184000186003B030BD064804F024FB01231846236003B030BD00BF680A0020782C002055
:20186000480A002055170000642C0020622C00206C0A002008B5174B1B78032B28D8DFE8EF
:2018800003F01E150C0214F007FC00224FF07D5314F068FC14F000FF08BD14F0FDFB00228E
:2018A0000D4B14F05FFC14F0F7FE08BD14F0F4FB00220A4B14F056FC14F0EEFE08BD14F03A
:2018C000EBFB0022064B14F04DFC14F0E5FE08BD002008BD7C2C00200000303F0000203F3B
:2018E0000000103F813801289ABF024B18680020704700BF980A0020024B022202481A6004
:2019000005F01ABA980A0020287B010010B50C4C0120682100F01AFD3F23214601226C2052
:201920002370FFF763FC21464F236B2001222370FFF75CFCBDE810400020014600F006BD48
:201940007D2C0020802838B50BD0812806D111F03F012DD1294B1B68DB043BD4284B1868B7
:2019600038BD284C072023689B6B9847236807209B694FF40051984723684FF0804107208C
:20198000DB69984723680C20DB6B984723680C209B6A4FF480614FF4407298471A4A4FF4ED
:2019A00080501A4B1060164900221A60086838BD1648174B124D4FF48052016001241A60EE
:2019C00014480821144A00232C6004F03BFA2C60204638BD0D4B0F48196004F05BFAFFF7FE
:2019E00095FF0E4A136813F00103FBD1044A06494FF4805013600860106838BD80200240D3
:201A0000980A0020B4010010A02002409C0A002090200240780A0020491A00000428004014
:201A200010B5084C0120682100F090FC214601223A20FFF7CDFB0020014600F087FC207853
:201A400010BD00BF792C00202DE9F041354C236813F0380F15D1344D03F03F042E7856B946
:201A60004CBBFFF753FFBDE8F04130480521304A002304F0E7B9E3B22B70002CF1D02D4FD9
:201A80003DE02D4E3278002AE5D02C4F0025012068213D7000F05AFC394601221C20FFF714
:201AA000A5FB07462946284600F050FC2368002FD1D03570CFE71F4F0120682100F046FC20
:201AC0000923394601226B203B70FFF78FFB3F23394601226C203B70FFF788FB174901224B
:201AE0001C202E70FFF782FB394601223A20FFF76FFB3046314600F029FCE3B22B70DB43ED
:201B0000012068213B7000F021FC012209496C20FFF76CFB0020014600F018FC084807F053
:201B200033FEA0E79C0A00207B2C0020780A0020F91800007D2C00207C2C00207A2C002056
:201B400080380100014B00221A7070477E2C0020154B70B5154800241C7001F0FBFF144A78
:201B6000144D1368296823F0010313600B6A204698472B6820469B6A98472B6820461B6B58
:201B800098470D4B01210D4A196013689B07FCD50B4C152023689B6B9847236815201B6AED
:201BA0000021BDE8704018477E2C0020400500200C000140B80100102820086028200840CB
:201BC000B401001010B5064C042023685B699847236804205B6B98470128F9D110BD00BF04
:201BE000B8010010FFF7EEBF032801D000F016B908B5FFF7ADFF104B00219B688120984760
:201C00000E4B00219B68812098470D4B00219B68812098470B4B00219B68812098470A4B7C
:201C200081209B6800219847084B4FF480521A60BDE8084000F0F2B8D07A0100007B0100D0
:201C4000E07A0100107B0100287B0100A020024070B507F091FD0646FFF7B4FF3C4B4FF48E
:201C6000A0601B68DB6998473A4B01213A4A196013689B07FCD5394C00F0A2F8FFF762FFC6
:201C8000002007F07BF8364801F05EFF236819209B6B984723684FF4005119209B6998470A
:201CA000236818209B6B984723684FF4005118209B699847236817209B6B984723684FF4CD
:201CC000005117209B69984723681B209B6B984723684FF400511B209B69984723681E20E8
:201CE0009B6B984723684FF480411E209B69984723680D20DB6B98471A4A4FF400552368EB
:201D0000156000214FF480729B6A0D209847236802209B6B9847236829469B690220984756
:201D2000236803209B6B9847236829469B690320984723681D209B6B9847236829469B6965
:201D40001D20984706B170BDBDE8704007F018BDB80100102820086028200840B401001094
:201D600054050020A020024010B5094B09481B685B68984710F00C0F044605D0064B0422A8
:201D80001A60022007F000FDB4FA84F0400910BDAC010010002000400428004008B5064BE4
:201DA00002201B685B6B9847012803BF034B186800F00100002008BDB801001060200840B9
:201DC00070B5104D02202B685B6998472B6802205B6B9847012804460A4BF7D11B684FF479
:201DE0004070DB699847084B084A1C6013689B07FCD5074B07481B6807491B680122BDE842
:201E000070401847B80100102820086028200840AC01001000200040006CDC02214B10B512
:201E2000FF221A70FFF7BAFF20B11F491F4A00230B6013601E4B4FF440701B681B6A984762
:201E40001C4B01211C4A196013689B07FCD51B4C082023689B6B984723684FF400510820E6
:201E60009B699847236809209B6B984723684FF4005109209B699847236805209B6B984726
:201E800023684FF4804105209B699847236806209B6B9847236806209B694FF48041BDE8B7
:201EA000104018475E0900200428004010040542B80100102820086028200840B401001057
:201EC0002DE9F0470646484B48481B78484A5B00036033780F46136001F056F9DFF8148144
:201EE00000F5CC551935D8F80030424C5B0624D403232360022007F047FC01F045F900F56E
:201F0000CC5519352368D8071FD4FFF72DFF012F03463DD9B0B1DFF8D880364D013607F102
:201F2000FF39022416F8012B631E4B45C8F8002011D3BC422ED20134F4E701F025F9401BBC
:201F40000028D0DB0020BDE8F08701F01DF9401B0028D7DBF6E701232B60022007F014FC81
:201F600001F012F900F5CC5A0AF1190A2B68D90707D4FFF7F9FEBC42034609D20028DAD1FC
:201F8000E0E701F001F9CAEB00000028EEDBD9E7002BD7D0174C05232360022007F0F4FB41
:201FA00001F0F2F800F5CC5519352368DA0711D4FFF7DAFE044601F0E7F80E4E00F5CC5537
:201FC000193533685B060BD501F0DEF8401B0028F7DBB7E701F0D8F8401B0028E5DBB1E781
:201FE0002046BDE8F08700BF7F2C002000280040082800400428004070B5174B17491B7817
:20200000174A5B000B60106001F0BEF8154E00F5CC5519353368134C5A0612D407232360CE
:20202000022007F0B1FB01F0AFF800F5CC5519352368DB070CD501F0A7F8401B0028F7DBAC
:2020400004E001F0A1F8401B0028E3DB002070BDBDE87040FFF788BE7F2C002000280040C0
:2020600008280040042800402DE9F04F404B414A1B7883B05B0043F00103136005460E46AF
:2020800001F082F83C4F00F5CC5419343B683A4A13F040032BD11746BA460B211160022063
:2020A000DFF8D8901C4606F1FF3807F06DFB012244452CDA02B301F067F800F5CC5B0BF123
:2020C000190B3B68D9071BD4FFF74EFE02460028EED00192D9F80010092329550220CAF8F8
:2020E000003007F051FB631CDCB2019AE0E701F04BF8001B0028C9DB002003B0BDE8F08FEC
:2021000001F042F8CBEB00000028DADBF4E7002AF2D0194C05232360022007F035FB01F0F0
:2021200033F800F5CC5719372368DA0717D4FFF71BFE0028E0D0114B35441B680E4E05F81D
:20214000013C01F021F800F5CC54193433685B060BD501F019F8001B0028F7DBCCE701F03F
:2021600013F8C01B0028DFDBC6E70120C5E700BF7F2C00200028004004280040082800404F
:202180002DE9F04F81466D4D6D4E28786D4C4000306099F8000083B020608A4616461F46B0
:2021A00000F0F2FFDFF8A0B100F5CC5808F11908DBF80030644C5A063BD4032323600220F6
:2021C00007F0E2FA00F0E0FF00F5CC5808F119082368DB0737D4FFF7C7FDBAF1010F0346F4
:2021E0003FD960B309EB0A03DFF858B1DFF85881019309F101044FF0010A14F8013B0220DC
:20220000CBF80030C8F800A007F0BEFA00F0BCFF00F5CC5909F11909D8F80030D80719D40F
:20222000FFF7A2FD019A034694421AD00028E4D105E000F0A9FFC8EB00000028B8DB00207D
:2022400003B0BDE8F08F00F09FFFC8EB00000028BEDBF4E700F098FFC9EB00000028DBDBB1
:20226000EDE70193002BEAD037492A780C463448520042F001020B2502600D60022007F082
:2022800083FAA24607F1FF390025DFF8B880019B03E0FFF769FD034698B9A9451ED9002BF0
:2022A000CDD000F071FF00F5CC5B0BF1190B2368D907EED500F068FFCBEB00000028F6DBB1
:2022C000BDE70193D8F80010092271550220CAF8002007F059FA0135019BDEE7002BAED067
:2022E000194C05232360022007F04EFA00F04CFF00F5CC5519352368DA0705D500F044FF55
:20230000401B0028F7DB9AE7FFF72EFD002896D00C4B3E441B680C4D06F8013C00F034FF25
:2023200000F5CC5419342B685B0601D4012087E700F02AFF001B0028F5DB80E77F2C002085
:202340000028004008280040042800402E4B10B504461970FFF722FDB0B12C4B1A78A242C5
:2023600018D02B482B4900221C7002600A601B788BB1012B2BD0BDE81040274B27481B68C5
:2023800027491B6801221847FFF71AFD1F4B1A78A242E6D110BD234C052023684FF4C041F4
:2023A0009B699847236806209B694FF4C04198472368052106221948DB6C9847236808204F
:2023C0009B6B9847236809209B6B9847D3E7154C082023684FF4C0419B69984723680920D6
:2023E0009B694FF4C04198472368082109220B48DB6C9847236805209B6B98472368062018
:202400009B6B9847B7E700BF7F2C00205E0900200428004010040542AC0100100020004044
:20242000006CDC02B40100100120704708B501F0B9FC30B1034B5888A0F10200B0FA80F096
:20244000400908BD6805002008B501F0ABFC30B1044B5B88022B0CBF0120022008BD022057
:2024600008BD00BF6805002030B583B001F004FF044601F097FC08B903B030BD0E4801A910
:2024800001F098FC0128F7D100F07EFE638803F44063002BF0D16FF03F052D1A06E000F029
:2024A0008FFF638803F44063002BE5D100F06CFEE842F4D4E0E700BF0100010470B582B0F9
:2024C00001F070FC234C10BB00256580E37B214E23F01003E373E37B304643F02003E37392
:2024E000E37B01A943F04003E373E37B63F07F03E373A37F5BB2C3F5FF6307339BB2238309
:2025000001F058FC012809D0284602B070BD6388022B08BF0120D7D102B070BD00F034FE7E
:2025200073889BB2022B0DD06FF03F052D1A05E000F046FF63889BB2022B03D000F024FEFB
:20254000E842F5D4608880B2A0F10200B0FA80F04009E1E76805002008B50346B32994BFEE
:202560000A46B4220248194614F096FE002008BDFA0C002070B50E4D0E4E2C68002006E073
:202580002379022B06D024682B68A3420ED02379032BF5D133780120002BF4D1064803F02D
:2025A000E7FF24682B680120A342F0D170BD00BFAC0A0020832C00208806002038B50D4ACC
:2025C0000024136819681C725C721C71116002F0B7F80546BFF35F8F074B1A7812B11C70C2
:2025E000FFF76CFFBFF35F8F2846BDE8384002F0AFB800BFB40A0020822C00202DE9F04342
:202600002E4B83B080460F461D6800F0BDFD2C4E361A03E000F0B8FDC6420AD52C79022CB8
:20262000F8D0284B0020032C187008D003B0BDE8F0832C79234B0020032C1870F6D1B5F887
:202640000890B9F1060F27DDA9F10606BE4223DC0A3540462946324614F01EFEDFF87480E3
:20266000AA5DAB1988F800205B79A9F10501164F0422294401A83B7014F00EFE019801F095
:2026800085FE124B124A1B7810605BB1FFF796FF304603B0BDE8F083FFF790FF002003B0CB
:2026A000BDE8F08398F80010042049B289B205F091F83978204605F08DF8E7E7B40A00204D
:2026C000E2FAFFFF802C0020842C0020832C0020F40D0020600900200C2801D0012070472E
:2026E000042A01D0022070470029FBD0024B00201B680B60704700BFF40D002070B582B0C5
:2027000001F050FB002837D01D4C6388022B33D11C4E00F039FD7388022B0BD11A4D2D1A87
:2027200004E000F04DFE7388022B03D100F02CFDE842F6D401A9154801F03CFB00F024FD31
:202740006FF03F052D1A08E06388022B09D100F01BFDC54205D500F033FE01F023FB002874
:20276000F2D16088A0F55050043880B201288CBF0020012002B070BD012002B070BD00BFB8
:2027800068050020D805002000FEFFFF0100010410B5114B114C1A680521237E84F8241036
:2027A000928882B003F0F00343F00A03204601A96283237601F0FEFA012802D0002002B063
:2027C00010BD204601F048FBA0F10100B0FA80F0400902B010BD00BF70060020B0050020F4
:2027E00000B583B00A4801A901F0E4FA012803D0002003B05DF804FB054801F02DFBA0F10C
:202800000100B0FA80F0400903B05DF804FB00BF9805002008B5FFF7BBFF012801D000204A
:2028200008BDFFF7DDFF0128F9D1FFF747FEC0B208BD00BF08B501F051FE012812D0FFF7DF
:202840005DFF01F003FC002210460749074B4A8003F510711A799033022A08BF03F88C0CF3
:202860008B42F7D1012008BD68050020B80A00202DE9F84F01F032FE012818D001F092FA62
:2028800088B901F015FA01F08DFA0446002840F08E8001F0F9FA012805460BD001F0D6FBDA
:2028A0000020BDE8F88F574B5B88022BE9D10120BDE8F88F01F044FC53494FF423725348D3
:2028C00014F0EAFCDFF88CB15148DFF88C91DFF88CC1504F504E5149514B524A04704FF087
:2028E000020A8BF800504FF003084FF0040E052406204D4D89F800A08CF8008087F800E0F1
:20290000347008701A602B684749002BFBD00020464A474BDFF84881086052F81CCC52F842
:2029200018EC52F8146C52F8105C52F80C4C52F8207C12E90300203343F8207C43F81CCC40
:2029400043F818EC43F8146C43F8105C43F80C4C43F8080C43F8041C434502F12002DCD14F
:20296000344B354ADFF8FCC0DFF8FCE0334934482D4C344F344E00251862C3F824C001203E
:20298000C3F828E0DF621E632560116007F094F92E4807F0F5F8224613682349002BFBD099
:2029A00000230B6001F0D6FA01287FF477AF01F0F5FB2748002103460E46022588245A7952
:2029C0001E7102F0FC0265F383025A71DC80903343509031B1F5107F1D4AF0D1C2F8B02175
:2029E00001F07EF9FFF7D4FE012802D00020BDE8F88FFFF7F5FE0128F8D1BDE8F84FFFF7A3
:202A00005DBD00BF680500203C8201001C04002190030021AE030021AB0300218103002156
:202A2000C0030021BD0500211C100440A87B010000C0002180C600210010044001010E048B
:202A40006039536311161216546B0070B0050020B80A002079030021750300217703002121
:202A6000A0C600212010101A136F236E70B582B0072800F2AC80DFE800F0212AAAAA5E6B9F
:202A800070045E4B197001F08DF900285DD05C4B5B88022B59D1FFF731FE01280CBF0024A6
:202AA000032401F06FFB012800F0A080FFF7B2FE01280CBF2046032002B070BD012900F03F
:202AC0008E80002900F08580022002B070BD2129FAD84C4C4FF47A72208AE38902FB03F3DD
:202AE00002FB00F2A3F5522302F57F42FF32A3F69533454803EB2243A0FB0323CAB2C3F3BD
:202B000087139A4221D0C82303FB01F13F4801F5522303F69533A0FB03213D4A890902FBEB
:202B200001331B04A0FB03233A488AB29B092382E2810284A7E731F00403C5D1364BC1F310
:202B400080011A7819708A429DD1002002B070BD31F00103B8D1C8B2AEE74FF6FF742F4DAF
:202B6000AE88A64208BFFF2309D02A460023083290880133A042DBB2F9D1013BDBB255F80D
:202B80003330264C99429FDB236899429CDC0191FFF76AFC4FF6FF739E4201992CD02246AA
:202BA0001C460023083290880133A042DBB2F9D1013BDBB255F8332005EBC300914203F1EE
:202BC000FF3316DD5A1CF5D1FFF724FEBDE7012072E70191FFF72EFE019908466CE7FFF779
:202BE00047FE012814BF0320002065E701F066FB5CE70B4B1860E7E70023D9E75F09002069
:202C000068050020980500201F85EB51D34D621018FCFFFFB0050020832C0020C8840100F5
:202C20007006002099B1F0B50C4683B0172800F2B980DFE800F05E9DB7B7950E8B582978D9
:202C400086B7B7B70E7E126BB78274700E91022070470020086003B0F0BD4FF6FF705B4DE7
:202C6000AB88834208BFFF2309D02A4600230832918801338142DBB2F9D1013BDBB255F850
:202C8000333000202360E6E701F08CF8002840F08D80FFF7EDFD012840F0938007460A25BF
:202CA00080266B1E13F0FF054FF000014FF004020FD001A814F0CAFB40F2034301A8694638
:202CC000ADF8043001F076F818B19DF802607306E7D0002F72D176B216F1800F26600CBF4B
:202CE00003200020B7E73A4B002093F900300B60B1E701F057F830B1364B5888A0F102007A
:202D0000B0FA80F0400920600020A4E72F4B00201B680B609FE73E230B6000209BE7A023E6
:202D20000B60002097E72C4B00201B785BB20B6091E721230B6000208DE706230B60002079
:202D400089E7264B00201B780B6084E7244B00201B681B680B607EE718230B6000207AE77D
:202D60000020204B08601B78F3B104230B6072E71D494FF47A72CB89098A02FB03F302FBD2
:202D800001F2A3F5522302F57F42FF32A3F69533164903EB2243A1FB0323C3F387132360A2
:202DA000002058E7012056E7184654E7094B5B88022B08BF00273FF472AF6AE7FFF73AFD99
:202DC00089E76FF07F032360032044E7C88401005F0900206805002060090020842C002016
:202DE00070060020832C0020980500201F85EB5170B582B0044600F0D5FF28B3244B5B883F
:202E0000022B08BF00251FD12249221DA31C224C92B29BB2100A2382E16148700A70FFF718
:202E20006DFC002001F0FAF9204601A900F0C2FF88B9012601F010FA00236380FFF73EFBCC
:202E4000E5B9304602B070BDFFF712FD01281AD0012002B070BD00F0B3FA104E317800E0E3
:202E600099B163880C4A03F44063002BF8D0508880B2B0F5505618BF0126DBE7FFF7DAFC59
:202E8000304602B070BD0546BEE700F00BFDE5E768050020F80C0020D8050020832C0020AC
:202EA00010B50C46B32C014694BF2246B422044814F0F2F92046BDE81040FFF799BF00BFA1
:202EC000FA0C002030B583B001F008FB01281BD000F068FFD0B1154B5B88022B1FD0002550
:202EE0008024134801A900F065FF012803D19DF806406306F5D07DB90E4B64B293F900009E
:202F0000A042D4BF0020012003B030BDFFF7B0FC012806D10546E3E7FFF78CFCECE7012032
:202F2000F2E7FFF787FC0120EEE700BFD8050020010003045F09002010B500F033FF80B1E5
:202F40000F4B5B88022B0BD10E4C237853B90E4B1B689B0601D5012323702078C0B210BD49
:202F6000002010BDFFF7AEFFB0FA80F0400920702378002BF1D1044B6FF020021A60ECE729
:202F800068050020802C002008100440F8B51F4800F0DAFD06F06CFB012802D000242046BF
:202FA000F8BD1B4C002120464FF4107214F04EFA40F25F30174B184ADFF878C0174DDFF88E
:202FC00078E0174F4FF400510026CCF8004083E85000AB62C5F82CE03884D0811182FFF74E
:202FE00047FC01280446D9D10E4B0F4A1E6013680E4843F02003136001F044F901F048F947
:2030000031460B4803F094FAC9E700BF5C060020B80A0020AC0A0020980500206805002072
:20302000B0050020081004400C100440787B010088060020B40A0020A00A002010B5064C9E
:20304000042023685B699847236804205B6B98470128F9D110BD00BFB8010010F8B51A4A71
:2030600000200021C2E90001184B04201B685B6B9847012801D0FFF7E1FF144B00201B68E2
:20308000DB699847124B0121124A196013689B07FCD5114A11491368096823F4807323F00D
:2030A00001030F4C13600B6820460E49984740F221200D4D0D490E4B042731260122276087
:2030C0002E6008601A60F8BD68090020B801001028200860282008400C000140C80100100B
:2030E00000000140002100043C000140080001400400244310B40949094C0B682268086861
:203100008342FAD1DB01074903EB52620023C1E900235DF8044BD1E90001704708200940DA
:203120000C2009406809002010B50B490B4C0B68226808688342FAD1DB01094903EB52624C
:203140000023C1E9002303F057F800B910BDBDE8104003F031B800BF082009400C20094041
:203160006809002010B506F007FB034B1C6808B906F006FB204610BD08200940704700BF5D
:203180000146012000F052B806F08CB92DE9F04106F0F2FA1D4E1E4B1E4F32680124002544
:2031A00080464FF480314FF480703D601C60186019601368284623219847336820461B6888
:2031C00024219847336802201B6825219847124A1249136843F4E02313600D6006F062F9C9
:2031E0000F4B1049104A1B6800F50070086014603C601B6914209847B8F1000F01D0BDE89D
:20320000F081BDE8F04106F0BBBA00BF8401001004200940000024430020094008200940FA
:20322000B00100101C200940A0022443431E012B10B41BD9042802D05DF8044B704700237E
:203240001A4610F004001CBF0E4C216013B10E4B0121196012B10D4B01221A600028EBD001
:203260000B4B01221A605DF8044B704710F0010302D0084A0123116010F00202E1D0064C3C
:203280002160DEE72020094080022443A0022443C0022443182009401C200940014B186872
:2032A000704700BFB00D002008B5FFF76DFF184B1860FFF739FF174B1B686BB9164B1B68A6
:2032C000E3B9164B1B6833B11549164B00204FF4803208601A6008BD124B4FF480721A6003
:2032E00006F0E0F800F205200F4B20F4FF7020F001001860084B1B68002BE2D00B49094B28
:203300000020012208601A6003F056F9D9E700BFB00D0020A000244380002443C0002443D5
:20332000C0022443042009401C20094080022443820702D5034B01221A60C30700D47047E9
:2033400006F01EBA000C084008B506F015FA074B1A68012A03BF0649022219600022002892
:2033600014BF104642F0010008BD00BF000C084051E5CC1A03490448044B012208601A6011
:20338000704700BF00000840FFFF0F00000C084038B5FFF7D9FF064C064D0749074A0123E9
:2033A00025600B601360BDE83840FFF7C1BF00BF00000840FFFF0F000C0008400401004367
:2033C00003490448044B012208601A60704700BF00000840FFFF0F000C00084008B5FFF72F
:2033E000D7FFFEE708B5064803F01AFD30B1054B0121054A196013689B06FCD508BD00BF71
:20340000B40D0020000222431410094070B5054606F0B2F90B4C294606460B4803F002FD8F
:20342000FFF7E0FF236868681B689847236868689B6898471128F9D106B170BDBDE8704081
:2034400006F09EB9A0010010B40D002038B5044648B9134803F0E4FC28B1234605C81343C2
:203460000028FBD19BB90F490F480B680F4D104C0068002223F4C0530B602A602260C368D4
:20348000012098470B4A13689B06FCD438BD054A136823F4C05343F40063136038BD00BF41
:2034A000B40D002004100940A001001080012243000222431410094038B5054606F05CF9E0
:2034C00004462946054803F0F1FC0020FFF7BEFF04B138BDBDE8384006F052B9B40D00208A
:2034E00070B50446B0B10078C0B1A9B10025661804E014F8010F38B1B44205D000F056F923
:20350000631C05F10105F4D100F096F90128FBD0284670BD0546F7E70D46F5E70546F3E7E0
:2035200010B40B4B0B4C13F8012FFF2A0ED1A342F9D1094A39B11144013801390B789142CD
:2035400000F8013FF9D15DF8044B7047034AF1E7C7FF0100CFFF0100F0120050C8FF010039
:2035600038B50C4D02202B685B6998472B6802205B6B984701280446064BF7D11B684FF401
:203580000070DB699847044B044A1C6013689B07FCD538BDB8010010282008602820084093
:2035A0002DE9F04340F2F275DFF8E08083B0FFF7D7FFD8F800302B4EDB682B48984733684A
:2035C0002A4C5B69152098472368DFF8C490284F23F4FE63D9F8002023F0020323603D60CF
:2035E000D36B1D2098472349D9F800204FF0FF334FF0005008600093D2F840C01A481C21B0
:203600001D22E047D8F800301748D3F804C01A494FF4E1326023E04740F2011240F2013E3D
:203620001649174B142008601968164841F01001196003681449002B0CBF134673460B6058
:203640003D60036853B12368326843F0500323601369152003B0BDE8F043184703B0BDE83D
:20366000F08300BFB001001000100040381000404410004090200240006CDC02341000402B
:203680002C100040B80D002030100040D0010010B401001008B5064B02201B685B6B98474B
:2036A000012803BF034B186800F00100002008BDB80100106C20084038B50446FFF7EAFFC8
:2036C00018B1264A13681907FCD4032C03D0244B1B6803B138BDFFF7DDFFF0B9214D4FF47D
:2036E00000702B681B6A9847032C2CD01E4B01211E4A196013689B07FCD51D2000F040FA77
:203700001C2000F03DFA4FF0FF3000F039FABDE838404FF0FF3000F033BA154B15481B680D
:20372000DB689847144B15201B685B69984740F2F270124A1249136823F4FE6323F0020357
:2037400013600860CAE72B684FF400709B6A98472B684FF400701B6B9847C7E718100040F2
:20376000B80D0020B80100102820086028200840D001001000100040B001001038100040E1
:203780004410004010B505F0F7FF0446054800F0DBF9054B00221A6004B110BDBDE8104027
:2037A00005F0EEBF74060020B80D002010B50446FFF770FF08B9FFF7F3FE044B2146BDE871
:2037C00010401B680248DB69184700BFD00100100010004010B5134B134C1860134A236857
:2037E000A8B1022111615B6A4FF40070984723684FF40070DB6A98470D4B01210D4A1960D8
:2038000013689B07FCD5BDE81040FFF7C9BE10619B6A4FF40070984723684FF400701B6B7C
:203820009847E9E7B80D0020B801001074060020282008602820084008B5FFF72BFF18B1AB
:20384000024B1868C0F3C00008BD00BF1810004038B5FFF785FE40F2F2710C4B0C4A1B6811
:20386000116013F0500F10D00A4C0B4D05E02B681B699847094B1B6823B923680848DB069D
:20388000F5D538BDC0B29847F7E738BD401000404410004018100040D0010010B80D0020F3
:2038A00000100040034A136823F00403136030BF704700BF10ED00E02DE9F84305F05CFF80
:2038C00002F000FE18B1BDE8F84305F059BF8E4803F0A6FA0225044648B1636823B19847F1
:2038E000A84228BF2846C5B22468002CF5D1FFF74BFC864B80461B68CBB91F46994602F083
:203900007BFC002840F0A780012D0446064600F0EC80022DD7D1E7B1A9F14101B4B18B1B3B
:20392000002B13DB31460220FFF780FC18E0784BD3F80090C0EB0903022B00F1BE80A3F2A5
:203940008F23002BC0F2CB800127D8E70420FFF76DFC002CE6D108F1FF310220FFF766FC9D
:20396000694803F05DFA06250446002800F0AA80A368022003B198472369246825EA0305A6
:20398000002CF5D1FFF71CFD6B0705F0060400F19C80002C40F09D8000F0BCF90020FFF774
:2039A00055FD5C495C4A0B685C4823F003030B601368016843F00F0313608B693920984707
:2039C000574A584900231360184613600B6005F00FFF062C00F08580534C544D544E2B6834
:2039E0002368326823F00303236053685148032198474A4B1B689B6B98472B6806F050F8E1
:203A00004D4A3368002111604A485B680121984723684A4A012143F00303236011602B688B
:203A200006F070F8FFF7DEFCFFF77EFBFFF7C8FC354803F0F5F9044628B1E36803B19847D0
:203A40002468002CF9D100F033F905F099FEBDE8F84305F095BE02F0D7FB0646FFF74AFBC9
:203A6000361A002E7FF72FAFFFF718FC344B00EB4626C8EB0303F34240D40124A5427FF413
:203A800048AF6FF00703C8EB0303F34233D408F58038C6EB080336EA230628BF464631462D
:203AA0000220FFF7C3FB274A136823F00403136030BFBDE8F84305F063BE00239D4288BF89
:203AC0001D4641E7FFF77CFC06241C4B00221A605FE7124B20461B689B6998475CE70123EA
:203AE000ECE7022005F054FE76E708F580310220FFF79CFBD7E708F10806D0E7022DC0D095
:203B0000012D7FF4E0AEBCE7BC0D002080022443182009400010094008100940B8010010FD
:203B20004010094020042243242208402C200940D801001000400340800104430C40094077
:203B400071FDFFFF10ED00E00146014803F06AB9BC0D00200146014803F0A8B9BC0D0020C0
:203B600010B5054803F058F9BDE81040034B03201B6820211B681847BC0D00208401001065
:203B8000421C0ED010B50446064B4FF4C0421B6800211B689847044AA3001A43002313605A
:203BA00010BD7047B4010010001A4442024B1868186003F02BB800BFE020024070B51B4B75
:203BC0000C461B6805465B68984714F00C0320F0E06222F4EC2207D0042B20D0082B21D080
:203BE0000C2B08BF42F4403214F003030DD142F4C04223060D4B2846BDE870401B6848BF31
:203C000042F480221B6800211847022B04D0012B08BF42F48042ECE742F40052E9E742F47C
:203C20000032E1E742F48032DEE700BFB4010010064B1B68C340DB074CBF054B054B1B6872
:203C400023FA00F000F00100704700BFD020024080200240C020024010B584B0002241233B
:203C600002A802920393FFF7D1FB042005F004FC032813D00420032105F0CEFB042005F068
:203C8000FBFB03280346F9D1074A084812680093546800214FF040521C23A04702A8FFF7CE
:203CA0000BFC04B010BD00BFA401001000A00C4000B583B00022412368468DE80C00FFF789
:203CC000A5FB012005F0D8FB012803D00320012105F0A2FB6846FFF7EFFB03B05DF804FBF3
:203CE00000B583B00022412368468DE80C00FFF78DFB012005F0C0FB012803D0044B986B8A
:203D000005F0E2FB6846FFF7D7FB03B05DF804FB4800001010B582B041236846002401933B
:203D20000094FFF773FB0320214605F075FB012005F0A2FB18B1044B986B05F0C5FB68466B
:203D4000FFF7BAFB02B010BD4800001070B50388044653B1B3F52F7F03D182290AD0012013
:203D600070BD00230380032070BD4FF42F732380012070BD094B0A4E1D69FFF721FB03F013
:203D8000D3FC03F06BFC8021A847002880B2ECDD03F05EFCF3689847EFE700BF407B01006F
:203DA0001CA20100024B186800F00100704700BF9C21084010F0030370B506460D4602D16E
:203DC000028811051FD405F0D7FC1F4B00301B6818BF0120DB0720D51C4B1D4C1E602368C3
:203DE0004CF250322B6003E02368013A2B6014D013F0FF0FF8D018B32878A0F10100B0FAE0
:203E000080F0400970BD438005F0B6FC0E4B00301B6818BF0120DA0702D468B1002070BD31
:203E2000338813F4405FD7D003F44063B3F5006F04BF084B1E60CFE705F0A2FC002070BD9F
:203E400005F09EFCD8E700BF9C2108400010044004100440E40D00200A4A01E0013A0ED045
:203E6000438803F44063B3F5806FF7D1428802F44062A2F58060B0FA80F040097047104635
:203E8000704700BF20A1070030B583B005F074FC254C0546236819201B6A984723681220C6
:203EA0001B6A9847236819205B699847236812205B6908349847236801205B6998472368C1
:203EC00001205B6B98470128F9D11849184B194A0860186013689B07FCD5134C1648174917
:203EE0002268002303600B60136919209847236812201B699847A5B140F2FF35104B114A21
:203F000011481249002405600C60114801A91A60FFF750FFA0F10100B0FA80F0400903B08E
:203F200030BD05F02DFCE7E7B00100102C2008402820086028200840101004601410046007
:203F40000010044051000706000004601C1004400100060410B586B00021142201A813F0D2
:203F600075FA40F60A0215499DF811300C68012161F3030301A8694605948DF81130ADF810
:203F80000420FFF717FF012802D0002006B010BD0B4801E00138F9D0BDF8063003F4406398
:203FA000B3F5806FF6D1BDF8060000F44060A0F58060B0FA80F0400906B010BDF80D0020D4
:203FC00020A1070000B587B00021142201A813F03DFA40F609029DF81130012161F3030360
:203FE00001A869468DF81130ADF80420FFF7E2FE012803D0C0B207B05DF804FB104801E052
:204000000138F8D0BDF8063003F44063B3F5806FF6D1BDF8063003F44063B3F5806F03D0CD
:20402000002007B05DF804FB064B1A782AB9064A0599012011601870DDE70120DBE700BF21
:2040400020A10700812C0020F80D002030B587B005F092FB314C0546236819205B699847D9
:20406000236812205B6998472D4B1B68DA071AD52C492D4A00230B6002A8194613601022ED
:2040800013F0E4F940F60D029DF81530012161F3030302A801A98DF81530ADF80820FFF7C4
:2040A00089FE01282CD0FFF78DFF2048204B00240121204A0460196013689B07FCD51E4C1A
:2040C000012023689B699847236801205B6B98470228F9D1114C192023681B6A98472368FC
:2040E00012201B6A9847236819201B699847236812201B6998470DB905F042FB07B030BD47
:204100000E4A01E0013ACED0BDF80A3003F44063B3F5806FF6D1BDF80A30C4E7B00100104B
:204120009C21084010100460141004602C2008402820086028200840B801001020A1070009
:2041400008B505F0BDFA052803460BD003280DD018B101280FD0002008BD094B03221A60F4
:20416000012008BD064A0120136008BD044B02221A60012008BD024A0521116008BD00BF76
:20418000D021084008B5FFF71DFFFFF7E3FE012802D0FFF75BFF002008BD00BFF8B5174B42
:2041A000174A19781268174B002914BF00241C46D30700D4F8BD05F0DFFA0646124A134B78
:2041C0001348144F144D00213B60046011602B6819201B6A98472B6812201B6A98472B6843
:2041E00019201B6998472B6812201B69984706B1F8BDBDE8F84005F0C3BA00BF832C0020B2
:204200009C2108400000C08010100460000040801410046018100460B0010010084B1B785A
:2042200033B1002002460749074B0A6018607047064B0749074A002814BF18460846F2E785
:20424000832C002010100460141004600800C0800200C0800000C080044A054B1178054A43
:20426000002918BF00231360704700BF832C00200000C08014100460014B1868704700BF59
:20428000E40D0020014B1860704700BFEC0D002038B5064B064C1D6806484FF43441064A4F
:2042A0000023256001F0CEFD012038BD04300440C00D0020C40D00202D430000164B1B68DA
:2042C000DBB170B59B68984708B9002070BD05F053FA124B124C1D680646002115F1804088
:2042E00022684FF0000341F10001994208BF904209D325601EB1012070BD0020704705F001
:204300003FFA012070BDFEF73FFF064A06491368086001331360ECE7EC0D00200430044056
:20432000C00D0020E80D0020F00D002070B5134B1B68B3B19B689847D8B9114D2B6A9847AF
:2043400001280ED1FFF7BAFF6B6A0446984744B1BDE870400B484FF434410B4A002301F0EA
:2043600071BD08488021084A0023BDE8704001F069BDFFF7A3FF0446E9E700BFEC0D0020B3
:20438000407B0100C40D00202D430000F8B5224C2368002B3DD09B680646984700B3FFF74B
:2043A0008DFF1E4BB6F1404F1F6825D822681C4BB2F90C401968E517641A65EBE1750022A3
:2043C000A41945F10005A01845EB0701090241EA106143F609520023000212F04DFCF8BD95
:2043E000104D2B6A9847FFF769FF6B6A98470B4BB6F1404F1F68D9D9FEF7C6FE0A4B1B6884
:20440000C3F17E4303F57203C34248BF07F1FF37CCE71846F8BD00BFEC0D0020E80D0020CD
:20442000F80D0020407B0100F00D002010B5104B1B68DA0704D4FFF727FD012800D010BD42
:204440000C4C23685B0204D40A4B6FF000421A6010BD094B012209481A7002F089F86FF4DF
:2044600080032360034B6FF000421A6010BD00BF9C21084010100460822C0020880600203C
:2044800008B5124B1B68D90707D4114806F0FAF8FFF7FAFC012800D008BD05F06DF90D4B26
:2044A0001A6812020BD40B4B1A6812F00A0F1CBF6FF00A021A60BDE8084005F061B96FF475
:2044C00000021A60044802F053F8ECE79C210840688501001010046088060020014B187803
:2044E000704700BF852C002008B500F08BF880B208BD00BF00F010B938B50C4D04202B68D9
:204500005B6998472B6804205B6B984701280446064BF7D11B6840F20140DB699847044BA8
:20452000044A1C6013689B07FCD538BDB80100102820086028200840034B1B68002B14BFF6
:2045400001200220704700BFFC0D0020F8B503880446002B2ED0B3F5847F05D1184B1B7857
:204560008B4205D00120F8BD002303800320F8BD144D2B6873B1144B144A1B6812685B68B0
:204580000220174698470026301847F100012B6898472E600E4B40F201401B689B6A9847E3
:2045A0000C4B01210C4A196013689B07FCD50B48FFF7D0FA4FF4847323800120F8BD00BF40
:2045C00061090020FC0D0020CC01001004800240B8010010282008602820084098060020BE
:2045E00008B5064B04201B685B6B9847012803BF034B1868C0F34000002008BDB801001007
:204600003C20084070B5274B1B689BB1264C0023224612F8011B29B90133042BF9D100203E
:20462000014670BD214A002502EBC302E55492E8030070BDFFF7D4FF00282FD01C4A1D4B23
:204640001268134073B91C4A01211346116018680028FCD102464FF4807104F0A7FE174B23
:2046600001221A6005F088F80646114A1368DB07FCD5134B134A1B6814685B6802209847D5
:2046800023460022141843F1000516B12046294670BD05F075F82046294670BDFFF72CFFDC
:2046A000CCE700BFFC0D0020000E0020700900200880024001000080F09F0240A802504240
:2046C000CC0100100480024038B50E4D00240E4A2C6013680D4923F00103096813604B6967
:2046E00031209847204622464FF4807104F05EFE0122074B2A6019782246BDE838400548D6
:2047000001F0EABEA80250420C800240B001001061090020AC06002010B5074C2378802B7B
:2047200000D010BD01F056FE207000210348BDE8104001F0FDBE00BF61090020AC060020DF
:2047400008B505F019F8003018BF012008BD00BF80F31088704700BF827A044B03EBC2036B
:204760005B68C01AB0FA80F040097047040E0020F0B54749837A85B001EBC303D3E84F2FFE
:2047800012F0FF0F09D10124C3E8424F1346BFF35F8F3BB1032005B0F0BD0123BFF35F8FA0
:2047A000002BF7D10446827A3A4B01EBC20148601B68C078DB6B384F9847384DA37A3A6839
:2047C00005EB0313526958689047A37A3A6805EB03135868536B9847012806462E4A2F4BF8
:2047E000F3D1A17A126803EB0113D269986890472B4B2C4A1E6013689B07FCD5A37A0320B4
:204800001B01EA582849536923F00F035361A37A1B01EB581862A37A0A6826891B01E858A4
:2048200017683EB1237A002B2CD0637A002B14BF032602266168082332468DE80A001B49CB
:204840000023B847A37A134A26781B01E85813686178A27800965E6C4FF0FF33B047A37A6F
:20486000114E1B01EA58536843F002035360A37A32681B01E85803A9136998470028F6D1CC
:2048800005B0F0BD637A002B14BF01260326D1E7040E0020B4010010B8010010CC850100C1
:2048A0002820086028200840C4010010006CDC0270B5214D837A05EBC3025268904201D0F7
:2048C000042070BD1D491E4A096802EB031304460A6A986890471B4B01221A601A4A1368CE
:2048E0009B07FCD5194E607833689B6B9847336860784FF400519B6998473368A0789B6BE3
:2049000098473368A0784FF400519B699847336820789B6B9847336820789B694FF40051AB
:204920009847A37A002005EBC3035860A37ABFF35F8F05F8330070BD040E0020B8010010D8
:20494000CC8501002820086028200840B40100102DE9F04F344C857A85B004EBC504646873
:20496000A04203D0042005B0BDE8F08F1F462F4BDFF8C4901B6809EB051504465B6B68680A
:2049800090460E469847012803D0052005B0BDE8F08FA37A264909EB0312D2680968114281
:2049A000F3D00E9A0F9902EB010AC2455246B8BF4246002A019235D0D8BF03AD26DDDFF86B
:2049C00074A04FF0000B03ADD845CCBF16F80B1000210391DAF800201B0159F80300536826
:2049E0009847A27ADAF800301201DB6859F80200294698470E9B5B45C4BF039B07F80B301F
:204A0000019B0BF1010B9B45A37ADDD1094E00E0A37A32681B0159F803002946136998471F
:204A20000028F5D100209EE7040E0020B801001078200840C4010010CC85010010B5BAB0B2
:204A40000A460446282168460CF06EFF6B46C021034A0AA805F03CFE0AA8A0473AB010BD4C
:204A6000EC850100F0B50746B1B0D9B10D460126002404B3E3070DD5C021134A2B78684637
:204A800005F026FE6846B847082E12D0013601350134EEE76846C0210C4A05F019FE684622
:204AA000B847E9E76846C021094A05F011FE6846B84731B0F0BD6846C021034A2B7805F092
:204AC00007FE6846B847E1E700860100F0AB0100F0850100F0B50388B1B006460D461BB3C5
:204AE0006F2B1CD1254B264F186843683A68254829469847012836D96C46234AC021204624
:204B000005F0E6FD2046A84728462049FFF7AAFF2046C0211E4A05F0DBFD2046A8470023FE
:204B20003380032031B0F0BD13781446202B03D114F8013F202BFBD02046202112F0F4FC12
:204B40000F4F386018B1002300F8013B3860204600F090FF094B186038B10A4A00216F2306
:204B600011803380C1E70020DCE76846C021094A05F0AEFD68466C46A847BEE7140E0020AE
:204B80001C0E0020180E002040860100DC2C0020448601000886010000F054BF074A106870
:204BA00058B170B40648074E074D0024146031702B80006870BC01F0DBBC7047700E00207C
:204BC000540E0020862C0020662C002030B50388B1B004465BB90D46074AC021684605F078
:204BE00077FD6846A847054B05489B6A984700230320238031B030BD14870100F4C001001B
:204C00003887010030B50388B1B004465BB90D46074AC021684605F05BFD6846A847054B38
:204C20000548DB6A984700230320238031B030BD40870100F4C0010038870100F0B50388DF
:204C4000B1B0074623B1002303203B8031B0F0BD114A0D466846C02105F03AFD6846A8473D
:204C60000E4802F0DDF806460028ECD0746823685BB1A368C0210A4A684605F029FD6846BD
:204C8000A84754F80C3F002BF3D1304602F024F906460028EAD1D6E764870100200E0020F4
:204CA000208B010070B50388B0B0054623B1002303202B8030B070BD0C46374AC0216846B9
:204CC00005F006FD6846A047344BC0211B68344A344E684605F0FCFC6846A0473368C021B8
:204CE000314A684605F0F4FC6846A0473368002BDDD005F065FD064603F0DAFCC021034608
:204D00002A4A684605F0E4FC6846A047284BC0211B68284A684605F0DBFC6846A047264B3E
:204D2000C0211B78254A684605F0D2FC6846A0476846C021224A05F0CBFC6846A04716B375
:204D4000311D2046FFF78EFE6846C0211D4A05F0BFFC6846A047FEF7CDF91B4BC0211B685D
:204D60001A4AC31ADB09684605F0B2FC6846A04708F0DAFEC0210346154A684605F0A8FC88
:204D80006846A04793E76846C021124A05F0A0FC6846A047DFE700BF7C870100BC1F00206F
:204DA0008C870100B41F0020A4870100BC870100F01F0020D0870100242D0020E887010014
:204DC000008801006CA80100A42D00201C8801004488010014880100F0B50488B5B0074652
:204DE00024B1002303203B8035B0F0BD0D4608F005FD18B102203C8035B0F0BD07F01EFDB3
:204E00000646C02104A8002E39D0204A05F060FC04A8A847306902F003F80446F288B388A7
:204E200004A80092C0211A4A05F052FC04A8A847F4B1627D237D0092228AC0210192628A4F
:204E400004A80292134A05F043FC04A8A847A11D2846FFF707FEC0210F4A04A805F038FCB0
:204E600004A8A847204602F037F804460028E0D1304607F0E9FC06460028CBD1B1E7074AA2
:204E800005F026FC04A8A847ABE700BF8C8801009C880100C88801006CA801006C8801007A
:204EA0002DE9F0430788B3B00546002F29D188461446002A33D01678002E3BD130463C492B
:204EC00012F098FB00282CD13A4E0123336014B12378002B39D1384C0023236002AF3368CE
:204EE000ABB1364B364AC02100923846354A05F0EFFB3846C047206806F082FC306806F0F7
:204F00006BFC00232B80032033B0BDE8F08320682D492B4A2D4B002818BF0A46E3E71646DE
:204F2000CCE730462A4912F065FB002838D1214E3060CCE71046202112F0F6FA002834D0DB
:204F400000F8017B26460446B8E72046202112F0EBFA08B1002303702046154912F04AFBA0
:204F6000814658B902AFC0211A4A3846124C05F0AFFB3846C047C4F80090B0E720461449BD
:204F800012F038FB0028A6D02346134A02A8C02105F09EFB02A8C04700232B800220B3E724
:204FA000334602A8C0210D4AF2E72646044685E72C8901005C0E0020500E0020148901003F
:204FC000208901009089010024890100108901003089010050890100708901003489010079
:204FE000F0B50388B1B0054623B1002303202B8031B0F0BD0E46134AC021684605F068FBEA
:205000006846B047104C04F1600714F8023C227C0BB1012A03D92034BC42F6D1E5E70B4A4E
:20502000C021684605F054FB6846B04730462146FFF704FD6846C021054A05F049FB68465F
:20504000B047E8E7AC8901000A300020C48901006CA8010070B50388CAB0064623B100232A
:20506000032033804AB070BD304A0D461AA8C02105F02EFB1AA8A8470AF0C2F90AF04CF900
:205080000446C0211AA8002C49D0294A05F020FB1AA8A8472846211DFFF7D0FCA3691AA86E
:2050A000C0215BBB234A05F013FB1AA8A84709F085FC00282BDD09F081FCC02103461E4A26
:2050C0001AA805F005FB1AA8A84709F079FD04460028C4D02246642101A809F0D3FDC021B3
:2050E000164A01AB1AA805F0F3FA1AA8A847204609F06CFD04460028ECD1B0E7104A05F072
:20510000E7FA1AA8A84709F059FC0028D3DC1AA8C0210C4A05F0DCFA1AA8A8479FE70A4A89
:2051200005F0D6FA1AA8A847C1E700BFC8890100C4890100F4890100188A0100388A01000E
:20514000D8890100408A01000C8A0100F0B50388CFB006466BB91B4B0D461B7B13B10DF05C
:205160001DFC58B91EA8C021174A05F0B1FA1EA8A8470023032033804FB0F0BD134F386801
:2051800002F08AF80446C0211EA8114A05F0A0FA1EA8A847002CECD02246782168460DF077
:2051A000A3FCC0210B4A6B461EA805F091FA1EA8A8472146386802F037F804460028EBD118
:2051C000D7E700BF20330020548A01000C0900206C8A0100208B0100F0B50388B5B0064647
:2051E00023B100230320338035B0F0BD0C467D4AC02104A87C4D05F06BFA04A8A0472B7B4E
:2052000004A8C021002B00F0DC806B7B774A05F05FFA04A8A047764B1B699847002840F086
:20522000C88004A8C021734A05F052FA04A8A047714AC02104A805F04BFA04A8A04720468D
:205240006E49FFF7FBFB95F85430C0216C4A04A805F03EFA04A8A0476A4AC02104A805F061
:2052600037FA04A8A04720466749FFF7E7FB674AC02195F8403004A805F02AFA04A8A04795
:20528000AB7BC021032B96BF614A624B52F8233004A8614A05F01CFA04A8A047AB681B8CE0
:2052A000002B00F094805D4A5A49012B0CBF13460B46C0215A4A04A805F00AFA04A8A04717
:2052C000C021584AEB8A04A805F002FA04A8A0472A7E454BFF2A16BF5B8B4FF0FF33534383
:2052E000C021514A04A805F0F3F904A8A04795F85E30C021032B96BF4C4A464B52F82330CF
:2053000004A84B4A05F0E4F904A8A047C021494A04A805F0DDF904A8A047686C324F0028EC
:2053200057D00DF073FB01462046FFF787FB7B6C04A89B79C021404A05F0CAF904A8A04759
:20534000B5F84A30C0213D4A04A805F0C1F904A8A047AA8AB5F848300092C021384A04A8D6
:2053600005F0B6F904A8A047EB7BC021354A04A805F0AEF904A8A04795F85B2095F85A3036
:205380000092C021304A04A805F0A2F904A8A047697C2A7CA87C0A448DE80600029095F8BA
:2053A000573004A8C021294A05F092F904A8A04717E704A8C021264A05F08AF904A8A0474D
:2053C00036E7244A05F084F904A8A04709E7224B6FE704A8C021214A05F07AF904A8A04797
:2053E000AEE700BF908A010020330020B48A0100F4C00100D88A0100E88A01003C33002072
:20540000F48A0100048B01004C330020108B0100F89301007C8A0100188B0100888A0100F8
:20542000248B0100308B01004C8B0100E8930100708B0100808B0100988B0100B48B010040
:20544000C48B0100E08B0100F48B0100248C0100C88A0100A08A0100848A0100AC8B01009A
:2054600030B50388B1B0044653B90D46074AC021684605F02DF96846A84705480EF096F841
:2054800000230320238031B030BD00BF648C0100388701002DE9F0410788B0B00546002F35
:2054A0003ED188461446002A5BD01678002E62D130464A4912F09EF8002854D1484E0123C9
:2054C000336014B12378002B5FD1464B0022FD2119805A809A80DA801A815A819A81DA81DA
:2054E0003368414C13B3236998470646C0216846002E30D13D4A05F0EBF86846C0474046AF
:205500003849FFF79BFAC021394A684605F0E0F86846C047A368314632489847E3689847E6
:2055200000232B80032030B0BDE8F0812369984748B1C0212F4A684605F0CAF86846C047AC
:20554000E3699847ECE76846C0212B4A05F0C0F86846C047E4E7294A05F0BAF86846C0474D
:20556000DEE71646A4E73046254912F043F828BB1B4E3060A5E71046202111F0D5FF48B38F
:2055800000F8017B2646044692E72046202111F0CBFF08B100230370204612490CF058F999
:2055A000074600289CD12346C021164A684605F08FF86846C0472F800220B4E73346C021BA
:2055C000114A684605F084F86846C04700232B800220A8E7264604466AE700BF2C890100A1
:2055E000580E0020600E0020F4C00100AC8C0100D08C0100F48C01001C8D0100D88C0100BC
:2056000030890100988C0100808C0100F0B50588B5B004460E46D5B1B5F5847F12D1474DBF
:205620002B68464D1BB3464800F0E0FD68B12B68EBB1C021434A04A805F04AF804A8B047DF
:2056400000232B6000232380032035B0F0BD12B11378002B2FD1C0213B4A04A805F038F871
:2056600004A8B04700230220238035B0F0BD374AC02104A805F02CF804A8B0473046344950
:20568000FFF7DCF9334A344B15881F78FDF732FD2B4B4FF47A7219680097401A02FB00F0E8
:2056A000C00901902B4604A8C0212C4A05F010F804A8B047C6E710462021039211F034FF6F
:2056C000039A00B105701046214903920CF0C0F8039A054658B91346C021214A04A804F0C0
:2056E000F7FF04A8B0470220258035B0F0BD1D4AC02104A804F0ECFF04A8B047304614496F
:20570000FFF79CF9C021184A04A804F0E1FF04A8B047164A164B1268084D09484FF42071E3
:205720001A602E6000F04EFD042309488021002209F0D4F84FF48473238071E7700E002053
:20574000400E00205C8D0100A48D0100688D0100300E0020662C0020862C0020848D0100D5
:20576000348D0100508D01006CA80100980E0020540E0020F0B5B3B00746C0210E4A02A8F4
:205780000E4C04F0A5FF02A8B847256895B163681E68304600F052FC2B460190C021084A61
:2057A000009602A804F094FF02A8B84754F80C5F002DECD133B0F0BDD08D0100F4060020D0
:2057C000E08D01002DE9F0430688B3B00446002E4CD10F46154612B11378002B4CD1002026
:2057E00000F00AFC4F4B002518602B46C0214E4A02A804F06DFF02A8B8473846FFF7BAFFB2
:2058000000232380022034E04046202111F08CFE08B100230370404601A90A2212F0E2F8B3
:20582000DFF81491C9F80000002857D1019B984546D03368984216D00146284600F0B8FB99
:2058400028463A4911F0D6FE002854D1D9F80030032B46DC08F0EEFD02A8C021344A04F004
:2058600037FF02A8B8473846FFF784FF00232380032033B0BDE8F0831046202111F054FE84
:20588000814600283ED08046284608F8016B00F0B3FB244E29463060264811F0ABFE10B183
:2058A00033680133A1D0B8F1000F03D099F80130002BA9D1204B4FF0FF321A604FF000081A
:2058C0004346C0211D4A02A804F002FF02A8B84700230220238033B0BDE8F0830428EFD8D9
:2058E000A7E708F097FD02A8C021154A04F0F0FE02A8B847B7E728460E4911F07BFE002814
:20590000A4D0B0E7284600F077FB064E29463060084811F06FFE0028CCD033680133C9D16E
:2059200063E700BF740E002034890100F88D0100148E0100F48D0100240E00207089010007
:20594000FC8D010070B50388B2B0064623B100233380032032B070BD0D460AF0F5FC0446FB
:20596000C02102A8002C3ED0234A04F0B1FE02A8A847224AC02102A804F0AAFE02A8A8478D
:2059800020460AF0D9FC01462846FFF757F81C4AC02102A804F09CFE02A8A84720460AF060
:2059A000CDFC01462846FFF75DF8627C1549042A94BF51F822001448237CC021134A00902D
:2059C00002A804F085FE02A8A847C021104A02A804F07EFE02A8A84720460AF0BBFC0446BE
:2059E0000028C6D1B3E70B4A04F072FE02A8A84734800220AEE700BF488E0100C4890100AD
:205A0000608E0100D49301007C8A0100688E01006CA801002C8E010030B50388B1B0044646
:205A20004BB9074A0D466846C02104F051FE6846A847FDF7D3FC00230320238031B030BDD5
:205A4000808E010010B5074C204601F0E5F92046054901F0E7F9BDE810400448044908F0DF
:205A60007DBF00BF200E0020BC060020280E00209D4B000070B505460D4801F0D1F90646F1
:205A800098B17468206818B909E054F80C0F30B1294611F0AFFD0028F7D1204670BD304642
:205AA00001F01AFA06460028EBD1002070BD00BF200E002010B503880446442B0CD0452B02
:205AC00014D01BB100230380032010BDFFF764F844232380012010BD094B1B788B420DD1A4
:205AE00062B10849002045230880238005480649FEF7F0FF0128EBD8002010BD012010BD48
:205B000093340020780E00200D5B00000146014804F0B8BDEC8501000148002100F008BD06
:205B2000C406002070B5684CFBF78AFAFDF796FA00F02AFD00F056FC6448002100F0F8FC9E
:205B400000F046F9FDF716FC00F084FA00F06CFDFBF7B4FA01F066FA01F088FE00F084FB72
:205B60002368022B3CDC082259495A4811F094FB5948002100F0DCFC4FF0FF3009F070F9FD
:205B800023680546022B504E13DCFBF7B3FAFFF7C3FF524800F0C6F8FDF7FAFB00F03CFCC5
:205BA0000446FDF70DFC14F0FF0FF7D1FBF70EFBF4E74B494B4A4C4804F064FD4B4804F055
:205BC00061FD3368022BE0DD002D7AD0A81C00F097F92368022BD8DD454804F053FDD4E72E
:205BE0003F49404A404804F04DFD424804F04AFD2368022BB7DD3A493A4A3B4804F042FDFF
:205C00003D4B3E48196804F03DFD2368022BAADD3349344A344804F035FD394B3948196866
:205C200004F030FD2368022B9DDD2D492D4A2E4804F028FD344B3548196804F023FD236879
:205C4000022B90DD2649274A274804F01BFD304848F2A51104F016FD2368022B83DD20495F
:205C6000204A214804F00EFD2A48042104F00AFD2368022B7FF777AF19491A4A1A4804F050
:205C800001FD254B2548198804F0FCFC2368022B7FF769AF1249134A134804F0F3FC2048F8
:205CA00004F0F0FC2368022B7FF75DAF084800F037F92368022B7FF756AF0D4804F0E2FC00
:205CC00051E7284683E700BFE806002090070020DC2C002064310020B0080020C0C20100F8
:205CE000507A010020940100407A0100FC9401006CA8010028940100F4C001005894010064
:205D0000BCAD0100689401001CA2010074940100809401009C940100682C0020D4940100F1
:205D2000E494010010B50446006830B1002100F0FFFB54F8040F0028F8D110BDF0B503883A
:205D400083B005465BB14A2B04D188291BD0012003B0F0BD00230380032003B0F0BD1948C8
:205D600001F05EF8044630B1201DA16800F02AFA2468002CF8D1144B01221A704A2301203C
:205D80002B8003B0F0BD0F48019201F049F804460028F3D0019A031D9A4205D02468231D6F
:205DA000002CEBD09A42F9D10648214601F07EF8064E6269A369376832600BB1E0699847FA
:205DC0003760DBE77C0E0020872C0020980E002010B5064B002406481C7001F01DF82146A6
:205DE000BDE81040034800F0A3BB00BF872C00207C0E0020D406002070B504460D48049D7A
:205E00000078A261E361656130B9A1600A482146BDE8704001F006B8084D094B2E68201DDA
:205E20002B6000F0CFF92E602146BDE87040024800F0F8BF872C00207C0E0020980E0020A1
:205E4000D406002010B5044C82B024680094FFF7D3FF02B010BD00BF980E002070B5094B9C
:205E600004461B783BB1084D084B2E6804302B6000F0B2F92E602146BDE87040044800F03B
:205E8000D1BF00BF872C0020980E0020D40600207C0E002010B50A4B04461B783BB9C36068
:205EA00003612146BDE81040064800F0FFBF043000F0B4F92146BDE81040024800F0F6BF0A
:205EC000872C00207C0E002038B50B4B1D785DB904460A4800F0A4FF10B90AE0006840B11C
:205EE0008442FBD1002038BD0430BDE8384000F07DB9012038BD00BF872C00207C0E002032
:205F000000B58BB00246282168460BF00DFD6946024804F0B7FB0BB05DF804FBEC8501002D
:205F2000D0B170B5054601260024C4B1E30709D50D48297804F0A6FB082E0CD001360135DE
:205F40000134F2E7094804F09DFB0748297804F099FB082EF2D170BD054804F093BB297888
:205F6000014804F08FFBE9E700860100F0AB0100F085010090B110B50A49044601F08CFCD5
:205F800020B1BDE81040084804F07CBBE188074849BA89B2BDE8104004F074BB024804F074
:205FA00071BB00BF589601006095010068950100042900D97047F8B506460D460C4831463F
:205FC00011F018FB0B4C0746216851B157B9A3686268AB42A8BF2B46136054F80C1F0029C1
:205FE000F4D1F8BD304611F005FB0028EFD0F4E7F48D0100F4060020D0B1F8B50E4F396826
:2060000099B106463D46002403E055F80C1F013459B1304611F0EEFA0028F6D104EB440424
:2060200007EB840463681868F8BD4FF0FF30F8BD4FF0FF30704700BFF406002004289ABF40
:20604000024B53F820000248704700BF3095010070950100704700BF10B50E4C2368B3B178
:20606000FDF748F822685168136892681944091A4AB192E8180023441B1A9268994228BFCF
:206080001946002AF5D1044B0844186010BD024A136010BD900E0020940E00202DE9F0417E
:2060A000038805467BB1592B08D1872912D0822920D059232B800120BDE8F0810023038050
:2060C0000320BDE8F081254A0120136059232B80BDE8F081214F3B68002BEAD0D9688A4242
:2060E00003D024E0D9688A4220D19B68002BF9D13B60DEE7194F4FF000083C68002CD8D04C
:20610000002604E0A3682646002BD2D01C46204600F07CFA0028F5D0E0688821224600F0CD
:20612000DBF978B10E4800F023FAEBE73B6099680029BED0C86882420BBF89680B469960E1
:206140008968F5E7E060A3682EB1B360C4F80880FFF782FFD1E73B60F8E700BF900E0020CB
:206160009007002010B50446104800F001FA1049E3680A684BB142B194420FD0134601E022
:206180009C420BD09B68002BFAD10A4BA2601B680C60E360BDE81040FFF75EBF054B1B68E9
:2061A000E360BDE81040FFF757BF00BF90070020900E0020980E0020014800F0D9B900BF17
:2061C0009007002010B5044600F00AFA2046BDE81040FFF7C7BF00BF10B5044600F008FA6E
:2061E0002046BDE81040FFF7BDBF00BFC068B0FA80F04009704700BF024B1868003018BF3E
:2062000001207047900E0020024B186808B1024B18687047900E0020940E002010B5114B3D
:2062200004461A68904218D05AB19368834208BF13460AD02BB19A68A24206D01346002BF7
:20624000F9D10023A360E36010BDA2689A60FFF703FF0023A360E36010BD82681A60FFF7B2
:20626000FBFEEEE7900E0020034A04499079D37903EB00230B807047DC2C0020682C002074
:2062800010B541600446FCF76DFF206010BD00BF10B50446FCF766FF94E80A00034A0B445A
:2062A000C01A90428CBF0020012010BDFEFFFF7F2DE9F843DFF8A480274DD8F800702E68C8
:2062C000874247D077B33B4601E0002B3BD01B689842FAD133B3837B8946044623B30023FE
:2062E00083736FB1BC424FF0870106D0BB7BDB0703D53846224600F033F83F68002FF1D164
:20630000A3683BB14C4505D02C6004F10C00832100229847D8F80000844208D12368C8F834
:2063200000302E60BDE8F88338468442F6D00028F7D00368A34208D0002BF2D01A68A2420B
:2063400004D01346F8E7BDE8F883034622681A602E60E7E73B46BDE7980E00209C0E0020B3
:2063600070B586687EB104460A4802230460A37304F10C000D46B0470238012804D9832D65
:2063800002D00123A37370BD20462146BDE87040FFF78EBF980E002070B50C4A0C4B14684B
:2063A00000251D7084B1012601E0246864B1E37B002BFAD0A673E573204682210022FFF768
:2063C000CFFF2468002CF2D170BD00BF9C0E00208A2C0020024B1878421C1A70704700BFAD
:2063E0008B2C002070B407480749084A0023084D084C8A2603700B6013602E70237070BC87
:20640000704700BF892C00209C0E0020980E00208B2C0020882C00202DE9F041244D2B789B
:206420000BB1FFF7B9FF234E3378D3B1DFF890E0214F9EF80020013B02EB420189007C185C
:206440000132A068DBB202F01F0233708EF800207F5CD4F8048098B1812F06D0827BD20748
:2064600005D428781844BDE8F0810123837339464246FFF775FF337828781844BDE8F081E9
:206480000E4A146834B9ECE7A37BD9070AD42468002CF0D02B78002BF6D0FFF77DFFA37BF0
:2064A000D907F4D5204639464246FFF759FFEEE78A2C0020892C0020A00E00209C0E002060
:2064C000882C0020024A034B10781B7818447047892C00208A2C0020F0B40C4D2C78202C88
:2064E00011D00B4B0B4E1B78671C234403F01F0303EB43039B00F418A06062602F70F154F9
:206500000020F0BC70470120F0BC7047892C0020882C0020A00E002038B5837B034CDB07E1
:20652000256801D5FFF71CFF256038BD980E002070B404460D4D2868A04206D038B1034665
:2065400000E023B11B689C42FBD170BC7047002CFBD0012600232060A673A3810A462046C3
:206560002C60812170BCFFF7D7BF00BF9C0E002038B1837B013B012B03D8024A012313708F
:20658000C37370478A2C0020FCF7F8BD38B5094C049D226822B180E82A002060002038BD29
:2065A000024680E82A0008462260FCF7E9FD002038BD00BF2010002010B5084C206858B18A
:2065C00000224368816822609847236823B1BDE810401868FCF7D4BD10BD00BF2010002070
:2065E00010B541600446FCF785FD206010BD00BF10B50446FCF77EFD22686168C2F10103E3
:206600001844884284BF5218226010BD10B50446FCF770FD23686268C3F1010318448242BC
:206620002CBF0020012010BD00B50B4B83B001A90A4A99421160019388BFCD2005D95A1CBD
:2066400001921870019B8B42F9D305480021FFF76FFF03B05DF804FB9634002034100020C3
:20666000A007002038B5134CFCF7AAFE2378124DCD2B08D0AC4202D316E0AC4214D014F80B
:20668000013FCD2BF9D1AC4202D30DE0AC420BD014F8013FCD2BF9D0FCF792FEAC420648B3
:2066A00004D2001B80B238BDFCF78AFE4FF6FF7038BD00BF963400200050002070B50388D5
:2066C00004465BB1902B05D11848FFF78FFD70B9012070BD00230380032070BD13484FF4E6
:2066E000A061FFF76FFD90232380012070BDFFF7B9FF0F4D0F4B06465D1BADB2A8420DD93C
:206700000D4B1B68002B09DD0C490D4A0D4803F0B9FF31462A460C4803F0B4FF0348FFF7BF
:206720005BFD90232380012070BD00BF241000209634002000500020E8060020F895010054
:20674000FC950100407A01000496010010B5044690F84C308021013384F84C3020302346B8
:20676000054AFFF76FFB054B2246BDE8104019780020FFF7B1BE00BF4D670000913400204F
:2067800070B5038804464BB1CB2B03D1822909D0012070BD00230380032070BDCB232380E0
:2067A000012070BDFDF7CCFFBFF35F8F104B00221E681A60BFF35F8F0E4DFDF7C9FF286868
:2067C00020B9EBE755F8040F0028E7D090F8453026FA03F3DB07F5D5FFF776FB0028F1D0C0
:2067E000286802210346044AFFF72CFBEAE700BF44100020E004002039680000034A1368C1
:20680000034303481360FFF7B3BE00BF44100020B007002010B5044690F84500FDF708FA31
:2068200010B994F8440010BD012806BF94F8440080F00100002010BD70B50446FFF744FB32
:2068400000B970BD04F120052846FFF73DFB06462046FFF7DFFF01280ED00028F1D1002EF7
:20686000EFD12846FFF716FB0A4B30462246BDE870401978FFF730BE002EE2D00026234677
:20688000284684F84C607E21034AFFF7DBFA034BEBE700BF903400204D670000923400204E
:2068A0002DE9F843FFF796FD244B254C1870FFF791FD244BDFF8A0801870FFF78BFD224D37
:2068C0002368224A00212870C8F80810C8F8042053B3DFF888901E4F0126D9F800209D6CC9
:2068E000926B93F845009047236845F08C05294693F84500FDF762F92268D9F8003092F800
:20690000450006FA00F23A601B6B98472368D8F8082093F8451054F8043F06FA01F10A4310
