:020000040000FA
:2000000000500020E9000000E1000000C9000000E5000000E5000000E5000000000000002E
:20002000000000000000000000000000E5000000E500000000000000E5000000E50000002C
:20004000DD0F0000E500000085180000E50000008D070000B90C0000E5000000E50000002A
:20006000E5000000D9180000E5000000E5000000E5000000E5000000E5000000E50000004C
:20008000E5000000E5000000E5000000E5000000E5000000E5000000E5000000E500000038
:2000A000E5000000E5000000E5000000E5000000E5000000E5000000E5000000E500000018
:2000C000E500000089270000044B1A68B2F5806F03D01B689B0500D4FEE7704728ED00E0C9
:2000E000FEE700BFFEE700BF08B504F00BFE104A104B9A420DD2D0430F4918440B4620F066
:2001000003000430084453F8041B834242F8041BF9D10A480A494FF000028842B8BF40F8AB
:20012000042BFADB02F078FBFFF7CEFF08BD00BF00000020F4030020A4CC0000F80300204D
:20014000D2290020F0B5002706463C463D4683B0304603F089FA0195019B9C4206DD00BF96
:20016000019B01330193019B9C42F8DC304603F0A1FA0195019BC4F5C874A34206DA00BF1E
:20018000019B01330193019BA342F8DB0137B7F5487F06D0B7F5C87FCCBFC7F548743C46AE
:2001A000D6E703B0F0BD00BF38B5194D194C2B6820465B68012198472B68012211461B685E
:2001C0002046984705F074FA00F062FF00F0E0FE00F0D6F803F0AEFA03F014FA0120FFF7E7
:2001E000B1FF0D490D4A0E4809680123136003600B691020A2F5FF521268984705F05CFAB1
:2002000000F038FABDE838400220FFF79BBF00BFD801001000400340B00100100C400940AC
:200220000800094008B541F2342002F0C3F900F00FFD03F0D5F90548082100F0D9FB03F091
:2002400021F9BDE808400420FFF77CBF9C20002070B584B0002302A80821294C009301937B
:2002600000F0C6FB9DF80F309DF80E60E56A43EA06264AF6CD310220A84731460320A84776
:200280001A210120A847636B02A908221D4D0B209847A46A69460120A0472B68022B1ADC81
:2002A00001A90220A04778B92B68022B08DC0021154802F09FFE0820FFF744FF04B070BD67
:2002C0000199124806F0EEF82B68022BEFDD104806F0E8F8EBE70F4A0F49104806F0E2F8E9
:2002E0000F4806F0DFF82B68022BD9DD094A0A490A4806F0D7F800990A4806F0D3F8CFE745
:2003000098C7000058020020AC02002084C600008CCC000030C6000040C6000048C600008A
:2003200058C6000074C6000000F0FABC10B50A4C1A202368DB6B9847084A23684FF08061BD
:2003400011609B6B1720984723684FF4C0419B691720BDE810401847B4010010A0200240EB
:2003600010B5064C042023685B699847236804205B6B98470128F9D110BD00BFB801001078
:2003800070B505F095F90646FFF7EAFF124B4FF4A0601B68DB699847104B0121104A1960F4
:2003A00013689B07FCD50F4D0F4800F0E5FD2B680D20DB6B0D4C98472B684FF400522260E2
:2003C000DB6B142098474FF48013236006B170BDBDE8704005F070B9B8010010282008609B
:2003E00028200840B4010010B0010020A02002400120704710B503210022082005F0F0F9EC
:20040000044B00221A6005F049FA044605F0A8F9204610BD1C900C40802838B51CD0812884
:2004200018D10C46194D1A202B68DB6B98472B6817201B684FF4C042002198472B681720CD
:200440009B6B98477CB9124B4FF080621A60114800F09AFA012038BD0C4B1A201B68DB6B3D
:200460009847012038BD0C4B4FF080621A60094800F034FA094B0921586C05F001F94FF4B2
:20048000FA6000F0ADF8012038BD00BFB4010010A0200240C40100209020024048000010A2
:2004A00010B5064C042023685B699847236804205B6B98470128F9D110BD00BFB801001037
:2004C000F8B51A4A00200021C2E90001184B04201B685B6B9847012801D0FFF7E1FF144B40
:2004E00000201B68DB699847124B0121124A196013689B07FCD5114A11491368096823F43C
:20050000807323F001030F4C13600B6820460E49984740F221200D4D0D490E4B04273126F6
:20052000012227602E6008601A60F8BDF8030020B801001028200860282008400C0001407B
:20054000C801001000000140002100043C000140080001400400244310B40949094C0B684D
:20056000226808688342FAD1DB01074903EB52620023C1E9002310BCD1E90001704700BF36
:20058000082009400C200940F803002010B50B490B4C0B68226808688342FAD1DB010949BF
:2005A00003EB52620023C1E9002302F063FB00B910BDBDE8104002F03DBB00BF08200940C4
:2005C0000C200940F803002010B505F071F8034B1C6808B905F070F8204610BD08200940D4
:2005E00038B51A4B05461B6804205B6B9847012801D0FFF755FF154B154A1B680020DB6928
:2006000014689847134B0121134A04F00104196013689807FCD5114B11491A460D60196841
:2006200041F4807119601368D905FCD404B138BD064B20461B681B6A9847064B0121064AE7
:20064000196013689B07FCD538BD00BFB80100105420084028200860282008400C0001406D
:200660002C000140704700BF0146012000F052B805F030BA2DE9F04105F01AF81D4E1E4B34
:200680001E4F32680124002580464FF480314FF480703D601C6018601960136828462321E5
:2006A0009847336820461B6824219847336825211B6802209847124A1249136843F4E023E2
:2006C00013600D6005F006FA0F4B1049104A1B6800F50070086014603C601B691420984741
:2006E000B8F1000F01D0BDE8F081BDE8F04104F0E3BF00BF840100100420094000002443C7
:200700000020094008200940B00100101C200940A0022443431E012B10B419D9042801D070
:2007200010BC704700231A4610F004001CBF0E4C216013B10D4B0121196012B10C4B012205
:200740001A600028ECD00B4B01221A6010BC704710F0010302D0084A0123116010F0020204
:20076000E2D0064C2160DFE72020094080022443A0022443C0022443182009401C20094084
:20078000014B1868704700BF2004002008B5FFF76FFF184B1860FFF7F9FE174B1B686BB9E1
:2007A000164B1B68E3B9164B1B6833B11549164B00204FF4803208601A6008BD124B4FF4D6
:2007C00080721A6005F086F900F205200F4B20F4FF7020F001001860084B1B68002BE2D009
:2007E0000B49094B0020012208601A6002F0D8FCD9E700BF20040020A000244380002443B5
:20080000C0002443C0022443042009401C2009408002244303490448044B012208601A60C1
:20082000704700BF00000840FFFF0F00000C0840F8B504F03DFF124AB0FA80F01368012B9F
:200840000BD0104C104D1149114A0123400925600B601360C3070FD4F8BD0E4F094D0A4E12
:200860000A4C0B49400940F0020017602E6023600B601360C307EFD5BDE8F84004F01CBFB3
:20088000000C084000000840FFFF0F000C0008400401004351E5CC1A03490448044B0122ED
:2008A00008601A60704700BF00000840FFFF0F000C00084008B5064802F0C2FF30B1054B48
:2008C0000121054A196013689B06FCD508BD00BF24040020000222431410094070B5054631
:2008E00004F0E6FE0B4C294606460B4802F0AAFFFFF7E0FF236868681B6898472368686833
:200900009B6898471128F9D106B170BDBDE8704004F0D2BEA00100102404002038B550B946
:200920000446134802F08CFF28B1234605C813430028FBD19BB90F490F480B680F4D104C0E
:200940000068002223F4C0530B602A602260C368012098470B4A13689B06FCD438BD054ABC
:20096000136823F4C05343F40063136038BD00BF2404002004100940A001001080012243D5
:20098000000222431410094038B5054604F090FE04462946054802F0A7FF0020FFF7BEFF58
:2009A00004B138BDBDE8384004F086BE2404002070B50446B0B10078C0B1A9B1002566183A
:2009C00004E014F8010F38B1B44205D000F054F9631C05F10105F4D100F062F90128FBD0A7
:2009E000284670BD0546F7E70D46F5E70546F3E710B40B4B0B4C13F8012FFF2A0DD1A34247
:200A0000F9D1094A39B11144013801390B78914200F8013FF9D110BC7047044AF2E700BF46
:200A2000C7FF0100CFFF0100F0120050C8FF010038B50C4D02202B685B6998472B680220B3
:200A40005B6B984701280446064BF7D11B684FF40070DB699847044B044A1C6013689B07D6
:200A6000FCD538BDB801001028200860282008402DE9F04340F2F275DFF8DC8083B0FFF769
:200A8000D7FFD8F800302A4EDB682A4898473368294C5B69152098472368DFF8C090274F64
:200AA00023F4FE63D9F8002023F0020323603D60D36B032098472249D9F800204FF0FF3388
:200AC000082008600093D2F84090022103221948C847D8F800206023D2F8048019494FF43B
:200AE000E1321448C04740F2011240F2013E1649164B142008601968154841F010011960D5
:200B000003681449002B0CBF134673460B603D60036853B12368326843F0500323601369E4
:200B2000152003B0BDE8F043184703B0BDE8F083B00100100010004038100040441000409E
:200B400090200240006CDC02341000402C1000402804002030100040D0010010B4010010E7
:200B600008B5064B02201B685B6B9847012803BF034B186800F00100002008BDB8010010C5
:200B80006C20084038B50446FFF7EAFF18B1264A13681907FCD4032C03D0244B1B6803B11F
:200BA00038BDFFF7DDFFF0B9214D4FF400702B681B6A9847032C2CD01E4B01211E4A196016
:200BC00013689B07FCD5032000F0F2F9022000F0EFF94FF0FF3000F0EBF9BDE838404FF091
:200BE000FF3000F0E5B9154B15481B68DB689847144B15201B685B69984740F2F270124A2C
:200C00001249136823F4FE6323F0020313600860CAE72B684FF400709B6A98472B684FF4E2
:200C200000701B6B9847C7E71810004028040020B80100102820086028200840D001001093
:200C400000100040B0010010381000404410004010B504F02DFD0446054800F08DF9054B27
:200C600000221A6004B110BDBDE8104004F024BDCC0100202804002010B50446FFF770FFDF
:200C800008B9FFF7F5FE044B2146BDE810401B680248DB69184700BFD0010010001000409F
:200CA00008B5FFF75DFF18B1024B1868C0F3C00008BD00BF1810004038B5FFF7B9FE40F264
:200CC000F2710C4B0C4A1B68116013F0500F10D00A4C0B4D05E02B681B699847094B1B686E
:200CE00023B923680848DB06F5D538BDC0B29847F7E738BD401000404410004018100040ED
:200D0000D00100102804002000100040034A136823F00403136030BF704700BF10ED00E0BF
:200D200070B504F0C5FC02F0F7F918B1BDE8704004F0C2BC804802F083FD0225044648B1C3
:200D4000636823B19847A84228BF2846C5B22468002CF5D1FFF78CFC784B04461B68002BA8
:200D600040F0898001F086FF002840F0B2800346012D00F09380022DD8D1002840F0C78049
:200D8000611E2846FFF7C6FC6B4802F059FD0625044600287BD0A368022003B1984723697F
:200DA000246825EA0305002CF5D1FFF775FD6B0705F006046ED4002C40F0A38000F0C2F959
:200DC0000020FFF7ABFD5E495E4A0B685E4823F003030B601368016843F00F0313608B69D9
:200DE00039209847594A5A4900231360184613600B6004F087FA062C00F08E80554C564DBA
:200E0000564E2B682368326823F00303236053680321534898474C4B1B689B6B98472B68EF
:200E200004F0A2FB4F4A3368002111604C485B680121984723684C4A012143F00303236004
:200E400011602B6804F0C8FBFFF734FDFFF79EFBFFF722FD384802F0F3FC044628B1E3683D
:200E600003B198472468002CF9D104F025FCBDE8704004F021BC3D4B1B681B1A022B3BD4A6
:200E8000A3F28F23002BBFF66DAF012335E0FFF703FD0624344B00221A608CE7002842D0EE
:200EA0006FF00702121BDA423AD404F58031CA1A11EA220138BF19460220FFF72BFC2C4ABC
:200EC000136823F00403136030BFBDE8704004F0F3BB01F0D7FE0646FFF73EFB361A002E65
:200EE0007FF724AFFFF74CFC224A00EB4623121BDA421BD401203BE700239D4228BF1D46E4
:200F000030E7114B20461B689B69984756E719462846FFF7FFFB37E7022004F009FC6DE70B
:200F200004F10801C8E704F58031C5E7022DB7D0012D7FF4FBAEB3E72C04002080022443DB
:200F40000010094008100940B80100104010094020042243242208402C200940D8010010E0
:200F600000400340800104430C4009401820094010ED00E071FDFFFF0146014802F062BC27
:200F80002C0400200146014802F0AEBC2C04002010B5054802F050FCBDE81040034B2021F1
:200FA0001B6803201B6818472C04002084010010431C0ED010B50446064B4FF4C0421B685F
:200FC00000211B689847044AA3001A430023136010BD7047B4010010001A4442024B1868F4
:200FE000186002F093BB00BFE020024070B51D4B0C461B6805465B68984714F00C0320F0C6
:20100000E06222F4EC2207D0042B22D0082B26D00C2B08BF42F4403214F003030CD142F486
:20102000C04204F080048CB90E4B2846BDE870401B6800211B681847022B0DD0012B04F025
:20104000800408BF42F48042002CEDD042F48022EAE742F40032DFE742F40052E1E742F407
:201060008032D9E7B4010010064B1B68C340DB074CBF054B054B1B6823FA00F000F0010054
:20108000704700BFD020024080200240C020024000B585B00022412302A802920393FFF76A
:2010A0001DFC042004F034FB032810D00321042004F006FB042004F02BFB0328FAD10090C4
:2010C0001C234FF040520021044804F0B7FC02A8FFF75AFC05B05DF804FB00BF00A00C4042
:2010E00000B583B00022412368468DE80C00FFF7F5FB012004F00CFB012803D00121032010
:2011000004F0DEFA6846FFF73FFC03B05DF804FB00B583B00022412368468DE80C00FFF78A
:20112000DDFB012004F0F4FA012803D0044B986B04F090FA6846FFF727FC03B05DF804FB3A
:201140004800001010B582B041236846002401930094FFF7C3FB0320214604F0B1FA0120E4
:2011600004F0D6FA18B1044B986B04F073FA6846FFF70AFC02B010BD4800001070B50388FE
:20118000044653B1B3F52F7F03D182290AD0012070BD00230380032070BD4FF42F73238086
:2011A000012070BD094B0A4E1D69FFF775FB02F0C9FF02F081FF8021A847002880B2ECDD6A
:2011C00002F074FFF3689847EFE700BF98C70000BCCA0000024B186800F00100704700BFC2
:2011E0009C21084010F0030370B506460D4602D10288110508D404F05BFA1B4B1B68DB07BD
:2012000014D450B3002070BD438004F051FA164B1B68DA07F5D5338813F4405F06D003F4D7
:201220004063B3F5006F04BF104B1E60104B114C1E6023684CF250322B6003E02368013AA3
:201240002B60DED013F0FF0FF8D050B12878A0F10100B0FA80F0400970BD04F02DFA00207E
:2012600070BD04F029FAF1E79C2108405404002000100440041004400A4A01E0013A0ED0DB
:20128000438803F44063B3F5806FF7D1428802F44062A2F58060B0FA80F040097047104641
:2012A000704700BF20A1070030B583B004F000FA254C0546236819201B6A98472368122049
:2012C0001B6A9847236819205B699847236812205B6908349847236801205B6998472368CD
:2012E00001205B6B98470128F9D11849184B194A0860186013689B07FCD5134C1648174923
:201300002268002303600B60136919209847236812201B699847A5B140F2FF35104B114A2C
:201320001149124800240D60046001A91A601048FFF758FFA0F10100B0FA80F0400903B093
:2013400030BD04F0B9F9E7E7B00100102C200840282008602820084010100460141004608B
:201360000010044051000706000004601C1004400100060410B586B01422002101A80BF0E6
:2013800009F940F60A0215499DF811300C68012161F3030301A8694605948DF81130ADF889
:2013A0000420FFF71FFF012802D0002006B010BD0B4801E00138F9D0BDF8063003F440639C
:2013C000B3F5806FF6D1BDF8060000F44060A0F58060B0FA80F0400906B010BD6804002079
:2013E00020A1070000B587B01422002101A80BF0D1F840F609029DF81130012161F30303E2
:2014000001A869468DF81130ADF80420FFF7EAFE012803D0C0B207B05DF804FB104801E055
:201420000138F8D0BDF8063003F44063B3F5806FF6D1BDF8063003F44063B3F5806F03D0D9
:20144000002007B05DF804FB064B1A782AB9064A0599012011601870DDE70120DBE700BF2D
:2014600020A10700502000206804002030B587B004F01EF9314C0546236819205B69984732
:20148000236812205B6998472D4B1B68DA071AD52C492D4A00230B6002A8194613601022F9
:2014A0000BF078F840F60D029DF81530012161F3030302A801A98DF81530ADF80820FFF745
:2014C00091FE01282CD0FFF78DFF2048204B00240121204A0460196013689B07FCD51E4C1E
:2014E000012023689B699847236801205B6B98470228F9D1114C192023681B6A9847236808
:2015000012201B6A9847236819201B699847236812201B6998470DB904F0CEF807B030BDCA
:201520000E4A01E0013ACED0BDF80A3003F44063B3F5806FF6D1BDF80A30C4E7B001001057
:201540009C21084010100460141004602C2008402820086028200840B801001020A1070015
:2015600008B504F0E9F9052803460BD003280DD018B101280FD0002008BD094B03221A60D6
:20158000012008BD064A0120136008BD044B02221A60012008BD024A0521116008BD00BF82
:2015A000D021084008B5FFF77FFE012803D0FFF75DFF002008BDFFF7DDFE0128F7D108BD08
:2015C00008B5FFF70FFFFFF7D5FE012802D0FFF74DFF002008BD00BFF8B5174B174A19789F
:2015E0001268174B002914BF00241C46D30700D4F8BD04F05DF80646124D1349134F144A1A
:2016000014482B680F600021046011601B6A192098472B6812201B6A98472B6819201B6960
:2016200098472B6812201B69984706B1F8BDBDE8F84004F041B800BF522000209C21084017
:201640000000C080B001001018100460000040801010046014100460084B1B7833B1002047
:2016600002460749074B0A6018607047064B0749074A00280CBF18460846F2E752200020EB
:2016800010100460141004600200C0800800C0800000C080044A054B1178054A002918BFFE
:2016A00000231360704700BF522000200000C08014100460014B1868704700BF540400200A
:2016C00038B5044615460A4600210AF063FF637B012262F303032580637338BD014B18601B
:2016E000704700BF5C04002038B5064B064C1D68064A00234FF434410548256001F07EFB78
:20170000012038BD04300440300400208517000034040020164B1B68DBB170B59B6898477C
:2017200008B9002070BD03F0C3FF124B124C1D680646002115F1804022684FF0000341F175
:201740000001994208BF904209D325601EB1012070BD0020704703F0AFFF012070BDFEF7DB
:2017600087FF064A06491368086001331360ECE75C0400200430044030040020580400201F
:201780006004002070B5134B1B68B3B19B689847D8B9114D2B6A984701280ED1FFF7BAFF5F
:2017A0006B6A0446984744B1BDE8704000230B4A4FF434410A4801F021BB0023074A80217D
:2017C0000748BDE8704001F019BBFFF7A3FF0446E9E700BF5C04002098C7000085170000B4
:2017E00034040020F8B5224C2368002B3DD09B680646984700B3FFF78DFF1E4BB6F1404FB1
:201800001F6825D822681C4BB2F90C401968E517641A65EBE1750022A41945F10005A018E9
:2018200045EB0701090241EA106143F60952002300020AF013FCF8BD104D2B6A9847FFF78B
:2018400069FF6B6A98470B4BB6F1404F1F68D9D9FEF70EFF0A4B1B68C3F17E4303F57203EB
:20186000C34248BF07F1FF37CCE71846F8BD00BF5C040020580400206804002098C70000C2
:201880006004002010B5104B1B68DA0704D4FFF70BFD012800D010BD0C4C23685B0204D48C
:2018A0000A4B6FF000421A6010BD094B012209481A7001F067FC6FF480032360034B6FF02F
:2018C00000421A6010BD00BF9C2108401010046051200020E001002008B5124B1B68D90728
:2018E00007D4114804F0DEFDFFF7DEFC012800D008BD03F0DDFE0D4B1A6812020BD40B4B66
:201900001A6812F00A0F1CBF6FF00A021A60BDE8084003F0D1BE6FF400021A60044801F0DF
:2019200031FCECE79C210840E8C6000010100460E0010020014B1878704700BF5420002089
:2019400008B5FFF747FC30B1034B5888A0F10200B0FA80F0400908BD8004002008B5FFF770
:2019600039FC30B1044B5B88022B14BF0220012008BD022008BD00BF8004002030B583B0B5
:20198000FFF728FC154C48B9144D01A92846FFF729FC012809D0002003B030BD6388022B5D
:2019A00008BF0120F0D103B030BDFEF761FE6B88022B0DD06FF03F052D1A04E0FEF76CFF5F
:2019C0006388022B04D0FEF753FEE842F6D46388A3F10200B0FA80F04009E4E7800400208E
:2019E00008B5B32994BF0A46B422014602480AF0F7FC002008BD00BF0205002030B589B06E
:201A000002A840F602021821FFF75AFE124A9DF81830126803F0F8039588104C6FF3C30319
:201A2000012202A801A9ADF81A508DF8183007948DF81620FFF7D6FB012802D0002009B062
:201A400030BD02A8FFF718FCA0F10100B0FA80F0400909B030BD00BF04020020080200203B
:201A600008B5FFF7CBFF012801D0002008BDFFF785FFC0B208BD00BF70B50E4D0E4E2C682A
:201A8000002006E02379022B06D024682B689C420ED02379032BF5D133780120002BF4D17A
:201AA000064801F06FFB24682B6801209C42F0D170BD00BF7404002052200020E001002087
:201AC00030B583B0FFF7F6FD0446FFF783FB08B903B030BD01A90E48FFF784FB0128F7D180
:201AE000FEF7C6FD638803F44063002BF0D16FF03F052D1A06E0FEF7CFFE638803F44063A6
:201B0000002BE5D1FEF7B4FDC542F4D4E0E700BF010001040B2807D00C2801D001207047FC
:201B2000042A11D002207047082AFBD10029F9D0094B0139A3F1080013F8012D834201F8AC
:201B4000012FF9D1002070470029EBD0034B00201B680B60704700BFB004002064040020A2
:201B600000B585B0002102A808220AF013FD42F2034302A801A9ADF80830FFF733FB20B1DC
:201B80009DF90A30803303D0002005B05DF804FB9DF80C0000F00C00A0F10400B0FA80F07A
:201BA000400905B05DF804FB30B583B0FFF712FB002839D01E4D6B88022B35D1FEF758FDAC
:201BC0001C4C241A08E0FFF7CBFF48B1FEF750FDC44205D5FEF760FEFFF7FCFA0028F2D172
:201BE00001A91548FFF7FEFAFEF742FD6FF03F04241A08E06B88022B09D1FEF739FDC442C9
:201C000005D5FEF749FEFFF7E5FA0028F2D142F202426B88934207D042F20740181AB0FA80
:201C200080F0400903B030BD012003B030BD00BF8004002000FEFFFF010001040B2801D021
:201C400001207047082A01D0022070470029FBD0104B083103F1080011F8012D03F8012FEA
:201C60008342F9D110B5FFF7B5FA88B10A4B5B88022B0CD1FFF798FF01280CBF0024032424
:201C8000FFF77CFE01280CBF2046032010BD002010BD00BFA70400208004002030B585B055
:201CA000FFF798FA18B1144B5D88022D02D0FF2005B030BD42F2034402A8082200210AF063
:201CC00069FC9DF80C3065F301038DF80C309DF80C00002100F00303022B4FF00802E7D1CB
:201CE00002A80AF057FC01A902A8ADF80840FFF779FA0028EBD1DAE78004002008B5FFF747
:201D000019FE012814D0FFF765FA88B1094B5B88022B0DD1FFF75EFA30B9FFF7BFFFFF28BD
:201D200006D0C0F3801008BDFFF71AFF0028F4D0002008BD8004002010B5FEF799FC194C8D
:201D4000241A08E0FFF70CFF48B1FEF791FCC44205D5FEF7A1FDFFF73DFA0028F2D1FFF760
:201D600023FFFFF783FBFFF7EDF90F4B0F48197900220229428012D00D4B1A79022A04BFE3
:201D800000221A710B4B1A79022A04BF00221A71094B1A79022A04BF00221A7110BD1A7136
:201DA000EAE700BF00FEFFFF5406002080040020B8050020E00600206C07002008B5FFF750
:201DC000B9FD012801D0FFF7B7FF012008BD00BFF8B5FFF7AFFD012830D0FFF781F9FFF724
:201DE000F9F938BB1B4A1C481C491D4B92F805E047794E795D79012464F3830E64F38307AE
:201E000064F3830664F38305842482F805E0106047710160C480D480CC804E710B601A60EB
:201E2000DC805D71FFF774F9FFF7BCFB012807D00020F8BD0B4B5B88022BD3D10120F8BDB3
:201E4000FFF7CAFBFFF7DAFD0128F1D1BDE8F840FFF794BD54060020B8050020E00600208E
:201E60006C0700208004002070B584B0072800F2B180DFE800F01D63252E315E6D04564C54
:201E80002177FFF7A7F908B36388022B1ED1FFF78BFE012814BF03240024FFF791FB0128E1
:201EA0007FD0FFF76BFD012879D0032004B070BD012900F08380002976D0022004B070BD70
:201EC000454C6186FFF786F90028DDD1002004B070BD414C2186D4E731F00702EDD13E4CDD
:201EE0003E48237EC1F3400561F30003DBB243F00203067865F38203657EC1F3800103F040
:201F0000870362F3C71362F3C7158E42657623760170B6D104F11801022231480AF060FA9C
:201F200003A93048FFF75EF9002814BF00200320BCE731F00103C0D1C8B2B7E7A1F10B03E1
:201F40000F2BBAD8244CA37B9942BFD0A17398E701F115031A2BB0D8234A6FF014030C2440
:201F600001E052F8343099422EDD14F1FF34F8D2FFF730F9002899D003A8042200210AF04E
:201F800009FB194B03A803EBC404A288102302A9ADF80E20ADF80C30FFF724F996E72046C6
:201FA00084E7FFF7B7FB7CE70191FFF7C3FC01288CD0FFF7C1FE0199084677E7FFF708FFE7
:201FC00001287FF472AF81E7074B084A03EBC4031360CDE7012069E78004002052200020B5
:201FE0006E0400206C04002030C700000402002099B170B50C4684B0172800F2B380DFE882
:2020000000F012ACA7A28B0E817B47413CB1B1B138342F2BB127231F0E87022070470020EF
:20202000086004B070BDFFF7D5F830B1594B5888A0F10200B0FA80F0400920600020F0E7C2
:202040000A230B600020ECE720230B600020E8E703230B600020E4E705230B600020E0E762
:202060006FF014030B600020DBE71A230B600020D7E70B230B600020D3E7474B00201B785F
:202080000B60CEE7454B00201B785BB20B60C8E7FFF7A0F8002867D03E4B5B88022B08BF69
:2020A000002661D1082202A800210AF073FA9DF80C30022262F383038DF80C3042F203455F
:2020C0000AE002A80AF066FA01A902A8ADF80850FFF788F800284DD09DF80C20002102F032
:2020E0000C02082AEDD0002E4CD19DF90A30236080330FD1032094E7264B002093F91C30AB
:202100000B608EE7264B00201B681B680B6088E718230B60002084E700231E4A0B60137EB6
:2021200003F001030B60127E520744BF43F002030B601C4B1B78002BECD00B68002043F007
:2021400004030B606DE7134B00201B8E0B6068E7104B00205B8E0B6063E70E4B00209B7B30
:202160000B605EE701205CE7FFF732FE012805D1064697E780238DF80A301EB96FF07F0342
:202180002360B7E7FFF7D6FB0128AED0FFF7D4FDABE700BF8004002053200020F20300204C
:2021A000040200205220002070B588B00546FFF711F800284DD03A4B5B88022B08BF0026F9
:2021C00047D1FEF755FA6FF01F04241A07E0FFF7C7FC012851D1FEF74BFAC4424FD5FEF79F
:2021E000F9FF0028F3D1182102A842F60142FFF767FA2C4B0022EDB28DF8175006930492F3
:202200009DF81430012062F303038DF81430FFF723FA02A801A9FEF7E5FF08B3224CBDF882
:202220000A30227803F4406333B972B3BDF80A3003F44063002BF8D0BDF80A0080B2B0F50D
:20224000105418BF0124FFF725FA76B9204608B070BDFFF7BDFD012815D0012008B070BDCB
:202260000124FFF717FA002EF0D0FFF763FB0128ECD0FFF761FD2046F0E70028B3D03EB9D8
:20228000022008B070BD06469BE7FEF73FFDC6E7FFF750FB0128F3D0FFF74EFDF0E700BF87
:2022A00080040020020500205220002010B50C46B32998BF2246014688BFB42203480AF066
:2022C0008FF82046BDE81040FFF76EBF0205002010B5FFF72FFB01282ED0FEF77BFF00B3A4
:2022E000204B5B88022B1CD1FEF7C2F91E4C241A08E0FFF735FC48B1FEF7BAF9C44205D58E
:20230000FEF7CAFAFEF766FF0028F2D1FFF7C6FCFF2811D000F0030010F1FF3018BF0120E4
:2023200010BDFFF755FD0128044607D0FFF702FB012801D0FFF700FD012010BDFFF7AEFCD0
:20234000FF2805D000F0030010F1FF3418BF0124FFF7F0FA012803D0FFF7EEFC204610BD6F
:20236000204610BD8004002000FEFFFF2DE9F047334F82B0814688463E68FEF779F9314D69
:202380002D1A03E0FEF774F9C54208D53479022CF8D0032C06D0002002B0BDE8F08734798A
:2023A000032CF8D13968DFF898A00E7AF6B2062E02DDB51F454508DD0B680020CAF800306A
:2023C0000871087202B0BDE8F087093148462A460AF006F8DAF80010F31CCB5CDFF870901D
:2023E0005BB289F80030331DCB5C04220536DFF8648003F03F030DEB0200314488F8003038
:2024000009F0EEFF0198FFF7EDF90F4B0F4A1B7810603BB13B6800221968284639601A72E6
:202420001A71B9E799F80010042049B289B201F0DDFE98F80010204601F0D8FEEAE700BF4D
:202440007C040020FAFEFFFF5220002064040020F203002053200020F8B5474E4748FEF75E
:202460008BFDFFF77DF830468C2200210AF092F88C22002142480AF08DF88C220021414870
:20248000414C0AF087F88C220021404800250AF081F83F4F3F4B2946802220461E603E609C
:2024A0007D600AF077F842F6010E3B4E42F2020C30462761277B617E0222237E65F303071E
:2024C000A4F800E094F80DE062F301012773012765F3C71167F3030E43F00703617684F8C3
:2024E0000DE0E17E4FF01A0E03F0870365F3C71384F80EE04FF0B10E84F80FE02376DFF837
:20250000A4E094F8373001F0800141F06F0167F30303C4F814E0E1764FF0FF0EA62120F89F
:2025200002CB84F81AE084F837302177658004F118016560A560A577E57725626562A56352
:2025400009F04EFF3A4604F11A01301D09F048FFFFF73EFCB84202D02C462046F8BD044645
:202560000E48FFF7BBF8FFF7BFF829460C4800F041FD2046F8BD00BF54060020F001002059
:20258000B8050020E0060020800400206C070020740400207C0400206C040020D0C70000C2
:2025A000E00100204406002008B500F08BF880B208BD00BF00F010B938B50C4D04202B6814
:2025C0005B6998472B6804205B6B984701280446064BF7D11B6840F20140DB699847044B08
:2025E000044A1C6013689B07FCD538BDB80100102820086028200840034B1B68002B14BF56
:2026000001200220704700BFF8070020F8B503880446002B2ED0B3F5847F05D1184B1B78C0
:202620008B4205D00120F8BD002303800320F8BD144D2B6873B1144B144A1B6812685B680F
:202640000220174698470026301847F100012B6898472E600E4B40F201401B689B6A984742
:202660000C4B01210C4A196013689B07FCD50B48FEF788FC4FF4847323800120F8BD00BFE6
:20268000F3030020F8070020CC01001004800240B801001028200860282008403402002003
:2026A00008B5064B04201B685B6B9847012803BF034B1868C0F34000002008BDB801001066
:2026C0003C20084070B5274B1B689BB1264C0023224612F8011B29B90133042BF9D100209E
:2026E000014670BD214A002502EBC302E55492E8030070BDFFF7D4FF00282FD01C4A1D4B83
:202700001268134073B91C4A0121134611601A68002AFCD110464FF4807103F0CBF8174B53
:2027200001221A6002F0C4FF0646114A1368DB07FCD5134B134A1B6814685B6802209847F4
:2027400023460022141843F1000516B12046294670BD02F0B1FF2046294670BDFFF72CFFFB
:20276000CCE700BFF8070020FC070020000400200880024001000080F09F0240A802504229
:20278000CC0100100480024038B50E4D00240E4A2C6013680D4923F00103096813604B69C6
:2027A00031209847224620464FF4807103F082F80122074B2A6019782246BDE83840054818
:2027C00000F0B4BCA80250420C800240B0010010F30300204802002010B5074C2378802BF0
:2027E00000D010BD00F0FEFB207000210348BDE8104000F0FFBB00BFF30300204802002079
:2028000008B502F055FF003018BF012008BD00BF80F31088704700BF70B5674CFDF7C4FCFC
:20282000FDF74EFE00F0BAFC00F008FC0021634800F0E0FB00F0A8FAFDF7ECFF00F048F985
:2028400000F0E6FCFDF7EEFC01F0FCF801F01AFD00F044FA2368022B3ADC08225849594873
:2028600009F0BEFD0021584800F0C4FB4FF0FF3004F000FD23680546022B4F4E11DCFDF754
:20288000E7FC524800F0C6F8FDF7D2FF00F0F0FB0446FEF701F814F0FF0FF7D1FDF744FD26
:2028A000F4E74B4A4B494C4803F0FCFD4B4803F0F9FD3368022BE2DD002D7AD0A81C00F066
:2028C000CDF82368022BDADD454803F0EBFDD6E73F4A4049404803F0E5FD424803F0E2FDD4
:2028E0002368022BB9DD3A4A3A493B4803F0DAFD3D4B3E48196803F0D5FD2368022BACDDA1
:20290000334A3449344803F0CDFD394B3948196803F0C8FD2368022B9FDD2D4A2D492E48AF
:2029200003F0C0FD344B3548196803F0BBFD2368022B92DD264A2749274803F0B3FD4AF666
:20294000CD312F4803F0AEFD2368022B85DD204A2049214803F0A6FD1A212A4803F0A2FD39
:202960002368022B7FF779AF194A1A491A4803F099FD254B2548198803F094FD2368022B96
:202980007FF76BAF124A1349134803F08BFD204803F088FD2368022B7FF75FAF084800F0BD
:2029A0006DF82368022B7FF758AF0D4803F07AFD53E7284683E700BF580200205C020020F5
:2029C0009C200020402200204003002078CC0000FCC7000040C6000048C60000C8C800008B
:2029E0008CCC000004C800001CCC00003CC8000028CB00004CC80000BCCA000058C800001A
:202A000064C8000080C8000044200020A0C80000B0C8000010B50446006830B1002100F075
:202A2000E9FA54F8040F0028F8D110BD10B541600446FDF7C9FD206010BD00BF10B5044611
:202A4000FDF7C2FD94E80A00034A0B44C01A90428CBF0020012010BDFEFFFF7F00B58BB031
:202A600002462821684604F04DFE6946024803F019FD0BB05DF804FBECC80000D0B170B56D
:202A8000054601260024C4B1E30709D529780D4803F008FD082E0CD0013601350134F2E7E8
:202AA000094803F0FFFC2978064803F0FBFC082EF2D170BD054803F0F5BC2978014803F00A
:202AC000F1FCE9E720C900001CC900000CC90000704700BF10B50E4C2368B3B1FDF73CFDE5
:202AE000226892E80A0092680B44191A4AB114685368926823441B1A994228BF1946002A39
:202B0000F5D1044B0144196010BD024A136010BD00080020040800202DE9F0410388054618
:202B20007BB1592B08D1872912D0822920D059232B800120BDE8F081002303800320BDE813
:202B4000F081254A0120136059232B80BDE8F081214F39680029EAD0CB689A4203D024E0EA
:202B6000CB689A4220D189680029F9D13960DEE7194F4FF000083C68002CD8D0002604E0E2
:202B8000A3682646002BD2D01C46204600F032FB0028F5D022468821E06800F0C7FA78B1EC
:202BA0000E4800F0EFFAEBE739608B68002BBED0D86882420BBF9B6819468B609B68F5E7D5
:202BC000E060A3682EB1B360C4F80880FFF782FFD1E73B60F8E700BF000800205C02002066
:202BE00010B50446104800F0CDFA1049E3680A684BB142B194420FD0134601E09C420BD00A
:202C00009B68002BFAD10A4BA2601B680C60E360BDE81040FFF75EBF054B1B68E360BDE86F
:202C20001040FFF757BF00BF5C020020000800200C080020014800F0A5BA00BF5C020020CA
:202C400010B5044600F0C0FA2046BDE81040FFF7C7BF00BF10B5044600F0BEFA2046BDE863
:202C60001040FFF7BDBF00BFC068B0FA80F04009704700BF024B1868003018BF0120704726
:202C800000080020024B186808B1024B18687047000800200408002010B50F4B04461A68C3
:202CA000824213D072B19368984208BF134605D043B19A68944201D01346F9E7A2689A60A6
:202CC000FFF708FF0023A360E36010BD82681A60FFF700FFF6E700BF00080020034A04490A
:202CE0009079D37903EB00230B8070479C20002044200020F0B5038883B005465BB14A2B9D
:202D000004D188291BD0012003B0F0BD00230380032003B0F0BD194800F092FD044630B18D
:202D2000A168201DFFF78CFF2468002CF8D1144B01221A704A2301202B8003B0F0BD0F484F
:202D4000019200F07DFD04460028F3D0019A031D9A4205D02468231D002CEBD09A42F9D17C
:202D60002146064800F0C0FD064E6269A369376832600BB1E06998473760DBE70808002028
:202D8000552000200C08002010B5064B002406481C7000F051FD2146BDE81040034800F081
:202DA00029B900BF55200020080800206C02002070B504460D48049D0078A261E361656135
:202DC00030B9A1600A482146BDE8704000F03ABD084D094B2E68201D2B60FFF731FF2E6059
:202DE0002146BDE87040024800F02CBD55200020080800200C0800206C02002010B5044C58
:202E000082B024680094FFF7D3FF02B010BD00BF0C08002070B5094B04461B783BB1084D8F
:202E2000084B2E6804302B60FFF714FF2E602146BDE87040044800F005BD00BF5520002045
:202E40000C0800206C0200200808002010B50A4B04461B783BB9C36003612146BDE81040B2
:202E6000064800F041BD0430FFF716FF2146BDE81040024800F038BD552000200808002087
:202E800038B50D4B1D7875B904460C4800F0D8FC38B1844202D10DE0844209D0006800282A
:202EA000FAD1012038BD0430BDE83840FFF7DCBE002038BD284638BD552000200808002013
:202EC0002DE9F843DFF8A480274DD8F800702E68874247D077B33B4601E0002B3BD01B6837
:202EE0009842FAD133B3837B8946044623B3002383736FB1BC424FF0870106D0BB7BDB076E
:202F000003D52246384600F033F83F68002FF1D1A3683BB14C4505D02C600022832104F19C
:202F20000C009847D8F80000844208D12368C8F800302E60BDE8F88338468442F6D00028DC
:202F4000F7D003689C4208D0002BF2D01A68944204D01346F8E7BDE8F883034622681A60CB
:202F60002E60E7E73B46BDE70C0800201008002070B586687EB104460A4802230460A373E7
:202F800004F10C000D46B0470238012804D9832D02D00123A37370BD21462046BDE870409B
:202FA000FFF78EBF0C08002070B50C4A0C4B146800251D7084B1012601E0246864B1E37B5E
:202FC000002BFAD0A673E573204600228221FFF7CFFF2468002CF2D170BD00BF10080020FD
:202FE00058200020024B1878421C1A70704700BF5920002070B50F4D2C68844206D034B1CF
:20300000234600E01BB11B689842FBD170BD0028FCD00346084E04600A4634680120002120
:2030200098739981184681212B60FFF7A1FF346070BD00BF100800200C08002070B40748EB
:203040000749084A0023084D084C8A2603700B6013602E70237070BC704700BF5720002097
:20306000100800200C08002059200020562000202DE9F041234D2B780BB1FFF795FF224EA5
:203080003378BBB12148224F0278013B02EB4201890001327C1802F01F020270A068DBB2EF
:2030A00033707F5CD4F8048098B1812F06D0827BD20705D428781844BDE8F0810123837398
:2030C00042463946FFF754FF337828781844BDE8F081104A146834B9ECE7A37BD9070AD471
:2030E0002468002CF0D02B78002BF6D0FFF75CFFA37BD907F4D5424639462046FFF738FF12
:20310000EEE700BF5820002057200020562000201408002010080020024A034B10781B782D
:20312000184470475720002058200020F0B40C4D2C78202C11D00B4B0B4E1B78671C234453
:2031400003F01F0303EB43039B00F418A06062602F70F1540020F0BC70470120F0BC7047D2
:2031600057200020562000201408002038B5837B034CDB07256801D5FFF7FAFE256038BDFF
:203180000C08002038B1837B013B012B03D8024A01231370C373704758200020FDF762BA49
:2031A00010B5084C206858B100224368816822609847236823B1BDE810401868FDF754BA78
:2031C00010BD00BF9409002010B541600446FDF7C3F9206010BD00BF10B50446FDF7BCF982
:2031E00094E80600C1F101031844904284BF5218226010BD10B50446FDF7AEF9236862686E
:20320000C3F101031844904294BF0020012010BD084B82B002AA42F8043D9A4288BFCD21AA
:2032200003D903F8011B9342FBD10348002102B0FFF7E0BED22900207C02002038B5134C43
:20324000FDF72AFB2378124DCD2B08D0AC4202D30EE0AC4214D014F8013FCD2BF9D1AC420C
:2032600002D30DE0AC420BD014F8013FCD2BF9D0FDF712FBAC42064804D2001B80B238BD61
:20328000FDF70AFB4FF6FF7038BD00BFD22900200050002070B5038804465BB1902B05D1AB
:2032A0001848FFF7E1FC70B9012070BD00230380032070BD4FF4A0611248FFF7C1FC90236A
:2032C0002380012070BDFFF7B9FF0F4D0F4B06465D1BADB2A8420DD90D4B1B68002B09DDBA
:2032E0000C4A0D490D4803F0DDF82A4631460C4803F0D8F80348FFF7ADFC902323800120A6
:2033000070BD00BF98090020D22900200050002058020020D8C90000E0C9000048C60000A3
:20332000E4C9000010B5044690F84C200346013280F84C2080212030054AFFF75FFD054B9B
:203340002246BDE8104019780020FFF7EFBE00BF25330000CD29002070B5038804464BB199
:20336000CB2B03D1822909D0012070BD00230380032070BDCB232380012070BDFFF740FAAC
:20338000BFF35F8F104B00221E681A60BFF35F8F0E4DFFF73DFA286820B9EBE755F8040F4D
:2033A0000028E7D090F8453026FA03F3DB07F5D5FFF766FD0028F1D02B68054A18460221CA
:2033C000FFF71CFDEAE700BFB40900209801002011340000034A1368034303481360FFF7B1
:2033E000D1BE00BFB40900208C02002010B5044690F84500FDF738FE10B994F8440010BD88
:20340000012806BF94F8440080F00100002010BD70B50446FFF734FD00B970BD04F12005FA
:203420002846FFF72DFD06462046FFF7DFFF01280ED00028F1D1002EEFD12846FFF706FD32
:203440000D4B22463046BDE870401978FFF76EBE002EE2D000262846234684F84C60074AD8
:203460007E21FFF7CBFC064B30462246BDE870401978FFF75BBE00BFCC29002025330000A0
:20348000CE2900202DE9F843FFF7ACFD214B224C1870FFF7A7FD214B214F1870FFF7A2FD30
:2034A000204D2368204A00212870B9607A6043B3DFF880801D4E0125D8F80020996C926BAE
:2034C00093F8450041F08C0990472368494693F84500FDF78BFD2268D8F8003092F84500C0
:2034E00005FA00F232601B6B98472368BA6893F8451054F8043F05FA01F10A43BA60002B45
:20350000DAD10B480021FFF775FDBDE8F843044800F0F6B8CE29002098010020CC29002075
:20352000A8090020CD290020D5330000E02002408C020020B4010010F8B5048805466C2CCB
:203540000BD07E2C04D0CCB1002303800320F8BD85291AD11D4C002323601C4C264604E0B7
:203560000A2814D023687E2B2ADD194800F058FA431CF5D16C232B800120F8BDFFF732FDFD
:20358000144A124B10701C60E7E70120F8BD0F4C114F23680F4A581C0026117820603A460E
:2035A0003046FE54FFF7C2FD0C4B324618688521FFF7BCFD0028CED17E232B800120F8BD01
:2035C00005495A1CC8543260CFE700BF400A0020380A0020CF290020440A00200C0800207E
:2035E00008B505490548802200F012FABDE8084000210348FFF7FEBCB8090020380A002089
:203600009C020020F8B5144D144E0024336815F81400DB6B01349847042CF7D10E4A104F93
:20362000104E00230F20012440FA03F1C90706D5517851B115F8131004FA01F1316001332C
:20364000042B02F10202EFD1F8BD15F8131004FA01F13960F3E700BF94C60000B40100105E
:20366000A020024090200240F0B40F4C0F4F22460F4E0023012540FA03F1C90706D5517849
:2036800059B114F8131005FA01F131600133042B02F10202EFD1F0BC704714F8131005FAC4
:2036A00001F13960F2E700BF94C6000090200240A0200240F0B40F4C0F4F22460F4E002354
:2036C000012540FA03F1C90706D5517859B114F8131005FA01F131600133042B02F102020D
:2036E000EFD1F0BC704714F8131005FA01F13960F2E700BF94C60000A02002409020024008
:203700000146014800F09EB8C40A002038B50546074800F095F848B10446A068284002D05C
:20372000636803B198472468002CF6D138BD00BFC40A0020014800F07FB800BFC40A0020ED
:203740002DE9F04104880646772C30D07E2C27D024B1002303800320BDE8F081FFF742FC1E
:203760002F4F304B304D3A6818702C60002A55D02346A0462D4C04F80380936800218020CB
:2037800098472B68013357F823202B60002AF2D1DBB2274A1370772333800120BDE8F08174
:2037A000204B1B788B421CD00120BDE8F081DFF880801D4D98F800201E4F00233B602B6074
:2037C000002AE8D0194CE256002A18DB2B6898F80020013393422B60F5DB3B68002BECD11B
:2037E000D9E7114D114CDFF84880124F2B683A68E15C013201F07F01E1543A60E7E7084A49
:20380000084952F8232009780020FFF78FFC0028ECD17E2333800120BDE8F0811346B8E740
:2038200000000020D0290020CC0A00206C2000205A200020C80A002000230360704700BF25
:203840000068704710B404685CB1A14223D023680BB906E0134699420FD01A681C46002AE0
:20386000F8D100230B6002680AB910E01A461368002BFBD1116010BC70475CB10A6822600D
:2038800000221A6000230B600268002AEFD1016010BC70470C46226823460260F0E700BF89
:2038A00030B4056865B1A94219D02B682C460BB906E01346994207D01A681C46002AF8D13C
:2038C0000D60016030BC704744B10A68226000221A6005680D60016030BC70470D462A682F
:2038E0002B460260F3E700BF10B404685CB18C4212D023680BB906E01346994205D01A68AF
:203900001C46002AF8D110BC70472CB11A68226000221A6010BC70470A680B460260F7E7CC
:2039200003682BB100201B680130002BFBD170471846704700B10068704700BF10B504460B
:2039400042880021406808F025FE23886288A06802FB03F2BDE81040002108F01BBE00BF84
:2039600030B44588BDB141680B7863B14A1C002303E01478114601322CB10133AB42F8D19F
:20398000002030BC704701220A700288806830BC03FB020070472846F3E700BF70B44488BB
:2039A00082685CB18A4206460BD00588002301E0914207D00133A3422A44F9D1FF2070BC46
:2039C000704700237268D05C0028F8D00138D054726870BCD05C704783688B4208D842886F
:2039E000008800FB023081422CBF00200120704700207047418849B143680020194413F89F
:203A0000012B02B901308B42F9D17047084670470023013A0160027143718371704700BFEB
:203A20000346807959791A79091A114207D010B4411C1C680A40205C9A7110BC70474FF05A
:203A4000FF30704708B50448FFF778FFBDE808400248FFF773BF00BFC8020020BC02002024
:203A60000148FFF7C7BF00BFBC02002038B50F48FFF776FF044688B10D48FFF771FF0546AC
:203A8000206060B100F0ACFA05F19C01A5F8800005F1820000F086FB204638BD38BD2146AF
:203AA0000248FFF77BFF284638BD00BFBC020020C8020020006800F19C01823000F072BB9D
:203AC00010B5044607482146FFF786FF00B910BD21680548FFF762FF2146BDE8104001484E
:203AE000FFF75CBFBC020020C802002010B5044609482146FFF770FF00B910BD2468B4F803
:203B00008010204600F02EFB04F19C0104F18200BDE8104000F058BBBC020020036803EB5E
:203B20004101B1F88200704738B50F4D002818BF05460E48FFF784FE044650B1211D284609
:203B400000F0B6FB40B92046FFF7F4FE04460028F4D14FF0FF3038BD054B06489B68E41A44
:203B6000A41000FB04F038BD38CA000080100020D4020020ABAAAAAA10B10368072B0ED917
:203B80000C4A1368072B12D830B40B4D5C1C03608160146045F82300012030BC7047064A58
:203BA00052F823309842EBD18160012070470020704700BF7411002054110020F8B5064660
:203BC00008461A4F1A4C1B4D36B358B1F1687368401A90FBF3F0411C24D0BB6800EB4000D3
:203BE00003EB8000FFF7A6FED8B1BB68C31A9B1004FB03F35A1C17D07268F06803FB02F312
:203C0000C0180ED093FBF2F35A1CDDD0EB5C32681341D907D8D5F8BD3046FFF78BFE304676
:203C2000F8BDF8BD0020DDE70020F8BDD4020020ABAAAAAA4411002010B504461648FFF7EA
:203C4000FFFDD8B1154A164B9168401A801003FB00F394B1591C17D06268E06802FB03F3A5
:203C6000C0180BD093FBF2F35A1C07D00D492268CB5C1341DB0701D510BD204601462046DE
:203C8000BDE81040FFF79ABF002001462046BDE81040FFF793BF00BF80100020D402002071
:203CA000ABAAAAAA441100202DE9F04F754D83B0002918BF0D460446284690469946FFF7E6
:203CC00033FF421C1ED00746002C34D06368E6681A4603FB07660021304608F05BFC6EB100
:203CE000E2686368B21A92FBF3F35A1C06D066482468C15C0122A2400A43C254304603B03C
:203D0000BDE8F08F614F3846FFF72AFE0646E0B1804641465E48FFF795FDBF685D4BF61BFB
:203D2000B610294608F1040003FB06F700F0BCFA0CB1791CCAD100216268084608F02AFC6C
:203D40000026304603B0BDE8F08F4946404605F0CDFF0028F4D0FFF7E7FE431C4ED0BA68B4
:203D60004D4B00EB400912EB8909195C46D001B11E54454BC2EB090200934E46DFF8208152
:203D8000DFF810A101941EE0996849B30AFB0CFCBCF1FF3F14D0D3F804B0D8680BFB0CFE60
:203DA00010EB0E000CD09EFBFBFEBEF1FF3F07D0009C1B6814F80EE04EFA03F3DC070BD4AF
:203DC000364B98450FD058F8043F4FEAA20C002BDAD10AFB0CFCF3E78847BA68C2EB0902C6
:203DE0004FEAA20CF5E7009A002349462848019C02F80C30C846FFF777FD8AE72448FFF726
:203E00001FFD814600289BD04FF0000BDA46DFF88880204E4846019402E0FFF78BFDD0B171
:203E2000BA68821A931006FB03F318F803100029F3D1154CE35C0094CBB1DC0748BF01314E
:203E40005B10FAD1BAF1000F01D05945E5DAB1B18B468246E1E7019CBAF1000F3FF470AFD8
:203E6000BA68094BD1460093C2EB0A0285E7BAF1000F04D0BBF1000F01DC9B46CDE781467B
:203E8000019C7AE738CA000044110020D402002080100020ABAAAAAA70100020701100201D
:203EA0005011002010B504460846FFF73DFEB4B1411C12D06168E26801FB00F3D0180DD088
:203EC00093FBF1F35A1C08D006492268CB5C134113F0010F08BF002010BD002010BD2046B4
:203EE00010BD00BF44110020034610B311B370B4C56844684A1B92FBF4F2501C1CD00F4E67
:203F00001C68B55C012000FA04F425EA0404B454DD685C68491B91FBF4F14A1C07D0084C6B
:203F20001D68625C0123AB4022EA0303635470BC70477047084670470020EBE74411002060
:203F40007010002088B189B1C2684368891A91FBF3F14B1C0CD010B4064C0368625C0120C3
:203F600000FA03F31343635410BC704708467047002070477010002090B191B1C2684368ED
:203F8000891A91FBF3F14B1C0DD010B4074C0368625C012000FA03F322EA0303635410BCE4
:203FA0007047084670470020704700BF7010002088B189B1C2684368881A90FBF3F0431C58
:203FC00008D0064B00EB40009B6813EB800002D0043070470020704708467047D40200207D
:203FE000F8B50E4D0E4C2A7823881344802B01DD0020F8BD06460B4F394608F0F1F90A4B01
:2040000029781B7870181944C9B23944228808F0E7F9287823881844F8BD00BF5B20002057
:20402000462000207811002048200020F0B4104B104F1B783E78104A33441288DBB21344D3
:204040009BB21A18802A10DC013B1BB2002B07DB0A4AD45C5D1ED1182BB20C54591CF8D1D2
:2040600030443870F0BC012070470020F0BC7047482000205B2000204620002078110020CB
:20408000084A138883420ADB10B4074C80B221881B1A138008442080012010BC704700201F
:2040A000704700BF4620002048200020014B1880704700BF46200020044B054A1B781278E1
:2040C00004481344DBB21844704700BF482000205B2000207811002000487047781100206A
:2040E000014B1888704700BF46200020054A064B10781B78054A03441088DBB2184480B2D4
:20410000704700BF5B200020482000204620002038B5094D094C1A220021094808F03AFA0E
:204120002946204600F0C0F8294604F10800BDE8384000F0B9B800BF38CA000070200020A7
:204140008020002004480549054A002303800B801370FFF7DDBF00BF4820002046200020A3
:204160005B200020802928BF802170B50C4606460849094A094D00230B8013702B80FFF7E4
:20418000C7FF31462246064808F02AF92C80204670BD00BF482000205B200020462000206A
:2041A0007811002010B50C461A22054908F018F92046BDE810401022024908F011B900BF53
:2041C000802000207020002010B50C461A220146044808F005F92146BDE8104010220248BB
:2041E00008F0FEB88020002070200020024B23F810100120704700BF80200020014B33F84B
:20420000100070478020002008B5044B0D3803EBC00000F049F8012008BD00BF7020002092
:20422000024B0D3803EBC000704700BF702000200149024800F03CB838CA000078200020E6
:2042400070B505460E480E46FFF7FAFA044660B1012D0CD01DB963680BB1984770B920462A
:20426000FFF768FB04460028F2D1002070BDA368002BF4D0304698470028F0D070BD00BF40
:20428000F8110020054B10B51B689847044B5B689847BDE81040034B5B68184798C70000C9
:2042A000BCCA000028CB0000082208F099B800BF08B5082208F062F8B0FA80F0400908BDF2
:2042C00008B50848FEF7A6FD0748FFF7B5FC40B1037A01465B0803720348FFF76FFC0028E2
:2042E000F6D108BDA4200020E002002001460148FFF7D8BDE002002080B110B50446FCF7FC
:204300002BF92368C01AB0F5963F05D2207A032894BF0020012010BD002010BD00207047D9
:20432000F8B5074615460E46A1B1022900D0F8BD01463748FFF7B6FD0446002837D0FCF7F7
:204340000BF9237A20602B44102BA8BF102323720C350EE001462E48FFF7A4FD044630B3B3
:20436000FCF7FAF8237A20602B44102BA8BF10232372FCF7F1F82368ED01C01AB0F5963FB9
:20438000ADB211D2237A042B35BF19220A224B235A2302FB05F5A2881E4903FB0253A1FB52
:2043A00003235B09A380F8BD19224B23F1E73946002309221648FFF777FC04460028B6D08E
:2043C000B0F906300BB36FF03B029342A8BF13466FF058029342B8BF13464FF470625A330F
:2043E00092FBF3F39BB2B3F5C07F28BF4FF4C073A380FCF7B1F8237A20602B44102BA8BFCC
:204400001023022E2372B4D1A2E74FF48073EFE7E00200201F85EB5138B505460420FFF756
:20442000EDFE294604B21C48FFF73CFD78B1B0F9062004EB84045A23640003FB0244174AE4
:20444000E31782FB0424C3EB6414C48038BD0346294609221048FFF727FC0028F6D0C480D8
:20446000B4B16FF03B03A342A8BF23466FF058029342B8BF13464FF470625A3392FBF3F312
:204480009BB2B3F5C07F28BF4FF4C073838038BD4FF48073FAE700BFE00200201F85EB51DB
:2044A00010B50848FFF7C8FB58B1044621460548FFF71AFD21460348FFF780FB0446002885
:2044C000F4D110BDE002002010B500210548FFF753FBBDE810400023034A4FF4E1310348CC
:2044E000FEF78CBCE0020020C1420000A4200020F8B5FCF731F8104F06463C4600250D204E
:20450000FFF78EFE2146FFF7D3FE103420B90135102DF4D10020F8BD0720FFF76FFE07EB45
:2045200005152B7B8342F5D1A868301AB0F5206F8CBF00200120F8BDBC120020F8B5194F5E
:2045400000243D460D20FFF76BFE2946FFF7B0FE18BB0134102C05F11005F3D112480F2475
:20456000013C07EB041600E0013C3146102207F037FF3046103E002CF6D10720FFF73EFEEF
:204580003873FBF7E9FFB8600D20FFF749FEBDE8F84001460348FFF787BE002CEDD0284613
:2045A000DEE700BFBC120020AC13002040B130B40D460446114628461A46234630BC18475F
:2045C000704700BF30B591B0FFF776FD0446FFF787FD6A460146204600F086FAA0B30446A8
:2045E000FFF74EFD80B39DF810100C20FFF7FEFD9DF817308BB1BDF81C5000F0E7F88542A6
:2046000005D04FF6FF73BDF81C209A421CD169469DF8170000F07CF9D0B102A90D20FFF745
:20462000F3FD9DF815303BB14FF6FF710720FFF7DDFD204611B030BD9DF81A100720FFF728
:20464000D5FD204611B030BD4FF0FF3011B030BD69460E20FFF7D8FDDFE700BF90B38AB3AB
:20466000F8B506460C2014460D46B04700232074A37415B3E37463750920B0470027012341
:204680002376A07567740720B047A07600F09EF8E0830A20B047012816BF03236776637679
:2046A00000F094F8A0830B20B047012813D055B10223E37501232375F8BD0820B047657540
:2046C000E074D9E770470323E375637E022BF1D000232375F8BD0023E375F6E730B591B0D4
:2046E000054600F073F84FF6FF73984258D040226846002107F04EFF2D4B1A7822B35DBBEF
:20470000FFF796FD6A46C1B22A48FFF7A7FFFFF78FFD00283CD0FF238DF800308DF801309C
:204720000D20FFF77DFD014602A8FFF7BDFDFFF7C3FC0E90FFF7D4FC0F90684600F0F8F8F5
:204740000446CDB911B030BD01221A70FDF72CFF194B1870002DD3D00720FFF74FFD0028C2
:20476000CED1154C2178F1B189B20720FFF73EFD237801332370C3E7FFF758FC80B1FFF7EE
:20478000ABFC0146684600F01FF9204611B030BD0E20FFF745FD01466846FFF785FDBFE7E8
:2047A0004FF0FF30CEE7012319462370DDE700BF5D200020FD4100005C2000200120FFF7AF
:2047C0008DBF00BF0020FFF789BF00BF014B1888704700BFF0030020B8B1037A30B4022B45
:2047E00014D00378022B19D00379D3B9447A14F0030418BF0124C37913F0030318BF012337
:2048000001B10C6002B1136030BC7047C579447A037945B90CB9012BF2D0CBB100231C4687
:20482000EEE70024E7E704B9C3B1032D21D1032C16D0022C18D0002BF0D1022D08D0032D10
:2048400015D1A4F10204B4FA84F46409D8E72346023C012C8CBF00240124D1E70123ECE76E
:20486000002BDBD10123ECE7002BF7D001230024C6E7022DDDD1002CF6D1002BE7D0234668
:20488000BEE700BF30B504460D46084683B00021062207F07FFE637DD9075CBF01232B705A
:2048A000237E012B23D901AA694604F11000FFF793FF009B0BB10223EB70019B0BB10223F4
:2048C0006B70E37D03F00303022B03D0032B0CBF08230023AB70637E03F00303022B03D068
:2048E000032B0CBF082300232B7103B030BDE37D9A0706D0637E9B0703D0E28BA38B9A4291
:2049000002D000232375CEE701232375CBE700BF02280CBF022308230B4403E013F8012D78
:20492000FF2A03D18B42F9D1012070470020704700B583B06946FFF7A5FF9DF800309DF8A9
:2049400001109DF8022002330B449DF8031013449DF804200B449DF805001344184403B004
:204960005DF804FB70B4447885780678C278E4002D01037905F0100504F008042C435201F4
:2049800006F007052C4302F020029B01224303F0400313430B7045798479467AC279037A57
:2049A000640005F0010545EA861504F002009200284302F00C021B01024303F030031343FE
:2049C0004B7070BC704700BF2DE9F04180460C4682B06946FFF756FF08F110002146FFF789
:2049E000C1FF9DF80030012B02BF98F81A300320A3709DF8013018BF0220022B2AD09DF8BA
:204A000002707FB103467A1E0744FFB208EB020111F801695D1CE654EBB2BB42F8D1013265
:204A20001044C0B29DF80330022B1FD09DF804706FB10346FA1DC6194244F6B212F80159D2
:204A4000591CE554CBB2B342F8D13844C0B202B0BDE8F081B8F81C20431C2254B8F81C200A
:204A6000DBB2120A0230E254C0B2C8E7B8F81E20431C2254B8F81E20DBB2120A0230E25442
:204A8000C0B2D3E7F0B50278437885B002F00706C2F3C005C2F300140846C2F38011C2F350
:204AA000401E03F001078DF804608DF80550C3F34006C3F381058DF806408DF80810C3F384
:204AC00001140A229B0901A98DF807E08DF809708DF80A608DF80B508DF80C408DF80D307B
:204AE00007F07EFC05B0F0BD012951DD2DE9F041144686B00F4603A90546FFF7C3FF03A904
:204B00000A2204F1100007F06BFC9DF81130002B3AD0AE1C03A802AA01A9FFF75DFE9DF84A
:204B20001380B8F1000F44D0029B002B35D0727816F8023B03EB0223A383B8F1020F57D0FA
:204B4000B8F1030F3CD09DF81580B8F1000F28D0019BFBB1717816F8023B029A03EB01238A
:204B60009BB2E383DAB1B8F1020F4BD0B8F1030F32D0701B8742A7EB0003B8BF0020A663DC
:204B8000E36306B0BDE8F081AB78EE1CA376C1E700207047A38BE383E5E7A383CDE7A383DE
:204BA000E1E71E4904F10800FFF77EFBA4F81E80DFE71A492046FFF777FBA4F81C80C2E748
:204BC00006F108000346621E13F8011DB34202F8011FF9D10646B6E708363246E31D04F177
:204BE0000F0012F8011D03F8011F8342F9D1C0E70A492046FFF758FB7378237016F8023B62
:204C00006370A0E7054904F10800FFF74DFB7378237216F8023B6372ABE700BF38CA0000BE
:204C200038B505462A4B01212A4A19601368002BFCD0294AC021294B11601B689B073FD4D5
:204C4000274BA2F57F321B68A2F5D572C3F3034343F0F0031370234A234B002111601C68A3
:204C6000204600F0BFF82146284600F035FA40F20E221E4B1B689BB2934212D81C4B1968F1
:204C80001A68C1F30361C2F30343E9B99A1F012A83BF023303F00F031B017023154A0B4321
:204CA0001370204600F0DCF8134B02201B68DB6898470949114B4020012208601A6038BD1A
:204CC0000F4B72221A70C6E70139C9B2DEE700BF101009409402224300600C40B03F005027
:204CE000AC3F005040100940B43F005014130050BC12005002600840A00100109404604273
:204D00005662084038B51E4B00251C68631C08BF002400F06FFE1B481B491C4A0123056017
:204D20000B60136000F0A2FA194B1B6823B1194B20461B68FFF774FF174B0021174A19603B
:204D40001368174923F07F6323F4702343F09C7343F4803313600B68C3F30133012B04D0DD
:204D6000104A1368002BFCD138BD0B6823F0407323F4403343F400320A600B60F0E700BFDA
:204D80001C130050840460425C600C400822044380012843000120438C2108404820034001
:204DA000040009400C006842064B1968CA0C8B0D02F4407203F01C031343C1F381501843C0
:204DC000704700BF98130050044B05481B681A0302F47C1310401843704700BF9813005085
:204DE00000F0C0FF184B1B68C3F30463152B88BF203B03EB20730133152B1DDC13F10A0F14
:204E0000B8BF41F616731ADA1049114A0B801368104913F002030ABF0F4A40F040601360E7
:204E2000C0F3C0630D4AC0F3806083F0010380F001000B601060704741F61573E4E703F0BB
:204E40001F0343F4F853DFE7B81200506E620840000009400000204394042A43080020439A
:204E6000F8B5C0F38143012B2CD0022B2ED1524B1B681B0702D4514B40221A60504A4FF44D
:204E80000071504B11601B68C0F38150C3F3C14343F03003012882F8883037D020D30228EF
:204EA00019D10321042000F00BFC47F61800464B464C1B68464903F03F03464A237008805F
:204EC0001368F8BD3F4B1B689A034BD5424B4FF000421A60CBE70221042000F0F1FBE4E7B0
:204EE00043F2BD760121042000F0EAFB3B4D3C483C4B862401213C4A2E6004601960136864
:204F0000002BFCD0374B00221A60CEE700F000FC04460146042000F0D3FB042000F0F8FB61
:204F20008442FAD1314B2D4E18682D4C2D4B87B2C0F3074501212C4A376025601960136898
:204F4000002BFCD02A4B274A1B68002111601B684FF06022000E072198471F4B4FF4806277
:204F60001A609EE71C4A234C4FF48041116021681A0CC3F3033521F08F01D2012943D2B2E7
:204F80000A431D4922600A68C3F3032422F00F0222431A4C0A60216803F0800221F0E7013E
:204FA000114303F06002114303F006020A4303F00103134323605AE7B03F005068A00C4008
:204FC00080A00C408C1300506C1300500BB00C4070B00C402C20094040A00C403C600C408B
:204FE00040600C4044600C4084088C43A83F0050B40100100C6008400B6008400A60084065
:20500000174B82031B68C3F38361C3F38F230ED440F30722002A0DDA5B0806D149084FF00B
:2050200001030CBF19464FF6FF730132F4D143EA01407047FBD05B0043F00103B3F5803FAA
:205040004FEA410007D340F001010F2986BF4FF6FF730F210123013AEDD143EA0140704724
:205060005013005070B4194A194B11681B68C1F3035213F00103C1F303440ED0120523046F
:205080008CB2212842EA040243EA020384BF01F080410B43184670BC70470E4D2D6845F379
:2050A000032692190DD40F2A0DDD4FF4700245F303356419E4D40F2CD4BF23044FF47023F3
:2050C000DEE71A46F3E71205F1E700BF78130050B03F0050AC3F005030B5044683B008461E
:2050E000FFF78EFF18210246534800F08DFC534A002311681268C1F38701120202F44072ED
:205100000A4300922C2140F2FF324B4800F096FC4B4B1C211A684848C2F30D0200F074FCE2
:20512000484B14211A68444802F0FC3200F06CFC454B10211A68404822F07F4222F44032FB
:2051400000F062FC2046FFF78DFF0C2102463A4800F05AFC212C20D83C4B222111221F2C4F
:2051600019701A704FD800222821334800F04CFC374A3848384B6025157080244FF47C41A5
:20518000364A0470198008212B4800F03DFC344B4FF480021A6003B030BD324C2B4A2368E1
:2051A000C3F300735B0043F02003DBB213702368C3F3407343F01003DBB21370FFF7F4FDD4
:2051C000282102461C4800F01FFC274B204A1B682049C3F301535B0043F0600313702368FE
:2051E000C3F3C063DB0063F07F03DBB20B702368C3F345539B0043F47C43A2F89030FFF764
:20520000E3FD0246BFE7FFF7CFFD282102460A4800F0FAFB144B0E4D1B680E48C3F3015399
:205220005B000D4A43F0600380244FF47C412B7004701180E3E700BF00A00C4050130050BA
:205240007C130050741300507013005049A10C404CA10C4041A10C40DCA10C4000803F4060
:2052600040A00C408C13005098130050154A1368002BFCD11449154A0B68126823F0005337
:20528000520723F0070317D410B4114A43F00053146843F00400A4070BD043F007030B6027
:2052A000136803F00303032BFAD1074B186010BC7047086010BC704743F0005343F0050388
:2052C0000B6070470C00684204400340B03F0050004003400849094A094B1B680878116839
:2052E00042B2A1F5407002FB00F043F31003A3EB20108030001270470C13005028500940D7
:20530000305009402DE9F84F864B1B6813F0020407D08549854B864A082088711A60BDE885
:20532000F88F0746FFF7D6FF824B1A681317950203F1010308D4C0F13E01C9100829A8BF89
:2053400008218B42B8BF0B467B490D687B49C5F304650E68152D88BF203DC6F30446152ECF
:205360002B4488BF203E152B00F3A78013F10A0F80F2D28041F616716FF00903DFF8D4E129
:205380006F4DAEF80010296811F0030518BF0125490748BF45F002050FB145F00405624FC2
:2053A00097F90710411A042903DCB9798D4200F0A980B0F10F0100F19C8001EB01110C12EB
:2053C000062C00F28E8004F10108DFF88CE14FEA8808DFF888C1C644C444F0462402DEF82C
:2053E00000E0DCF800A015F0040CCEEB0A0A5FFA8AFB1CBFCAF3072EF34415F0020E1CBFA5
:20540000CAF30749CB4415F0010960D10C1B0BFB04F48034240AD8F800805FFA88F1BCF15A
:20542000000F02D0C8F3072C6144BEF1000F02D0C8F3074E7144B9F1000F01D001EB1861B4
:20544000F61A002E01EB04034FF03401C8BF7143D2B201FB02F64FF6FF71B6FBF3F28A42DD
:2054600028BF0A467F2892B2BA802EDC10F1800FB8BF6FF07F034DDAFB71BD71314B1E2A59
:2054800019682948134639601BD9B2F5007F28BF002239D35B08B3F5007F02F10102F9D2AE
:2054A00029490F3B1B09114341EAC3031F48274A002103601160BDE8F88F41F615711523D9
:2054C0005CE71F238380224BF0E77F23D4E70BEB1A6A091B01FB0AF48034240A4FF00109E0
:2054E00099E7DFF87C80DFF87CE0C4464FF4E06475E705F0040C05F0020E05F00109DFF859
:205500005C8088E7BA88B9E70F3A12090E4BD2001343CBE743B2AFE703F01F0141F4F851AB
:205520002CE700BF00000940BC13002030100940FDFDA400B43F0050B81200503C11005040
:20554000242208400820094000E7A4803410094008E7A4806E620840981300509C1300508F
:20556000B8130050B413005038B5184B1D68ACB204B938BDFFF7AEFE154B93F9072090428D
:2055800017DB998812488C421DD34FF6FF75114B02681B6802339A1A1F2A28BF1F22631A07
:2055A000520823FA02F40C44AC4228BF2C46848038BD6FF07F029042B8BF10469988D87105
:2055C0008C420348E1D2858038BD00BF34100940BC13002008200940194B1B680BB3194A51
:2055E000116801F04062B2F1406F1AD016480268920716D4154A1268920712D410B4144A9E
:205600000468126814F0050FC2F3035202F11C024FEA021206D0934202D224F00504046024
:2056200010BC70479342FBD90A0158BF44F001044B01054B58BF44F004041C6010BCF0E7D5
:2056400028500940B43F005000000940B03F0050AC3F005070B5064600F02AF80546074A64
:205660001368064C002BFBD0B0470123236005B170BDBDE8704000F01FB800BF00800C403F
:20568000F8B506460F4600F013F80546074A1368064C002BFBD03846B0470123236005B190
:2056A000F8BDBDE8F84000F007B800BF00800C40EFF3108072B67047EFF3108062B670478C
:2056C00030B50D46C10783B0044616D4A2070BD4630707D5ADB2009502230C2200210B48DA
:2056E00000F0ACF903B030BDABB20093022201230021064800F0A2F9EAE7AAB20023009261
:2057000019460122014800F099F9DFE700A00C4008B5042807BF1D234FF0C0421C234FF0DC
:2057200080523421014800F0AFF908BD00A00C4001280AD018B1084B01221A607047074AEC
:20574000136823F0050313607047044A136843F005031360704700BF80010443000009408B
:2057600010B5FFF7A5FF18490B68174A002BFBD01649492401230C70136008B9FFF79CFF6E
:20578000FFF796FF10490B680F4A002BFBD01049FB2401230C70136008B9FFF78DFFFFF79F
:2057A00087FF09490B68084A002BFBD0094901230B70136008B9FFF77FFF0749074A0023F9
:2057C0000B60136010BD00BF00800C402AB00C4028B00C4029B00C4030600C4010900C405C
:2057E000C3B22DE9F0410E46174643F0010818B9052998BF43F04108FFF75AFF214D2B68DE
:20580000204C002BFBD0204A012382F80080236008B9FFF751FF1D4B012218461A60036846
:205820009B07FCD527B341F601621949194B0F601A60FFF73DFFF600124CF6B22368114ABE
:20584000002BFBD0144901230E70136008B9FFF733FFFFF72DFF0B490B680A4A002BFBD0C4
:205860000D49032401230C70136030B1BDE8F08140F60112074B1A60DBE7BDE8F041FFF7FE
:205880001BBF00BF00800C401AB00C4030600C400037084010900C4018B00C40034A13686A
:2058A000DB07FCD4024B1868704700BF14900C4018900C4030B44FF6FF350A4C12022368BD
:2058C00002F47062090AC0F387101D4009041043054A084323F48063294323602160106072
:2058E00030BC704714800240188002404BF69A11104A1368C3F30F338B4211D04BF6BE12DD
:20590000934214D04BF64132934207D04BF62030834214BF4FF0FF30022070470320704724
:2059200013681B0F0B2B0CBF0420002070470120704700BF1813005038B5124B1C68C4F32F
:205940000335FFF7D3FFD0B941F212220123AB401A4042B91A040CD413F0040F14BF0220EA
:205960004FF0FF3038BD14F4000F0CBF0420072038BD14F0807F0CBF0520062038BD4FF055
:20598000FF3038BD9412005038B5184A184B1B6814681D0FE4B2802C28BF0024FFF7A6FF28
:2059A000042819D8DFE800F00D07030304009DB90A3460B238BD6DB1022D0DD1143460B2D5
:2059C00038BD6B1E072B07D8DFE803F004060C0606060E090A2038BD4FF0FF3038BD163473
:2059E00060B238BD142038BD152038BDA01000501813005008B5FFF779FF00B1FEE7FFF71B
:205A0000C3FF1528FADD08BD2DE9F04107460E469046FFF74DFE084D2B68074C002BFBD0BB
:205A2000012347F80680236008B1BDE8F081BDE8F041FFF741BE00BF00800C40F8B50F2BEE
:205A4000BDF8184088BF103B00EB410188BF120C04FA03F394BF01F5007701F5017743EAC6
:205A60000246FFF725FE074D2968064C0029FBD001233E60236000B1F8BDBDE8F840FFF71C
:205A80001BBE00BF00800C400F2B2DE9F8439846174600EB010904D9A3F1100809F1020959
:205AA000170CFFF705FE0A4E3468094D002CFBD0B9F800400123A4B22B6008B9FFF7FCFDE3
:205AC00004EA070040FA08F080B2BDE8F88300BF00800C4010B4064A064C136820681168E0
:205AE0008B42FAD1000C40EA034010BC704700BF082009400C200940102970B50C46054672
:205B000002D80AE0102C0BD92B681022084968689847103C0028F5D070BD08460029FBD034
:205B200022462B6868680249BDE87040184700BF4CCA00002DE9F04F834688468FB0019208
:205B40004FF0000998F80030002B00F0E380252B08BF45461DD0444603E0252B00F04581BD
:205B60002C466378651C002BF7D1454500F0D280C8EB050641463246DBF80030DBF8040001
:205B80009847002840F03D826378B144002B00F0C1806B7805F10108002B00F0BB80002586
:205BA000A3F12002102A1BD8DFE802F0171A1A141A1A1A1A1A1A1A111A0E1A1A090045F089
:205BC000100518F8013FEBE745F00105F9E745F00605F6E745F00805F3E745F00205F0E727
:205BE000A3F13102082A00F2D580002404EB840403EB440418F8013F303CA3F13002092ADF
:205C0000F4D92E2B00F0CE804FF0FF366C2B00F0E280682B00F04481782B00F28180DFE81E
:205C200013F079007F007F007F007F007F007F007F007F007F007F007F007F007F007F00F6
:205C40007F007F007F007F007F007F007F007F007F007F007F007F007F007F007F007F0054
:205C60007F007F007F007F007F007F00E2027F007F007F007F007F007F007F007F007F00CF
:205C80007F007F007F007F007F007F007F007F007F007F007F007F007F007F007F007F0014
:205CA0007F007F00DF027F007F007F00DC02D902D6027F007F007F007F007F007F007F007E
:205CC0007F007F007F007F007F007F007F007F007F00D3027F007F007F007F007F007F007E
:205CE0007F007F00D0027F00CD02CA02C702C402C1027F00CA027F007F007F007F00BE0261
:205D0000BB027D007F007F00B8027F00B5027F007F00B20248460FB0BDE8F08F45F440754A
:205D200005F4E063B3F5806F08F1010800F06E815FD9B3F5C06F00F0A181B3F5E06F00F0A7
:205D40009681B3F5A06F7FF4FDAE019A012C136888BF04F1FF3402F104028DF8203098BF80
:205D60000024EB07019200F1F38121465846FFF7C3FE002840F045810122DBF8003008A964
:205D8000DBF8040009EB02059847002840F03981254497E12A2B00F08D802E2B4FF0000471
:205DA0007FF432AF98F8013008F10101A3F13002092A00F28D808846002606EB860603EB7C
:205DC000460618F8013F303EA3F13002092AF4D96C2B7FF41EAF98F801306C2B00F05A81F9
:205DE00008F1010845F0600516E745457FF4C0AECFE6B3F5807F70D0B3F5407F7FF4A2AED9
:205E00000198B24B15F4804FB14F18BF1F4603460168043301930A460023002900F0AB81A3
:205E20000DF1330E7046110941EA03714FEA131C02F00F0663460A46B95D00F8011D52EAE4
:205E40000301F0D1BEEB000600F097810336B4424FF078034FF0300200F8013C00F8022C11
:205E60004FF023038CBFA41B0024EA0700F8033CA0F1030700F1BA8121465846FFF73CFE6B
:205E8000002840F0BE803946DBF800303246DBF804009847002840F0B48009EB060511E13F
:205EA00098F80130682B00F0B58108F1010845F04005B1E6019A08F10108134614680433AC
:205EC000002C0193B8BF45F0010598F8003098E62A2B00F0A681884696E6002EABBF25F0AF
:205EE000100501230596059315F40053049305F0E00300F0F580402B00F0A88200F29B8173
:205F0000002B00F06182202B40F08A82019991F900200431D3170191002A73F10001C0F2C6
:205F20005F82CDE902230023069305F4C053B3F5805F00F0F080B3F5C05F00F0CC81B3F54A
:205F4000006F00F0ED810DF1360A002741F60803059941F208028F4203EA050380F08E81AD
:205F60009342A1EB070600F0518241F60802934207EB060100F08D8100231A460293049B2C
:205F800083B1069B002B40F0928105F00603022B00F053824F48062B08BF0246029B08BF93
:205FA00001230293029B0B449C428CBFE41A002415F00103049304D1E80640F11D82264454
:205FC0001C46029838B11146DBF800300246DBF804009847A8B9102E07EB090540F2C3816F
:205FE000B14603E0B9F1100F40F2BF81DBF8003010223949DBF804009847A9F11009002844
:20600000F0D04FF0FF300FB0BDE8F08F019A1346D2F800A004330193BAF1000F00F0E88133
:206020009AF8007037B1574617F8013F002BFBD1CAEB0707002E02DBB74228BF3746BC426A
:206040008CBFE41B0024E9072BD421465846FFF753FD0028D5D15146DBF800303A46DBF8DD
:20606000040098470028CCD107EB09052AE0019A136804320192C3F8009063E5DBF80030F9
:2060800001221649DBF8040098470028B9D109F1010957E598F8023045F0800508F1020857
:2060A000BAE55146DBF800303A46DBF8040098470028A6D12146584607EB0905FFF71CFDBE
:2060C00000289ED104EB05093CE500BF6CCA000080CA0000A4CA00005CCA0000B0CA0000BE
:2060E000402B00F0AE8100F2B680002B00F06181202B40F0E080049A019906920A780023A1
:20610000CDE902230B460433019305F4C053B3F5805F7FF410AFDDE90223134300F09D8174
:206120000DF1360307939A46DDE90223D00840EA4370DE0802F007013346024630310AF80A
:20614000011D52EA0301F1D1079BCAEB0307FDE6DBF80030012208A9DBF804009847002826
:206160007FF44FAF2146584609F10105FFF7C4FC0028A7D045E70DF13300302300F8013C6F
:206180000426013863E645F4C855C9E545F41065C6E545F48065C3E545F48855C0E545F43C
:2061A000E065BDE545F48135BAE545F40075B7E545F40245B4E545F42455B1E545F4A06581
:2061C000AEE545F4C135ABE545F4B245A8E545F4A135A5E545F48445A2E545F442459FE54A
:2061E00045F4E1359CE545F4C06599E53946DBF800303246DBF80400984700287FF401AFF8
:206200002146584609EB0605FFF776FC00283FF459AFF6E698F8023045F0200508F10208B4
:20622000FAE4019998F802300A4604320E68019208F10208EAE4602B00F0C680802B40F028
:20624000EF80019B073323F0070303F108020192D3E9002360E6602B00F0AB80802B2AD1DA
:20626000049B0693019B073323F0070303F108020192D3E90023CDE9022356E6934200F0A7
:20628000CD8041F608020026934207EB06017FF473AEDDE9022313433FF46EAE744B15F490
:2062A000804F744A18BF1A460223029367E601230293714A76E605F4C053B3F5805F00F0C0
:2062C000D080B3F5C05F40F0AE8000230022CDE9022300230693694B15F4804FDDE9020118
:2062E000674E024618BF1E460B46134300F0B5800DF1360307939A4602460B46110941EA0B
:2063000003711F0902F00F003B460A46315C0AF8011D52EA0301F1D1079BCAEB030715E604
:20632000DDE9026732463B46134300F096800DF136039A460793304639460A22002305F0EF
:206340008DFE3032304639460AF8012D00230A2205F084FE06460F4656EA0703EBD1079B1C
:20636000CAEB0307F2E556B1B1464A46DBF800304449DBF80400984700287FF442AE3A46A8
:20638000029F51462F44DBF80030DBF804003D46984700287FF435AE049B3544002B3FF422
:2063A00091AE21465846FFF7A7FB00283FF48AAE27E6019A136804321946049B0192002262
:2063C000CDE902120693B0E501990B460A6804330193002A4FEAE27373F10001BFF6A1AD7D
:2063E000524263EB4303CDE90223012306939CE5DFF898A006271DE6214658460592FFF78B
:206400007BFB059A00283FF4DCADFAE5002E08BF0126002302931A46B919B0E50126F8E703
:20642000002200237DE5002306931F4600220023CDE902230DF1360A88E50123124A0293B4
:20644000B0E5049A019906920A8858E60199B1F900200431D31701915EE500270DF1360A4A
:2064600074E500230022CDE902230023069352E694CA000098CA00009CCA00006CCA000053
:2064800080CA00005CCA0000A0CA0000A8CA00000AB90020704708B508461146FAF788FA41
:2064A000002008BD0FB400B583B004AB53F8041B04481A460193FFF73DFB03B05DF804EBCE
:2064C00004B07047F002002038B54368044693428CBF154603F1FF352A46006805F080FF6E
:2064E00094E80C002A445D1B84E82400002038BD0CB430B587B00AAB53F8044B094D029076
:2065000003911A46214604A802AC019304950594FFF710FB029B00221A7007B0BDE83040EA
:2065200002B07047C964000010B501210C20FDF75DFEBDE81040014B5B68184740CA0000F6
:20654000014B9B68184700BF40CA0000014B1B6A184700BF98C70000014B5B6A184700BF47
:2065600098C7000008B5044B1B6898470028ACBFC0F17D00682008BD40CA000000F096B9F7
:2065800010B500F041FABDE81040014B1B6A184798C7000000B583B0FDF7A2FD032810D001
:2065A000FFF7CEFF00280CDB0E20FDF739FE0B49FDF77EFE10B9FDF73BFE10B1FDF798FFAA
:2065C00010B103B05DF804FBFDF7B8FF044B9B68019303B05DF804EB184700BF9C20002071
:2065E00028CB000070B590F82D400546012C0EDD1F24FBF7D9FFB0FBF4F12B4601FB14010C
:20660000064A05F10C00BDE87040FCF7F7BB0334012202FA04F4013CEBE700BFB1660000FB
:206620002DE9F0470D4614468B68804693E8C000506B92F82C90FDF757F96868FDF740FA29
:20664000A9681748FDF7AAF929461648FDF7A6F9606BFDF7F5F878B1002384F82C3084F887
:206660002D302046FFF7BEFF4B46424639463046BDE8F047FDF79ABF04F10C00FCF7E6FB98
:2066800021460948FDF730F921460848FDF786F94B46424639463046BDE8F047FDF786BFD8
:2066A000F8020020040300209414002010030020002800F0B4802DE9F043064685B0406BDD
:2066C000FDF7BEF8002877D04068FDF70FFA75490D20FDF799FD01210820FDF787FDFFF7CF
:2066E00023FF00286BDBFDF7F7FC6F4C87786568FDF7F2FC8046FDF7F9FC01464046A8474F
:20670000FDF796FDA369054601939847002840F08480002D7AD1D4F81C80C04700287CD170
:20672000A3681D46FDF7E2FCA847002873D1F9F79FFF6FF01909C0EB090906E0F9F798FF85
:2067400019EB000F04D5FAF7A7F8C0470028F5D0019B984718B9C047002800F09D80F9F751
:2067600087FF6FF02A052D1A05E0F9F781FFC54204D5FAF791F8C0470028F6D0C0470028EB
:206780007ED102271CE096F82D200132D2B2052A86F82D2096F82C2006D901320021D2B268
:2067A00086F82C2086F82D101B7A934244D8324621460120FFF734FF05B0BDE8F0830527AC
:2067C000706BFDF73DF8044630B9F5E72046FDF7B1F804460028EFD007216068FDF79EF9F7
:2067E00005460720FDF70AFD8542EFD1A368002BE2D0032F34D801A252F827F047680000CC
:206800008767000021680000B9670000A468FDF76DFCA04790B3022828D10127D0E7704795
:2068200096F82C2000210132D2B286F82C2086F82D101B7A93421BD93046FFF7D3FE6068BE
:20684000FDF738F9B8E796F82C3000200133214686F82C3086F82D003246FFF7E1FEABE76B
:20686000324621463846FFF7DBFEA5E70427A7E7324621460220FFF7D3FE9DE707469FE788
:206880002369032103A898470328C6D19DF80E30DF1B18BF012793E76369984700283FF4B0
:2068A0005EAF6EE79C20002098C700002DE9F04106460E200F46FDF7B3FC4D4B05461A780D
:2068C000002A49D04B4A1078002842D0431CDBB281B207201370FDF789FC01210C20FDF79A
:2068E00085FC4548FCF7ACFF044628B917E02046FDF720F8044690B12946201DFDF7D8FC59
:206900000028F4D0606BFDF70BF807282CDD39463046BDE8F04101230422FDF747BE374804
