:020000040000FA
:2000000000500020810F0000790F0000610F00007D0F00007D0F00007D0F00000000000044
:200020000000000000000000000000007D0F00007D0F0000000000007D0F00007D0F000090
:20004000353F00007D0F0000B54700007D0F0000A9320000D93B00007D0F00007D0F000011
:200060007D0F0000094800007D0F00007D0F00007D0F00007D0F00007D0F00007D0F00005B
:200080007D0F00007D0F00007D0F00007D0F00007D0F00007D0F00007D0F00007D0F000000
:2000A0007D0F00007D0F00007D0F00007D0F00007D0F00007D0F00007D0F00007D0F0000E0
:2000C0007D0F0000514A0000294B1B689B0702D44FF000407047F0B5002083B0452102F004
:2000E00035F90DF106010120022201F071F838B901A8022101F096F84FF0004003B0F0BD13
:200100000DF106010020022201F062F80028EFD0BDF806305BBA9CB2200BADF8043012F010
:20012000CDFB11F06FFF0646C4F30B000F4612F0D5FB0DA3D3E9002304460D463046394632
:2001400012F032FC02460B462046294612F02CFC12F0C4FE074913F01FF813F06DF903B08D
:20016000F0BD00BFAFF300807B14AE47E17A843F240A00200000C84208B51F4B1B68032B1F
:2001800033D1431E012B30D81C4A1D4B012812881B8812D0184612F091FB0022194B12F03C
:2001A00003FC0022184B12F0FFFB12F097FE174912F0F2FF13F040F908BD104612F07EFB03
:2001C0000022104B12F0F0FB09A3D3E9002312F0EBFB00220E4B12F033FA12F07FFE0B49C5
:2001E00012F0DAFF13F028F908BD4FF0004008BD0000000000A06440480A0020DA33002014
:20020000DC3300200000F03E000059400000C84200004440000000002DE9F041664B1B68DF
:2002200053B1044600216548062213F031FD14F0380606D162073ED14FF000463046BDE818
:20024000F08102F0A1FF5E4D286007E002F09CFF2A686FF009039B1AC34203D501F0E0FB99
:200260000028F3D0574B1B78D907E5D5534D0120682102F06BF829463B20062200F0A8FF9C
:2002800006460020014602F061F8002E7ED02F786E78A878E9782A796B79202C6F702E7086
:2002A000E870A9706A712B715AD0102C65D0082C66D00026C2E702F067FF414D286007E02D
:2002C00002F062FF2A686FF009039B1AC34203D501F0A6FB0028F3D03A4B1B78DB07ABD545
:2002E000364D0120682102F031F829464320062200F06EFF074600284DD095F8008095F833
:2003000001C095F802E0EF782A796B790020014685F8018085F800C085F803E0AF706A71C3
:200320002B7102F013F8042C06D0022C2BD0012C84D1B5F9040001E0B5F9000012F0CEFA68
:200340001BA3D3E9002312F059FC12F0C7FD1E4912F022FF13F070F806463046BDE8F08116
:20036000B5F9000001F086FA174912F015FF13F063F806463046BDE8F081B5F90200F1E72A
:20038000B5F90400EEE7B5F90200D7E72846062100F048FF50E72846062100F043FF384620
:2003A000394601F0D3FF4FF0004647E7AFF300800000000000606040780A0020500A00200A
:2003C00024340020F53300200000C842000000002DE9F04F144623F00047024657EA0400BD
:2003E0000E468FB01D469C46214634D06E4B26F0004A9A459346B14626DC24D09F4223DC1C
:20040000694B9F4200F08F80B9F1000FC0F28F804FF0000879BB644B9F4200F0A580634B00
:200420009F4267D0BCF1804F00F0E283604B9C4521D1B9F1000F1EDB104631460FB0BDE872
:20044000F04F11F05FBF62B10AF1404000F5801050EA0B0007D10346544918460FB0BDE866
:20046000F08F5745CCDD53480FB0BDE8F04F12F047B84FF0000810463146CDF808C0009246
:2004800012F006F8009ADDF808C0BBF1000F20D04FEAD97909F1FF3958EA09037AD0464B94
:2004A0009F4240F38F8003F104739F4240F31084424B9A4540F39283BCF1000F40F392834E
:2004C00037A1D1E900010B46024612F06DFA0346C3E7BAF1000F04D0344B29F0404E9E45FD
:2004E000D6D1BCF1000FC0F2B683B9F1000F08DB0346B2E7BCF1000FC0F25284134631461C
:20050000ABE70AF1404A0AF5801A58EA0A0340F05E8402460B4612F093F80B46024612F009
:200520006DFB034699E700293FF46EAF8CE7244B9F422CDCA3F154739F427FF769AF40F24A
:2005400013403B15834240F34B84C3F58663033321FA03F000FA03F38B427FF459AF00F024
:200560000100C0F1020855E70AF1404303F5801353EA0B0300F03983104B9A4540F364832F
:20058000BCF1000FC0F22E832346294665E74FF002083FE7104631463346BCE7AFF300809E
:2005A0009C7500883CE4377E0000F07F0000F03F0000E03F5C5101000000E041FFFFEF3F15
:2005C000FFFF3F43BAF5801F4FF0000205DACA4B12F0EAF98A466FF034024FEA2A53C74E03
:2005E000CAF3130AA3F2FF334AF07F571344B2450C9347F4401740F3D083C14B9A4540F327
:2006000007840026B4460C9BA7F5801701330C933946BC4B4FEACC0C6344D3E900AB524645
:200620005B46CDF834C0CDE9060112F009F852465B46CDE90801DDE9060112F003F8024696
:200640000B460020B04912F0D9FA02460B46DDE90801CDE90A2312F0A7F902460B46CDE91F
:200660000223CDE904237B1043F0005303F5002399190020002306460F460293DDE9022336
:200680001046194632463B46CDE9000112F08CF902460B46DDE9080111F0D2FF5246CDE9E6
:2006A00008015B463046394611F0CAFF02460B46DDE9060111F0C4FF02460B46DDE9000147
:2006C00012F072F902460B46DDE9080111F0B8FFDDE90A2312F068F9DDE90423CDE906018D
:2006E0001046194612F060F902460B4606460F4612F05AF96EA3D3E9002382468B4630465C
:20070000394612F051F96CA3D3E9002311F09AFF32463B4612F048F969A3D3E9002311F05E
:2007200091FF32463B4612F03FF967A3D3E9002311F088FF32463B4612F036F964A3D3E998
:20074000002311F07FFF32463B4612F02DF962A3D3E9002311F076FF02460B4650465946AE
:2007600012F022F9DDE9042306460F46DDE9000111F068FFDDE9062312F016F932463B46A6
:2007800011F060FFDDE9006782468B4632463B463046394612F008F900225C4BCDE90801BA
:2007A00011F050FF52465B4611F04CFF02980F460646DDE9000132463B4612F0F5F8324602
:2007C0003B46CDE90001DDE9060112F0EDF80022CDE906014D4B3046394611F031FFDDE9CA
:2007E000082311F02DFF02460B465046594611F027FFDDE9042312F0D7F802460B46DDE98F
:20080000060111F01FFF82468B46DDE9000152465B4611F017FF32A3D3E9002302980F465F
:20082000064612F0C1F830A3D3E90023CDE904013046394612F0B8F8DDE90023CDE90601F7
:200840003046394611F0FCFE02460B465046594611F0F6FE26A3D3E9002312F0A5F8024656
:200860000B46DDE9060111F0EDFEDDF834C0284BCDF818C06344D3E9002311F0E3FECDE977
:2008800000010C9812F02AF806460F46DDE90401204BDDF818C09C44DDE90023DCE900ABD2
:2008A00011F0D0FE52465B4636E000BFAFF30080EF4E454A287ECA3F65DBC9934A86CD3F46
:2008C00001411DA96074D13F4D268F515555D53FFFAB6FDBB66DDB3F033333333333E33FC6
:2008E000000000E009C7EE3FF5015B14E02F3EBEFD033ADC09C7EE3F000040438E980300EC
:2009000079B60B00604201000000F03F000008405042010040420100CDE906AB11F092FE75
:2009200032463B4611F08EFE029832463B4682468B4611F085FEDDE9062311F081FEDDE94C
:20094000042311F07DFE02460B46DDE9000111F077FECDE9020108F1FF3858EA09030CBF1C
:20096000D54BD64B0022CDE904230023CDE900450093DDE90067204632463B46294611F08A
:200980005FFE52465B4612F00FF8DDE90223804689462046294612F007F802460B46404643
:2009A000494611F04FFE04460D465246304639465B46CDE9024511F0F7FF06460F46204694
:2009C0003B462946324611F03DFEBD4B824699428946884640F3138101F13F4303F5E00315
:2009E000034340F0E581A0A3D3E90023DDE9020111F028FE324604460D463B46504649464E
:200A000011F01EFE02460B462046294612F05CFA002840F0CD814C462015A0F2FE304FF483
:200A2000801101414144C1F30A50A64CA0F2FF35C1F3130BC0F5826003302C414BF4801BB5
:200A400021EA040300224BFA00FB3946304611F0F7FD06460F46DDE902018BEAE87B0BEB00
:200A6000D87B32463B464FEA0B5A11F0EBFD80A3D3E90023002420460D4611F095FF3246B7
:200A8000804689463B462046294611F0D9FD02460B46DDE9020111F0D3FD77A3D3E9002368
:200AA00011F082FF76A3D3E9002306460F462046294611F079FF02460B463046394611F03E
:200AC000C1FD06460F4632463B464046494611F0B9FD42464B4604460D4611F0B1FD024645
:200AE0000B463046394611F0ABFD2246804689462B462046294611F057FF63A3D3E9002388
:200B000006460F4611F050FF61A3D3E9002311F097FD32463B4611F047FF5FA3D3E900234B
:200B200011F090FD32463B4611F03EFF5CA3D3E9002311F085FD32463B4611F035FF5AA364
:200B4000D3E9002311F07EFD32463B4611F02CFF02460B462046294611F072FD06460F4696
:200B600032463B462046294611F01EFF0022CDE900014FF080433046394611F061FD024612
:200B80000B46DDE9000112F039F8424606460F464B462046294611F007FF42464B4611F05A
:200BA00051FD02460B463046394611F049FD22462B4611F045FD02460B4600203F4911F0B4
:200BC0003FFD8A44BAF5801F0246C0F227815346DDE9040111F0E8FE03463EE4BCF1000FA9
:200BE000FFF66EAC0023194637E40B46334934E433461046314611F0D7FE03462DE4324B71
:200C000021F000449C4240F3FA80304B0B4403430CD132463B4611F013FD02460B46DDE99E
:200C2000020112F03DF900283FF4F6AE20A3D3E90023DDE9040111F0B7FE1DA3D3E90023B8
:200C400011F0B2FE034608E4BCF1000FCADA234605F1004101E402460B460020174911F0AF
:200C6000CDFF42E4AFF30080FE822B654715973C00000000432EE63FEF39FAFE422EE63FD6
:200C8000396CA80C615C20BED0A4BE726937663EF16BD2C541BDBB3E2CDE25AF6A56113FA0
:200CA00093BDBE166CC1663F3E5555555555C53F59F3F8C21F6EA5010000F0BF0000F03F3C
:200CC000FFFF8F40FFFF0F00FFCB904000346F3F634B9A4582DD634B9A453FF7EDAB002255
:200CE000604B11F0ADFC54A3D3E9002306460F4611F05AFE52A3D3E90023CDE900013046CE
:200D0000394611F051FE3246CDE902013B463046394611F049FE002282468B463046394665
:200D2000514B11F041FE02460B4647A1D1E9000111F086FC32463B4611F036FE02460B4651
:200D400000204A4911F07CFC02460B465046594611F02AFE3EA3D3E9002311F025FE024644
:200D60000B46DDE9020111F06BFC06460F46DDE9000132463B4611F065FCDDE90023002025
:200D800082468B4611F05CFC02460B463046394611F056FCCDE90201DDE50026B44637E4CA
:200DA000334600202F4911F029FF0346FFF755BB29A3D3E90023DDE9040111F0F5FD26A378
:200DC000D3E9002311F0F0FD0346FFF746BBB8F1010F03467FF441AB01F10041FFF73DBB84
:200DE00000297FF446ABC3F58263033347FA03F000FA03F3BB4217D08846FFF710BB1B4B96
:200E00009C423FF709AEDDE90023924693462EE64FF480264FF0010CFFF7FABB5A4600F0E9
:200E200027F802460B46D3E600F00100C0F10208FFF7F5BAAFF30080000000604715F73FDC
:200E400044DF5DF80BAE543E555555555555D53FFE822B654715F73F9C7500883CE4377EAD
:200E6000FEFFEF3F0000F03F0000D03F0000E03FF8B5C1F30A5604460D460B46174616BB0D
:200E800021F00043034332D00022314B11F08CFD304A044697420D460B4637DB40F2FE7299
:200EA000C1F30A56363E3E44964215DD24A1D1E9000122462B4611F0B7FB21A3D3E90023AF
:200EC00011F072FDF8BD40F2FF72964224D040F2FE723E449642E9DC002E09DD23F0FF4354
:200EE00023F4E00343EA065520462946F8BDF8BD16F1350F15DA4CF250339F42D6DC12A1F0
:200F0000D1E9000122462B4611F08EFB0EA3D3E9002311F049FDF8BD02460B4611F092FB00
:200F2000F8BD23F0FF4323F4E003363643EA0655204629460022084B11F036FDF8BD00BFC7
:200F40009C7500883CE4377E59F3F8C21F6EA50100005043B03CFFFF0000903CAFF300807F
:200F6000044B1A68B2F5806F03D01B689B0500D4FEE7704728ED00E0FEE700BFFEE700BF67
:200F800008B508F0CBF8104A104B9A420DD2D0430F4918440B4620F003000430084453F873
:200FA000041B834242F8041BF9D10A480A494FF000028842B8BF40F8042BFADB04F038FD9E
:200FC000FFF7CEFF08BD00BF0000002043090020547C010048090020E23E0020F0B50027F0
:200FE00006463C463D4683B0304605F05BFD0195019B9C4206DD00BF019B01330193019BF8
:201000009C42F8DC304605F063FD0195019BC4F5C874A34206DA00BF019B01330193019BA8
:20102000A342F8DB0137B7F5487F06D0B7F5C87FCCBFC7F548743C46D6E703B0F0BD00BF23
:2010400038B5194D194C2B6820465B68012198472B6801210A461B682046984708F034F929
:2010600002F0BEFF02F040FF00F0F2FD05F070FD05F044FD0120FFF7B1FF0D490D4A0E484F
:2010800009680123136003600B691020A2F5FF521268984708F01CF902F078F8BDE8384074
:2010A0000020FFF79BBF00BFD801001000400340B00100100C4009400800094008B541F2FE
:2010C000342003F0DBFB02F021FD05F057FC074802F044FD0648082102F022FA05F06EFB36
:2010E000BDE808400020FFF779BF00BF2969000054340020F0B585B0002602A80821294C74
:201100000096019602F00CFA9DF80F309DF80E70E56A43EA072748F2A5110220A847394699
:201120000320A84731460120A847636B02A908221D4D0B209847A46A01206946A0472B68A7
:20114000022B1ADC022001A9A04778B92B68022B08DC0021154805F079F90020FFF73EFFAC
:2011600005B0F0BD1248019909F034F82B68022BEFDD104809F02EF8EBE70F490F4A104816
:2011800009F028F80F4809F025F82B68022BD9DD09490A4A0A4809F01DF800990A4809F069
:2011A00019F8CFE780430100F8060020E0070020D042010018740100904201009842010031
:2011C00080420100A8420100C042010002F038BD10B582B002AC04F8010D134620460A46B9
:2011E000012100F0CDFF02B010BD00BF0C4B18708AB110B4541EE4B20C44013911F8010F4A
:20120000A14203F8010FF9D1511CC9B204485DF8044B00F055BE511CC9B2014800F050BE0C
:201220007009002029B1CC230139C9B243540029FAD17047813801289ABF024B186800202D
:20124000704700BFD0090020024B032202481A6005F000BDD00900201043010010B50446DB
:2012600082B07721002001F071F84CB98DF807400DF107010122F420FFF7B8FF02B010BDF0
:2012800025238DF80730F3E730B5802885B016D0812810D11D4C206878B151B30120FFF709
:2012A000DDFF1B4803211B4A002304F051FD0220206005B030BD154B186805B030BD134CDC
:2012C000012500207721256001F040F8124918228820FFF77DFF04A9B62301F8013D2A46A6
:2012E000E020FFF783FF0020FFF7B8FF206805B030BD0748019104F053FD01990846FFF77C
:20130000ADFF01231846236005B030BDD0090020B00900204912000098090020F8B5544B40
:201320001B68032B40F09C80431E012B00F29880504D062200210446284612F0A9FC0020B4
:20134000772101F003F82946F7200622FFF740FF00287ED0E978484A2B796879090341EA01
:201360000311168841EA1013C6EB131101FB01F1B2F9047076000913B2F90200C6EBD303C5
:2013800007FB01F100FB03F0891301EBE0204710A7F57A4E4FEAAE0606FB06F6B2F908107B
:2013A000B2F90A70731301FB0EF103FB07F3B2F90E70491007FB0EF701EBE303B2F806C0C4
:2013C0009B14B2F910E003F50043F61279000CFB03F30EFB06172E786978B2F90CE095F839
:2013E00002C036034FEA0E4546EA0111DB13906105EBA70741EA1C1127D040F6354549421D
:20140000A1EB273105FB01F101F1434101F5A0010029B3BFB1FBF3F34900B1FBF3F35B0086
:20142000D90801FB01F1B2F91450B2F916609F08490B05FB07F501FB06F1B2F912606A1329
:2014400002EB2131314403EB2113012C0BD01846F8BD28460621FFF7E5FE4FF00040F8BDF9
:201460004FF00040F8BD00EB800080300012F8BDD009002090090020980900208138012801
:201480009ABF024B18680020704700BFF8090020024B032202481A6005F0DCBBF80900208C
:2014A0002043010010B504464421002000F04EFF002C064B14BF1024002402201C80194632
:2014C000BDE810400246FFF791BE00BFD833002010B5802882B017D0812811D11D4C20689E
:2014E00080B1002929D00120FFF7DCFF1A4824211A4A002304F02CFC0220206002B010BD3C
:20150000144B186802B010BD154C0B2023689B6B984723680B209B694FF480419847236849
:201520004FF08041DB690B2098470020FFF7BAFF084B0120186002B010BD0748019104F04E
:201540002FFC01990846FFF7ADFF01231846236002B010BDF8090020D8090020911400008B
:20156000B401001038B5344B1B68032B07D1820705D003280FD0012805D0022807D04FF00B
:201580000043184638BD2D4B1B68184638BD2C4B1B68184638BD2B4D44210446002000F0E3
:2015A000D5FE294604200222FFF712FE70BB264D25480421FFF736FE00202C786B78A97879
:2015C000EA7843EA042442EA01220028D7D0900811F08EFD4FF0745111F0DEFD1B4911F0CD
:2015E000DBFD11F029FF154B154D1860A00811F07FFD4FF0745111F0CFFD144911F0CCFD93
:2016000011F01AFF01232860184638BD2B885BBA2B805B040C4DCBD5012029460222FFF73C
:20162000D7FD0028C4D02046A91C0222FFF7D0FD0028C2D1BCE700BFF8090020D4090020CD
:20164000000A0020D8330020FC09002000007A44014B1868704700BF240A002070B5064651
:201660000E4C82B000204521256800F06FFE76B905F002054FF486532560ADF806300DF1C9
:20168000060102220120FFF7B1FD02B070BD41F2C2020123ADF806202360F0E7240A0020ED
:2016A00000B5002083B0452100F050FE01200DF106010222FFF78CFDBDF90630002B08DBBB
:2016C00008481021084A002304F042FB03B05DF804FB064805F0BEFA054B02221A6003B040
:2016E0005DF804FB040A0020A116000040430100240A0020802810B50DD0812809D10C46C0
:2017000071B90D4804F04CFB2046FFF7A7FF204610BD002010BD0020FFF7A0FF002010BD4B
:201720000120FFF79BFF04481021044A002304F00FFB012010BD00BF040A0020A11600007A
:20174000813801289ABF024B18680020704700BF480A002038B5114C114A237803211160A4
:20176000ABB1104D0020432100F0F0FD0421284600F07AFC20700020014600F0E7FD2A88D9
:201780006B880948094952BA5BBA02800B80012323700748BDE8384005F05CBAF433002010
:2017A000480A00204C0A0020DA330020DC3300205043010030B5802883B023D081281DD107
:2017C000254C2068E0B100293DD0244D2B785BB14321002000F0BAFD002000F00DFC28704D
:2017E0000020014600F0B2FD1D4803211D4A002304F0AEFA0220206003B030BD164B186811
:2018000003B030BD0024184B184D2146042218481C802C8012F03CFA2046432100F096FD82
:2018200002A91023022021F8023D0246FFF7DEFC0A4B21461870204600F088FD064B0120A7
:20184000186003B030BD064804F0AAFA01231846236003B030BD00BF480A0020F43300206D
:20186000280A002055170000DC330020DA3300204C0A002008B5174B1B78032B28D8DFE831
:2018800003F01E150C0211F029F800224FF07D5311F08AF811F022FB08BD11F01FF8002221
:2018A0000D4B11F081F811F019FB08BD11F016F800220A4B11F078F811F010FB08BD11F0B3
:2018C0000DF80022064B11F06FF811F007FB08BD002008BDF83300200000303F0000203F62
:2018E0000000103F813801289ABF024B18680020704700BF780A0020024B022202481A6024
:2019000005F0A8B9780A00206843010010B50C4C0120682100F01AFD3F23214601226C20DD
:201920002370FFF763FC21464F236B2001222370FFF75CFCBDE810400020014600F006BD48
:20194000F9330020802838B50BD0812806D111F03F012DD1294B1B68DB043BD4284B186834
:2019600038BD284C072023689B6B9847236807209B694FF40051984723684FF0804107208C
:20198000DB69984723680C20DB6B984723680C209B6A4FF480614FF4407298471A4A4FF4ED
:2019A00080501A4B1060164900221A60086838BD1648174B124D4FF48052016001241A60EE
:2019C00014480821144A00232C6004F0C1F92C60204638BD0D4B0F48196004F0E1F9FFF7F4
:2019E00095FF0E4A136813F00103FBD1044A06494FF4805013600860106838BD80200240D3
:201A0000780A0020B4010010A02002407C0A002090200240580A0020491A00000428004074
:201A200010B5084C0120682100F090FC214601223A20FFF7CDFB0020014600F087FC207853
:201A400010BD00BFF53300202DE9F041354C236813F0380F15D1344D03F03F042E7856B9C3
:201A60004CBBFFF753FFBDE8F04130480521304A002304F06DB9E3B22B70002CF1D02D4F53
:201A80003DE02D4E3278002AE5D02C4F0025012068213D7000F05AFC394601221C20FFF714
:201AA000A5FB07462946284600F050FC2368002FD1D03570CFE71F4F0120682100F046FC20
:201AC0000923394601226B203B70FFF78FFB3F23394601226C203B70FFF788FB174901224B
:201AE0001C202E70FFF782FB394601223A20FFF76FFB3046314600F029FCE3B22B70DB43ED
:201B0000012068213B7000F021FC012209496C20FFF76CFB0020014600F018FC084807F053
:201B2000DBFBA0E77C0A0020F7330020580A0020F9180000F9330020F8330020F6330020E5
:201B400080380100014B00221A707047FA330020154B70B5154800241C7002F0BFF9144A36
:201B6000144D1368296823F0010313600B6A204698472B6820469B6A98472B6820461B6B58
:201B800098470D4B01210D4A196013689B07FCD50B4C152023689B6B9847236815201B6AED
:201BA0000021BDE870401847FA330020400500200C000140B8010010282008602820084048
:201BC000B401001010B5064C042023685B699847236804205B6B98470128F9D110BD00BF04
:201BE000B8010010FFF7EEBF032801D000F016B908B5FFF7ADFF104B00219B688120984760
:201C00000E4B00219B68812098470D4B00219B68812098470B4B00219B68812098470A4B7C
:201C200081209B6800219847084B4FF480521A60BDE8084000F0F2B81043010040430100BF
:201C4000204301005043010068430100A020024070B507F039FB0646FFF7B4FF3C4B4FF4CF
:201C6000A0601B68DB6998473A4B01213A4A196013689B07FCD5394C00F0A2F8FFF762FFC6
:201C8000002006F023FE364802F022F9236819209B6B984723684FF4005119209B6998479E
:201CA000236818209B6B984723684FF4005118209B699847236817209B6B984723684FF4CD
:201CC000005117209B69984723681B209B6B984723684FF400511B209B69984723681E20E8
:201CE0009B6B984723684FF480411E209B69984723680D20DB6B98471A4A4FF400552368EB
:201D0000156000214FF480729B6A0D209847236802209B6B9847236829469B690220984756
:201D2000236803209B6B9847236829469B690320984723681D209B6B9847236829469B6965
:201D40001D20984706B170BDBDE8704007F0C0BAB80100102820086028200840B4010010EF
:201D600054050020A020024010B5094B09481B685B68984710F00C0F044605D0064B0422A8
:201D80001A60022007F0A8FAB4FA84F0400910BDAC010010002000400428004008B5064B3F
:201DA00002201B685B6B9847012803BF034B186800F00100002008BDB801001060200840B9
:201DC00070B5104D02202B685B6998472B6802205B6B9847012804460A4BF7D11B684FF479
:201DE0004070DB699847084B084A1C6013689B07FCD5074B07481B6807491B680122BDE842
:201E000070401847B80100102820086028200840AC01001000200040006CDC02214B10B512
:201E2000FF221A70FFF7BAFF20B11F491F4A00230B6013601E4B4FF440701B681B6A984762
:201E40001C4B01211C4A196013689B07FCD51B4C082023689B6B984723684FF400510820E6
:201E60009B699847236809209B6B984723684FF4005109209B699847236805209B6B984726
:201E800023684FF4804105209B699847236806209B6B9847236806209B694FF48041BDE8B7
:201EA000104018473E0900200428004010040542B80100102820086028200840B401001077
:201EC0002DE9F0470646484B48481B78484A5B00036033780F46136001F056F9DFF8148144
:201EE00000F5CC551935D8F80030424C5B0624D403232360022007F0EFF901F045F900F5C9
:201F0000CC5519352368D8071FD4FFF72DFF012F03463DD9B0B1DFF8D880364D013607F102
:201F2000FF39022416F8012B631E4B45C8F8002011D3BC422ED20134F4E701F025F9401BBC
:201F40000028D0DB0020BDE8F08701F01DF9401B0028D7DBF6E701232B60022007F0BCF9DC
:201F600001F012F900F5CC5A0AF1190A2B68D90707D4FFF7F9FEBC42034609D20028DAD1FC
:201F8000E0E701F001F9CAEB00000028EEDBD9E7002BD7D0174C05232360022007F09CF99B
:201FA00001F0F2F800F5CC5519352368DA0711D4FFF7DAFE044601F0E7F80E4E00F5CC5537
:201FC000193533685B060BD501F0DEF8401B0028F7DBB7E701F0D8F8401B0028E5DBB1E781
:201FE0002046BDE8F08700BFFB33002000280040082800400428004070B5174B17491B7894
:20200000174A5B000B60106001F0BEF8154E00F5CC5519353368134C5A0612D407232360CE
:20202000022007F059F901F0AFF800F5CC5519352368DB070CD501F0A7F8401B0028F7DB06
:2020400004E001F0A1F8401B0028E3DB002070BDBDE87040FFF788BEFB330020002800403D
:2020600008280040042800402DE9F04F404B414A1B7883B05B0043F00103136005460E46AF
:2020800001F082F83C4F00F5CC5419343B683A4A13F040032BD11746BA460B211160022063
:2020A000DFF8D8901C4606F1FF3807F015F9012244452CDA02B301F067F800F5CC5B0BF17D
:2020C000190B3B68D9071BD4FFF74EFE02460028EED00192D9F80010092329550220CAF8F8
:2020E000003007F0F9F8631CDCB2019AE0E701F04BF8001B0028C9DB002003B0BDE8F08F47
:2021000001F042F8CBEB00000028DADBF4E7002AF2D0194C05232360022007F0DDF801F04B
:2021200033F800F5CC5719372368DA0717D4FFF71BFE0028E0D0114B35441B680E4E05F81D
:20214000013C01F021F800F5CC54193433685B060BD501F019F8001B0028F7DBCCE701F03F
:2021600013F8C01B0028DFDBC6E70120C5E700BFFB330020002800400428004008280040CC
:202180002DE9F04F81466D4D6D4E28786D4C4000306099F8000083B020608A4616461F46B0
:2021A00000F0F2FFDFF8A0B100F5CC5808F11908DBF80030644C5A063BD4032323600220F6
:2021C00007F08AF800F0E0FF00F5CC5808F119082368DB0737D4FFF7C7FDBAF1010F03464E
:2021E0003FD960B309EB0A03DFF858B1DFF85881019309F101044FF0010A14F8013B0220DC
:20220000CBF80030C8F800A007F066F800F0BCFF00F5CC5909F11909D8F80030D80719D469
:20222000FFF7A2FD019A034694421AD00028E4D105E000F0A9FFC8EB00000028B8DB00207D
:2022400003B0BDE8F08F00F09FFFC8EB00000028BEDBF4E700F098FFC9EB00000028DBDBB1
:20226000EDE70193002BEAD037492A780C463448520042F001020B2502600D60022007F082
:202280002BF8A24607F1FF390025DFF8B880019B03E0FFF769FD034698B9A9451ED9002B4A
:2022A000CDD000F071FF00F5CC5B0BF1190B2368D907EED500F068FFCBEB00000028F6DBB1
:2022C000BDE70193D8F80010092271550220CAF8002007F001F80135019BDEE7002BAED0C1
:2022E000194C05232360022006F0F6FF00F04CFF00F5CC5519352368DA0705D500F044FFA9
:20230000401B0028F7DB9AE7FFF72EFD002896D00C4B3E441B680C4D06F8013C00F034FF25
:2023200000F5CC5419342B685B0601D4012087E700F02AFF001B0028F5DB80E7FB33002002
:202340000028004008280040042800402E4B10B504461970FFF722FDB0B12C4B1A78A242C5
:2023600018D02B482B4900221C7002600A601B788BB1012B2BD0BDE81040274B27481B68C5
:2023800027491B6801221847FFF71AFD1F4B1A78A242E6D110BD234C052023684FF4C041F4
:2023A0009B699847236806209B694FF4C04198472368052106221948DB6C9847236808204F
:2023C0009B6B9847236809209B6B9847D3E7154C082023684FF4C0419B69984723680920D6
:2023E0009B694FF4C04198472368082109220B48DB6C9847236805209B6B98472368062018
:202400009B6B9847B7E700BFFB3300203E0900200428004010040542AC01001000200040E1
:20242000006CDC02B40100100120704708B501F07DFE30B1034B5888A0F10200B0FA80F0D0
:20244000400908BD6805002008B501F06FFE30B1044B5B88022B0CBF0120022008BD022091
:2024600008BD00BF6805002030B583B002F0C8F8044601F05BFE08B903B030BD0E4801A98C
:2024800001F05CFE0128F7D100F07EFE638803F44063002BF0D16FF03F052D1A06E000F063
:2024A0008FFF638803F44063002BE5D100F06CFEE842F4D4E0E700BF0100010470B582B0F9
:2024C00001F034FE234C10BB00256580E37B214E23F01003E373E37B304643F02003E373CC
:2024E000E37B01A943F04003E373E37B63F07F03E373A37F5BB2C3F5FF6307339BB2238309
:2025000001F01CFE012809D0284602B070BD6388022B08BF0120D7D102B070BD00F034FEB8
:2025200073889BB2022B0DD06FF03F052D1A05E000F046FF63889BB2022B03D000F024FEFB
:20254000E842F5D4608880B2A0F10200B0FA80F04009E1E76805002008B50346B32994BFEE
:202560000A46B4220248194611F0B8FA002008BDDA0C002070B50E4D0E4E2C68002006E078
:202580002379022B06D024682B68A3420ED02379032BF5D133780120002BF4D1064803F02D
:2025A00075FF24682B680120A342F0D170BD00BF8C0A0020013400209806002038B50D4AC8
:2025C0000024136819681C725C721C71116002F07BFA0546BFF35F8F074B1A7812B11C70FC
:2025E000FFF76CFFBFF35F8F2846BDE8384002F073BA00BF940A0020003400202DE9F04316
:202600002E4B83B080460F461D6800F0BDFD2C4E361A03E000F0B8FDC6420AD52C79022CB8
:20262000F8D0284B0020032C187008D003B0BDE8F0832C79234B0020032C1870F6D1B5F887
:202640000890B9F1060F27DDA9F10606BE4223DC0A3540462946324611F040FADFF87480C8
:20266000AA5DAB1988F800205B79A9F10501164F0422294401A83B7011F030FA019802F079
:2026800049F8124B124A1B7810605BB1FFF796FF304603B0BDE8F083FFF790FF002003B00D
:2026A000BDE8F08398F80010042049B289B204F0DBFF3978204604F0D7FFE7E7940A0020CD
:2026C000E2FAFFFFFC3300200234002001340020E8120020400900200C2801D001207047C6
:2026E000042A01D0022070470029FBD0024B00201B680B60704700BFE812002070B582B0CC
:2027000001F014FD002837D01D4C6388022B33D11C4E00F039FD7388022B0BD11A4D2D1AC1
:2027200004E000F04DFE7388022B03D100F02CFDE842F6D401A9154801F000FD00F024FD6B
:202740006FF03F052D1A08E06388022B09D100F01BFDC54205D500F033FE01F0E7FC0028AF
:20276000F2D16088A0F55050043880B201288CBF0020012002B070BD012002B070BD00BFB8
:2027800068050020D805002000FEFFFF0100010410B5114B114C1A680521237E84F8241036
:2027A000928882B003F0F00343F00A03204601A96283237601F0C2FC012802D0002002B09D
:2027C00010BD204601F00CFDA0F10100B0FA80F0400902B010BD00BF70060020B00500202E
:2027E00000B583B00A4801A901F0A8FC012803D0002003B05DF804FB054801F0F1FCA0F181
:202800000100B0FA80F0400903B05DF804FB00BF9805002008B5FFF7BBFF012801D000204A
:2028200008BDFFF7DDFF0128F9D1FFF747FEC0B208BD00BF08B502F015F8012812D0FFF720
:202840005DFF01F0C7FD002210460749074B4A8003F510711A799033022A08BF03F88C0C2E
:202860008B42F7D1012008BD68050020980A00202DE9F84F01F0F6FF012818D001F056FCF7
:2028800088B901F0D9FB01F051FC0446002840F08E8001F0BDFC012805460BD001F09AFDC3
:2028A0000020BDE8F88F574B5B88022BE9D10120BDE8F88F01F008FE53494FF4237253480D
:2028C00011F00CF9DFF88CB15148DFF88C91DFF88CC1504F504E5149514B524A04704FF06B
:2028E000020A8BF800504FF003084FF0040E052406204D4D89F800A08CF8008087F800E0F1
:20290000347008701A602B684749002BFBD00020464A474BDFF84881086052F81CCC52F842
:2029200018EC52F8146C52F8105C52F80C4C52F8207C12E90300203343F8207C43F81CCC40
:2029400043F818EC43F8146C43F8105C43F80C4C43F8080C43F8041C434502F12002DCD14F
:20296000344B354ADFF8FCC0DFF8FCE0334934482D4C344F344E00251862C3F824C001203E
:20298000C3F828E0DF621E632560116006F03CFF2E4806F09DFE224613682349002BFBD03F
:2029A00000230B6001F09AFC01287FF477AF01F0B9FD2748002103460E46022588245A79C6
:2029C0001E7102F0FC0265F383025A71DC80903343509031B1F5107F1D4AF0D1C2F8B02175
:2029E00001F042FBFFF7D4FE012802D00020BDE8F88FFFF7F5FE0128F8D1BDE8F84FFFF7DD
:202A00005DBD00BF680500207C4A01001C04002190030021AE030021AB030021810300214E
:202A2000C0030021BD0500211C100440E843010000C0002180C600210010044001010E0483
:202A40006039536311161216546B0070B0050020980A002079030021750300217703002141
:202A6000A0C600212010101A136F236E70B582B0072800F2AC80DFE800F0212AAAAA5E6B9F
:202A800070045E4B197001F051FB00285DD05C4B5B88022B59D1FFF731FE01280CBF0024E0
:202AA000032401F033FD012800F0A080FFF7B2FE01280CBF2046032002B070BD012900F079
:202AC0008E80002900F08580022002B070BD8029FAD84C4C4FF47A72208AE38902FB03F37E
:202AE00002FB00F2A3F55C2302F57F42FF32A3F58763454803EB2243A0FB0323CAB2C3F392
:202B000087139A4221D0C82303FB01F13F4801F55C2303F58763A0FB03213D4A890902FBC0
:202B200001331B04A0FB03233A488AB29B092382E2810284A7E731F00403C5D1364BC1F310
:202B400080011A7819708A429DD1002002B070BD31F00103B8D1C8B2AEE74FF6FF742F4DAF
:202B6000AE88A64208BFFF2309D02A460023083290880133A042DBB2F9D1013BDBB255F80D
:202B80003330264C99429FDB236899429CDC0191FFF76AFC4FF6FF739E4201992CD02246AA
:202BA0001C460023083290880133A042DBB2F9D1013BDBB255F8332005EBC300914203F1EE
:202BC000FF3316DD5A1CF5D1FFF724FEBDE7012072E70191FFF72EFE019908466CE7FFF779
:202BE00047FE012814BF0320002065E701F02AFD5CE70B4B1860E7E70023D9E73F090020C3
:202C000068050020980500201F85EB51D34D621018FCFFFFB005002001340020084D010066
:202C20007006002099B1F0B50C4683B0172800F2B980DFE800F05E9DB7B7950E8B582978D9
:202C400086B7B7B70E7E126BB78274700E91022070470020086003B0F0BD4FF6FF705B4DE7
:202C6000AB88834208BFFF2309D02A4600230832918801338142DBB2F9D1013BDBB255F850
:202C8000333000202360E6E701F050FA002840F08D80FFF7EDFD012840F0938007460A25F9
:202CA00080266B1E13F0FF054FF000014FF004020FD001A810F0ECFF40F2034301A8694616
:202CC000ADF8043001F03AFA18B19DF802607306E7D0002F72D176B216F1800F26600CBF85
:202CE00003200020B7E73A4B002093F900300B60B1E701F01BFA30B1364B5888A0F10200B4
:202D0000B0FA80F0400920600020A4E72F4B00201B680B609FE73E230B6000209BE7A023E6
:202D20000B60002097E72C4B00201B785BB20B6091E780230B6000208DE706230B6000201A
:202D400089E7264B00201B780B6084E7244B00201B681B680B607EE718230B6000207AE77D
:202D60000020204B08601B78F3B104230B6072E71D494FF47A72CB89098A02FB03F302FBD2
:202D800001F2A3F55C2302F57F42FF32A3F58763164903EB2243A1FB0323C3F38713236077
:202DA000002058E7012056E7184654E7094B5B88022B08BF00273FF472AF6AE7FFF73AFD99
:202DC00089E76FF07F032360032044E7084D01003F090020680500204009002002340020C7
:202DE0007006002001340020980500201F85EB5170B582B0044601F099F928B3244B5B88FA
:202E0000022B08BF00251FD12249221DA31C224C92B29BB2100A2382E16148700A70FFF718
:202E20006DFC002001F0BEFB204601A901F086F988B9012601F0D4FB00236380FFF73EFB82
:202E4000E5B9304602B070BDFFF712FD01281AD0012002B070BD00F0B3FA104E317800E0E3
:202E600099B163880C4A03F44063002BF8D0508880B2B0F5505618BF0126DBE7FFF7DAFC59
:202E8000304602B070BD0546BEE700F0CFFEE5E768050020D80C0020D80500200134002081
:202EA00010B50C46B32C014694BF2246B422044810F014FE2046BDE81040FFF799BF00BF7E
:202EC000DA0C002030B583B001F0CCFC01281BD001F02CF9D0B1154B5B88022B1FD00025EC
:202EE0008024134801A901F029F9012803D19DF806406306F5D07DB90E4B64B293F90000DF
:202F0000A042D4BF0020012003B030BDFFF7B0FC012806D10546E3E7FFF78CFCECE7012032
:202F2000F2E7FFF787FC0120EEE700BFD8050020010003043F09002010B501F0F7F880B147
:202F40000F4B5B88022B0BD10E4C237853B90E4B1B689B0601D5012323702078C0B210BD49
:202F6000002010BDFFF7AEFFB0FA80F0400920702378002BF1D1044B6FF020021A60ECE729
:202F800068050020FC33002008100440F8B51F4800F09EFF06F014F9012802D000242046D0
:202FA000F8BD1B4C002120464FF4107210F070FE40F2863043F23331164B174ADFF874C0ED
:202FC000164DDFF874E0164F0026CCF8004083E85000AB62C5F82CE03884D0811182FFF7AD
:202FE00047FC01280446D9D10E4B0F4A1E6013680E4843F02003136001F008FB01F00CFBBB
:2030000031460B4803F022FAC9E700BF5C060020980A00208C0A0020980500206805002024
:20302000B0050020081004400C100440B843010098060020940A0020800A002010B5064CC6
:20304000042023685B699847236804205B6B98470128F9D110BD00BFB8010010F8B51A4A71
:2030600000200021C2E90001184B04201B685B6B9847012801D0FFF7E1FF144B00201B68E2
:20308000DB699847124B0121124A196013689B07FCD5114A11491368096823F4807323F00D
:2030A00001030F4C13600B6820460E49984740F221200D4D0D490E4B042731260122276087
:2030C0002E6008601A60F8BD48090020B801001028200860282008400C000140C80100102B
:2030E00000000140002100043C000140080001400400244310B40949094C0B682268086861
:203100008342FAD1DB01074903EB52620023C1E900235DF8044BD1E90001704708200940DA
:203120000C2009404809002010B50B490B4C0B68226808688342FAD1DB01094903EB52626C
:203140000023C1E9002302F0DDFF00B910BDBDE8104002F0B7BF00BF082009400C20094029
:203160004809002010B506F0AFF8034B1C6808B906F0AEF8204610BD08200940704700BF33
:203180000146012000F052B805F034BF2DE9F04106F09AF81D4E1E4B1E4F326801240025F1
:2031A00080464FF480314FF480703D601C60186019601368284623219847336820461B6888
:2031C00024219847336802201B6825219847124A1249136843F4E02313600D6005F00AFF1C
:2031E0000F4B1049104A1B6800F50070086014603C601B6914209847B8F1000F01D0BDE89D
:20320000F081BDE8F04106F063B800BF840100100420094000002443002009400820094054
:20322000B00100101C200940A0022443431E012B10B41BD9042802D05DF8044B704700237E
:203240001A4610F004001CBF0E4C216013B10E4B0121196012B10D4B01221A600028EBD001
:203260000B4B01221A605DF8044B704710F0010302D0084A0123116010F00202E1D0064C3C
:203280002160DEE72020094080022443A0022443C0022443182009401C200940014B186872
:2032A000704700BF900D002008B5FFF76DFF184B1860FFF739FF174B1B686BB9164B1B68C6
:2032C000E3B9164B1B6833B11549164B00204FF4803208601A6008BD124B4FF480721A6003
:2032E00005F088FE00F205200F4B20F4FF7020F001001860084B1B68002BE2D00B49094B7B
:203300000020012208601A6003F0E4F8D9E700BF900D0020A000244380002443C000244368
:20332000C0022443042009401C20094080022443820702D5034B01221A60C30700D47047E9
:2033400005F0C6BF000C084008B505F0BDFF074B1A68012A03BF064902221960002200283A
:2033600014BF104642F0010008BD00BF000C084051E5CC1A03490448044B012208601A6011
:20338000704700BF00000840FFFF0F00000C084038B5FFF7D9FF064C064D0749074A0123E9
:2033A00025600B601360BDE83840FFF7C1BF00BF00000840FFFF0F000C0008400401004367
:2033C00003490448044B012208601A60704700BF00000840FFFF0F000C00084008B5FFF72F
:2033E000D7FFFEE708B5064803F0A8FC30B1054B0121054A196013689B06FCD508BD00BFE4
:20340000940D0020000222431410094070B5054605F05AFF0B4C294606460B4803F090FC75
:20342000FFF7E0FF236868681B689847236868689B6898471128F9D106B170BDBDE8704081
:2034400005F046BFA0010010940D002038B5044648B9134803F072FC28B1234605C81343A7
:203460000028FBD19BB90F490F480B680F4D104C0068002223F4C0530B602A602260C368D4
:20348000012098470B4A13689B06FCD438BD054A136823F4C05343F40063136038BD00BF41
:2034A000940D002004100940A001001080012243000222431410094038B5054605F004FF53
:2034C00004462946054803F07FFC0020FFF7BEFF04B138BDBDE8384005F0FABE940D002070
:2034E00070B50446B0B10078C0B1A9B10025661804E014F8010F38B1B44205D000F01AFB5D
:20350000631C05F10105F4D100F05AFB0128FBD0284670BD0546F7E70D46F5E70546F3E71A
:2035200010B40B4B0B4C13F8012FFF2A0ED1A342F9D1094A39B11144013801390B789142CD
:2035400000F8013FF9D15DF8044B7047034AF1E7C7FF0100CFFF0100F0120050C8FF010039
:2035600000F0E8BA014800F0F9BA00BF393800002DE9F047038805465BB1FA2B04D18229C9
:2035800015D00120BDE8F087002303800320BDE8F087874E874C8848884A01213380238062
:2035A00003801170FA232B800120BDE8F087DFF808C2DFF8FCE1BCF80030BEF8002080492A
:2035C00001209342087000F0E5804FF0000177D3B3F5A26F1AD20C467A487B4F4FF0C00913
:2035E0004FF0DB08002900F09480C15CDD2900F0A980DC2900F0B480002101339BB2B3F5CD
:20360000A26F00F0CB80B4F5A06FEBD90024002A00F0CA806B486C4F00234FF0C0094FF082
:20362000DB0800296CD00178DD2900F08180DC2900F09080002101339BB29A4205D9B4F5C8
:20364000A06F00F10100ECD9002402F101081FFA88F8B8F5A26F00F09880AEF80080554B5F
:203660001E88B0451ED0DFF85C9140464F46864218D019F80030C02B7ED0431C9BB2B3F564
:20368000A26F4FF0000007D1F1E7F95CC02974D093B2B3F5A26FEAD0B34203F101024FF0C5
:2036A0000000F2D1ACF80080484B1C80002C3FF479AF474B1B6803B198470BF03FFF71E734
:2036C0000C464048404F4FF0C0094FF0DB0871B1C15CDD2926D0DC2948D0002101339BB25D
:2036E0009A42B2D9B4F5A06FAED80029F0D1C65CDB2E23D004F1010A3E551FFA8AF4EDE71F
:203700000678DB2E24D004F1010A3E551FFA8AF491E7C65CDB2E13D004F1010A3E551FFAD2
:203720008AF46AE7661C07F804800021B4B2D5E7661C07F804800021B4B27CE70121CDE7AD
:2037400001215AE7661C07F804800021B4B254E7012170E7661C07F804900021B4B26AE7D9
:20376000661C07F804900021B4B246E7661C07F804900021B4B2B1E703461648AEF80030CF
:20378000ACF8008002F082FE8EE700239846AEF8003064E70D4B00221A8003E72AB1B4F57A
:2037A000A06F7FF637AF4FE714464FF0010854E7E0330020DE330020E2330020FD330020A3
:2037C000FE330020980D0020B4380020A4380020A812002074060020014B1860704700BF1D
:2037E000A812002070B50D460646C020FFF7B8FE002DC8BF344608DC15E0DB2818D0FFF7B7
:20380000AFFEA31B9BB2AB420DDA14F8010BC028F3D1DB20FFF7A4FEDC20FFF7A1FEA31B76
:203820009BB2AB42F1DBC020BDE87040FFF798BEFFF796FEDD20E2E738B5254A1378022B9D
:2038400021D0032B19D0DB2804BF0223137021490C88631C9BB2B3F5A26F02BF00252B4618
:203860000D801D4D18BF0B802D889D4227D01B4BC028185514D0002038BDC028FBD10123D8
:203880001370002038BD00F12403DBB2012B13D9134B10491888032308801370002038BD36
:2038A0000F4A13889C4211D09D420E4808BF148002F0ECFD012038BD01231370C7E7084B2C
:2038C00003201B8810700B80002038BD0C80D2E7FD330020DE330020E2330020980D002042
:2038E000E03300207406002038B50C4D02202B685B6998472B6802205B6B98470128044690
:20390000064BF7D11B684FF40070DB699847044B044A1C6013689B07FCD538BDB801001070
:2039200028200860282008402DE9F04340F2F275DFF8E08083B0FFF7D7FFD8F800302B4EB6
:20394000DB682B48984733682A4C5B69152098472368DFF8C490284F23F4FE63D9F8002053
:2039600023F0020323603D60D36B1D2098472349D9F800204FF0FF334FF00050086000935D
:20398000D2F840C01A481C211D22E047D8F800301748D3F804C01A494FF4E1326023E04707
:2039A00040F2011240F2013E1649174B142008601968164841F01001196003681449002B67
:2039C0000CBF134673460B603D60036853B12368326843F0500323601369152003B0BDE85C
:2039E000F043184703B0BDE8F08300BFB0010010001000403810004044100040902002408C
:203A0000006CDC02341000402C100040AC12002030100040D0010010B401001008B5064B4A
:203A200002201B685B6B9847012803BF034B186800F00100002008BDB80100106C20084010
:203A400038B50446FFF7EAFF18B1264A13681907FCD4032C03D0244B1B6803B138BDFFF719
:203A6000DDFFF0B9214D4FF400702B681B6A9847032C2CD01E4B01211E4A196013689B07F5
:203A8000FCD51D2000F040FA1C2000F03DFA4FF0FF3000F039FABDE838404FF0FF3000F07F
:203AA00033BA154B15481B68DB689847144B15201B685B69984740F2F270124A1249136837
:203AC00023F4FE6323F0020313600860CAE72B684FF400709B6A98472B684FF400701B6BD4
:203AE0009847C7E718100040AC120020B80100102820086028200840D001001000100040B9
:203B0000B0010010381000404410004010B505F0DBFB0446054800F0DBF9054B00221A60F1
:203B200004B110BDBDE8104005F0D2BB84060020AC12002010B50446FFF770FF08B9FFF7D9
:203B4000F3FE044B2146BDE810401B680248DB69184700BFD00100100010004010B5134B46
:203B6000134C1860134A2368A8B1022111615B6A4FF40070984723684FF40070DB6A9847DF
:203B80000D4B01210D4A196013689B07FCD5BDE81040FFF7C9BE10619B6A4FF40070984773
:203BA00023684FF400701B6B9847E9E7AC120020B801001084060020282008602820084001
:203BC00008B5FFF72BFF18B1024B1868C0F3C00008BD00BF1810004038B5FFF785FE40F27B
:203BE000F2710C4B0C4A1B68116013F0500F10D00A4C0B4D05E02B681B699847094B1B681F
:203C000023B923680848DB06F5D538BDC0B29847F7E738BD4010004044100040181000409D
:203C2000D0010010AC12002000100040034A136823F00403136030BF704700BF10ED00E0DE
:203C40002DE9F84305F040FB02F0CAFB18B1BDE8F84305F03DBB8E4803F070F802250446F4
:203C600048B1636823B19847A84228BF2846C5B22468002CF5D1FFF787FA864B80461B6808
:203C8000CBB91F46994602F03DFA002840F0A780012D0446064600F0EC80022DD7D1E7B125
:203CA000A9F14101B4B18B1B002B13DB31460220FFF7BCFA18E0784BD3F80090C0EB0903F2
:203CC000022B00F1BE80A3F28F23002BC0F2CB800127D8E70420FFF7A9FA002CE6D108F199
:203CE000FF310220FFF7A2FA694803F027F806250446002800F0AA80A368022003B19847A6
:203D00002369246825EA0305002CF5D1FFF758FB6B0705F0060400F19C80002C40F09D8042
:203D200000F0BCF90020FFF791FB5C495C4A0B685C4823F003030B601368016843F00F032D
:203D400013608B6939209847574A584900231360184613600B6005F0F3FA062C00F08580A7
:203D6000534C544D544E2B682368326823F00303236053685148032198474A4B1B689B6B98
:203D800098472B6805F034FC4D4A3368002111604A485B680121984723684A4A012143F0FE
:203DA0000303236011602B6805F054FCFFF71AFBFFF7BAF9FFF704FB354802F0BFFF044611
:203DC00028B1E36803B198472468002CF9D100F033F905F07DFABDE8F84305F079BA02F028
:203DE00099F90646FFF786F9361A002E7FF72FAFFFF754FA344B00EB4626C8EB0303F34296
:203E000040D40124A5427FF448AF6FF00703C8EB0303F34233D408F58038C6EB080336EA29
:203E2000230628BF464631460220FFF7FFF9274A136823F00403136030BFBDE8F84305F022
:203E400047BA00239D4288BF1D4641E7FFF7B8FA06241C4B00221A605FE7124B20461B682C
:203E60009B6998475CE70123ECE7022005F038FA76E708F580310220FFF7D8F9D7E708F131
:203E80000806D0E7022DC0D0012D7FF4E0AEBCE7B012002080022443182009400010094027
:203EA00008100940B80100104010094020042243242208402C200940D80100100040034027
:203EC000800104430C40094071FDFFFF10ED00E00146014802F034BFB01200200146014855
:203EE00002F072BFB012002010B5054802F022FFBDE81040034B03201B6820211B6818478C
:203F0000B012002084010010421C0ED010B50446064B4FF4C0421B6800211B689847044AF5
:203F2000A3001A430023136010BD7047B4010010001A4442024B1868186002F0F5BD00BF5A
:203F4000E020024070B51B4B0C461B6805465B68984714F00C0320F0E06222F4EC2207D072
:203F6000042B20D0082B21D00C2B08BF42F4403214F003030DD142F4C04223060D4B284649
:203F8000BDE870401B6848BF42F480221B6800211847022B04D0012B08BF42F48042ECE7A8
:203FA00042F40052E9E742F40032E1E742F48032DEE700BFB4010010064B1B68C340DB078F
:203FC0004CBF054B054B1B6823FA00F000F00100704700BFD020024080200240C020024009
:203FE00010B584B00022412302A802920393FFF70DFA042004F0E8FF032813D0042003211C
:2040000004F0B2FF042004F0DFFF03280346F9D1074A084812680093546800214FF040526B
:204020001C23A04702A8FFF747FA04B010BD00BFA401001000A00C4000B583B0002241232A
:2040400068468DE80C00FFF7E1F9012004F0BCFF012803D00320012104F086FF6846FFF733
:204060002BFA03B05DF804FB00B583B00022412368468DE80C00FFF7C9F9012004F0A4FF07
:20408000012803D0044B986B04F0C6FF6846FFF713FA03B05DF804FB4800001010B582B012
:2040A00041236846002401930094FFF7AFF90320214604F059FF012004F086FF18B1044B7C
:2040C000986B04F0A9FF6846FFF7F6F902B010BD4800001070B50388044653B1B3F52F7F83
:2040E00003D182290AD0012070BD00230380032070BD4FF42F732380012070BD094B0A4EA1
:204100001D69FFF75DF903F059FA03F0F1F98021A847002880B2ECDD03F0E4F9F3689847ED
:20412000EFE700BF80430100D0640100024B186800F00100704700BF9C21084010F00303B2
:2041400070B506460D4602D1028811051FD405F0BBF81F4B00301B6818BF0120DB0720D5A1
:204160001C4B1D4C1E6023684CF250322B6003E02368013A2B6014D013F0FF0FF8D018B35F
:204180002878A0F10100B0FA80F0400970BD438005F09AF80E4B00301B6818BF0120DA072E
:2041A00002D468B1002070BD338813F4405FD7D003F44063B3F5006F04BF084B1E60CFE7C0
:2041C00005F086F8002070BD05F082F8D8E700BF9C2108400010044004100440D812002077
:2041E0000A4A01E0013A0ED0438803F44063B3F5806FF7D1428802F44062A2F58060B0FA2A
:2042000080F0400970471046704700BF20A1070030B583B005F058F8254C054623681920BD
:204220001B6A9847236812201B6A9847236819205B699847236812205B690834984723686B
:2042400001205B699847236801205B6B98470128F9D11849184B194A0860186013689B0732
:20426000FCD5134C164817492268002303600B60136919209847236812201B699847A5B1CB
:2042800040F2FF35104B114A11481249002405600C60114801A91A60FFF750FFA0F1010005
:2042A000B0FA80F0400903B030BD05F011F8E7E7B00100102C20084028200860282008409A
:2042C00010100460141004600010044051000706000004601C1004400100060410B586B046
:2042E0000021142201A80FF0D3FC40F60A0215499DF811300C68012161F3030301A8694632
:2043000005948DF81130ADF80420FFF717FF012802D0002006B010BD0B4801E00138F9D095
:20432000BDF8063003F44063B3F5806FF6D1BDF8060000F44060A0F58060B0FA80F0400973
:2043400006B010BDEC12002020A1070000B587B00021142201A80FF09BFC40F609029DF89C
:204360001130012161F3030301A869468DF81130ADF80420FFF7E2FE012803D0C0B207B09E
:204380005DF804FB104801E00138F8D0BDF8063003F44063B3F5806FF6D1BDF8063003F4CA
:2043A0004063B3F5806F03D0002007B05DF804FB064B1A782AB9064A0599012011601870F7
:2043C000DDE70120DBE700BF20A10700FF330020EC12002030B587B004F076FF314C0546F2
:2043E000236819205B699847236812205B6998472D4B1B68DA071AD52C492D4A00230B60B1
:2044000002A81946136010220FF042FC40F60D029DF81530012161F3030302A801A98DF83D
:204420001530ADF80820FFF789FE01282CD0FFF78DFF2048204B00240121204A04601960E6
:2044400013689B07FCD51E4C012023689B699847236801205B6B98470228F9D1114C19209A
:2044600023681B6A9847236812201B6A9847236819201B699847236812201B6998470DB91F
:2044800004F026FF07B030BD0E4A01E0013ACED0BDF80A3003F44063B3F5806FF6D1BDF8B1
:2044A0000A30C4E7B00100109C21084010100460141004602C200840282008602820084071
:2044C000B801001020A1070008B504F0A1FE052803460BD003280DD018B101280FD00020B1
:2044E00008BD094B03221A60012008BD064A0120136008BD044B02221A60012008BD024A56
:204500000521116008BD00BFD021084008B5FFF71DFFFFF7E3FE012802D0FFF75BFF002036
:2045200008BD00BFF8B5174B174A19781268174B002914BF00241C46D30700D4F8BD04F041
:20454000C3FE0646124A134B1348144F144D00213B60046011602B6819201B6A98472B6821
:2045600012201B6A98472B6819201B6998472B6812201B69984706B1F8BDBDE8F84004F011
:20458000A7BE00BF013400209C2108400000C0801010046000004080141004601810046005
:2045A000B0010010084B1B7833B1002002460749074B0A6018607047064B0749074A0028B3
:2045C00014BF18460846F2E70134002010100460141004600800C0800200C0800000C08058
:2045E000044A054B1178054A002918BF00231360704700BF013400200000C080141004601C
:20460000014B1868704700BFD8120020014B1860704700BFE012002038B5064B064C1D68ED
:2046200006484FF43441064A0023256001F090FB012038BD04300440B4120020B8120020A2
:20464000B5460000164B1B68DBB170B59B68984708B9002070BD04F037FE124B124C1D6871
:204660000646002115F1804022684FF0000341F10001994208BF904209D325601EB1012043
:2046800070BD0020704704F023FE012070BDFEF77BFD064A06491368086001331360ECE74A
:2046A000E012002004300440B4120020DC120020E412002070B5134B1B68B3B19B6898471A
:2046C000D8B9114D2B6A984701280ED1FFF7BAFF6B6A0446984744B1BDE870400B484FF4E2
:2046E00034410B4A002301F033BB08488021084A0023BDE8704001F02BBBFFF7A3FF04467A
:20470000E9E700BFE012002080430100B8120020B5460000F8B5224C2368002B3DD09B686E
:204720000646984700B3FFF78DFF1E4BB6F1404F1F6825D822681C4BB2F90C401968E51791
:20474000641A65EBE1750022A41945F10005A01845EB0701090241EA106143F609520023CD
:2047600000020EF0ABFEF8BD104D2B6A9847FFF769FF6B6A98470B4BB6F1404F1F68D9D933
:20478000FEF702FD0A4B1B68C3F17E4303F57203C34248BF07F1FF37CCE71846F8BD00BFAC
:2047A000E0120020DC120020EC12002080430100E412002010B5104B1B68DA0704D4FFF78F
:2047C00027FD012800D010BD0C4C23685B0204D40A4B6FF000421A6010BD094B01220948D2
:2047E0001A7001F053FE6FF480032360034B6FF000421A6010BD00BF9C2108401010046006
:20480000003400209806002008B5124B1B68D90707D4114805F0DEFCFFF7FAFC012800D021
:2048200008BD04F051FD0D4B1A6812020BD40B4B1A6812F00A0F1CBF6FF00A021A60BDE84C
:20484000084004F045BD6FF400021A60044801F01DFEECE79C210840B44D01001010046085
:2048600098060020014B1878704700BF0334002008B500F08BF880B208BD00BF00F010B932
:2048800038B50C4D04202B685B6998472B6804205B6B984701280446064BF7D11B6840F2DB
:2048A0000140DB699847044B044A1C6013689B07FCD538BDB801001028200860282008408F
:2048C000034B1B68002B14BF01200220704700BFF0120020F8B503880446002B2ED0B3F5DB
:2048E000847F05D1184B1B788B4205D00120F8BD002303800320F8BD144D2B6873B1144B7C
:20490000144A1B6812685B680220174698470026301847F100012B6898472E600E4B40F2E9
:2049200001401B689B6A98470C4B01210C4A196013689B07FCD50B48FFF7D0FA4FF484734C
:2049400023800120F8BD00BF41090020F0120020CC01001004800240B80100102820086077
:2049600028200840A806002008B5064B04201B685B6B9847012803BF034B1868C0F34000D3
:20498000002008BDB80100103C20084070B5274B1B689BB1264C0023224612F8011B29B95A
:2049A0000133042BF9D10020014670BD214A002502EBC302E55492E8030070BDFFF7D4FF48
:2049C00000282FD01C4A1D4B1268134073B91C4A01211346116018680028FCD102464FF497
:2049E000807104F08BFA174B01221A6004F06CFC0646114A1368DB07FCD5134B134A1B68DF
:204A000014685B680220984723460022141843F1000516B12046294670BD04F059FC2046EE
:204A2000294670BDFFF72CFFCCE700BFF0120020F41200205009002008800240010000803B
:204A4000F09F0240A8025042CC0100100480024038B50E4D00240E4A2C6013680D4923F072
:204A60000103096813604B6931209847204622464FF4807104F042FA0122074B2A601978A8
:204A80002246BDE83840054801F0B4BCA80250420C800240B001001041090020BC060020CC
:204AA00010B5074C2378802B00D010BD01F020FC207000210348BDE8104001F0C7BC00BFCA
:204AC00041090020BC06002008B504F0FDFB003018BF012008BD00BF80F31088704700BFB4
:204AE000827A044B03EBC2035B68C01AB0FA80F040097047F8120020F0B54749837A85B070
:204B000001EBC303D3E84F2F12F0FF0F09D10124C3E8424F1346BFF35F8F3BB1032005B0A2
:204B2000F0BD0123BFF35F8F002BF7D10446827A3A4B01EBC20148601B68C078DB6B384F67
:204B40009847384DA37A3A6805EB0313526958689047A37A3A6805EB03135868536B9847B8
:204B6000012806462E4A2F4BF3D1A17A126803EB0113D269986890472B4B2C4A1E6013687C
:204B80009B07FCD5A37A03201B01EA582849536923F00F035361A37A1B01EB581862A37AEB
:204BA0000A6826891B01E85817683EB1237A002B2CD0637A002B14BF032602266168082326
:204BC00032468DE80A001B490023B847A37A134A26781B01E85813686178A27800965E6C16
:204BE0004FF0FF33B047A37A114E1B01EA58536843F002035360A37A32681B01E85803A90E
:204C0000136998470028F6D105B0F0BD637A002B14BF01260326D1E7F8120020B401001016
:204C2000B8010010184E01002820086028200840C4010010006CDC0270B5214D837A05EB65
:204C4000C3025268904201D0042070BD1D491E4A096802EB031304460A6A986890471B4BA4
:204C600001221A601A4A13689B07FCD5194E607833689B6B9847336860784FF400519B697B
:204C800098473368A0789B6B98473368A0784FF400519B699847336820789B6B98473368C0
:204CA00020789B694FF400519847A37A002005EBC3035860A37ABFF35F8F05F8330070BD20
:204CC000F8120020B8010010184E01002820086028200840B40100102DE9F04F344C857AA1
:204CE00085B004EBC5046468A04203D0042005B0BDE8F08F1F462F4BDFF8C4901B6809EBC8
:204D0000051504465B6B686890460E469847012803D0052005B0BDE8F08FA37A264909EB16
:204D20000312D26809681142F3D00E9A0F9902EB010AC2455246B8BF4246002A019235D0F5
:204D4000D8BF03AD26DDDFF874A04FF0000B03ADD845CCBF16F80B1000210391DAF80020AC
:204D60001B0159F8030053689847A27ADAF800301201DB6859F80200294698470E9B5B45CB
:204D8000C4BF039B07F80B30019B0BF1010B9B45A37ADDD1094E00E0A37A32681B0159F80E
:204DA00003002946136998470028F5D100209EE7F8120020B801001078200840C4010010EB
:204DC000184E010010B5BAB00A460446282168460CF046FE6B46C021034A0AA805F020FACC
:204DE0000AA8A0473AB010BD384E0100F0B50746B1B0D9B10D460126002404B3E3070DD5DE
:204E0000C021134A2B78684605F00AFA6846B847082E12D0013601350134EEE76846C0213F
:204E20000C4A05F0FDF96846B847E9E76846C021094A05F0F5F96846B84731B0F0BD684606
:204E4000C021034A2B7805F0EBF96846B847E1E74C4E0100DC7301003C4E0100F0B503888D
:204E6000B1B006460D461BB36F2B1CD1254B264F186843683A68254829469847012836D938
:204E80006C46234AC021204605F0CAF92046A84728462049FFF7AAFF2046C0211E4A05F085
:204EA000BFF92046A84700233380032031B0F0BD13781446202B03D114F8013F202BFBD0F8
:204EC000204620210EF052FF0F4F386018B1002300F8013B3860204600F016FD094B1860F9
:204EE00038B10A4A00216F2311803380C1E70020DCE76846C021094A05F092F968466C4631
:204F0000A847BEE710130020081300200C1300208C4E010054340020904E0100544E01003B
:204F200000F0DABC074A106858B170B40648074E074D0024146031702B80006870BC01F095
:204F4000A5BA7047501300203013002004340020E4330020F0B50388B1B0074623B10023F1
:204F600003203B8031B0F0BD114A0D466846C02105F056F96846A8470E4801F0DFFE064637
:204F80000028ECD0746823685BB1A368C0210A4A684605F045F96846A84754F80C3F002B3A
:204FA000F3D1304601F030FF06460028EAD1D6E7184F0100141300200051010070B50388FA
:204FC000B0B0054623B1002303202B8030B070BD0C46374AC021684605F022F96846A0474D
:204FE000344BC0211B68344A344E684605F018F96846A0473368C021314A684605F010F9E2
:205000006846A0473368002BDDD005F081F9064603F006F9C02103462A4A684605F000F9A1
:205020006846A047284BC0211B68284A684605F0F7F86846A047264BC0211B78254A684669
:2050400005F0EEF86846A0476846C021224A05F0E7F86846A04716B3311D2046FFF7C6FE45
:205060006846C0211D4A05F0DBF86846A047FEF741F81B4BC0211B681A4AC31ADB09684612
:2050800005F0CEF86846A04708F0A0FAC0210346154A684605F0C4F86846A04793E7684689
:2050A000C021124A05F0BCF86846A047DFE700BF304F0100A0240020404F01009824002020
:2050C000584F0100704F0100E0240020844F01009C3400209C4F0100B44F01001874010003
:2050E0001C350020D04F0100F84F0100C84F0100F0B50488B5B0074624B1002303203B8006
:2051000035B0F0BD0D4608F023F918B102203C8035B0F0BD07F03CF90646C02104A8002E2A
:2051200039D0204A05F07CF804A8A847306901F005FE0446F288B38804A80092C0211A4AE9
:2051400005F06EF804A8A847F4B1627D237D0092228AC0210192628A04A80292134A05F005
:205160005FF804A8A847A11D2846FFF73FFEC0210F4A04A805F054F804A8A847204601F0C5
:2051800043FE04460028E0D1304607F007F906460028CBD1B1E7074A05F042F804A8A8477B
:2051A000ABE700BF40500100505001007C50010018740100205001002DE9F0430788B3B066
:2051C0000546002F29D188461446002A33D01678002E3BD130463C490EF02EFE00282CD1F4
:2051E0003A4E0123336014B12378002B39D1384C0023236002AF3368ABB1364B364AC02127
:2052000000923846354A05F00BF83846C047206806F0B6F8306806F09FF800232B80032040
:2052200033B0BDE8F08320682D492B4A2D4B002818BF0A46E3E71646CCE730462A490EF079
:20524000FBFD002838D1214E3060CCE7104620210EF08CFD002834D000F8017B26460446FF
:20526000B8E7204620210EF081FD08B100230370204615490EF0E0FD814658B902AFC02114
:205280001A4A3846124C04F0CBFF3846C047C4F80090B0E7204614490EF0CEFD0028A6D07E
:2052A0002346134A02A8C02104F0BAFF02A8C04700232B800220B3E7334602A8C0210D4A5A
:2052C000F2E72646044685E7E05001002C13002054130020C8500100D450010044510100E8
:2052E000D8500100C4500100E45001000451010024510100E8500100F0B50388B1B005465A
:2053000023B1002303202B8031B0F0BD0E46134AC021684604F084FF6846B047104C04F18D
:20532000600714F8023C227C0BB1012A03D92034BC42F6D1E5E70B4AC021684604F070FF2F
:205340006846B04730462146FFF73CFD6846C021054A04F065FF6846B047E8E76051010040
:205360007A370020785101001874010070B50388B0B0064623B100230320338030B070BDCF
:205380003F4A0D466846C02104F04AFF6846A8470AF006F809F04EFF0446C0216846002C85
:2053A00068D0384A04F03CFF6846A8472846211DFFF708FDA3696846C021002B49D1324A64
:2053C00004F02EFF6846A84709F04CFD002849DD09F048FDC02103462C4A684604F020FFE0
:2053E0006846A84709F034FD044650B9C3E704F017FF6846A847204609F030FD0446002844
:20540000B9D0204AC021684604F00AFF6846A847284604F10801FFF7D5FC1D4AC021684647
:2054200004F0FEFE6846A847204609F003FD01462846FFF7C7FCA369C021B3F1FF3F154AE4
:205440006846D4D1C021104A04F0EAFE6846A847D1E7104A04F0E4FE6846A84709F002FDC8
:205460000028B5DC6846C0210B4A04F0D9FE6846A84780E7094A04F0D3FE6846A847A3E781
:205480007C51010078510100A8510100CC510100EC5101008C510100F4510100C0510100E8
:2054A000F0B50588B5B004460E46D5B1B5F5847F12D1474D2B68464D1BB3464800F01CFE81
:2054C00068B12B68EBB1C021434A04A804F0A8FE04A8B04700232B6000232380032035B0B1
:2054E000F0BD12B11378002B2FD1C0213B4A04A804F096FE04A8B04700230220238035B07C
:20550000F0BD374AC02104A804F08AFE04A8B04730463449FFF756FC334A344B15881F7846
:20552000FDF7E8FD2B4B4FF47A7219680097401A02FB00F0C00901902B4604A8C0212C4AC0
:2055400004F06EFE04A8B047C6E71046202103920EF00CFC039A00B1057010462149039251
:205560000CF012FA039A054658B91346C021214A04A804F055FE04A8B0470220258035B043
:20558000F0BD1D4AC02104A804F04AFE04A8B04730461449FFF716FCC021184A04A804F0CD
:2055A0003FFE04A8B047164A164B1268084D09484FF420711A602E6000F08AFD042309485F
:2055C0008021002208F04EFF4FF48473238071E75013002034130020305201007852010056
:2055E0003C5201001C130020E4330020043400205852010008520100245201001874010034
:205600007813002030130020F0B5B3B00746C0210E4A02A80E4C04F003FE02A8B8472568BF
:2056200095B163681E68304600F08EFC2B460190C021084A009602A804F0F2FD02A8B847E2
:2056400054F80C5F002DECD133B0F0BDA452010004070020B45201002DE9F0430688B3B0B6
:205660000446002E4CD10F46154612B11378002B4CD1002000F046FC4F4B002518602B4655
:20568000C0214E4A02A804F0CBFD02A8B8473846FFF7BAFF00232380022034E04046202192
:2056A0000EF064FB08B100230370404601A90A220EF0BAFDDFF81491C9F80000002857D1A0
:2056C000019B984546D03368984216D00146284600F0F4FB28463A490EF0AEFB002854D167
:2056E000D9F80030032B46DC08F0F6FB02A8C021344A04F095FD02A8B8473846FFF784FF41
:2057000000232380032033B0BDE8F083104620210EF02CFB814600283ED08046284608F8B8
:20572000016B00F0EFFB244E2946306026480EF083FB10B133680133A1D0B8F1000F03D03C
:2057400099F80130002BA9D1204B4FF0FF321A604FF000084346C0211D4A02A804F060FD7A
:2057600002A8B84700230220238033B0BDE8F0830428EFD8A7E708F09FFB02A8C021154AA0
:2057800004F04EFD02A8B847B7E728460E490EF053FB0028A4D0B0E7284600F0B3FB064EDF
:2057A0002946306008480EF047FB0028CCD033680133C9D163E700BF18130020E8500100A0
:2057C000CC520100E8520100C85201004413002024510100D052010070B50388B2B00646E6
:2057E00023B100233380032032B070BD0D460AF0A1FF0446C02102A8002C3ED0234A04F070
:205800000FFD02A8A847224AC02102A804F008FD02A8A84720460AF085FF01462846FFF7CB
:20582000D1FA1C4AC02102A804F0FAFC02A8A84720460AF079FF01462846FFF7D7FA627CF7
:205840001549042A94BF51F822001448237CC021134A009002A804F0E3FC02A8A847C0213E
:20586000104A02A804F0DCFC02A8A84720460AF067FF04460028C6D1B3E70B4A04F0D0FC41
:2058800002A8A84734800220AEE700BF24530100785101003C530100785601000053010050
:2058A00044530100187401000853010030B50388B1B004464BB9074A0D466846C02104F021
:2058C000AFFC6846A847FDF789FD00230320238031B030BD5C53010010B5074C204601F030
:2058E00029FA2046054901F02BFABDE810400448044908F02FBE00BF14130020CC06002050
:2059000048130020254F000070B505460D4801F015FA064698B17468206818B909E054F8D4
:205920000C0F30B129460EF087FA0028F7D1204670BD304601F068FA06460028EBD10020E1
:2059400070BD00BF1413002010B503880446442B0CD0452B14D01BB100230380032010BD79
:20596000FFF7DEFA44232380012010BD094B1B788B420DD162B108490020452308802380B8
:2059800005480649FFF76AFA0128EBD8002010BD012010BDDF3E002058130020A159000088
:2059A0000146014804F016BC384E01000148002100F04CBDD406002070B5094C236863B194
:2059C0000E46054602E054F8043F33B12846314698470028F7D0012070BD002070BD00BFC6
:2059E00060790100FDF7FEBE70B5067804460D2E18DCD6B140780C2814D806EB460601362E
:205A0000012502E060780C280CD8A178E378033543EA012101F028FEB54204F10304F1D1C7
:205A2000304670BD4FF0FF3070BD0126F8E700BF70B5684CFBF704FBFDF710FB00F032FD7B
:205A400000F05EFC6448002100F000FD00F046F9FDF790FC00F084FA00F074FDFBF72EFBA9
:205A600001F078FA01F044FE00F084FB2368022B3CDC082259495A480EF030F859480021FB
:205A800000F0E4FC4FF0FF3008F068FE23680546022B504E13DCFBF72DFBFFF787FF5248AA
:205AA00000F0C6F8FDF774FC00F044FC0446FDF787FC14F0FF0FF7D1FBF788FBF4E74B4925
:205AC0004B4A4C4804F086FB4B4804F083FB3368022BE0DD002D7AD0A81C00F097F9236858
:205AE000022BD8DD454804F075FBD4E73F49404A404804F06FFB424804F06CFB2368022B83
:205B0000B7DD3A493A4A3B4804F064FB3D4B3E48196804F05FFB2368022BAADD3349344AFE
:205B2000344804F057FB394B3948196804F052FB2368022B9DDD2D492D4A2E4804F04AFB0E
:205B4000344B3548196804F045FB2368022B90DD2649274A274804F03DFB304848F2A5118C
:205B600004F038FB2368022B83DD2049204A214804F030FB2A48042104F02CFB2368022B21
:205B80007FF777AF19491A4A1A4804F023FB254B2548198804F01EFB2368022B7FF769AF5E
:205BA0001249134A134804F015FB204804F012FB2368022B7FF75DAF084800F037F9236830
:205BC000022B7FF756AF0D4804F004FB51E7284683E700BFF8060020A00700205434002079
:205BE000AC380020E00800205879010090420100A4560100804201008457010018740100CD
:205C0000AC560100FC780100E0560100387B0100F0560100D0640100FC56010008570100F2
:205C200024570100E63300205C5701006C57010010B50446006830B1002100F007FC54F87F
:205C4000040F0028F8D110BDF0B5038883B005465BB14A2B04D188291BD0012003B0F0BD52
:205C600000230380032003B0F0BD194801F066F8044630B1201DA16800F02AFA2468002C0E
:205C8000F8D1144B01221A704A2301202B8003B0F0BD0F48019201F051F804460028F3D03D
:205CA000019A031D9A4205D02468231D002CEBD09A42F9D10648214601F086F8064E6269DC
:205CC000A369376832600BB1E06998473760DBE75C130020053400207813002010B5064BA1
:205CE000002406481C7001F025F82146BDE81040034800F0ABBB00BF053400205C130020F4
:205D0000E406002070B504460D48049D0078A261E361656130B9A1600A482146BDE8704097
:205D200001F00EB8084D094B2E68201D2B6000F0CFF92E602146BDE87040024801F000B8B0
:205D4000053400205C13002078130020E406002010B5044C82B024680094FFF7D3FF02B0C5
:205D600010BD00BF7813002070B5094B04461B783BB1084D084B2E6804302B6000F0B2F912
:205D80002E602146BDE87040044800F0D9BF00BF0534002078130020E40600205C13002089
:205DA00010B50A4B04461B783BB9C36003612146BDE81040064801F007B8043000F0B4F946
:205DC0002146BDE81040024800F0FEBF053400205C13002038B50B4B1D785DB904460A48FE
:205DE00000F0ACFF10B90AE0006840B18442FBD1002038BD0430BDE8384000F07DB90120BD
:205E000038BD00BF053400205C13002000B58BB00246282168460BF023FE6946024804F0AE
:205E2000D9F90BB05DF804FB384E0100D0B170B5054601260024C4B1E30709D50D4829788B
:205E400004F0C8F9082E0CD0013601350134F2E7094804F0BFF90748297804F0BBF9082E35
:205E6000F2D170BD054804F0B5B92978014804F0B1F9E9E74C4E0100DC7301003C4E0100B5
:205E800090B110B50A49044601F048FC20B1BDE81040084804F09EB9E188074849BA89B2D3
:205EA000BDE8104004F096B9024804F093B900BFE0580100E8570100F0570100042900D99A
:205EC0007047F8B506460D460C4831460DF0B4FF0B4C0746216851B157B9A3686268AB4243
:205EE000A8BF2B46136054F80C1F0029F4D1F8BD30460DF0A1FF0028EFD0F4E7C85201004D
:205F000004070020D0B1F8B50E4F396899B106463D46002403E055F80C1F013459B13046DD
:205F20000DF08AFF0028F6D104EB440407EB840463681868F8BD4FF0FF30F8BD4FF0FF30AA
:205F4000704700BF0407002004289ABF024B53F820000248704700BFB8570100F857010043
:205F6000704700BF10B50E4C2368B3B1FDF7C2F822685168136892681944091A4AB192E842
:205F8000180023441B1A9268994228BF1946002AF5D1044B0844186010BD024A136010BDD6
:205FA00070130020741300202DE9F041038805467BB1592B08D1872912D0822920D0592348
:205FC0002B800120BDE8F081002303800320BDE8F081254A0120136059232B80BDE8F081C0
:205FE000214F3B68002BEAD0D9688A4203D024E0D9688A4220D19B68002BF9D13B60DEE76F
:20600000194F4FF000083C68002CD8D0002604E0A3682646002BD2D01C46204600F084FAD5
:206020000028F5D0E0688821224600F0E3F978B10E4800F02BFAEBE73B6099680029BED095
:20604000C86882420BBF89680B4699608968F5E7E060A3682EB1B360C4F80880FFF782FF82
:20606000D1E73B60F8E700BF70130020A007002010B50446104800F009FA1049E3680A6855
:206080004BB142B194420FD0134601E09C420BD09B68002BFAD10A4BA2601B680C60E360E7
:2060A000BDE81040FFF75EBF054B1B68E360BDE81040FFF757BF00BFA00700207013002098
:2060C00078130020014800F0E1B900BFA007002010B5044600F012FA2046BDE81040FFF760
:2060E000C7BF00BF10B5044600F010FA2046BDE81040FFF7BDBF00BFC068B0FA80F040093B
:20610000704700BF024B1868003018BF0120704770130020024B186808B1024B18687047B0
:20612000701300207413002010B5114B04461A68904218D05AB19368834208BF13460AD0A9
:206140002BB19A68A24206D01346002BF9D10023A360E36010BDA2689A60FFF703FF002304
:20616000A360E36010BD82681A60FFF7FBFEEEE770130020034A04499079D37903EB002341
:206180000B80704754340020E633002010B541600446FCF7E7FF206010BD00BF10B5044638
:2061A000FCF7E0FF94E80A00034A0B44C01A90428CBF0020012010BDFEFFFF7F10B590E82E
:2061C00018001C44FCF7CEFF201A10BD2DE9F843DFF8A480274DD8F800702E68874247D00A
:2061E00077B33B4601E0002B3BD01B689842FAD133B3837B8946044623B3002383736FB1A9
:20620000BC424FF0870106D0BB7BDB0703D53846224600F033F83F68002FF1D1A3683BB163
:206220004C4505D02C6004F10C00832100229847D8F80000844208D12368C8F800302E604E
:20624000BDE8F88338468442F6D00028F7D00368A34208D0002BF2D01A68A24204D013467D
:20626000F8E7BDE8F883034622681A602E60E7E73B46BDE7781300207C13002070B58668E4
:206280007EB104460A4802230460A37304F10C000D46B0470238012804D9832D02D0012363
:2062A000A37370BD20462146BDE87040FFF78EBF7813002070B50C4A0C4B146800251D708B
:2062C00084B1012601E0246864B1E37B002BFAD0A673E573204682210022FFF7CFFF2468A1
:2062E000002CF2D170BD00BF7C13002008340020024B1878421C1A70704700BF0934002020
:2063000070B407480749084A0023084D084C8A2603700B6013602E70237070BC704700BFC8
:20632000073400207C1300207813002009340020063400202DE9F041244D2B780BB1FFF7E4
:20634000B9FF234E3378D3B1DFF890E0214F9EF80020013B02EB420189007C180132A068B4
:20636000DBB202F01F0233708EF800207F5CD4F8048098B1812F06D0827BD20705D42878EB
:206380001844BDE8F0810123837339464246FFF775FF337828781844BDE8F0810E4A14686F
:2063A00034B9ECE7A37BD9070AD42468002CF0D02B78002BF6D0FFF77DFFA37BD907F4D5FC
:2063C000204639464246FFF759FFEEE70834002007340020801300207C13002006340020BA
:2063E000024A034B10781B78184470470734002008340020F0B40C4D2C78202C11D00B4BFA
:206400000B4E1B78671C234403F01F0303EB43039B00F418A06062602F70F1540020F0BC44
:2064200070470120F0BC704707340020063400208013002038B5837B034CDB07256801D53A
:20644000FFF71CFF256038BD7813002070B404460D4D2868A04206D038B1034600E023B110
:206460001B689C42FBD170BC7047002CFBD0012600232060A673A3810A4620462C6081212A
:2064800070BCFFF7D7BF00BF7C13002038B1837B013B012B03D8024A01231370C3737047CC
:2064A00008340020FCF76ABE38B5094C049D226822B180E82A002060002038BD024680E84E
:2064C0002A0008462260FCF75BFE002038BD00BF0015002010B5084C206858B100224368F6
:2064E000816822609847236823B1BDE810401868FCF746BE10BD00BF0015002010B5416060
:206500000446FCF7F7FD206010BD00BF10B50446FCF7F0FD22686168C2F10103184488421F
:2065200084BF5218226010BD10B50446FCF7E2FD23686268C3F10103184482422CBF002046
:20654000012010BD00B50B4B83B001A90A4A99421160019388BFCD2005D95A1C019218708E
:20656000019B8B42F9D305480021FFF76FFF03B05DF804FBE23E002014150020B0070020AD
:2065800038B5134CFCF71CFF2378124DCD2B08D0AC4202D316E0AC4214D014F8013FCD2B08
:2065A000F9D1AC4202D30DE0AC420BD014F8013FCD2BF9D0FCF704FFAC42064804D2001B68
:2065C00080B238BDFCF7FCFE4FF6FF7038BD00BFE23E00200050002070B5038804465BB189
:2065E000902B05D11848FFF787FD70B9012070BD00230380032070BD13484FF4A061FFF72E
:2066000067FD90232380012070BDFFF7B9FF0F4D0F4B06465D1BADB2A8420DD90D4B1B6840
:20662000002B09DD0C490D4A0D4803F0D3FD31462A460C4803F0CEFD0348FFF753FD902348
:206640002380012070BD00BF04150020E23E002000500020F80600208058010084580100CD
:20666000804201008C58010010B5044690F84C308021013384F84C3020302346054AFFF794
:2066800067FB054B2246BDE8104019780020FFF7B1BE00BF69660000DD3E002070B503885C
:2066A00004464BB1CB2B03D1822909D0012070BD00230380032070BDCB232380012070BD23
:2066C000FEF702FABFF35F8F104B00221E681A60BFF35F8F0E4DFEF7FFF9286820B9EBE789
:2066E00055F8040F0028E7D090F8453026FA03F3DB07F5D5FFF76EFB0028F1D028680221A1
:206700000346044AFFF724FBEAE700BF24150020E004002055670000034A136803430348CB
:206720001360FFF7B3BE00BF24150020C007002010B5044690F84500FDF73EFC10B994F821
:20674000440010BD012806BF94F8440080F00100002010BD70B50446FFF73CFB00B970BD8A
:2067600004F120052846FFF735FB06462046FFF7DFFF01280ED00028F1D1002EEFD1284698
:20678000FFF70EFB0A4B30462246BDE870401978FFF730BE002EE2D000262346284684F8A4
:2067A0004C607E21034AFFF7D3FA034BEBE700BFDC3E002069660000DE3E00202DE9F84309
:2067C000FFF796FD244B254C1870FFF791FD244BDFF8A0801870FFF78BFD224D2368224A72
:2067E00000212870C8F80810C8F8042053B3DFF888901E4F0126D9F800209D6C926B93F819
:2068000045009047236845F08C05294693F84500FDF798FB2268D9F8003092F8450006FAEB
:2068200000F23A601B6B98472368D8F8082093F8451054F8043F06FA01F10A43C8F808204E
:20684000002BD8D10A480021FFF700FEBDE8F843084800F063B900BFDE3E0020E0040020C2
:20686000DC3E0020DD3E002019670000E0200240C007002018150020B4010010F8B50488AF
:2068800005466C2C0CD07E2C1BD01CB1002303800320F8BDFFF72CFD1E4A1F4B10701C606C
:2068A0001D4C264604E00A2813D023687E2B2BDD1A4800F03BFB431CF5D16C232B800120C6
:2068C000F8BD852901D00120F8BD134C00232360E6E7114C124F23680E49002603F1010E13
:2068E0003A4609783046FE54C4F800E0FFF782FD0C4B324618688521FFF77CFD0028E5D17C
:206900007E232B800120F8BD05495A1CC8543260CEE700BFDF3E002030160020A8150020EF
