:020000040000FA
:2000000000500020810F0000790F0000610F00007D0F00007D0F00007D0F00000000000044
:200020000000000000000000000000007D0F00007D0F0000000000007D0F00007D0F000090
:20004000353F00007D0F0000B54700007D0F00009D320000D93B00007D0F00007D0F00001D
:200060007D0F0000094800007D0F00007D0F00007D0F00007D0F00007D0F00007D0F00005B
:200080007D0F00007D0F00007D0F00007D0F00007D0F00007D0F00007D0F00007D0F000000
:2000A0007D0F00007D0F00007D0F00007D0F00007D0F00007D0F00007D0F00007D0F0000E0
:2000C0007D0F0000514A0000294B1B689B0702D44FF000407047F0B5002083B0452102F004
:2000E0002FF90DF106010120022201F06BF838B901A8022101F090F84FF0004003B0F0BD25
:200100000DF106010020022201F05CF80028EFD0BDF806305BBA9CB2200BADF8043014F014
:200120008DFA13F02FFE0646C4F30B000F4614F095FA0DA3D3E9002304460D4630463946F1
:2001400014F0F2FA02460B462046294614F0ECFA14F084FD074914F0DFFE15F02DF803B0C4
:20016000F0BD00BFAFF300807B14AE47E17A843FA40900200000C84208B51F4B1B68032BA0
:2001800033D1431E012B30D81C4A1D4B012812881B8812D0184614F051FA0022194B14F079
:2001A000C3FA0022184B14F0BFFA14F057FD174914F0B2FE15F000F808BD104614F03EFA80
:2001C0000022104B14F0B0FA09A3D3E9002314F0ABFA00220E4B14F0F3F814F03FFD0B49C2
:2001E00014F09AFE14F0E8FF08BD4FF0004008BD0000000000A06440C80900207E3000206C
:20020000803000200000F03E000059400000C84200004440000000002DE9F041664B1B683E
:2002200053B1044600216548062215F0F1FB14F0380606D162073ED14FF000463046BDE858
:20024000F08102F09BFF5E4D286007E002F096FF2A686FF009039B1AC34203D501F0DAFBAB
:200260000028F3D0574B1B78D907E5D5534D0120682102F065F829463B20062200F0A2FFA8
:2002800006460020014602F05BF8002E7ED02F786E78A878E9782A796B79202C6F702E708C
:2002A000E870A9706A712B715AD0102C65D0082C66D00026C2E702F061FF414D286007E033
:2002C00002F05CFF2A686FF009039B1AC34203D501F0A0FB0028F3D03A4B1B78DB07ABD551
:2002E000364D0120682102F02BF829464320062200F068FF074600284DD095F8008095F83F
:2003000001C095F802E0EF782A796B790020014685F8018085F800C085F803E0AF706A71C3
:200320002B7102F00DF8042C06D0022C2BD0012C84D1B5F9040001E0B5F9000014F08EF9AD
:200340001BA3D3E9002314F019FB14F087FC1E4914F0E2FD14F030FF06463046BDE8F0810C
:20036000B5F9000001F080FA174914F0D5FD14F023FF06463046BDE8F081B5F90200F1E7A8
:20038000B5F90400EEE7B5F90200D7E72846062100F042FF50E72846062100F03DFF38462C
:2003A000394601F0CDFF4FF0004647E7AFF300800000000000606040F8090020D009002012
:2003C000CC300020993000200000C842000000002DE9F04F144623F00047024657EA040078
:2003E0000E468FB01D469C46214634D06E4B26F0004A9A459346B14626DC24D09F4223DC1C
:20040000694B9F4200F08F80B9F1000FC0F28F804FF0000879BB644B9F4200F0A580634B00
:200420009F4267D0BCF1804F00F0E283604B9C4521D1B9F1000F1EDB104631460FB0BDE872
:20044000F04F13F01FBE62B10AF1404000F5801050EA0B0007D10346544918460FB0BDE8A5
:20046000F08F5745CCDD53480FB0BDE8F04F13F007BF4FF0000810463146CDF808C000927E
:2004800013F0C6FE009ADDF808C0BBF1000F20D04FEAD97909F1FF3958EA09037AD0464BCD
:2004A0009F4240F38F8003F104739F4240F31084424B9A4540F39283BCF1000F40F392834E
:2004C00037A1D1E900010B46024614F02DF90346C3E7BAF1000F04D0344B29F0404E9E453C
:2004E000D6D1BCF1000FC0F2B683B9F1000F08DB0346B2E7BCF1000FC0F25284134631461C
:20050000ABE70AF1404A0AF5801A58EA0A0340F05E8402460B4613F053FF0B46024614F03F
:200520002DFA034699E700293FF46EAF8CE7244B9F422CDCA3F154739F427FF769AF40F28B
:2005400013403B15834240F34B84C3F58663033321FA03F000FA03F38B427FF459AF00F024
:200560000100C0F1020855E70AF1404303F5801353EA0B0300F03983104B9A4540F364832F
:20058000BCF1000FC0F22E832346294665E74FF002083FE7104631463346BCE7AFF300809E
:2005A0009C7500883CE4377E0000F07F0000F03F0000E03FBC8A01000000E041FFFFEF3F7C
:2005C000FFFF3F43BAF5801F4FF0000205DACA4B14F0AAF88A466FF034024FEA2A53C74E42
:2005E000CAF3130AA3F2FF334AF07F571344B2450C9347F4401740F3D083C14B9A4540F327
:2006000007840026B4460C9BA7F5801701330C933946BC4B4FEACC0C6344D3E900AB524645
:200620005B46CDF834C0CDE9060113F0C9FE52465B46CDE90801DDE9060113F0C3FE024608
:200640000B460020B04914F099F902460B46DDE90801CDE90A2314F067F802460B46CDE99D
:200660000223CDE904237B1043F0005303F5002399190020002306460F460293DDE9022336
:200680001046194632463B46CDE9000114F04CF802460B46DDE9080113F092FE5246CDE964
:2006A00008015B463046394613F08AFE02460B46DDE9060113F084FE02460B46DDE90001C5
:2006C00014F032F802460B46DDE9080113F078FEDDE90A2314F028F8DDE90423CDE906014A
:2006E0001046194614F020F802460B4606460F4614F01AF86EA3D3E9002382468B463046DA
:20070000394614F011F86CA3D3E9002313F05AFE32463B4614F008F869A3D3E9002313F019
:2007200051FE32463B4613F0FFFF67A3D3E9002313F048FE32463B4613F0F6FF64A3D3E98A
:20074000002313F03FFE32463B4613F0EDFF62A3D3E9002313F036FE02460B465046594665
:2007600013F0E2FFDDE9042306460F46DDE9000113F028FEDDE9062313F0D6FF32463B4657
:2007800013F020FEDDE9006782468B4632463B463046394613F0C8FF00225C4BCDE9080132
:2007A00013F010FE52465B4613F00CFE02980F460646DDE9000132463B4613F0B5FF3246B8
:2007C0003B46CDE90001DDE9060113F0ADFF0022CDE906014D4B3046394613F0F1FDDDE942
:2007E000082313F0EDFD02460B465046594613F0E7FDDDE9042313F097FF02460B46DDE947
:20080000060113F0DFFD82468B46DDE9000152465B4613F0D7FD32A3D3E9002302980F46DF
:20082000064613F081FF30A3D3E90023CDE904013046394613F078FFDDE90023CDE9060167
:200840003046394613F0BCFD02460B465046594613F0B6FD26A3D3E9002313F065FF02460C
:200860000B46DDE9060113F0ADFDDDF834C0284BCDF818C06344D3E9002313F0A3FDCDE9F5
:2008800000010C9813F0EAFE06460F46DDE90401204BDDF818C09C44DDE90023DCE900AB0B
:2008A00013F090FD52465B4636E000BFAFF30080EF4E454A287ECA3F65DBC9934A86CD3F85
:2008C00001411DA96074D13F4D268F515555D53FFFAB6FDBB66DDB3F033333333333E33FC6
:2008E000000000E009C7EE3FF5015B14E02F3EBEFD033ADC09C7EE3F000040438E980300EC
:2009000079B60B00285C01000000F03F00000840185C0100085C0100CDE906AB13F052FD0E
:2009200032463B4613F04EFD029832463B4682468B4613F045FDDDE9062313F041FDDDE909
:20094000042313F03DFD02460B46DDE9000113F037FDCDE9020108F1FF3858EA09030CBF9A
:20096000D54BD64B0022CDE904230023CDE900450093DDE90067204632463B46294613F088
:200980001FFD52465B4613F0CFFEDDE90223804689462046294613F0C7FE02460B464046F6
:2009A000494613F00FFD04460D465246304639465B46CDE9024513F0B7FE06460F46204612
:2009C0003B462946324613F0FDFCBD4B824699428946884640F3138101F13F4303F5E00355
:2009E000034340F0E581A0A3D3E90023DDE9020113F0E8FC324604460D463B46504649468E
:200A000013F0DEFC02460B462046294614F01CF9002840F0CD814C462015A0F2FE304FF402
:200A2000801101414144C1F30A50A64CA0F2FF35C1F3130BC0F5826003302C414BF4801BB5
:200A400021EA040300224BFA00FB3946304613F0B7FC06460F46DDE902018BEAE87B0BEB3F
:200A6000D87B32463B464FEA0B5A13F0ABFC80A3D3E90023002420460D4613F055FE324635
:200A8000804689463B462046294613F099FC02460B46DDE9020113F093FC77A3D3E90023E6
:200AA00013F042FE76A3D3E9002306460F462046294613F039FE02460B463046394613F0BA
:200AC00081FC06460F4632463B464046494613F079FC42464B4604460D4613F071FC024604
:200AE0000B463046394613F06BFC2246804689462B462046294613F017FE63A3D3E9002306
:200B000006460F4613F010FE61A3D3E9002313F057FC32463B4613F007FE5FA3D3E9002308
:200B200013F050FC32463B4613F0FEFD5CA3D3E9002313F045FC32463B4613F0F5FD5AA362
:200B4000D3E9002313F03EFC32463B4613F0ECFD02460B462046294613F032FC06460F4654
:200B600032463B462046294613F0DEFD0022CDE900014FF080433046394613F021FC024691
:200B80000B46DDE9000113F0F9FE424606460F464B462046294613F0C7FD42464B4613F0D1
:200BA00011FC02460B463046394613F009FC22462B4613F005FC02460B4600203F4913F071
:200BC000FFFB8A44BAF5801F0246C0F227815346DDE9040113F0A8FD03463EE4BCF1000F2A
:200BE000FFF66EAC0023194637E40B46334934E433461046314613F097FD03462DE4324BB0
:200C000021F000449C4240F3FA80304B0B4403430CD132463B4613F0D3FB02460B46DDE9DE
:200C2000020113F0FDFF00283FF4F6AE20A3D3E90023DDE9040113F077FD1DA3D3E9002330
:200C400013F072FD034608E4BCF1000FCADA234605F1004101E402460B460020174913F0EC
:200C60008DFE42E4AFF30080FE822B654715973C00000000432EE63FEF39FAFE422EE63F17
:200C8000396CA80C615C20BED0A4BE726937663EF16BD2C541BDBB3E2CDE25AF6A56113FA0
:200CA00093BDBE166CC1663F3E5555555555C53F59F3F8C21F6EA5010000F0BF0000F03F3C
:200CC000FFFF8F40FFFF0F00FFCB904000346F3F634B9A4582DD634B9A453FF7EDAB002255
:200CE000604B13F06DFB54A3D3E9002306460F4613F01AFD52A3D3E90023CDE9000130464C
:200D0000394613F011FD3246CDE902013B463046394613F009FD002282468B4630463946E3
:200D2000514B13F001FD02460B4647A1D1E9000113F046FB32463B4613F0F6FC02460B460F
:200D400000204A4913F03CFB02460B465046594613F0EAFC3EA3D3E9002313F0E5FC024603
:200D60000B46DDE9020113F02BFB06460F46DDE9000132463B4613F025FBDDE900230020A3
:200D800082468B4613F01CFB02460B463046394613F016FBCDE90201DDE50026B44637E448
:200DA000334600202F4913F0E9FD0346FFF755BB29A3D3E90023DDE9040113F0B5FC26A3F7
:200DC000D3E9002313F0B0FC0346FFF746BBB8F1010F03467FF441AB01F10041FFF73DBBC3
:200DE00000297FF446ABC3F58263033347FA03F000FA03F3BB4217D08846FFF710BB1B4B96
:200E00009C423FF709AEDDE90023924693462EE64FF480264FF0010CFFF7FABB5A4600F0E9
:200E200027F802460B46D3E600F00100C0F10208FFF7F5BAAFF30080000000604715F73FDC
:200E400044DF5DF80BAE543E555555555555D53FFE822B654715F73F9C7500883CE4377EAD
:200E6000FEFFEF3F0000F03F0000D03F0000E03FF8B5C1F30A5604460D460B46174616BB0D
:200E800021F00043034332D00022314B13F04CFC304A044697420D460B4637DB40F2FE72D8
:200EA000C1F30A56363E3E44964215DD24A1D1E9000122462B4613F077FA21A3D3E90023EE
:200EC00013F032FCF8BD40F2FF72964224D040F2FE723E449642E9DC002E09DD23F0FF4393
:200EE00023F4E00343EA065520462946F8BDF8BD16F1350F15DA4CF250339F42D6DC12A1F0
:200F0000D1E9000122462B4613F04EFA0EA3D3E9002313F009FCF8BD02460B4613F052FABD
:200F2000F8BD23F0FF4323F4E003363643EA0655204629460022084B13F0F6FBF8BD00BF07
:200F40009C7500883CE4377E59F3F8C21F6EA50100005043B03CFFFF0000903CAFF300807F
:200F6000044B1A68B2F5806F03D01B689B0500D4FEE7704728ED00E0FEE700BFFEE700BF67
:200F800008B507F0CDF9104A104B9A420DD2D0430F4918440B4620F003000430084453F871
:200FA000041B834242F8041BF9D10A480A494FF000028842B8BF40F8042BFADB03F04CFF89
:200FC000FFF7CEFF08BD00BF00000020C7080020908D0100C8080020173D0020F0B500276D
:200FE00006463C463D4683B0304604F0EBFE0195019B9C4206DD00BF019B01330193019B68
:201000009C42F8DC304604F0F3FE0195019BC4F5C874A34206DA00BF019B01330193019B18
:20102000A342F8DB0137B7F5487F06D0B7F5C87FCCBFC7F548743C46D6E703B0F0BD00BF23
:2010400038B5194D194C2B6820465B68012198472B6801210A461B682046984707F036FA27
:2010600002F0BEFF02F040FF00F0ECFD04F000FF04F0D4FE0120FFF7B1FF0D490D4A0E4834
:2010800009680123136003600B691020A2F5FF521268984707F01EFA02F072F8BDE8384078
:2010A0000020FFF79BBF00BFD801001000400340B00100100C4009400800094008B541F2FE
:2010C000342003F0DBFB02F021FD04F0E7FD0548082102F01BFA04F02BFDBDE80840002065
:2010E000FFF77CBFFC300020F0B585B0002602A80821294C0096019602F008FA9DF80F3036
:201100009DF80E70E56A43EA072748F2A6110220A84739460320A84731460120A847636B2A
:2011200002A908221D4D0B209847A46A01206946A0472B68022B1ADC022001A9A04778B907
:201140002B68022B08DC0021154804F039FB0020FFF744FF05B0F0BD1248019908F03CF969
:201160002B68022BEFDD104808F036F9EBE70F490F4A104808F030F90F4808F02DF92B6860
:20118000022BD9DD09490A4A0A4808F025F900990A4808F021F9CFE7485D0100DC06002003
:2011A00028070020985C01003C870100585C0100605C0100485C0100705C0100885C01005E
:2011C00002F03EBD10B582B002AC04F8010D134620460A46012100F0CDFF02B010BD00BF48
:2011E0000C4B18708AB110B4541EE4B20C44013911F8010FA14203F8010FF9D1511CC9B2C6
:2012000004485DF8044B00F055BE511CC9B2014800F050BEF008002029B1CC230139C9B216
:2012200043540029FAD17047813801289ABF024B18680020704700BF50090020024B0322E3
:2012400002481A6004F096BE50090020D85C010010B5044682B07721002001F071F84CB97C
:201260008DF807400DF107010122F420FFF7B8FF02B010BD25238DF80730F3E730B58028CE
:2012800085B016D0812810D11D4C206878B151B30120FFF7DDFF1B4803211B4A002303F096
:2012A0006BFF0220206005B030BD154B186805B030BD134C012500207721256001F040F813
:2012C000124918228820FFF77DFF04A9B62301F8013D2A46E020FFF783FF0020FFF7B8FFED
:2012E000206805B030BD0748019103F06DFF01990846FFF7ADFF01231846236005B030BD53
:2013000050090020300900203D12000018090020F8B5544B1B68032B40F09C80431E012B95
:2013200000F29880504D062200210446284614F06FFB0020772101F003F82946F720062245
:20134000FFF740FF00287ED0E978484A2B796879090341EA0311168841EA1013C6EB13115E
:2013600001FB01F1B2F9047076000913B2F90200C6EBD30307FB01F100FB03F0891301EB30
:20138000E0204710A7F57A4E4FEAAE0606FB06F6B2F90810B2F90A70731301FB0EF103FB41
:2013A00007F3B2F90E70491007FB0EF701EBE303B2F806C09B14B2F910E003F50043F612DB
:2013C00079000CFB03F30EFB06172E786978B2F90CE095F802C036034FEA0E4546EA0111FD
:2013E000DB13906105EBA70741EA1C1127D040F635454942A1EB273105FB01F101F143419A
:2014000001F5A0010029B3BFB1FBF3F34900B1FBF3F35B00D90801FB01F1B2F91450B2F949
:2014200016609F08490B05FB07F501FB06F1B2F912606A1302EB2131314403EB2113012CAF
:201440000BD01846F8BD28460621FFF7E5FE4FF00040F8BD4FF00040F8BD00EB80008030AD
:201460000012F8BD500900201009002018090020813801289ABF024B18680020704700BF14
:2014800078090020024B032202481A6004F072BD78090020E85C010010B5044644210020D8
:2014A00000F04EFF002C064B14BF1024002402201C801946BDE810400246FFF791BE00BFE9
:2014C0007C30002010B5802882B017D0812811D11D4C206880B1002929D00120FFF7DCFFF9
:2014E0001A4824211A4A002303F046FE0220206002B010BD144B186802B010BD154C0B207C
:2015000023689B6B984723680B209B694FF48041984723684FF08041DB690B2098470020C5
:20152000FFF7BAFF084B0120186002B010BD0748019103F049FE01990846FFF7ADFF0123C8
:201540001846236002B010BD780900205809002085140000B401001038B5344B1B68032B8E
:2015600007D1820705D003280FD0012805D0022807D04FF00043184638BD2D4B1B681846FE
:2015800038BD2C4B1B68184638BD2B4D44210446002000F0D5FE294604200222FFF712FE42
:2015A00070BB264D25480421FFF736FE00202C786B78A978EA7843EA042442EA01220028DB
:2015C000D7D0900813F054FC4FF0745113F0A4FC1B4913F0A1FC13F0EFFD154B154D1860A5
:2015E000A00813F045FC4FF0745113F095FC144913F092FC13F0E0FD01232860184638BD9A
:201600002B885BBA2B805B040C4DCBD5012029460222FFF7D7FD0028C4D02046A91C022276
:20162000FFF7D0FD0028C2D1BCE700BF7809002054090020800900207C3000207C09002092
:2016400000007A44014B1868704700BFA409002070B506460E4C82B000204521256800F0BD
:201660006FFE76B905F002054FF486532560ADF806300DF1060102220120FFF7B1FD02B0B6
:2016800070BD41F2C2020123ADF806202360F0E7A409002000B5002083B0452100F050FE64
:2016A00001200DF106010222FFF78CFDBDF90630002B08DB08481021084A002303F05CFD25
:2016C00003B05DF804FB064804F054FC054B02221A6003B05DF804FB840900209516000024
:2016E000085D0100A4090020802810B50DD0812809D10C4671B90D4803F066FD2046FFF767
:20170000A7FF204610BD002010BD0020FFF7A0FF002010BD0120FFF79BFF04481021044AE5
:20172000002303F029FD012010BD00BF8409002095160000813801289ABF024B1868002040
:20174000704700BFC809002038B5114C114A237803211160ABB1104D0020432100F0F0FD33
:201760000421284600F07AFC20700020014600F0E7FD2A886B880948094952BA5BBA0280BA
:201780000B80012323700748BDE8384004F0F2BB98300020C8090020CC0900207E3000205E
:2017A00080300020185D010030B5802883B023D081281DD1254C2068E0B100293DD0244D68
:2017C0002B785BB14321002000F0BAFD002000F00DFC28700020014600F0B2FD1D480321EF
:2017E0001D4A002303F0C8FC0220206003B030BD164B186803B030BD0024184B184D214692
:20180000042218481C802C8014F002F92046432100F096FD02A91023022021F8023D02460E
:20182000FFF7DEFC0A4B21461870204600F088FD064B0120186003B030BD064803F0C4FC2E
:2018400001231846236003B030BD00BFC809002098300020A809002049170000803000204A
:201860007E300020CC09002008B5174B1B78032B28D8DFE803F01E150C0212F0EFFE0022B9
:201880004FF07D5312F050FF13F0E8F908BD12F0E5FE00220D4B12F047FF13F0DFF908BDF8
:2018A00012F0DCFE00220A4B12F03EFF13F0D6F908BD12F0D3FE0022064B12F035FF13F080
:2018C000CDF908BD002008BD9C3000200000303F0000203F0000103F813801289ABF024B07
:2018E00018680020704700BFF8090020024B022202481A6004F03EBBF8090020305D0100E0
:2019000010B50C4C0120682100F01AFD3F23214601226C202370FFF763FC21464F236B2035
:2019200001222370FFF75CFCBDE810400020014600F006BD9D300020802838B50BD081288E
:2019400006D111F03F012DD1294B1B68DB043BD4284B186838BD284C072023689B6B984799
:20196000236807209B694FF40051984723684FF080410720DB69984723680C20DB6B98478D
:2019800023680C209B6A4FF480614FF4407298471A4A4FF480501A4B1060164900221A604C
:2019A000086838BD1648174B124D4FF48052016001241A6014480821144A00232C6003F009
:2019C000DBFB2C60204638BD0D4B0F48196003F0FBFBFFF795FF0E4A136813F00103FBD109
:2019E000044A06494FF4805013600860106838BD80200240F8090020B4010010A020024025
:201A0000FC09002090200240D80900203D1A00000428004010B5084C0120682100F090FCAC
:201A2000214601223A20FFF7CDFB0020014600F087FC207810BD00BF993000202DE9F041D6
:201A4000354C236813F0380F15D1344D03F03F042E7856B94CBBFFF753FFBDE8F041304841
:201A60000521304A002303F087BBE3B22B70002CF1D02D4F3DE02D4E3278002AE5D02C4F39
:201A80000025012068213D7000F05AFC394601221C20FFF7A5FB07462946284600F050FCAA
:201AA0002368002FD1D03570CFE71F4F0120682100F046FC0923394601226B203B70FFF72C
:201AC0008FFB3F23394601226C203B70FFF788FB174901221C202E70FFF782FB3946012256
:201AE0003A20FFF76FFB3046314600F029FCE3B22B70DB43012068213B7000F021FC012257
:201B000009496C20FFF76CFB0020014600F018FC084806F0E3FCA0E7FC0900209B30002063
:201B2000D8090020ED1800009D3000209C3000209A30002080380100014B00221A70704774
:201B40009E300020154B70B5154800241C7002F0C5F9144A144D1368296823F00103136000
:201B60000B6A204698472B6820469B6A98472B6820461B6B98470D4B01210D4A19601368AB
:201B80009B07FCD50B4C152023689B6B9847236815201B6A0021BDE8704018479E300020CE
:201BA000400500200C000140B80100102820086028200840B401001010B5064C04202368DF
:201BC0005B699847236804205B6B98470128F9D110BD00BFB8010010FFF7EEBF032801D027
:201BE00000F016B908B5FFF7ADFF104B00219B68812098470E4B00219B68812098470D4B73
:201C000000219B68812098470B4B00219B68812098470A4B81209B6800219847084B4FF497
:201C200080521A60BDE8084000F0F2B8D85C0100085D0100E85C0100185D0100305D0100ED
:201C4000A020024070B506F041FC0646FFF7B4FF3C4B4FF4A0601B68DB6998473A4B01211E
:201C60003A4A196013689B07FCD5394C00F0A2F8FFF762FF002005F02BFF364802F028F943
:201C8000236819209B6B984723684FF4005119209B699847236818209B6B984723684FF4EA
:201CA000005118209B699847236817209B6B984723684FF4005117209B69984723681B2012
:201CC0009B6B984723684FF400511B209B69984723681E209B6B984723684FF480411E2067
:201CE0009B69984723680D20DB6B98471A4A4FF400552368156000214FF480729B6A0D20A0
:201D00009847236802209B6B9847236829469B6902209847236803209B6B984723682946C6
:201D20009B690320984723681D209B6B9847236829469B691D20984706B170BDBDE870409D
:201D400006F0C8BBB80100102820086028200840B401001054050020A020024010B5094BA8
:201D600009481B685B68984710F00C0F044605D0064B04221A60022006F0B0FBB4FA84F0DD
:201D8000400910BDAC010010002000400428004008B5064B02201B685B6B9847012803BF61
:201DA000034B186800F00100002008BDB80100106020084070B5104D02202B685B69984714
:201DC0002B6802205B6B9847012804460A4BF7D11B684FF44070DB699847084B084A1C605F
:201DE00013689B07FCD5074B07481B6807491B680122BDE870401847B801001028200860AE
:201E000028200840AC01001000200040006CDC02214B10B5FF221A70FFF7BAFF20B11F4907
:201E20001F4A00230B6013601E4B4FF440701B681B6A98471C4B01211C4A196013689B0770
:201E4000FCD51B4C082023689B6B984723684FF4005108209B699847236809209B6B9847EF
:201E600023684FF4005109209B699847236805209B6B984723684FF4804105209B6998470B
:201E8000236806209B6B9847236806209B694FF48041BDE810401847C20800200428004049
:201EA00010040542B80100102820086028200840B40100102DE9F0470646484B48481B78AA
:201EC000484A5B00036033780F46136001F056F9DFF8148100F5CC551935D8F80030424CA1
:201EE0005B0624D403232360022006F0F7FA01F045F900F5CC5519352368D8071FD4FFF7F1
:201F00002DFF012F03463DD9B0B1DFF8D880364D013607F1FF39022416F8012B631E4B451B
:201F2000C8F8002011D3BC422ED20134F4E701F025F9401B0028D0DB0020BDE8F08701F065
:201F40001DF9401B0028D7DBF6E701232B60022006F0C4FA01F012F900F5CC5A0AF1190A9F
:201F60002B68D90707D4FFF7F9FEBC42034609D20028DAD1E0E701F001F9CAEB00000028A2
:201F8000EEDBD9E7002BD7D0174C05232360022006F0A4FA01F0F2F800F5CC551935236858
:201FA000DA0711D4FFF7DAFE044601F0E7F80E4E00F5CC55193533685B060BD501F0DEF810
:201FC000401B0028F7DBB7E701F0D8F8401B0028E5DBB1E72046BDE8F08700BF9F30002042
:201FE00000280040082800400428004070B5174B17491B78174A5B000B60106001F0BEF8E5
:20200000154E00F5CC5519353368134C5A0612D407232360022006F061FA01F0AFF800F50C
:20202000CC5519352368DB070CD501F0A7F8401B0028F7DB04E001F0A1F8401B0028E3DB4F
:20204000002070BDBDE87040FFF788BE9F3000200028004008280040042800402DE9F04F1A
:20206000404B414A1B7883B05B0043F00103136005460E4601F082F83C4F00F5CC54193488
:202080003B683A4A13F040032BD11746BA460B2111600220DFF8D8901C4606F1FF3806F0F6
:2020A0001DFA012244452CDA02B301F067F800F5CC5B0BF1190B3B68D9071BD4FFF74EFE62
:2020C00002460028EED00192D9F80010092329550220CAF8003006F001FA631CDCB2019A07
:2020E000E0E701F04BF8001B0028C9DB002003B0BDE8F08F01F042F8CBEB00000028DADB49
:20210000F4E7002AF2D0194C05232360022006F0E5F901F033F800F5CC5719372368DA0702
:2021200017D4FFF71BFE0028E0D0114B35441B680E4E05F8013C01F021F800F5CC54193473
:2021400033685B060BD501F019F8001B0028F7DBCCE701F013F8C01B0028DFDBC6E7012052
:20216000C5E700BF9F3000200028004004280040082800402DE9F04F81466D4D6D4E287890
:202180006D4C4000306099F8000083B020608A4616461F4600F0F2FFDFF8A0B100F5CC58BF
:2021A00008F11908DBF80030644C5A063BD403232360022006F092F900F0E0FF00F5CC58AF
:2021C00008F119082368DB0737D4FFF7C7FDBAF1010F03463FD960B309EB0A03DFF858B1A3
:2021E000DFF85881019309F101044FF0010A14F8013B0220CBF80030C8F800A006F06EF938
:2022000000F0BCFF00F5CC5909F11909D8F80030D80719D4FFF7A2FD019A034694421AD0D8
:202220000028E4D105E000F0A9FFC8EB00000028B8DB002003B0BDE8F08F00F09FFFC8EB9E
:2022400000000028BEDBF4E700F098FFC9EB00000028DBDBEDE70193002BEAD037492A785A
:202260000C463448520042F001020B2502600D60022006F033F9A24607F1FF390025DFF8B2
:20228000B880019B03E0FFF769FD034698B9A9451ED9002BCDD000F071FF00F5CC5B0BF16C
:2022A000190B2368D907EED500F068FFCBEB00000028F6DBBDE70193D8F8001009227155BD
:2022C0000220CAF8002006F009F90135019BDEE7002BAED0194C05232360022006F0FEF8A4
:2022E00000F04CFF00F5CC5519352368DA0705D500F044FF401B0028F7DB9AE7FFF72EFDCF
:20230000002896D00C4B3E441B680C4D06F8013C00F034FF00F5CC5419342B685B0601D4F1
:20232000012087E700F02AFF001B0028F5DB80E79F30002000280040082800400428004048
:202340002E4B10B504461970FFF722FDB0B12C4B1A78A24218D02B482B4900221C7002602A
:202360000A601B788BB1012B2BD0BDE81040274B27481B6827491B6801221847FFF71AFD22
:202380001F4B1A78A242E6D110BD234C052023684FF4C0419B699847236806209B694FF49B
:2023A000C04198472368052106221948DB6C9847236808209B6B9847236809209B6B9847AC
:2023C000D3E7154C082023684FF4C0419B699847236809209B694FF4C04198472368082179
:2023E00009220B48DB6C9847236805209B6B9847236806209B6B9847B7E700BF9F300020C2
:20240000C20800200428004010040542AC01001000200040006CDC02B40100100120704707
:2024200008B501F083FE30B1034B5888A0F10200B0FA80F0400908BD6805002008B501F068
:2024400075FE30B1044B5B88022B0CBF0120022008BD022008BD00BF6805002030B583B0AB
:2024600002F0CEF8044601F061FE08B903B030BD0E4801A901F062FE0128F7D100F07EFEFB
:20248000638803F44063002BF0D16FF03F052D1A06E000F08FFF638803F44063002BE5D117
:2024A00000F06CFEE842F4D4E0E700BF0100010470B582B001F03AFE234C10BB0025658080
:2024C000E37B214E23F01003E373E37B304643F02003E373E37B01A943F04003E373E37B01
:2024E00063F07F03E373A37F5BB2C3F5FF6307339BB2238301F022FE012809D0284602B008
:2025000070BD6388022B08BF0120D7D102B070BD00F034FE73889BB2022B0DD06FF03F05F0
:202520002D1A05E000F046FF63889BB2022B03D000F024FEE842F5D4608880B2A0F1020050
:20254000B0FA80F04009E1E76805002008B50346B32994BF0A46B4220248194613F07EF945
:20256000002008BD5A0C002070B50E4D0E4E2C68002006E02379022B06D024682B68A342D7
:202580000ED02379032BF5D133780120002BF4D1064803F035F924682B680120A342F0D1BC
:2025A00070BD00BF0C0A0020A53000209806002038B50D4A0024136819681C725C721C71F9
:2025C000116002F081FA0546BFF35F8F074B1A7812B11C70FFF76CFFBFF35F8F2846BDE8EB
:2025E000384002F079BA00BF140A0020A43000202DE9F0432E4B83B080460F461D6800F0C8
:20260000BDFD2C4E361A03E000F0B8FDC6420AD52C79022CF8D0284B0020032C187008D00A
:2026200003B0BDE8F0832C79234B0020032C1870F6D1B5F80890B9F1060F27DDA9F1060670
:20264000BE4223DC0A3540462946324613F006F9DFF87480AA5DAB1988F800205B79A9F129
:202660000501164F0422294401A83B7013F0F6F8019802F04FF8124B124A1B7810605BB17D
:20268000FFF796FF304603B0BDE8F083FFF790FF002003B0BDE8F08398F80010042049B23F
:2026A00089B204F09DF93978204604F099F9E7E7140A0020E2FAFFFFA0300020A6300020EC
:2026C000A530002068120020C40800200C2801D001207047042A01D0022070470029FBD0D6
:2026E000024B00201B680B60704700BF6812002070B582B001F01AFD002837D01D4C63888D
:20270000022B33D11C4E00F039FD7388022B0BD11A4D2D1A04E000F04DFE7388022B03D12B
:2027200000F02CFDE842F6D401A9154801F006FD00F024FD6FF03F052D1A08E06388022B96
:2027400009D100F01BFDC54205D500F033FE01F0EDFC0028F2D16088A0F55050043880B245
:2027600001288CBF0020012002B070BD012002B070BD00BF68050020D805002000FEFFFF80
:202780000100010410B5114B114C1A680521237E84F82410928882B003F0F00343F00A034A
:2027A000204601A96283237601F0C8FC012802D0002002B010BD204601F012FDA0F1010044
:2027C000B0FA80F0400902B010BD00BF70060020B005002000B583B00A4801A901F0AEFC6E
:2027E000012803D0002003B05DF804FB054801F0F7FCA0F10100B0FA80F0400903B05DF888
:2028000004FB00BF9805002008B5FFF7BBFF012801D0002008BDFFF7DDFF0128F9D1FFF736
:2028200047FEC0B208BD00BF08B502F01BF8012812D0FFF75DFF01F0CDFD002210460749BB
:20284000074B4A8003F510711A799033022A08BF03F88C0C8B42F7D1012008BD68050020FF
:20286000180A00202DE9F84F01F0FCFF012818D001F05CFC88B901F0DFFB01F057FC0446D9
:20288000002840F08E8001F0C3FC012805460BD001F0A0FD0020BDE8F88F574B5B88022B47
:2028A000E9D10120BDE8F88F01F00EFE53494FF42372534812F0D2FFDFF88CB15148DFF8AE
:2028C0008C91DFF88CC1504F504E5149514B524A04704FF0020A8BF800504FF003084FF08D
:2028E000040E052406204D4D89F800A08CF8008087F800E0347008701A602B684749002B75
:20290000FBD00020464A474BDFF84881086052F81CCC52F818EC52F8146C52F8105C52F858
:202920000C4C52F8207C12E90300203343F8207C43F81CCC43F818EC43F8146C43F8105C6D
:2029400043F80C4C43F8080C43F8041C434502F12002DCD1344B354ADFF8FCC0DFF8FCE0AC
:20296000334934482D4C344F344E00251862C3F824C00120C3F828E0DF621E632560116007
:2029800006F044F82E4805F0A5FF224613682349002BFBD000230B6001F0A0FC01287FF4FA
:2029A00077AF01F0BFFD2748002103460E46022588245A791E7102F0FC0265F383025A714A
:2029C000DC80903343509031B1F5107F1D4AF0D1C2F8B02101F048FBFFF7D4FE012802D0A5
:2029E0000020BDE8F88FFFF7F5FE0128F8D1BDE8F84FFFF75DBD00BF6805002044640100BF
:202A00001C04002190030021AE030021AB03002181030021C0030021BD0500211C10044044
:202A2000B05D010000C0002180C600210010044001010E046039536311161216546B00700B
:202A4000B0050020180A0020790300217503002177030021A0C600212010101A136F236E9A
:202A600070B582B0072800F2AC80DFE800F0212AAAAA5E6B70045E4B197001F057FB002882
:202A80005DD05C4B5B88022B59D1FFF731FE01280CBF0024032401F039FD012800F0A08064
:202AA000FFF7B2FE01280CBF2046032002B070BD012900F08E80002900F08580022002B0FA
:202AC00070BD8029FAD84C4C4FF47A72208AE38902FB03F302FB00F2A3F55C2302F57F42C0
:202AE000FF32A3F58763454803EB2243A0FB0323CAB2C3F387139A4221D0C82303FB01F10E
:202B00003F4801F55C2303F58763A0FB03213D4A890902FB01331B04A0FB03233A488AB230
:202B20009B092382E2810284A7E731F00403C5D1364BC1F380011A7819708A429DD10020EC
:202B400002B070BD31F00103B8D1C8B2AEE74FF6FF742F4DAE88A64208BFFF2309D02A4655
:202B60000023083290880133A042DBB2F9D1013BDBB255F83330264C99429FDB23689942CD
:202B80009CDC0191FFF76AFC4FF6FF739E4201992CD022461C460023083290880133A0424D
:202BA000DBB2F9D1013BDBB255F8332005EBC300914203F1FF3316DD5A1CF5D1FFF724FE62
:202BC000BDE7012072E70191FFF72EFE019908466CE7FFF747FE012814BF0320002065E722
:202BE00001F030FD5CE70B4B1860E7E70023D9E7C308002068050020980500201F85EB51E0
:202C0000D34D621018FCFFFFB0050020A5300020D06601007006002099B1F0B50C4683B005
:202C2000172800F2B980DFE800F05E9DB7B7950E8B58297886B7B7B70E7E126BB782747012
:202C40000E91022070470020086003B0F0BD4FF6FF705B4DAB88834208BFFF2309D02A468E
:202C600000230832918801338142DBB2F9D1013BDBB255F8333000202360E6E701F056FA66
:202C8000002840F08D80FFF7EDFD012840F0938007460A2580266B1E13F0FF054FF0000191
:202CA0004FF004020FD001A812F0B2FE40F2034301A86946ADF8043001F040FA18B19DF863
:202CC00002607306E7D0002F72D176B216F1800F26600CBF03200020B7E73A4B002093F9CF
:202CE00000300B60B1E701F021FA30B1364B5888A0F10200B0FA80F0400920600020A4E732
:202D00002F4B00201B680B609FE73E230B6000209BE7A0230B60002097E72C4B00201B7841
:202D20005BB20B6091E780230B6000208DE706230B60002089E7264B00201B780B6084E7E3
:202D4000244B00201B681B680B607EE718230B6000207AE70020204B08601B78F3B1042396
:202D60000B6072E71D494FF47A72CB89098A02FB03F302FB01F2A3F55C2302F57F42FF3230
:202D8000A3F58763164903EB2243A1FB0323C3F387132360002058E7012056E7184654E714
:202DA000094B5B88022B08BF00273FF472AF6AE7FFF73AFD89E76FF07F032360032044E7CD
:202DC000D0660100C308002068050020C4080020A630002070060020A5300020980500201A
:202DE0001F85EB5170B582B0044601F09FF928B3244B5B88022B08BF00251FD12249221DE9
:202E0000A31C224C92B29BB2100A2382E16148700A70FFF76DFC002001F0C4FB204601A982
:202E200001F08CF988B9012601F0DAFB00236380FFF73EFBE5B9304602B070BDFFF712FDC1
:202E400001281AD0012002B070BD00F0B3FA104E317800E099B163880C4A03F44063002B8B
:202E6000F8D0508880B2B0F5505618BF0126DBE7FFF7DAFC304602B070BD0546BEE700F074
:202E8000D5FEE5E768050020580C0020D8050020A530002010B50C46B32C014694BF224698
:202EA000B422044812F0DAFC2046BDE81040FFF799BF00BF5A0C002030B583B001F0D2FC53
:202EC00001281BD001F032F9D0B1154B5B88022B1FD000258024134801A901F02FF90128D2
:202EE00003D19DF806406306F5D07DB90E4B64B293F90000A042D4BF0020012003B030BD6E
:202F0000FFF7B0FC012806D10546E3E7FFF78CFCECE70120F2E7FFF787FC0120EEE700BF81
:202F2000D805002001000304C308002010B501F0FDF880B10F4B5B88022B0BD10E4C23788A
:202F400053B90E4B1B689B0601D5012323702078C0B210BD002010BDFFF7AEFFB0FA80F0DA
:202F6000400920702378002BF1D1044B6FF020021A60ECE768050020A030002008100440FA
:202F8000F8B51F4800F0A4FF05F01CFA012802D000242046F8BD1B4C002120464FF4107292
:202FA00012F036FD40F2863043F23331164B174ADFF874C0164DDFF874E0164F0026CCF8B1
:202FC000004083E85000AB62C5F82CE03884D0811182FFF747FC01280446D9D10E4B0F4A78
:202FE0001E6013680E4843F02003136001F00EFB01F012FB31460B4802F0E2FBC9E700BFB9
:203000005C060020180A00200C0A00209805002068050020B0050020081004400C100440DB
:20302000805D010098060020140A0020000A002010B5064C042023685B6998472368042074
:203040005B6B98470128F9D110BD00BFB8010010F8B51A4A00200021C2E90001184B0420FE
:203060001B685B6B9847012801D0FFF7E1FF144B00201B68DB699847124B0121124A1960DF
:2030800013689B07FCD5114A11491368096823F4807323F001030F4C13600B6820460E4982
:2030A000984740F221200D4D0D490E4B04273126012227602E6008601A60F8BDC808002074
:2030C000B801001028200860282008400C000140C801001000000140002100043C000140DE
:2030E000080001400400244310B40949094C0B68226808688342FAD1DB01074903EB5262E6
:203100000023C1E900235DF8044BD1E900017047082009400C200940C808002010B50B49BA
:203120000B4C0B68226808688342FAD1DB01094903EB52620023C1E9002302F0A5F900B932
:2031400010BDBDE8104002F07FB900BF082009400C200940C808002010B505F0B7F9034B36
:203160001C6808B905F0B6F9204610BD08200940704700BF0146012000F052B805F03CB801
:203180002DE9F04105F0A2F91D4E1E4B1E4F32680124002580464FF480314FF480703D60A9
:2031A0001C60186019601368284623219847336820461B6824219847336802201B68252168
:2031C0009847124A1249136843F4E02313600D6005F012F80F4B1049104A1B6800F50070D0
:2031E000086014603C601B6914209847B8F1000F01D0BDE8F081BDE8F04105F06BB900BF73
:203200008401001004200940000024430020094008200940B00100101C200940A00224431C
:20322000431E012B10B41BD9042802D05DF8044B704700231A4610F004001CBF0E4C2160B3
:2032400013B10E4B0121196012B10D4B01221A600028EBD00B4B01221A605DF8044B7047CD
:2032600010F0010302D0084A0123116010F00202E1D0064C2160DEE72020094080022443D2
:20328000A0022443C0022443182009401C200940014B1868704700BF100D002008B5FFF7C4
:2032A0006DFF184B1860FFF739FF174B1B686BB9164B1B68E3B9164B1B6833B11549164B89
:2032C00000204FF4803208601A6008BD124B4FF480721A6004F090FF00F205200F4B20F41E
:2032E000FF7020F001001860084B1B68002BE2D00B49094B0020012208601A6002F0A4FAC6
:20330000D9E700BF100D0020A000244380002443C0002443C0022443042009401C200940C1
:2033200080022443820702D5034B01221A60C30700D4704705F0CEB8000C084008B505F083
:20334000C5F8074B1A68012A03BF0649022219600022002814BF104642F0010008BD00BFD9
:20336000000C084051E5CC1A03490448044B012208601A60704700BF00000840FFFF0F0026
:20338000000C084038B5FFF7D9FF064C064D0749074A012325600B601360BDE83840FFF73E
:2033A000C1BF00BF00000840FFFF0F000C0008400401004303490448044B012208601A60F1
:2033C000704700BF00000840FFFF0F000C00084008B5064802F042FE30B1054B0121054AEF
:2033E000196013689B06FCD508BD00BF140D0020000222431410094070B5054605F066F80B
:203400000B4C294606460B4802F02AFEFFF7E0FF236868681B689847236868689B6898475E
:203420001128F9D106B170BDBDE8704005F052B8A0010010140D002038B5044648B91348CC
:2034400002F00CFE28B1234605C813430028FBD19BB90F490F480B680F4D104C006800225F
:2034600023F4C0530B602A602260C368012098470B4A13689B06FCD438BD054A136823F469
:20348000C05343F40063136038BD00BF140D002004100940A00100108001224300022243BC
:2034A0001410094038B5054605F010F804462946054802F019FE0020FFF7BEFF04B138BDDE
:2034C000BDE8384005F006B8140D002070B50446B0B10078C0B1A9B10025661804E014F835
:2034E000010F38B1B44205D000F024FB631C05F10105F4D100F064FB0128FBD0284670BDDB
:203500000546F7E70D46F5E70546F3E710B40B4B0B4C13F8012FFF2A0ED1A342F9D1094A78
:2035200039B11144013801390B78914200F8013FF9D15DF8044B7047034AF1E7C7FF01003A
:20354000CFFF0100F0120050C8FF010000F0F2BA014800F003BB00BF393800002DE9F04772
:20356000038805465BB1FA2B04D1822915D00120BDE8F087002303800320BDE8F087874EE8
:20358000874C8848884A01213380238003801170FA232B800120BDE8F087DFF808C2DFF8BD
:2035A000FCE1BCF80030BEF80020804901209342087000F0E5804FF0000177D3B3F5A26FA5
:2035C0001AD20C467A487B4F4FF0C0094FF0DB08002900F09480C15CDD2900F0A980DC2989
:2035E00000F0B480002101339BB2B3F5A26F00F0CB80B4F5A06FEBD90024002A00F0CA800D
:203600006B486C4F00234FF0C0094FF0DB0800296CD00178DD2900F08180DC2900F0908015
:20362000002101339BB29A4205D9B4F5A06F00F10100ECD9002402F101081FFA88F8B8F559
:20364000A26F00F09880AEF80080554B1E88B0451ED0DFF85C9140464F46864218D019F862
:203660000030C02B7ED0431C9BB2B3F5A26F4FF0000007D1F1E7F95CC02974D093B2B3F51E
:20368000A26FEAD0B34203F101024FF00000F2D1ACF80080484B1C80002C3FF479AF474B05
:2036A0001B6803B198470AF0D9FC71E70C464048404F4FF0C0094FF0DB0871B1C15CDD29F5
:2036C00026D0DC2948D0002101339BB29A42B2D9B4F5A06FAED80029F0D1C65CDB2E23D088
:2036E00004F1010A3E551FFA8AF4EDE70678DB2E24D004F1010A3E551FFA8AF491E7C65C8D
:20370000DB2E13D004F1010A3E551FFA8AF46AE7661C07F804800021B4B2D5E7661C07F879
:2037200004800021B4B27CE70121CDE701215AE7661C07F804800021B4B254E7012170E7A2
:20374000661C07F804900021B4B26AE7661C07F804900021B4B246E7661C07F8049000217D
:20376000B4B2B1E703461648AEF80030ACF8008002F046F88EE700239846AEF8003064E7E3
:203780000D4B00221A8003E72AB1B4F5A06F7FF637AF4FE714464FF0010854E78430002056
:2037A0008230002086300020A1300020A2300020180D00208C3500207C350020281200202D
:2037C00074060020014B1860704700BF2812002070B50D460646C020FFF7B8FE002DC8BFB7
:2037E000344608DC15E0DB2818D0FFF7AFFEA31B9BB2AB420DDA14F8010BC028F3D1DB204A
:20380000FFF7A4FEDC20FFF7A1FEA31B9BB2AB42F1DBC020BDE87040FFF798BEFFF796FEB0
:20382000DD20E2E7024B03481988FFF7D1BF00BF7C3500208C35002038B5254A1378022B7E
:2038400021D0032B19D0DB2804BF0223137021490C88631C9BB2B3F5A26F02BF00252B4618
:203860000D801D4D18BF0B802D889D4227D01B4BC028185514D0002038BDC028FBD10123D8
:203880001370002038BD00F12403DBB2012B13D9134B10491888032308801370002038BD36
:2038A0000F4A13889C4211D09D420E4808BF148001F0A6FF012038BD01231370C7E7084B71
:2038C00003201B8810700B80002038BD0C80D2E7A13000208230002086300020180D0020DF
:2038E000843000207406002038B50C4D02202B685B6998472B6802205B6B984701280446EF
:20390000064BF7D11B684FF40070DB699847044B044A1C6013689B07FCD538BDB801001070
:2039200028200860282008402DE9F04340F2F275DFF8E08083B0FFF7D7FFD8F800302B4EB6
:20394000DB682B48984733682A4C5B69152098472368DFF8C490284F23F4FE63D9F8002053
:2039600023F0020323603D60D36B1D2098472349D9F800204FF0FF334FF00050086000935D
:20398000D2F840C01A481C211D22E047D8F800301748D3F804C01A494FF4E1326023E04707
:2039A00040F2011240F2013E1649174B142008601968164841F01001196003681449002B67
:2039C0000CBF134673460B603D60036853B12368326843F0500323601369152003B0BDE85C
:2039E000F043184703B0BDE8F08300BFB0010010001000403810004044100040902002408C
:203A0000006CDC02341000402C1000402C12002030100040D0010010B401001008B5064BCA
:203A200002201B685B6B9847012803BF034B186800F00100002008BDB80100106C20084010
:203A400038B50446FFF7EAFF18B1264A13681907FCD4032C03D0244B1B6803B138BDFFF719
:203A6000DDFFF0B9214D4FF400702B681B6A9847032C2CD01E4B01211E4A196013689B07F5
:203A8000FCD51D2000F040FA1C2000F03DFA4FF0FF3000F039FABDE838404FF0FF3000F07F
:203AA00033BA154B15481B68DB689847144B15201B685B69984740F2F270124A1249136837
:203AC00023F4FE6323F0020313600860CAE72B684FF400709B6A98472B684FF400701B6BD4
:203AE0009847C7E7181000402C120020B80100102820086028200840D00100100010004039
:203B0000B0010010381000404410004010B504F0DDFC0446054800F0DBF9054B00221A60EF
:203B200004B110BDBDE8104004F0D4BC840600202C12002010B50446FFF770FF08B9FFF757
:203B4000F3FE044B2146BDE810401B680248DB69184700BFD00100100010004010B5134B46
:203B6000134C1860134A2368A8B1022111615B6A4FF40070984723684FF40070DB6A9847DF
:203B80000D4B01210D4A196013689B07FCD5BDE81040FFF7C9BE10619B6A4FF40070984773
:203BA00023684FF400701B6B9847E9E72C120020B801001084060020282008602820084081
:203BC00008B5FFF72BFF18B1024B1868C0F3C00008BD00BF1810004038B5FFF785FE40F27B
:203BE000F2710C4B0C4A1B68116013F0500F10D00A4C0B4D05E02B681B699847094B1B681F
:203C000023B923680848DB06F5D538BDC0B29847F7E738BD4010004044100040181000409D
:203C2000D00100102C12002000100040034A136823F00403136030BF704700BF10ED00E05E
:203C40002DE9F84304F042FC01F084FD18B1BDE8F84304F03FBC8E4802F000FA02250446A4
:203C600048B1636823B19847A84228BF2846C5B22468002CF5D1FFF781FA864B80461B680E
:203C8000CBB91F46994601F0FFFB002840F0A780012D0446064600F0EC80022DD7D1E7B163
:203CA000A9F14101B4B18B1B002B13DB31460220FFF7B6FA18E0784BD3F80090C0EB0903F8
:203CC000022B00F1BE80A3F28F23002BC0F2CB800127D8E70420FFF7A3FA002CE6D108F19F
:203CE000FF310220FFF79CFA694802F0B7F906250446002800F0AA80A368022003B198471C
:203D00002369246825EA0305002CF5D1FFF752FB6B0705F0060400F19C80002C40F09D8048
:203D200000F0BCF90020FFF787FB5C495C4A0B685C4823F003030B601368016843F00F0337
:203D400013608B6939209847574A584900231360184613600B6004F0F5FB062C00F08580A5
:203D6000534C544D544E2B682368326823F00303236053685148032198474A4B1B689B6B98
:203D800098472B6804F036FD4D4A3368002111604A485B680121984723684A4A012143F0FC
:203DA0000303236011602B6804F056FDFFF710FBFFF7B4F9FFF7FEFA354802F04FF904469C
:203DC00028B1E36803B198472468002CF9D100F033F904F07FFBBDE8F84304F07BBB01F025
:203DE0005BFB0646FFF780F9361A002E7FF72FAFFFF74EFA344B00EB4626C8EB0303F342DE
:203E000040D40124A5427FF448AF6FF00703C8EB0303F34233D408F58038C6EB080336EA29
:203E2000230628BF464631460220FFF7F9F9274A136823F00403136030BFBDE8F84304F029
:203E400049BB00239D4288BF1D4641E7FFF7B2FA06241C4B00221A605FE7124B20461B682F
:203E60009B6998475CE70123ECE7022004F03AFB76E708F580310220FFF7D2F9D7E708F135
:203E80000806D0E7022DC0D0012D7FF4E0AEBCE730120020800224431820094000100940A7
:203EA00008100940B80100104010094020042243242208402C200940D80100100040034027
:203EC000800104430C40094071FDFFFF10ED00E00146014802F0C4B830120020014601484C
:203EE00002F002B93012002010B5054802F0B2F8BDE81040034B03201B6820211B681847F9
:203F00003012002084010010421C0ED010B50446064B4FF4C0421B6800211B689847044A75
:203F2000A3001A430023136010BD7047B4010010001A4442024B1868186001F085BF00BFC9
:203F4000E020024070B51B4B0C461B6805465B68984714F00C0320F0E06222F4EC2207D072
:203F6000042B20D0082B21D00C2B08BF42F4403214F003030DD142F4C04223060D4B284649
:203F8000BDE870401B6848BF42F480221B6800211847022B04D0012B08BF42F48042ECE7A8
:203FA00042F40052E9E742F40032E1E742F48032DEE700BFB4010010064B1B68C340DB078F
:203FC0004CBF054B054B1B6823FA00F000F00100704700BFD020024080200240C020024009
:203FE00010B584B00022412302A802920393FFF703FA042004F0EAF8032813D0042003212B
:2040000004F0B4F8042004F0E1F803280346F9D1074A084812680093546800214FF0405275
:204020001C23A04702A8FFF73DFA04B010BD00BFA401001000A00C4000B583B00022412334
:2040400068468DE80C00FFF7D7F9012004F0BEF8012803D00320012104F088F86846FFF747
:2040600021FA03B05DF804FB00B583B00022412368468DE80C00FFF7BFF9012004F0A6F820
:20408000012803D0044B986B04F0C8F86846FFF709FA03B05DF804FB4800001010B582B021
:2040A00041236846002401930094FFF7A5F90320214604F05BF8012004F088F818B1044B90
:2040C000986B04F0ABF86846FFF7ECF902B010BD4800001070B50388044653B1B3F52F7F92
:2040E00003D182290AD0012070BD00230380032070BD4FF42F732380012070BD094B0A4EA1
:204100001D69FFF757F902F015FC02F0ADFB8021A847002880B2ECDD02F0A0FBF3689847BC
:20412000EFE700BF485D010070730100024B186800F00100704700BF9C21084010F0030321
:2041400070B506460D4602D1028811051FD404F0BDF91F4B00301B6818BF0120DB0720D59F
:204160001C4B1D4C1E6023684CF250322B6003E02368013A2B6014D013F0FF0FF8D018B35F
:204180002878A0F10100B0FA80F0400970BD438004F09CF90E4B00301B6818BF0120DA072C
:2041A00002D468B1002070BD338813F4405FD7D003F44063B3F5006F04BF084B1E60CFE7C0
:2041C00004F088F9002070BD04F084F9D8E700BF9C210840001004400410044058120020F3
:2041E0000A4A01E0013A0ED0438803F44063B3F5806FF7D1428802F44062A2F58060B0FA2A
:2042000080F0400970471046704700BF20A1070030B583B004F05AF9254C054623681920BB
:204220001B6A9847236812201B6A9847236819205B699847236812205B690834984723686B
:2042400001205B699847236801205B6B98470128F9D11849184B194A0860186013689B0732
:20426000FCD5134C164817492268002303600B60136919209847236812201B699847A5B1CB
:2042800040F2FF35104B114A11481249002405600C60114801A91A60FFF750FFA0F1010005
:2042A000B0FA80F0400903B030BD04F013F9E7E7B00100102C200840282008602820084098
:2042C00010100460141004600010044051000706000004601C1004400100060410B586B046
:2042E0000021142201A811F093FB40F60A0215499DF811300C68012161F3030301A8694671
:2043000005948DF81130ADF80420FFF717FF012802D0002006B010BD0B4801E00138F9D095
:20432000BDF8063003F44063B3F5806FF6D1BDF8060000F44060A0F58060B0FA80F0400973
:2043400006B010BD6C12002020A1070000B587B00021142201A811F05BFB40F609029DF85B
:204360001130012161F3030301A869468DF81130ADF80420FFF7E2FE012803D0C0B207B09E
:204380005DF804FB104801E00138F8D0BDF8063003F44063B3F5806FF6D1BDF8063003F4CA
:2043A0004063B3F5806F03D0002007B05DF804FB064B1A782AB9064A0599012011601870F7
:2043C000DDE70120DBE700BF20A10700A33000206C12002030B587B004F078F8314C0546D6
:2043E000236819205B699847236812205B6998472D4B1B68DA071AD52C492D4A00230B60B1
:2044000002A819461360102211F002FB40F60D029DF81530012161F3030302A801A98DF87C
:204420001530ADF80820FFF789FE01282CD0FFF78DFF2048204B00240121204A04601960E6
:2044400013689B07FCD51E4C012023689B699847236801205B6B98470228F9D1114C19209A
:2044600023681B6A9847236812201B6A9847236819201B699847236812201B6998470DB91F
:2044800004F028F807B030BD0E4A01E0013ACED0BDF80A3003F44063B3F5806FF6D1BDF8B6
:2044A0000A30C4E7B00100109C21084010100460141004602C200840282008602820084071
:2044C000B801001020A1070008B503F0A3FF052803460BD003280DD018B101280FD00020AF
:2044E00008BD094B03221A60012008BD064A0120136008BD044B02221A60012008BD024A56
:204500000521116008BD00BFD021084008B5FFF71DFFFFF7E3FE012802D0FFF75BFF002036
:2045200008BD00BFF8B5174B174A19781268174B002914BF00241C46D30700D4F8BD03F042
:20454000C5FF0646124A134B1348144F144D00213B60046011602B6819201B6A98472B681E
:2045600012201B6A98472B6819201B6998472B6812201B69984706B1F8BDBDE8F84003F012
:20458000A9BF00BFA53000209C2108400000C0801010046000004080141004601810046062
:2045A000B0010010084B1B7833B1002002460749074B0A6018607047064B0749074A0028B3
:2045C00014BF18460846F2E7A530002010100460141004600800C0800200C0800000C080B8
:2045E000044A054B1178054A002918BF00231360704700BFA53000200000C080141004607C
:20460000014B1868704700BF58120020014B1860704700BF6012002038B5064B064C1D68ED
:2046200006484FF43441064A0023256000F0A4FD012038BD0430044034120020381200208D
:20464000B5460000164B1B68DBB170B59B68984708B9002070BD03F039FF124B124C1D686F
:204660000646002115F1804022684FF0000341F10001994208BF904209D325601EB1012043
:2046800070BD0020704703F025FF012070BDFEF775FD064A06491368086001331360ECE74E
:2046A0006012002004300440341200205C1200206412002070B5134B1B68B3B19B6898471A
:2046C000D8B9114D2B6A984701280ED1FFF7BAFF6B6A0446984744B1BDE870400B484FF4E2
:2046E00034410B4A002300F047BD08488021084A0023BDE8704000F03FBDFFF7A3FF044650
:20470000E9E700BF60120020485D010038120020B5460000F8B5224C2368002B3DD09B688C
:204720000646984700B3FFF78DFF1E4BB6F1404F1F6825D822681C4BB2F90C401968E51791
:20474000641A65EBE1750022A41945F10005A01845EB0701090241EA106143F609520023CD
:20476000000210F06BFDF8BD104D2B6A9847FFF769FF6B6A98470B4BB6F1404F1F68D9D972
:20478000FEF7FCFC0A4B1B68C3F17E4303F57203C34248BF07F1FF37CCE71846F8BD00BFB3
:2047A000601200205C1200206C120020485D01006412002010B5104B1B68DA0704D4FFF7AD
:2047C00027FD012800D010BD0C4C23685B0204D40A4B6FF000421A6010BD094B01220948D2
:2047E0001A7001F00DF86FF480032360034B6FF000421A6010BD00BF9C2108401010046052
:20480000A43000209806002008B5124B1B68D90707D4114804F0E0FDFFF7FAFC012800D07F
:2048200008BD03F053FE0D4B1A6812020BD40B4B1A6812F00A0F1CBF6FF00A021A60BDE84A
:20484000084003F047BE6FF400021A60044800F0D7FFECE79C2108407C67010010100460E7
:2048600098060020014B1878704700BFA730002008B500F08BF880B208BD00BF00F010B992
:2048800038B50C4D04202B685B6998472B6804205B6B984701280446064BF7D11B6840F2DB
:2048A0000140DB699847044B044A1C6013689B07FCD538BDB801001028200860282008408F
:2048C000034B1B68002B14BF01200220704700BF70120020F8B503880446002B2ED0B3F55B
:2048E000847F05D1184B1B788B4205D00120F8BD002303800320F8BD144D2B6873B1144B7C
:20490000144A1B6812685B680220174698470026301847F100012B6898472E600E4B40F2E9
:2049200001401B689B6A98470C4B01210C4A196013689B07FCD50B48FFF7D0FA4FF484734C
:2049400023800120F8BD00BFC508002070120020CC01001004800240B80100102820086074
:2049600028200840A806002008B5064B04201B685B6B9847012803BF034B1868C0F34000D3
:20498000002008BDB80100103C20084070B5274B1B689BB1264C0023224612F8011B29B95A
:2049A0000133042BF9D10020014670BD214A002502EBC302E55492E8030070BDFFF7D4FF48
:2049C00000282FD01C4A1D4B1268134073B91C4A01211346116018680028FCD102464FF497
:2049E000807103F08DFB174B01221A6003F06EFD0646114A1368DB07FCD5134B134A1B68DB
:204A000014685B680220984723460022141843F1000516B12046294670BD03F05BFD2046EC
:204A2000294670BDFFF72CFFCCE700BF7012002074120020D00800200880024001000080BC
:204A4000F09F0240A8025042CC0100100480024038B50E4D00240E4A2C6013680D4923F072
:204A60000103096813604B6931209847204622464FF4807103F044FB0122074B2A601978A6
:204A80002246BDE83840054800F06EBEA80250420C800240B0010010C5080020BC0600208E
:204AA00010B5074C2378802B00D010BD00F0DAFD207000210348BDE8104000F081BE00BF55
:204AC000C5080020BC06002008B503F0FFFC003018BF012008BD00BF80F31088704700BF2F
:204AE000827A044B03EBC2035B68C01AB0FA80F04009704778120020F0B54749837A85B0F0
:204B000001EBC303D3E84F2F12F0FF0F09D10124C3E8424F1346BFF35F8F3BB1032005B0A2
:204B2000F0BD0123BFF35F8F002BF7D10446827A3A4B01EBC20148601B68C078DB6B384F67
:204B40009847384DA37A3A6805EB0313526958689047A37A3A6805EB03135868536B9847B8
:204B6000012806462E4A2F4BF3D1A17A126803EB0113D269986890472B4B2C4A1E6013687C
:204B80009B07FCD5A37A03201B01EA582849536923F00F035361A37A1B01EB581862A37AEB
:204BA0000A6826891B01E85817683EB1237A002B2CD0637A002B14BF032602266168082326
:204BC00032468DE80A001B490023B847A37A134A26781B01E85813686178A27800965E6C16
:204BE0004FF0FF33B047A37A114E1B01EA58536843F002035360A37A32681B01E85803A90E
:204C0000136998470028F6D105B0F0BD637A002B14BF01260326D1E778120020B401001096
:204C2000B8010010E06701002820086028200840C4010010006CDC0270B5214D837A05EB84
:204C4000C3025268904201D0042070BD1D491E4A096802EB031304460A6A986890471B4BA4
:204C600001221A601A4A13689B07FCD5194E607833689B6B9847336860784FF400519B697B
:204C800098473368A0789B6B98473368A0784FF400519B699847336820789B6B98473368C0
:204CA00020789B694FF400519847A37A002005EBC3035860A37ABFF35F8F05F8330070BD20
:204CC00078120020B8010010E06701002820086028200840B40100102DE9F04F344C857A40
:204CE00085B004EBC5046468A04203D0042005B0BDE8F08F1F462F4BDFF8C4901B6809EBC8
:204D0000051504465B6B686890460E469847012803D0052005B0BDE8F08FA37A264909EB16
:204D20000312D26809681142F3D00E9A0F9902EB010AC2455246B8BF4246002A019235D0F5
:204D4000D8BF03AD26DDDFF874A04FF0000B03ADD845CCBF16F80B1000210391DAF80020AC
:204D60001B0159F8030053689847A27ADAF800301201DB6859F80200294698470E9B5B45CB
:204D8000C4BF039B07F80B30019B0BF1010B9B45A37ADDD1094E00E0A37A32681B0159F80E
:204DA00003002946136998470028F5D100209EE778120020B801001078200840C40100106B
:204DC000E067010038B51249124A134804F004FB124804F001FB124C04F1600514F8023C4D
:204DE000227C0BB1012A03D92034AC42F6D138BD0749084A084804F0EFFA0A4804F0ECFA59
:204E0000204600F017FA084804F0E6FAECE700BF585C010000680100485C01000468010045
:204E20002A3400201C6801003C87010010B5054B054C01221A700021A3689847E368BDE89D
:204E400010401847103D0020148B01000148002100F0B6BC9C08002070B5684CFCF7F0F852
:204E6000FEF7F6F800F0D8FC00F004FC6448002100F0A6FC00F046F9FEF776FA00F032FA8C
:204E800000F01AFDFCF71AF901F0D2F901F0F4FD00F032FB2368022B3CDC082259495A480C
:204EA00010F0DCFC5948002100F08AFC4FF0FF3008F0DCFD23680546022B504E13DCFCF720
:204EC00013F9FFF7C3FF524800F0C6F8FEF75AFA00F0EAFB0446FEF76DFA14F0FF0FF7D128
:204EE000FCF76EF9F4E74B494B4A4C4804F074FA4B4804F071FA3368022BE0DD002D7AD070
:204F0000A81C00F097F92368022BD8DD454804F063FAD4E73F49404A404804F05DFA4248D8
:204F200004F05AFA2368022BB7DD3A493A4A3B4804F052FA3D4B3E48196804F04DFA2368BE
:204F4000022BAADD3349344A344804F045FA394B3948196804F040FA2368022B9DDD2D4998
:204F60002D4A2E4804F038FA344B3548196804F033FA2368022B90DD2649274A274804F018
:204F80002BFA304848F2A61104F026FA2368022B83DD2049204A214804F01EFA2A48042178
:204FA00004F01AFA2368022B7FF777AF19491A4A1A4804F011FA254B2548198804F00CFAF6
:204FC0002368022B7FF769AF1249134A134804F003FA204804F000FA2368022B7FF75DAFF7
:204FE000084800F037F92368022B7FF756AF0D4804F0F2F951E7284683E700BFDC06002009
:20500000E8060020FC3000208435002008080020748D0100585C010020680100485C010048
:20502000006901003C87010028680100148B01005C680100C47901006C6801007073010055
:205040007868010084680100A068010088300020D8680100E868010010B50446006830B1B7
:20506000002100F0ADFB54F8040F0028F8D110BDF0B5038883B005465BB14A2B04D18829A5
:205080001BD0012003B0F0BD00230380032003B0F0BD194800F0E2FF044630B1201DA168D8
:2050A00000F0D8F92468002CF8D1144B01221A704A2301202B8003B0F0BD0F48019200F02F
:2050C000CDFF04460028F3D0019A031D9A4205D02468231D002CEBD09A42F9D10648214655
:2050E00001F002F8064E6269A369376832600BB1E06998473760DBE788120020A83000207A
:205100009412002010B5064B002406481C7000F0A1FF2146BDE81040034800F051BB00BFC3
:20512000A830002088120020CC06002070B504460D48049D0078A261E361656130B9A160F7
:205140000A482146BDE8704000F08ABF084D094B2E68201D2B6000F07DF92E602146BDE801
:205160007040024800F07CBFA83000208812002094120020CC06002010B5044C82B02468CD
:205180000094FFF7D3FF02B010BD00BF9412002070B5094B04461B783BB1084D084B2E682F
:2051A00004302B6000F060F92E602146BDE87040044800F055BF00BFA830002094120020D0
:2051C000CC0600208812002010B50A4B04461B783BB9C36003612146BDE81040064800F017
:2051E00083BF043000F062F92146BDE81040024800F07ABFA83000208812002038B50B4B2A
:205200001D785DB904460A4800F028FF10B90AE0006840B18442FBD1002038BD0430BDE8A4
:20522000384000F02BB9012038BD00BFA83000208812002000B58BB00246282168460AF072
:2052400085FD6946024804F0C7F80BB05DF804FB34690100D0B170B5054601260024C4B1C2
:20526000E30709D50D48297804F0B6F8082E0CD0013601350134F2E7094804F0ADF8074808
:20528000297804F0A9F8082EF2D170BD054804F0A3B82978014804F09FF8E9E768690100FF
:2052A000646901005469010090B110B50A49044601F0F8FB20B1BDE81040084804F08CB88D
:2052C000E188074849BA89B2BDE8104004F084B8024804F081B800BF706A010070690100C8
:2052E00078690100704700BF10B50E4C2368B3B1FDF7FAFE22685168136892681944091A24
:205300004AB192E8180023441B1A9268994228BF1946002AF5D1044B0844186010BD024A2D
:20532000136010BD8C120020901200202DE9F041038805467BB1592B08D1872912D08229CA
:2053400020D059232B800120BDE8F081002303800320BDE8F081254A0120136059232B80F6
:20536000BDE8F081214F3B68002BEAD0D9688A4203D024E0D9688A4220D19B68002BF9D145
:205380003B60DEE7194F4FF000083C68002CD8D0002604E0A3682646002BD2D01C46204670
:2053A00000F07CFA0028F5D0E0688821224600F0DBF978B10E4800F023FAEBE73B60996883
:2053C0000029BED0C86882420BBF89680B4699608968F5E7E060A3682EB1B360C4F80880CF
:2053E000FFF782FFD1E73B60F8E700BF8C120020E806002010B50446104800F001FA1049CE
:20540000E3680A684BB142B194420FD0134601E09C420BD09B68002BFAD10A4BA2601B6865
:205420000C60E360BDE81040FFF75EBF054B1B68E360BDE81040FFF757BF00BFE8060020D1
:205440008C12002094120020014800F0D9B900BFE806002010B5044600F00AFA2046BDE822
:205460001040FFF7C7BF00BF10B5044600F008FA2046BDE81040FFF7BDBF00BFC068B0FA42
:2054800080F04009704700BF024B1868003018BF012070478C120020024B186808B1024BA0
:2054A000186870478C1200209012002010B5114B04461A68904218D05AB19368834208BFFC
:2054C00013460AD02BB19A68A24206D01346002BF9D10023A360E36010BDA2689A60FFF783
:2054E00003FF0023A360E36010BD82681A60FFF7FBFEEEE78C120020034A04499079D3799F
:2055000003EB00230B807047FC3000208830002010B541600446FDF71FFE206010BD00BF47
:2055200010B50446FDF718FE94E80A00034A0B44C01A90428CBF0020012010BDFEFFFF7FB0
:205540002DE9F843DFF8A480274DD8F800702E68874247D077B33B4601E0002B3BD01B6890
:205560009842FAD133B3837B8946044623B3002383736FB1BC424FF0870106D0BB7BDB07C7
:2055800003D53846224600F033F83F68002FF1D1A3683BB14C4505D02C6004F10C0083210C
:2055A00000229847D8F80000844208D12368C8F800302E60BDE8F88338468442F6D0002820
:2055C000F7D00368A34208D0002BF2D01A68A24204D01346F8E7BDE8F883034622681A6010
:2055E0002E60E7E73B46BDE7941200209812002070B586687EB104460A4802230460A3731D
:2056000004F10C000D46B0470238012804D9832D02D00123A37370BD20462146BDE87040F4
:20562000FFF78EBF9412002070B50C4A0C4B146800251D7084B1012601E0246864B1E37B25
:20564000002BFAD0A673E573204682210022FFF7CFFF2468002CF2D170BD00BF98120020C4
:20566000AB300020024B1878421C1A70704700BFAC30002070B407480749084A0023084D6B
:20568000084C8A2603700B6013602E70237070BC704700BFAA300020981200209412002058
:2056A000AC300020A93000202DE9F041244D2B780BB1FFF7B9FF234E3378D3B1DFF890E049
:2056C000214F9EF80020013B02EB420189007C180132A068DBB202F01F0233708EF80020F7
:2056E0007F5CD4F8048098B1812F06D0827BD20705D428781844BDE8F08101238373394656
:205700004246FFF775FF337828781844BDE8F0810E4A146834B9ECE7A37BD9070AD42468DE
:20572000002CF0D02B78002BF6D0FFF77DFFA37BD907F4D5204639464246FFF759FFEEE720
:20574000AB300020AA3000209C12002098120020A9300020024A034B10781B7818447047FB
:20576000AA300020AB300020F0B40C4D2C78202C11D00B4B0B4E1B78671C234403F01F0325
:2057800003EB43039B00F418A06062602F70F1540020F0BC70470120F0BC7047AA30002087
:2057A000A93000209C12002038B5837B034CDB07256801D5FFF71CFF256038BD9412002052
:2057C00070B404460D4D2868A04206D038B1034600E023B11B689C42FBD170BC7047002C97
:2057E000FBD0012600232060A673A3810A4620462C60812170BCFFF7D7BF00BF98120020B2
:2058000038B1837B013B012B03D8024A01231370C3737047AB300020FDF7AABC38B5094CE7
:20582000049D226822B180E82A002060002038BD024680E82A0008462260FDF79BFC0020EE
:2058400038BD00BF1C14002010B5084C206858B100224368816822609847236823B1BDE87F
:2058600010401868FDF786BC10BD00BF1C14002010B541600446FDF737FC206010BD00BF63
:2058800010B50446FDF730FC22686168C2F101031844884284BF5218226010BD10B504469E
:2058A000FDF722FC23686268C3F10103184482422CBF0020012010BD00B50B4B83B001A9C8
:2058C0000A4A99421160019388BFCD2005D95A1C01921870019B8B42F9D305480021FFF758
:2058E0006FFF03B05DF804FB173D002030140020F806002038B5134CFDF75CFD2378124DAA
:20590000CD2B08D0AC4202D316E0AC4214D014F8013FCD2BF9D1AC4202D30DE0AC420BD0A5
:2059200014F8013FCD2BF9D0FDF744FDAC42064804D2001B80B238BDFDF73CFD4FF6FF70F0
:2059400038BD00BF173D00200050002070B5038804465BB1902B05D11848FFF78FFD70B90D
:20596000012070BD00230380032070BD13484FF4A061FFF76FFD90232380012070BDFFF748
:20598000B9FF0F4D0F4B06465D1BADB2A8420DD90D4B1B68002B09DD0C490D4A0D4803F0C6
:2059A0001BFD31462A460C4803F016FD0348FFF75BFD90232380012070BD00BF201400203E
:2059C000173D002000500020DC060020106A0100146A0100485C01001C6A010010B50446AC
:2059E00090F84C308021013384F84C3020302346054AFFF7C1FB054B2246BDE810401978DE
:205A00000020FFF7B1BE00BFDD590000123D002070B5038804464BB1CB2B03D1822909D059
:205A2000012070BD00230380032070BDCB232380012070BDFFF748F8BFF35F8F104B0022F0
:205A40001E681A60BFF35F8F0E4DFFF745F8286820B9EBE755F8040F0028E7D090F84530A1
:205A600026FA03F3DB07F5D5FFF7C8FB0028F1D0286802210346044AFFF77EFBEAE700BF79
:205A800040140020E0040020C95A0000034A1368034303481360FFF7B3BE00BF4014002005
:205AA0000807002010B5044690F84500FEF784FA10B994F8440010BD012806BF94F8440044
:205AC00080F00100002010BD70B50446FFF796FB00B970BD04F120052846FFF78FFB064638
:205AE0002046FFF7DFFF01280ED00028F1D1002EEFD12846FFF768FB0A4B30462246BDE8EE
:205B000070401978FFF730BE002EE2D000262346284684F84C607E21034AFFF72DFB034B03
:205B2000EBE700BF113D0020DD590000133D00202DE9F843FFF796FD244B254C1870FFF788
:205B400091FD244BDFF8A0801870FFF78BFD224D2368224A00212870C8F80810C8F8042070
:205B600053B3DFF888901E4F0126D9F800209D6C926B93F845009047236845F08C0529463E
:205B800093F84500FEF7DEF92268D9F8003092F8450006FA00F23A601B6B98472368D8F8C3
:205BA000082093F8451054F8043F06FA01F10A43C8F80820002BD8D10A480021FFF700FEEC
:205BC000BDE8F843084800F039B900BF133D0020E0040020113D0020123D00208D5A0000BC
:205BE000E02002400807002034140020B4010010F8B5048805466C2C0CD07E2C1BD01CB1AD
:205C0000002303800320F8BDFFF72CFD1E4A1F4B10701C601D4C264604E00A2813D02368C0
:205C20007E2B2BDD1A4800F0EFFA431CF5D16C232B800120F8BD852901D00120F8BD134C8F
:205C400000232360E6E7114C124F23680E49002603F1010E3A4609783046FE54C4F800E0A3
:205C6000FFF782FD0C4B324618688521FFF77CFD0028E5D17E232B800120F8BD05495A1C87
:205C8000C8543260CEE700BF143D00204C150020C4140020CC1400209412002008B5054828
:205CA0000549802200F0A8FABDE8084003480021FFF786BDC4140020441400201807002021
:205CC00010B1837A012B01D901207047FEF714BF10B1837A012B01D901207047FEF7ACBF64
:205CE00010B50446FEF7FCFE08B9042010BDE178024A01238B401360002010BDA0200240FE
:205D0000C178034A01238B4013600020704700BF9020024010B584B08DF80F1010B1827AB9
:205D2000012A02D9012004B010BD0446FEF7D8FE10B9032004B010BD002320460093019389
:205D40000DF10F010122FEF7C7FFECE780B170B5847A82B0012C02D9012002B070BD0446AC
:205D600015460E46FEF7BCFE20B9032002B070BD012070470023204631462A46009301937B
:205D8000FEF7AAFFE9E700BF80B170B5857A82B0012D044602D9012002B070BD16460D464D
:205DA000FEF79EFE20B9032002B070BD012070470021009620462B4601910A46FEF78CFFAF
:205DC000EAE700BFC3070BD5064B5A78197801231AB1054A8B4013607047044A8B40136016
:205DE000704700BFA85C0100A020024090200240C3070BD5064B5A78197801231AB1054A98
:205E00008B4013607047044A8B401360704700BFA85C010090200240A020024008B5054B85
:205E2000054A1B681078DB6B9847BDE808400120FFF7DEBFB4010010A85C010001460148E8
:205E400000F00EB95015002038B50546074800F005F9044640B1A068284002D0636803B195
:205E600098472468002CF6D138BD00BF50150020014800F0EFB800BF501500202DE9F04120
:205E800004880646772C30D07E2C27D024B1002303800320BDE8F081FFF7E4FB2F4F304B64
:205EA000304D3A6818702C60002A45D02346A0462D4C04F8038093688020002198472B68FB
:205EC000013357F823202B60002AF2D1DBB2274A1370772333800120BDE8F081204B1B7881
:205EE0008B4219D00120BDE8F081DFF880801D4D98F800201E4F002393423B602B6007DA58
:205F0000194CE156002919DB013393422B60F7DB3B68002BEFD1DCE7124D134CDFF84C80B0
:205F2000134F2B683A68E05C511C00F07F0098F80020E0543960E7E71346C8E70849074ABD
:205F4000097852F823200020FFF70EFC0028E8D17E2333800120BDE8F08100BF280400209C
:205F6000153D002058150020C4300020AD3000205415002010B40F4B1C7864B10E4A1368EE
:205F8000984214D0002303E052F8041F88420CD00133A342F8D1094A0948135D63F07F035F
:205FA00013555DF8044BFFF72BBC1C46F3E70024F1E700BFAD30002028040020C4300020A4
:205FC00028070020002301390170437083707047417883780278CB1A13409A4204D00131FF
:205FE0000A4042700120704700207047427883780078D31A0340984214BF10464FF0FF3028
:20600000704700BF0346807859781A78091A11421DBF411C0A409A704FF0FF30704700BF7F
:206020008278437801789B1A0B4214BF10464FF0FF3070474378827800789B1A18407047F1
:206040004378817802785B1A13420CBF01200020704700BF00230360704700BF00687047AB
:20606000026842B1914203D11BE099420ED01A461368002BF9D100230B6002680AB90EE0EF
:206080001A461368002BFBD1116070470B68136000230B6000230B600268002AF1D101604D
:2060A00070470B680360F3E710B404684CB1A14217D0224602E0994208D01A461368002B7F
:2060C000F9D10C6001605DF8044B70470C460B6813600023236004680C6001605DF8044B13
:2060E00070470B680360F4E7026842B18A4203D10BE0994204D01A461368002BF9D170471A
:206100001968116000221A607047134612680260F8E700BF00B10068704700BF10B50446C9
:206120000021628840680FF073FC23886288A06802FB03F2BDE8104000210FF069BC00BFB6
:2061400030B44588BDB141680B7863B14A1C002303E01478114601322CB10133AB42F8D197
:20616000002030BC704701220A700288806830BC03FB020070472846F3E700BFF0B4458832
:20618000074682686DB18A420ED006880023324402E0914209D022460133AB4202EB0604CB
:2061A000F7D1FF20F0BC704700237A68D05C0028F8D00138D0547A68F0BCD05C704700BFE7
:2061C00083688B4208D84288008800FB023081422CBF00200120704700207047418849B168
:2061E00043680020194413F8012B02B901308B42F9D17047084670470023013A01600271CF
:2062000043718371704700BF0346807959791A79091A114208D010B4411C1C680A40205C00
:206220009A715DF8044B70474FF0FF30704700BF08B50448FFF772FFBDE808400248FFF777
:206240006DBF00BF440700203807002038B50F48FFF776FF044688B10D48FFF771FF054651
:20626000206060B100F092FA05F19C01A5F8800005F1820000F08EFB204638BD38BD2146B9
:206280000248FFF77BFF284638BD00BF380700204407002010B5044607482146FFF790FF0E
:2062A00000B910BD21680548FFF768FF2146BDE810400148FFF762BF38070020440700209F
:2062C00010B5044609482146FFF77AFF00B910BD2468B4F88010204600F03CFB04F1820036
:2062E00004F19C01BDE8104000F066BB3807002010B5044603482146FFF762FF00B1206856
:2063000010BD00BF380700200368B3F880007047006800EBC1003430704700BF036803EBFE
:206320004101B1F882007047F9B1EAB130B4CD684C68521B92FBF4F2541C18D053B90C686F
:20634000835C012101FA04F423EA04038354084630BC70470B68845C012101FA03F32343A1
:20636000835430BC084670471146084670470021EDE700BF38B50F4D002818BF05460E485C
:20638000FFF76CFE044650B12846211D00F08AFB40B92046FFF7BEFE04460028F4D14FF0AA
:2063A000FF3038BD054B06489B68E41AA41000FB04F038BD706A01000C1B002050070020E9
:2063C000ABAAAAAA78B179B1C2684368891A91FBF3F14B1C06D0054A0368505C184100F0ED
:2063E000010070470020704708467047D01B002010B10368072B0ED90C4A1368072B12D8CC
:2064000030B40B4D5C1C03608160146045F82300012030BC7047064A52F823309842EBD169
:206420008160012070470020704700BF001C0020E01B0020F8B507460C46184D184E1FB3CD
:2064400044B3FB687868E41A94FBF0F4611C04EB440421D0AB6803EB8400FFF75BFEB0B1B7
:20646000AC68001B841006FB04F35A1C0FD07C68FA6804FB032454B138462146FFF7A2FF1F
:206480000028DCD02046F8BD3846FFF743FE00242046F8BD2046E0E70020DEE75007002090
:2064A000ABAAAAAA38B505461148FFF7D7FD044668B1104A104B9268841AA41003FB04F47E
:2064C000A5B1631C10D06B68EA6803FB042428462146FFF777FF08B1204638BD2846214692
:2064E000BDE83840FFF7A6BF0024F0E72C46EEE70C1B002050070020ABAAAAAA2DE9F04F26
:206500006C4D85B0002918BF0D46044628461F469146FFF72FFF431C064612D05CB36268BC
:20652000E36802FB0636002130460FF071FA2146614832460123FFF7F7FE304605B0BDE86F
:20654000F08FDFF888814046FFF7FAFD0646A8B107465A483946FFF783FDD8F80820584B45
:20656000B61AB610381D294603FB06F600F096FA0CB1731CD3D162680026D4E7484639469F
:206580000DF056F800287ED0FFF7F4FE471C4ED0D8F808204B4B00EB400A12EB8A07195C0B
:2065A000019744D000293BD1434BC2EB070A02930395019E5546DFF818B1A24614E08468DF
:2065C0000CB33F4B03FB07F77A1C1BBF4168C2684FF0000901FB07294946FFF7F3FE012820
:2065E0000BD0394B9B4510D05BF8040FAF100028E5D1334B03FB07F7F3E74846A047D8F8E0
:206600000830019AD51AAF10F3E70199029A00232A48D3555446039D0F46FFF765FD98E7C6
:206620001E54019BC2EB030A234B0293C0E72348FFF714FD019030B34FF0000BD946214F29
:206640001F4E019802E0FFF765FDF0B1D8F80830C3EB000A4FEAAA0306FB03F3FA5C002A3C
:20666000F1D11549CB5C0291DBB1D90748BF01325B10FAD1B9F1000F01D09345E3DDB2B1DF
:2066800093468146DFE7002657E7B9F1000FFAD0D8F80820084BCDF804900293C2EB090AB4
:2066A00086E7B9F1000F02D0BBF1000FCBD001907EE700BF706A0100D01B00200C1B0020AA
:2066C000ABAAAAAAFC1A0020FC1B002050070020DC1B002038B505460846FFF74BFE85B11B
:2066E000431C0CD06C68EB6804FB003428462146FFF768FE002814BF2046002038BD00243A
:20670000F4E72C46F2E700BF70B505460C460023294622460548FFF707FE0646294622466D
:2067200000230348FFF700FE304670BDD01B0020FC1A002003460A46024819460123FFF7B7
:20674000F3BD00BFFC1A002003460A46024819460023FFF7E9BD00BFFC1A002088B189B12B
:20676000C2684368881A90FBF3F0431C08D0064B00EB40009B6813EB800002D00430704743
:20678000002070470846704750070020F8B50E4D0E4C2A7823881344802B01DD0020F8BD42
:2067A00006460B4F39460FF059F80A4B29781B7870181944C9B2394422880FF04FF828786E
:2067C00023881844F8BD00BFAE3000208A300020041C00208C300020F0B4114B114F1B7857
:2067E0003E78114A33441288DBB213449BB21A18802A12DC013B9BB21AB2002A08DB0B4CC3
:206800002518A15C013B9BB2A9541AB2511CF8D130443870F0BC012070470020F0BC704793
:206820008C300020AE3000208A300020041C0020084A138883420BDB10B4074C80B22188DA
:206840001B1A13800844208001205DF8044B7047002070478A3000208C300020014B188097
:20686000704700BF8A300020044B054A1B78127804481344DBB21844704700BF8C3000202F
:20688000AE300020041C002000487047041C0020014B1888704700BF8A300020034A044BA3
:2068A00010781B781844C0B2704700BFAE3000208C300020054A064B10781B78054A03444E
:2068C0001088DBB2184480B2704700BFAE3000208C3000208A3000200649074A074B12785F
:2068E00008781B881044C3F18003C0B2181A80B2704700BFAE3000208C3000208A300020EA
:2069000038B5094D094C00211A2209480FF080F82846214600F0C2F805F108002146BDE831
