:020000040000FA
:2000000000500020E9000000E1000000C9000000E5000000E5000000E5000000000000002E
:20002000000000000000000000000000E5000000E500000000000000E5000000E50000002C
:20004000E51F0000E500000061280000E500000051130000951C0000E5000000E50000006A
:20006000E5000000B5280000E5000000E5000000E5000000E5000000E5000000E500000060
:20008000E5000000E5000000E5000000E5000000E5000000E5000000E5000000E500000038
:2000A000E5000000E5000000E5000000E5000000E5000000E5000000E5000000E500000018
:2000C000E5000000FD2A0000044B1A68B2F5806F03D01B689B0500D4FEE7704728ED00E052
:2000E000FEE700BFFEE700BF08B506F09BFE104A104B9A420DD2D0430F4918440B4620F0D4
:2001000003000430084453F8041B834242F8041BF9D10A480A494FF000028842B8BF40F8AB
:20012000042BFADB03F054FFFFF7CEFF08BD00BF00000020F9080020CC9601000009002061
:20014000923C0020F0B5002706463C463D4683B0304604F09FFF0195019B9C4206DD00BFA7
:20016000019B01330193019B9C42F8DC304604F0B7FF0195019BC4F5C874A34206DA00BF02
:20018000019B01330193019BA342F8DB0137B7F5487F06D0B7F5C87FCCBFC7F548743C46AE
:2001A000D6E703B0F0BD00BF38B5194D194C2B6820465B68012198472B68012211461B685E
:2001C0002046984707F07EFB01F066FF01F0E4FE00F0FAF804F0C4FF04F028FF0120FFF776
:2001E000B1FF0D490D4A0E4809680123136003600B691020A2F5FF521268984707F066FBA4
:2002000001F01AF8BDE838400020FFF79BBF00BFD801001000400340B00100100C400940CD
:200220000800094008B541F2342002F07DFB01F0CBFC04F067FE074801F0EEFC064808210D
:2002400001F0BCF904F086FDBDE808400220FFF779BF00BFB14E000078300020F0B585B0E4
:20026000002602A80821294C0096019601F0A6F99DF80F309DF80E70E56A43EA072748F288
:20028000A5110220A84739460320A84731460120A847636B02A908221D4D0B209847A46A5A
:2002A00069460120A0472B68022B1ADC01A90220A04758B92B68022B04DC0020FFF742FF16
:2002C00005B0F0BD0199134808F0AEF92B68022BF3DD114808F0A8F90020FFF733FF05B0A9
:2002E000F0BD0E4A0E490F4808F09EF90E4808F09BF92B68022BD9DD084A0949094808F077
:2003000093F90099094808F08FF9CFE7A04D010074060020A84C010008810100584C010085
:20032000684C0100704C0100804C0100984C010001F0E4BC024B4FF080421A60704700BFCA
:20034000A020024038B50A4D0A4C2B681E20DB6B98472B684FF080422260DB6B01209847AF
:20036000022323600448BDE8384001F009BE00BFB4010010A020024028040020024B4FF056
:2003800080421A60704700BF90200240024B4FF080421A60704700BFA0200240014B1870A5
:2003A000704700BF0120024010B5064C042023685B699847236804205B6B98470128F9D1B4
:2003C00010BD00BFB8010010F0B591B007F07AFA0746FFF7E9FF1E4B4FF4A0601B68DB69D9
:2003E00098471C4B01211C4A196013689907FCD500201A4C06F09EFC01AD194801F0C0FDF7
:200400000FCC0FC50FCC0FC50FCC0FC594E80700019C85E80700621C0FD0124E01AD336835
:2004200020469B6B9847336820469B694FF40051984755F8044F631CF1D1FFF783FF0FB1E0
:2004400011B0F0BD11B0BDE8F04007F03FBA00BFB801001028200860282008403C4D010056
:200460003C040020B40100100120704708B501F0B7FE30B1034B5888A0F10200B0FA80F060
:20048000400908BDFC04002008B501F0A9FE30B1044B5B88022B14BF0220012008BD02209C
:2004A00008BD00BFFC04002030B583B002F0FEF8044601F095FE08B903B030BD01A90E4869
:2004C00001F096FE0128F7D100F0B4FE638803F44063002BF0D16FF03F052D1A06E000F0D3
:2004E000BDFF638803F44063002BE5D100F0A2FEC542F4D4E0E700BF0100010470B582B098
:2005000001F06EFE234C10BB00256580E37B214E65F30413E373E37B304643F02003E37328
:20052000E37B01A943F04003E373E37B43F08003E373A37F5BB2C3F5FF6307339BB2238307
:2005400001F056FE012809D0284602B070BD6388022B08BF0120D7D102B070BD00F06AFE28
:2005600073889BB2022B0DD06FF03F052D1A05E000F074FF63889BB2022B03D000F05AFE77
:20058000C542F5D4608880B2A0F10200B0FA80F04009E1E7FC04002008B5B32994BF0A4657
:2005A000B4220146024813F09DFF002008BD00BF4209002070B50E4D0E4E2C68002006E0B0
:2005C0002379022B06D024682B689C420ED02379032BF5D133780120002BF4D1064804F013
:2005E00023FA24682B6801209C42F0D170BD00BF340900202A3000202806002038B50D4AAA
:200600000024136819681C725C721C71116002F0B1FA0546BFF35F8F074B1A7812B11C70A5
:20062000FFF76CFFBFF35F8F2846BDE8384002F0A9BA00BF3C090020293000202DE9F043F3
:200640002F4B83B080460F461D6800F0F3FD2D4E361A03E000F0EEFDC6420AD52C79022C2A
:20066000F8D0294B0020032C187008D003B0BDE8F0832C79244B0020032C1870F6D1B5F865
:200680000890B9F1060F28DDA9F10606BE4224DC0A3540462946324613F024FFDFF87880B7
:2006A000AA57AB1988F800205B790422A9F10501164F0DEB020029443B7013F013FF019816
:2006C00002F07EF8124B134A1B7810605BB1FFF795FF304603B0BDE8F083FFF78FFF00207A
:2006E00003B0BDE8F08398F80010042049B289B205F094FA3978204605F090FAE7E700BF8F
:200700003C090020E2FAFFFF263000202B3000202A30002090110020F70800200C2801D04A
:2007200001207047042A01D0022070470029FBD0024B00201B680B60704700BF9011002083
:2007400070B582B001F04CFD002837D01D4C6388022B33D11C4E00F06DFD7388022B0BD18C
:200760001A4D2D1A04E000F079FE7388022B03D100F060FDE842F6D401A9154801F038FD16
:2007800000F058FD6FF03F052D1A08E06388022B09D100F04FFDC54205D500F05FFE01F0F5
:2007A0001FFD0028F2D16088A0F55050043880B201288CBF0020012002B070BD012002B040
:2007C00070BD00BFFC0400206C05002000FEFFFF0100010410B5012082B0FFF7DFFD104C34
:2007E000104B05211A68237E84F82410928803F0F80343F00803204601A96283237601F0E0
:20080000F7FC012802D0002002B010BD204601F039FDA0F10100B0FA80F0400902B010BD4A
:20082000440500200006002000B583B001A90A4801F0DEFC012803D0002003B05DF804FB57
:20084000054801F01FFDA0F10100B0FA80F0400903B05DF804FB00BF2C05002008B5FFF77F
:20086000E3FF012801D0002008BDFFF747FEC0B208BD00BF08B5FFF7ADFF012801D000200D
:2008800008BDBDE80840FFF7E9BF00BF08B5FFF757FF01F0F3FD002210460749074B4A807B
:2008A00003F510711A799033022A08BF03F88C0C8B42F7D108BD00BFFC040020F809002089
:2008C00008B502F025F8012801D0FFF7DFFF012008BD00BF2DE9F84302F01AF8012818D073
:2008E00001F07EFC88B901F001FC01F079FC0446002840F0888001F0DDFC012805460BD035
:2009000001F0BCFD0020BDE8F883544B5B88022BE9D10120BDE8F88301F02CFE4FF4237250
:200920004F49504813F0DEFD4F4B5049504F1C70504A0224DFF890E10D704F4E3C704F48E6
:20094000032404278EF8004001F511711770052506244B4A35700470196313684849002BCB
:20096000FBD04FF00009C1F800904FF6077846F2A31C444ADFF854E1434F444E444D454C80
:200980004548464BDFF848910BE00B4602F12400D2F820C0D2F83480976BD2F83CE02032D4
:2009A00071C803F120014945C3F800C058609C60DD601E61C3F814809F61C3F81CE0E4D1B5
:2009C000374B3849384D1962384A394939482C4C394F3A4E5D6200259F62D8621E63012046
:2009E0002560116007F03AF9354807F09DF8224613682349002BFBD000230B6001F0C2FC4C
:200A000001287FF47DAF01F0E3FD2E48002103460E46022588245A791E7102F0FC0265F38C
:200A200083025A71DC80903343509031B1F5107F244AF0D1C2F8B02101F070FBFFF7CAFEEA
:200A4000012802D00020BDE8F883FFF7EDFE0128F8D1BDE8F843FFF751BD00BFFC040020C5
:200A60008C5401001C040021900300217903002175030021AE030021AB0300218103002124
:200A80001C100440D84D010030400040B00A3F002E1F133F4D00F1247F14071300C0002188
:200AA00080C60021603953632010101A0010044001010E0411161216136F236E546B00702D
:200AC00044050020F80900207703002101400340A0C60021F0B583B0072800F2AF80DFE8F7
:200AE00000F0212AADAD5D6A6F04654B197001F077FB00285CD0634B5B88022B58D1FFF75A
:200B00001FFE012814BF0324002401F055FD012800F0AE80FFF75EFE012800F0A180032038
:200B200003B0F0BD012900F09580002900F08880022003B0F0BD8029FAD8534C4FF47A7339
:200B4000208AE28903FB00F003FB02F200F57F40A2F55C23FF30A3F587634C4A03EB20433E
:200B6000A2FB0323C3F38713994221D0C82303FB01F1474801F55C2303F58763A0FB032116
:200B8000444AC1F38F1102FB01331B04A0FB0323414A9B09E18123821184A8E731F00403E0
:200BA000C6D13E4BC1F380011A7819708A429ED1002003B0F0BD31F00103B9D1C8B2AFE74B
:200BC0004FF6FF75364EB788AF4208BFFF2009D03246002000E0184608329488431CAC4270
:200BE000DBB2F8D156F830302D4C9942A0DB236899429DDC0191FFF757FC4FF6FF739F42D0
:200C000001993BD022461C460023083290880133A042DBB2F9D1013BDBB256F8332006EB28
:200C2000C300914203F1FF3325DD5A1CF5D1FFF7D1FD0128BCD1FFF711FEB9E701206FE724
:200C4000019101F065FE0128B2D0FFF71FFE0199084665E7FFF73EFE01287FF460AFA7E751
:200C6000FFF7FCFD012808BF20463FF459AF56E701F03EFD4EE70B4B1860D8E70023CAE7F5
:200C8000F6080020FC0400202C0500201F85EB51D34D621018FCFFFF440500202A3000205E
:200CA000BC4C01000006002099B1F0B50C4683B0172800F2B780DFE800F08066B5B55D0EB7
:200CC000544E211B16B5B5B50E129E99B595918D0E5A022070470020086003B0F0BD802376
:200CE0000B600020F9E75A4B00201B780B60F4E7584B00201B785BB20B60EEE701F070FAED
:200D0000002840F09180FFF7E5FD012840F0948007460A256FF07F066B1E13F0FF054FF0F6
:200D200000014FF004020FD001A813F0B5FC40F20343694601A8ADF8043001F059FA18B17B
:200D40009DF902607306E7D0002F7AD12660803675D00020C1E7404B002093F900300B60D6
:200D6000BBE73E4B00201B681B680B60B5E718230B60EEE700203A4B08601B78002BE8D01D
:200D800004230B60A9E7374A4FF47A73118AD28903FB01F103FB02F201F57F41A2F55C23DC
:200DA000FF31A3F58763304A03EB2143A2FB0323C3F38713236000208FE701F011FA30B1AC
:200DC0002A4B5888A0F10200B0FA80F040092060002082E73E230B6000207EE7A0230B6040
:200DE00000207AE706230B60002076E7204B00201B680B6071E74FF6FF751D4EB388AB4244
:200E000008BFFF2109D03246002100E01946083290884B1CA842DBB2F8D156F83130002072
:200E200023605AE7012058E7104B5B88022B08BF00273FF46EAF66E76FF07F032360032011
:200E40004BE701F065FD012880D0FFF71FFD7DE72B300020F7080020F60800200006002040
:200E60002A3000202C0500201F85EB51FC040020BC4C010070B582B0044601F0B1F928B387
:200E8000264B5B88022B08BF00251FD12449221DA31C244C92B29BB2100A2382E1614870D0
:200EA0000A70FFF74DFC002001F0D2FB204601A901F09EF9D0B9012601F0E8FB0023638079
:200EC000FFF71CFB4DB9304602B070BDFFF702FD01281ED0012002B070BD01F019FD01286E
:200EE000F1D0FFF7D3FC304602B070BD00F0B6FA0D4E317800E071B163880A4A03F4406398
:200F0000002BF8D0508880B2B0F5505618BF0126D2E70546BAE700F0E7FEEAE7FC04002020
:200F2000400900206C0500202A30002010B50C46B32998BF2246014688BFB422034813F0D9
:200F4000D1FA2046BDE81040FFF794BF4209002030B583B001F044F9D0B1184B5B88022B7D
:200F600020D000256FF07F0401A9154801F040F9012803D19DF906406306F5D0ADB9114B80
:200F800093F90000A042D4BF0020012003B030BDFFF7A0FC01280FD001F0BAFC012801D034
:200FA000FFF774FC012003B030BD01F0B1FC0128E5D0FFF76BFCE2E70546D3E76C050020D2
:200FC00001000304F608002008B501F0A1FC012803D0BDE80840FFF7BBBF08BD10B501F0CC
:200FE000FFF880B1124B5B88022B0BD1114C237853B9114B1B689B0601D5012323702078D7
:20100000C0B210BD002010BD01F082FC01280DD0FFF79EFFB0FA80F0400920702378002BE3
:20102000EDD1054B6FF020021A60E8E70020F4E7FC0400202630002008100440F8B51E48D8
:2010400000F09EFF06F0C4FC012802D000242046F8BD1A4C4FF410722046002113F01CFB47
:2010600040F2863043F23331154A164B1460164D164ADFF870E0164F00261C605E60AB62FF
:20108000C5F82CE03884D0811182FFF723FC01280446DBD10F4B104A1E6013680F4843F07C
:2010A0002003136001F008FB01F00CFB31460C4803F0F2FBCBE700BFEC050020F809002060
:2010C0003C09002034090020FC0400202C05002044050020081004400C100440904D0100DA
:2010E000280600202809002010B5064C042023685B699847236804205B6B98470128F9D1A1
:2011000010BD00BFB8010010F8B51A4A00200021C2E90001184B04201B685B6B98470128A4
:2011200001D0FFF7E1FF144B00201B68DB699847124B0121124A196013689B07FCD5114A46
:2011400011491368096823F4807323F001030F4C13600B6820460E49984740F221200D4D7E
:201160000D490E4B04273126012227602E6008601A60F8BD00090020B801001028200860CD
:20118000282008400C000140C801001000000140002100043C000140080001400400244302
:2011A00010B40949094C0B68226808688342FAD1DB01074903EB52620023C1E9002310BC3D
:2011C000D1E90001704700BF082009400C2009400009002010B50B490B4C0B6822680868F2
:2011E0008342FAD1DB01094903EB52620023C1E9002303F091F900B910BDBDE8104003F0B4
:201200006BB900BF082009400C2009400009002010B506F057FB034B1C6808B906F056FBF5
:20122000204610BD08200940704700BF0146012000F052B806F066BC2DE9F04106F042FBA0
:201240001D4E1E4B1E4F32680124002580464FF480314FF480703D601C60186019601368F7
:20126000284623219847336820461B6824219847336825211B6802209847124A124913689E
:2012800043F4E02313600D6006F03CFC0F4B1049104A1B6800F50070086014603C601B6915
:2012A00014209847B8F1000F01D0BDE8F081BDE8F04106F00BBB00BF840100100420094029
:2012C000000024430020094008200940B00100101C200940A0022443431E012B10B419D93B
:2012E000042801D010BC704700231A4610F004001CBF0E4C216013B10D4B0121196012B1B7
:201300000C4B01221A600028ECD00B4B01221A6010BC704710F0010302D0084A01231160C2
:2013200010F00202E2D0064C2160DFE72020094080022443A0022443C00224431820094039
:201340001C200940014B1868704700BF380C002008B5FFF76FFF184B1860FFF73BFF174BD4
:201360001B686BB9164B1B68E3B9164B1B6833B11549164B00204FF4803208601A6008BD03
:20138000124B4FF480721A6006F0BCFB00F205200F4B20F4FF7020F001001860084B1B6841
:2013A000002BE2D00B49094B0020012208601A6003F05EFBD9E700BF380C0020A00024434D
:2013C00080002443C0002443C0022443042009401C2009408002244303490448044B0122F1
:2013E00008601A60704700BF00000840FFFF0F00000C0840F8B506F065FA124AB0FA80F074
:201400001368012B0BD0104C104D1149114A0123400925600B601360C3070FD4F8BD0E4F4D
:20142000094D0A4E0A4C0B49400940F0020017602E6023600B601360C307EFD5BDE8F84008
:2014400006F044BA000C084000000840FFFF0F000C0008400401004351E5CC1A034904489F
:20146000044B012208601A60704700BF00000840FFFF0F000C00084008B5FFF7BBFFFEE7A7
:2014800008B5064803F0BEFE30B1054B0121054A196013689B06FCD508BD00BF3C0C00209E
:2014A000000222431410094070B5054606F00AFA0B4C294606460B4803F0A6FEFFF7E0FF1D
:2014C000236868681B689847236868689B6898471128F9D106B170BDBDE8704006F0F6B931
:2014E000A00100103C0C002038B550B90446134803F088FE28B1234605C813430028FBD166
:201500009BB90F490F480B680F4D104C0068002223F4C0530B602A602260C3680120984747
:201520000B4A13689B06FCD438BD054A136823F4C05343F40063136038BD00BF3C0C002058
:2015400004100940A001001080012243000222431410094038B5054606F0B4F9044629462F
:20156000054803F0A3FE0020FFF7BEFF04B138BDBDE8384006F0AAB93C0C002070B50446C0
:20158000B0B10078C0B1A9B10025661804E014F8010F38B1B44205D000F02AFB631C05F1C6
:2015A0000105F4D100F06AFB0128FBD0284670BD0546F7E70D46F5E70546F3E710B40B4BE5
:2015C0000B4C13F8012FFF2A0DD1A342F9D1094A39B11144013801390B78914200F8013F30
:2015E000F9D110BC7047044AF2E700BFC7FF0100CFFF0100F0120050C8FF010000F0F8BA66
:20160000014800F009BB00BFFD1800002DE9F84F038805465BB1FA2B04D1822915D001200F
:20162000BDE8F88F002303800320BDE8F88F8D4E8D4C8E488E4A01213380238003801170AB
:20164000FA232B800120BDE8F88FDFF820C2DFF814E2BCF80030BEF80020934200F0EF8001
:201660004FF000017CD3B3F5A26F1CD20C4640F201578048DFF80C824FF0C00A4FF0DB09FF
:20168000002900F09A80C15CDD2900F0B080DC2900F0BB80002101339BB2B3F5A26F00F059
:2016A000D280BC42ECD10024002A00F0D38040F201577048DFF8CC8100234FF0C00A4FF0BB
:2016C000DB0900296FD00178DD2900F08680DC2900F09580002101339BB29A4204D9BC42E6
:2016E00000F10100EDD1002402F101081FFA88F8B8F5A26F00F09E80AEF800805A4B1E8844
:2017000046451FD0DFF86C9140464F46864219D019F80030C02B00F08480431C9BB2B3F53B
:20172000A26F4FF0000007D1F0E7F95CC02979D093B2B3F5A26FE9D09E4203F101024FF056
:201740000000F2D1ACF800804B4B1C80002C3FF477AF4A4B1B6803B198470CF02FF86FE7C7
:201760000C4640F201574348DFF818814FF0C00A4FF0DB0969B1C15CDD2928D0DC294AD012
:20178000002101339BB29A42AED9BC42ABD00029F1D1C65CDB2E26D004F1010B04F808605A
:2017A0001FFA8BF4EDE70678DB2E26D004F1010B04F808601FFA8BF48DE7C65CDB2E14D0C0
:2017C00004F1010B04F808601FFA8BF463E7661C04F808900021B4B2D3E7661C04F8089055
:2017E0000021B4B277E70121CBE7012153E7661C04F808900021B4B24DE701216BE7661C0D
:2018000004F808A00021B4B265E7661C04F808A00021B4B23FE7661C04F808A00021B4B2D1
:20182000AFE703461648AEF80030ACF8008003F0FBF889E700239846AEF800305EE70E4BA6
:2018400000221A80FCE64AB140F201539C427FF42EAF48E714464FF001084DE74FF00108EE
:201860004AE700BF12300020103000201430002027300020400C0020F834002050110020A2
:201880000406002008350020014B1860704700BF5011002070B50D460646C020FFF7AEFEC0
:2018A000002DC8BF344608DC15E0DB2818D0FFF7A5FEA31B9BB2AB420DDA14F8010BC028BE
:2018C000F3D1DB20FFF79AFEDC20FFF797FEA31B9BB2AB42F1DBC020BDE87040FFF78EBEF9
:2018E000FFF78CFEDD20E2E7024B03481988FFF7D1BF00BFF83400200835002038B5254A1F
:201900001378022B21D0032B19D0DB2804BF0223137021490C88631C9BB2B3F5A26F02BF55
:2019200000252B460D801D4D18BF0B802D889D4227D01B4BC028185514D0002038BDC02891
:20194000FBD101231370002038BD00F12403DBB2012B13D9134B10491888032308801370BA
:20196000002038BD0F4A13889C4211D09D420E4808BF148003F058F8012038BD012313700F
:20198000C7E7084B03201B8810700B80002038BD0C80D2E7273000201030002014300020E0
:2019A000400C0020123000200406002038B50C4D02202B685B6998472B6802205B6B984737
:2019C00001280446064BF7D11B684FF40070DB699847044B044A1C6013689B07FCD538BD26
:2019E000B801001028200860282008402DE9F04340F2F275DFF8DC8083B0FFF7D7FFD8F8FA
:201A000000302A4EDB682A4898473368294C5B69152098472368DFF8C090274F23F4FE6302
:201A2000D9F8002023F0020323603D60D36B032098472249D9F8003008201222086000927B
:201A4000D3F840900322132302211948C847D8F800206023D2F8048019494FF4E132144828
:201A6000C04740F2011240F2013E1649164B142008601968154841F01001196003681449EC
:201A8000002B0CBF134673460B603D60036853B12368326843F0500323601369152003B035
:201AA000BDE8F043184703B0BDE8F083B00100100010004038100040441000409020024005
:201AC000006CDC02341000402C1000405411002030100040D0010010B401001008B5064B03
:201AE00002201B685B6B9847012803BF034B186800F00100002008BDB80100106C20084070
:201B000038B50446FFF7EAFF18B1254A13681907FCD4032C03D0234B1B6803B138BDFFF77A
:201B2000DDFFE0B9204D4FF400702B681B6A9847032C2AD01D4B01211D4A196013689B0769
:201B4000FCD5032000F038FA022000F035FA132000F032FABDE83840122000F02DBA154B59
:201B600015481B68DB689847144B15201B685B69984740F2F270124A1249136823F4FE636B
:201B800023F0020313600860CCE72B684FF400709B6A98472B684FF400701B6B9847C9E71A
:201BA0001810004054110020B80100102820086028200840D001001000100040B00100103D
:201BC000381000404410004010B505F07BFE0446054800F0D5F9054B00221A6004B110BDF3
:201BE000BDE8104005F072BE140600205411002010B50446FFF772FF08B9FFF7F7FE044B9B
:201C00002146BDE810401B680248DB69184700BFD00100100010004010B5134B134C18600E
:201C2000134A2368A8B1022111615B6A4FF40070984723684FF40070DB6A98470D4B01219B
:201C40000D4A196013689B07FCD5BDE81040FFF7CDBE10619B6A4FF40070984723684FF47A
:201C600000701B6B9847E9E754110020B801001014060020282008602820084008B5FFF744
:201C80002DFF18B1024B1868C0F3C00008BD00BF1810004038B5FFF789FE40F2F2710C4BCD
:201CA0000C4A1B68116013F0500F10D00A4C0B4D05E02B681B699847094B1B6823B92368D1
:201CC0000848DB06F5D538BDC0B29847F7E738BD401000404410004018100040D001001083
:201CE0005411002000100040034A136823F00403136030BF704700BF10ED00E02DE9F84327
:201D000005F0E0FD02F05AFE18B1BDE8F84305F0DDBD8B4803F076FA0225044648B1636804
:201D200023B19847A84228BF2846C5B22468002CF5D1FFF77FFA834B80461B68CBB91F464D
:201D4000994602F0E9FB002840F0C88004460646012D1DD0022DD8D1002F3AD0A9F1410190
:201D6000A4B38B1B002B31DB31460220FFF7B4FA36E0754BD3F80090C0EB0903022B00F1EC
:201D8000C180A3F28F23002BC0F2C7800127D8E7002C00F0CB806FF00703C8EB0303F342F2
:201DA00000F1C18008F580318B1B11EA230138BF31460220FFF790FA644A136823F004032B
:201DC000136030BFBDE8F84305F080BD0420FFF783FA002CC8D108F1FF310220FFF77CFA7C
:201DE000574803F00FFA0625044600286FD0A368022003B198472369246825EA0305002C51
:201E0000F5D1FFF72BFB6B0705F0060462D4002C7DD100F09DF90020FFF766FB4C494D4A96
:201E20000B684D4823F003030B601368016843F00F0313608B6939209847484A4849002308
:201E40001360184613600B6005F05EFB062C66D0444C454D454E2B682368326823F0030397
:201E6000236053680321424898473B4B1B689B6B98472B6805F09AFC3E4A336800211160D6
:201E80003B485B680121984723683B4A012143F00303236011602B6805F0C0FCFFF7F0FA78
:201EA000FFF798F9FFF7DAFA254803F0ABF9044628B1E36803B198472468002CF9D100F05A
:201EC00015F905F003FDBDE8F84305F0FFBCFFF7C5FA0624284B00221A6098E702F024FBF1
:201EE0000646FFF75DF9361A002E7FF70EAFFFF729FA224B00EB4626C8EB0303F34218D4E2
:201F0000012425E70023AB4238BF1D463EE7124B20461B689B6998477BE70123F3E7022056
:201F200005F022FD94E708F1080142E708F580313FE7022D3FF42FAF012D7FF4E6AE2AE78D
:201F400058110020800224431820094010ED00E00010094008100940B80100104010094095
:201F600020042243242208402C200940D801001000400340800104430C40094071FDFFFF80
:201F80000146014803F040B9581100200146014803F08CB95811002010B5054803F02EF9BF
:201FA000BDE81040034B20211B6803201B6818475811002084010010431C0ED010B50446AB
:201FC000064B4FF4C0421B6800211B689847044AA3001A430023136010BD7047B401001038
:201FE000001A4442024B1868186003F0A5B800BFE020024070B51D4B0C461B6805465B683B
:20200000984714F00C0320F0E06222F4EC2207D0042B22D0082B26D00C2B08BF42F4403291
:2020200014F003030CD142F4C04204F080048CB90E4B2846BDE870401B6800211B68184722
:20204000022B0DD0012B04F0800408BF42F48042002CEDD042F48022EAE742F40032DFE753
:2020600042F40052E1E742F48032D9E7B4010010064B1B68C340DB074CBF054B054B1B68BC
:2020800023FA00F000F00100704700BFD020024080200240C020024010B584B00022412317
:2020A00002A802920393FFF7FFF9042005F042FC032812D00321042005F00CFC042005F09C
:2020C00039FC0328FAD1074A1C2312680090546800214FF040520448A04702A8FFF73AFA86
:2020E00004B010BDA401001000A00C4000B583B00022412368468DE80C00FFF7D5F901203C
:2021000005F018FC012803D00121032005F0E2FB6846FFF71FFA03B05DF804FB00B583B0F7
:202120000022412368468DE80C00FFF7BDF9012005F000FC012803D0044B986B05F0ACFB42
:202140006846FFF707FA03B05DF804FB4800001010B582B041236846002401930094FFF730
:20216000A3F90320214605F0B5FB012005F0E2FB18B1044B986B05F08FFB6846FFF7EAF980
:2021800002B010BD4800001070B50388044653B1B3F52F7F03D182290AD0012070BD00234A
:2021A0000380032070BD4FF42F732380012070BD094B0A4E1D69FFF751F903F0DBFC03F047
:2021C00073FC8021A847002880B2ECDD03F066FCF3689847EFE700BFA04D0100D870010082
:2021E000024B186800F00100704700BF9C21084010F0030370B506460D4602D10288110569
:2022000008D405F05FFB1B4B1B68DB0714D450B3002070BD438005F055FB164B1B68DA07C3
:20222000F5D5338813F4405F06D003F44063B3F5006F04BF104B1E60104B114C1E6023688F
:202240004CF250322B6003E02368013A2B60DED013F0FF0FF8D050B12878A0F10100B0FA9B
:2022600080F0400970BD05F031FB002070BD05F02DFBF1E79C21084080110020001004400B
:20228000041004400A4A01E0013A0ED0438803F44063B3F5806FF7D1428802F44062A2F5DB
:2022A0008060B0FA80F0400970471046704700BF20A1070030B583B005F004FB264C0546C7
:2022C000236819201B6A9847236812201B6A9847236819205B699847236812205B69083491
:2022E0009847236801205B699847236801205B6B98470128F9D11949194B1A4A0860186062
:2023000013689B07FCD5144C174818492268002303600B60136919209847236812201B695F
:202320009847B5B140F2FF35FEF728F8104B114A1149124800240D60046001A91A60104802
:20234000FFF756FFA0F10100B0FA80F0400903B030BD05F0BBFAE5E7B00100102C200840D2
:20236000282008602820084010100460141004600010044051000706000004601C1004408B
:202380000100060410B586B01422002101A812F083F940F60A0215499DF811300C680121AD
:2023A00061F3030301A8694605948DF81130ADF80420FFF71DFF012802D0002006B010BD93
:2023C0000B4801E00138F9D0BDF8063003F44063B3F5806FF6D1BDF8060000F44060A0F500
:2023E0008060B0FA80F0400906B010BD9411002020A1070000B587B01422002101A812F09C
:202400004BF940F609029DF81130012161F3030301A869468DF81130ADF80420FFF7E8FE22
:20242000012803D0C0B207B05DF804FB104801E00138F8D0BDF8063003F44063B3F5806FCD
:20244000F6D1BDF8063003F44063B3F5806F03D0002007B05DF804FB064B1A782AB9064A85
:202460000599012011601870DDE70120DBE700BF20A10700283000209411002030B587B01D
:2024800005F020FA324C0546236819205B699847236812205B6998472E4B1B68DA071AD5D1
:2024A0002D492E4A00230B6002A819461360102212F0F2F840F60D029DF81530012161F371
:2024C000030302A801A98DF81530ADF80820FFF78FFE01282ED0FFF78DFF2148214B0024E6
:2024E0000121214A0460196013689B07FCD51F4C012023689B699847236801205B6B984739
:202500000228F9D1124CFDF741FF236819201B6A9847236812201B6A9847236819201B69A4
:202520009847236812201B6998470DB905F0CEF907B030BD0E4A01E0013ACCD0BDF80A3077
:2025400003F44063B3F5806FF6D1BDF80A30C2E7B00100109C210840101004601410046019
:202560002C2008402820086028200840B801001020A1070008B505F051FA052803460BD0A8
:2025800003280DD018B101280FD0002008BD094B03221A60012008BD064A0120136008BDFB
:2025A000044B02221A60012008BD024A0521116008BD00BFD021084008B5FFF71BFFFFF7E5
:2025C000E1FE012802D0FFF759FF002008BD00BFF8B5174B174A19781268174B002914BF56
:2025E00000241C46D30700D4F8BD05F06BF90646124D1349134F144A14482B680F60002153
:20260000046011601B6A192098472B6812201B6A98472B6819201B6998472B6812201B69A7
:20262000984706B1F8BDBDE8F84005F04FB900BF2A3000209C2108400000C080B001001036
:2026400018100460000040801010046014100460084B1B7833B1002002460749074B0A60E4
:2026600018607047064B0749074A00280CBF18460846F2E72A30002010100460141004603B
:202680000200C0800800C0800000C080044A054B1178054A002918BF00231360704700BFEE
:2026A0002A3000200000C08014100460014B1868704700BF80110020014B1860704700BFAB
:2026C0008811002038B5064B064C1D68064A00234FF434410548256001F0E2FF012038BD47
:2026E000043004405C1100206127000060110020164B1B68DBB170B59B68984708B9002064
:2027000070BD05F0DFF8124B124C1D680646002115F1804022684FF0000341F10001994273
:2027200008BF904209D325601EB1012070BD0020704705F0CBF8012070BDFEF77BFD064AE8
:2027400006491368086001331360ECE788110020043004405C110020841100208C1100209D
:2027600070B5134B1B68B3B19B689847D8B9114D2B6A984701280ED1FFF7BAFF6B6A0446D4
:20278000984744B1BDE8704000230B4A4FF434410A4801F085BF0023074A80210748BDE850
:2027A000704001F07DBFFFF7A3FF0446E9E700BF88110020A04D010061270000601100200B
:2027C000F8B5224C2368002B3DD09B680646984700B3FFF78DFF1E4BB6F1404F1F6825D895
:2027E00022681C4BB2F90C401968E517641A65EBE1750022A41945F10005A01845EB070146
:20280000090241EA106143F609520023000211F0A7FCF8BD104D2B6A9847FFF769FF6B6AFB
:2028200098470B4BB6F1404F1F68D9D9FEF702FD0A4B1B68C3F17E4303F57203C34248BF3A
:2028400007F1FF37CCE71846F8BD00BF881100208411002094110020A04D01008C110020E7
:2028600010B5104B1B68DA0704D4FFF723FD012800D010BD0C4C23685B0204D40A4B6FF054
:2028800000421A6010BD094B012209481A7002F0CBF86FF480032360034B6FF000421A60D6
:2028A00010BD00BF9C21084010100460293000202806002008B5124B1B68D90707D411488B
:2028C00005F0B2FEFFF7F6FC012800D008BD04F0F9FF0D4B1A6812020BD40B4B1A6812F01A
:2028E0000A0F1CBF6FF00A021A60BDE8084004F0EDBF6FF400021A60044802F095F8ECE7F5
:202900009C2108403C5701001010046028060020014B1878704700BF2C30002008B500F0D1
:202920008BF880B208BD00BF00F010B938B50C4D04202B685B6998472B6804205B6B9847A9
:2029400001280446064BF7D11B6840F20140DB699847044B044A1C6013689B07FCD538BDD6
:20296000B80100102820086028200840034B1B68002B14BF01200220704700BF98110020FD
:20298000F8B503880446002B2ED0B3F5847F05D1184B1B788B4205D00120F8BD00230380F7
:2029A0000320F8BD144D2B6873B1144B144A1B6812685B680220174698470026301847F1A6
:2029C00000012B6898472E600E4B40F201401B689B6A98470C4B01210C4A196013689B075E
:2029E000FCD50B48FFF7D2FA4FF4847323800120F8BD00BFF808002098110020CC010010B9
:202A000004800240B801001028200860282008403806002008B5064B04201B685B6B98472F
:202A2000012803BF034B1868C0F34000002008BDB80100103C20084070B5274B1B689BB132
:202A4000264C0023224612F8011B29B90133042BF9D10020014670BD214A002502EBC3026E
:202A6000E55492E8030070BDFFF7D4FF00282FD01C4A1D4B1268134073B91C4A01211346DB
:202A800011601A68002AFCD110464FF4807104F083FF174B01221A6004F014FF0646114A9F
:202AA0001368DB07FCD5134B134A1B6814685B680220984723460022141843F1000516B1B3
:202AC0002046294670BD04F001FF2046294670BDFFF72CFFCCE700BF981100209C110020D5
:202AE000080900200880024001000080F09F0240A8025042CC0100100480024038B50E4D62
:202B000000240E4A2C6013680D4923F00103096813604B6931209847224620464FF48071FB
:202B200004F03AFF0122074B2A6019782246BDE83840054801F04CBFA80250420C80024000
:202B4000B0010010F80800204C06002010B5074C2378802B00D010BD01F096FE20700021F1
:202B60000348BDE8104001F097BE00BFF80800204C06002008B504F0A5FE003018BF012002
:202B800008BD00BF80F31088704700BF827A044B03EBC2035B68181AB0FA80F04009704723
:202BA000A0110020F0B54749837A85B001EBC303D3E84F2F12F0FF0F09D10124C3E8424FA7
:202BC0001346BFF35F8F3BB1032005B0F0BD0123BFF35F8F002BF7D10446827A3A4B01EB1D
:202BE000C20148601B68C078DB6B384F9847384DA37A3A6805EB0313526958689047A37A4A
:202C00003A6805EB03135868536B9847012806462F4B2E4AF3D1A17A126803EB0113D269B2
:202C2000986890472B4B2C4A1E6013689B07FCD5A37A03201B01EA582849536923F00F0375
:202C40005361A37A1B01EB581862A37A0A6826891B01E85817683EB1237A002B2CD0637A21
:202C6000002B14BF032602266168082332468DE80A0000231A49B847A37A134A26781B0161
:202C8000E85813686178A27800965E6C4FF0FF33B047A37A114E1B01EA58536843F00203F1
:202CA0005360A37A32681B01E85803A9136998470028F6D105B0F0BD637A002B14BF0126F4
:202CC0000326D1E7A0110020B4010010B8010010A05701002820086028200840C4010010A7
:202CE000006CDC0270B5214D837A05EBC3025268904201D0042070BD1D491E4A096802EB6B
:202D0000031304460A6A986890471B4B01221A601A4A13689B07FCD5194E607833689B6BD3
:202D2000984733684FF4005160789B6998473368A0789B6B984733684FF40051A0789B69E7
:202D40009847336820789B6B9847336820784FF400519B699847A37A002005EBC303586027
:202D6000A37ABFF35F8F05F8330070BDA0110020B8010010A0570100282008602820084067
:202D8000B40100102DE9F04F364C857A85B004EBC5046468A04203D0042005B0BDE8F08F2D
:202DA0001F46314BDFF8CC901B6809EB051504465B6B686890460E469847012803D0052064
:202DC00005B0BDE8F08FA37A284909EB0312D26809681142F3D00E9A0F9902EB010AC24573
:202DE0005246B8BF4246002A019239D0D8BF03AD2ADD18464FF0000B03ADDFF874A000E005
:202E0000A07AC345B4BF16F80B1000210391DAF80020000159F8000052689047A17ADAF87D
:202E200000200901D26859F80100294690470E9B9B45B8BF039A019BB8BF07F80B200BF1C0
:202E4000010B5B45DCD1A37A094E00E0A37A32681B0159F803002946136998470028F5D1E6
:202E600000209AE7A0110020B801001078200840C4010010A057010038B5124A124913486B
:202E800005F0D2FB124805F0CFFB124C04F1600514F8023C13B1237C012B03D92034AC42A8
:202EA000F6D138BD074A0849084805F0BDFB0A4805F0BAFB204601F0B1F9084805F0B4FBC6
:202EC000ECE700BFC0570100684C0100704C0100C4570100A6330020DC5701000881010003
:202EE00010B5054B054C01221A700021A3689847E368BDE8104018478C3C00203C8E010062
:202F00000021014801F0C8BCCC08002010B5BAB004460A46684628210AF0BAFB6B46044A70
:202F2000C0210AA805F0A6FB0AA8A0473AB010BDE0570100F0B50746B1B0D9B10D46012689
:202F4000002404B3E3070DD52B78134AC021684605F090FB6846B847082E12D00136013589
:202F60000134EEE70D4AC021684605F083FB6846B847E9E768460A4AC02105F07BFB684675
:202F8000B84731B0F0BD2B78034AC021684605F071FB6846B847E1E7F4570100CC800100B6
:202FA000E4570100F0B50388B1B006460D461BB36F2B1CD1254B264F186843683A6829462F
:202FC00024489847012836D96C46234AC021204605F050FB2046A84720492846FFF7AAFFFD
:202FE0001F4AC021204605F045FB2046A84700233380032031B0F0BD13781446202B03D10C
:2030000014F8013F202BFBD02021204611F0B2FB0F4F386018B1002300F8013B38602046E5
:2030200000F07EFF094B186038B10A4A00216F2311803380C1E70020DCE76846094AC021B6
:2030400005F018FB68466C46A847BEE7B0110020B8110020B4110020345801007830002070
:2030600038580100FC57010000F042BF074A106858B170B40648074E074D00241460317054
:203080002B80006870BC01F0CFBC704710120020F01100202D3000201630002030B5038808
:2030A000B1B004465BB90D46074AC021684605F0E1FA6846A847054B05489B6A984700230D
:2030C0000320238031B030BD085901003C8E01002C59010030B50388B1B004465BB90D4627
:2030E000074AC021684605F0C5FA6846A847054B0548DB6A984700230320238031B030BD27
:20310000345901003C8E01002C590100F0B50388B1B0074623B1002303203B8031B0F0BD8F
:20312000114A0D466846C02105F0A4FA6846A8470E4802F067F806460028ECD074682368E4
:203140005BB1A3680A4AC021684605F093FA6846A84754F80C3F002BF3D1304602F0C2F8AE
:2031600006460028EAD1D6E758590100BC110020145D010070B50388B0B0054623B1002300
:2031800003202B8030B070BD0C46344AC021684605F070FA6846A047314B324A1B68C021A5
:2031A000314E684605F066FA6846A04733682F4AC021684605F05EFA6846A0473368002BAD
:2031C000DDD006F031FD064603F052FA284A0346C021684605F04EFA6846A047254B264A97
:2031E0001B68C021684605F045FA6846A047234B234A1B78C021684605F03CFA6846A04737
:20320000204AC021684605F035FA6846A04716B3311D2046FFF78EFE1B4AC021684605F014
:2032200029FA6846A047FDF7BBFF184B184A1B68C021C31ADB09684605F01CFA6846A047F0
:2032400008F03AFE134A0346C021684605F012FA6846A04793E7104ADFE700BF7059010050
:20326000AC1E002080590100A41E002098590100B0590100DC1E0020C4590100B83000206C
:20328000DC590100F45901000881010040310020105A0100385A0100085A0100F0B50488FD
:2032A000B5B0074624B1002303203B8035B0F0BD0D4608F029FA18B102203C8035B0F0BD4D
:2032C00007F07EFA064604A8002E3AD0204AC02105F0D0F904A8A847306901F093FF044645
:2032E000F288B388C021009204A81A4A05F0C2F904A8A847F4B1628A237D0292228A04A82E
:203300000192617D144A0091C02105F0B3F904A8A847A11D2846FFF70DFE104AC02104A81C
:2033200005F0A8F904A8A847204601F0DBFF04460028E0D1304607F049FA06460028CBD148
:20334000B1E7074AC02105F095F904A8A847AAE7805A0100905A0100BC5A0100088101008D
:20336000605A01002DE9F0430788B3B00546002F2ED188461446002A33D01678002E3BD1C1
:203380003C49304611F05EFA00282CD13A4E0123336014B12378002B39D1384F00233B609B
:2033A00002AC3368D3B938683549364A364B002818BF0A46C02100922046344A05F05AF92B
:2033C0002046C047386805F0EDFF306805F0D6FF00232B80032033B0BDE8F0832C4B294AC7
:2033E000E8E71646CCE72B49304611F02BFA002838D1214E3060CCE72021104611F0BAF9B1
:20340000002833D000F8017B26460446B8E72021204611F0AFF908B1002303701549204655
:2034200011F010FA814658B902AC1B4AC0212046124F05F01FF92046C047C7F80090B0E78E
:203440001449204611F0FEF90028A6D02346134A02A8C02105F00EF902A8C04700232B8047
:203460000220B8E7334602A80D4AF2E72646044686E700BF205B0100EC110020C0110020CC
:20348000185B0100145B0100045B0100845B0100085B0100245B0100445B0100645B0100C4
:2034A000285B0100F0B50388B1B0054623B1002303202B8031B0F0BD0E46134AC021684619
:2034C00005F0D8F86846B047104C04F1600714F8023C13B1237C012B03D92034BC42F6D1FC
:2034E000E5E70B4AC021684605F0C4F86846B04721463046FFF70AFD064AC021684605F018
:20350000B9F86846B047E8E7A05B0100A6330020B85B01000881010070B50388CAB006467D
:2035200023B10023032033804AB070BD2F4A0D461AA8C02105F09EF81AA8A8470AF0D2FC24
:203540000AF02EFC044600284DD0294AC0211AA805F090F81AA8A847211D2846FFF7D6FC00
:20356000A3696BBB234AC0211AA805F083F81AA8A84709F075FA00282DDD09F071FA1E4A82
:203580000346C0211AA805F075F81AA8A84709F097FB04460028C4D02246642101A809F00C
:2035A00023FC01AB154AC0211AA805F063F81AA8A847204609F08AFB04460028ECD1B0E793
:2035C0000F4AC0211AA805F055F81AA8A84709F047FA0028D1DC0B4AC0211AA805F04AF8BE
:2035E0001AA8A8479DE7084ABDE700BFBC5B0100B85B0100E85B01000C5C01002C5C01007F
:20360000CC5B0100345C0100005C0100F0B50388CFB006466BB91B4B0D461B7B13B10CF066
:203620007DFE58B91EA8184AC02105F023F81EA8A8470023032033804FB0F0BD134F386889
:2036400001F0F2FF0446124A1EA8C02105F012F81EA8A847002CECD02246782168460CF0F4
:2036600005FF6B460B4AC0211EA805F003F81EA8A8472146386801F099FF04460028EBD136
:20368000D7E700BF1C3B0020485C010064080020605C0100145D0100F0B50388B5B00646F5
:2036A00023B100230320338035B0F0BD0C467B4AC02104A87A4D04F0DDFF04A8A0472B7B37
:2036C000002B00F0D8806B7B764AC02104A804F0D1FF04A8A047744B1B699847002840F073
:2036E000C880724AC02104A804F0C4FF04A8A0476F4AC02104A804F0BDFF04A8A0476D49B0
:203700002046FFF703FC95F854306B4AC02104A804F0B0FF04A8A047684AC02104A804F092
:20372000A9FF04A8A04766492046FFF7EFFB654A95F84030C02104A804F09CFF04A8A047FE
:20374000AB7BC021032B96BF5F4A604B52F8233004A85F4A04F08EFF04A8A047AB681B8CCB
:20376000002B00F090805B4A5849012B0CBF13460B46594AC02104A804F07CFF04A8A04705
:20378000EB8A564AC02104A804F074FF04A8A0472B7E434AFF2B16BF528B4FF0FF33534374
:2037A000C0214F4A04A804F065FF04A8A04795F85E30C021032B96BF4A4A444B52F82330B9
:2037C00004A8494A04F056FF04A8A047474AC02104A804F04FFF04A8A047686C304F002860
:2037E00053D00CF0D3FD01462046FFF78FFB7B6C3F4A9B79C02104A804F03CFF04A8A047DA
:20380000B5F84A303B4AC02104A804F033FF04A8A047AA8AB5F848300092C021364A04A8BE
:2038200004F028FF04A8A047EB7B344AC02104A804F020FF04A8A04795F85B2095F85A30A4
:203840000092C0212E4A04A804F014FF04A8A047697C2A7CA87C0A448DE80600029095F8A0
:203860005730284AC02104A804F004FF04A8A04717E7254A36E7254AC02104A804F0FAFEC6
:2038800004A8A0470DE7224B73E7224AC02104A804F0F0FE04A8A047B2E700BF845C010033
:2038A0001C3B0020A85C01003C8E0100CC5C0100DC5C0100383B0020E85C0100F85C010032
:2038C000483B0020045D0100EC650100705C01000C5D01007C5C0100185D0100245D010089
:2038E000405D0100DC650100645D0100745D01008C5D0100A85D0100B85D0100D45D01001C
:20390000E85D0100185E0100BC5C0100945C0100785C0100A05D010030B50388B1B00446F2
:2039200053B90D46074AC021684604F0A3FE6846A84705480DF024FB00230320238031B0E3
:2039400030BD00BF585E01002C5901002DE9F0410788B0B00546002F3ED188461446002A6D
:203960005CD01678002E63D14A49304610F06AFF002855D1484E0123336014B12378002B93
:2039800060D1464B0022FD2119805A809A80DA801A815A819A81DA813368414C13B32369D8
:2039A000984706466846002E31D13E4AC02104F061FE6846C04739494046FFF7A7FA3A4A6A
:2039C000C021684604F056FE6846C047A368314632489847E368984700232B80032030B085
:2039E000BDE8F0812369984748B1304AC021684604F040FE6846C047E3699847ECE76846B1
:203A00002B4AC02104F036FE6846C047E4E7294AC02104F02FFE6846C047DDE71646A3E7D4
:203A20002549304610F00EFF28BB1B4E3060A4E72021104610F09EFE48B300F8017B264620
:203A4000044691E72021204610F094FE08B1002303701249204609F0B3FD074600289BD1D1
:203A60002346164AC021684604F004FE6846C0472F800220B3E73346114AC021684604F081
:203A8000F9FD6846C04700232B800220A7E72646044669E7205B0100E8110020D41100205D
:203AA0003C8E0100A05E0100C45E0100E85E0100105F0100CC5E0100245B01008C5E0100CC
:203AC000745E0100F0B50588B3B004460E46D5B1B5F5847F12D1464D2B68454D23B34548AF
:203AE00000F014FD68B12B68F3B1434AC02102A804F0C0FD02A8B04700232B600023238097
:203B0000032033B0F0BD174612B11378002B2FD13A4AC02102A804F0ADFD02A8B0470023AB
:203B20000220238033B0F0BD354AC02102A804F0A1FD02A8B04733493046FFF7E7F9324AAF
:203B4000324B15881F78FDF72BFB2A4B009719684FF47A72401A02FB00F0C00901902B46CC
:203B600002A82B4AC02104F085FD02A8B047C5E72021104610F0FEFD00B1057021493846E2
:203B800009F01EFD054658B93B46224AC02102A804F070FD02A8B0470220258033B0F0BDE4
:203BA0001D4AC02102A804F065FD02A8B04715493046FFF7ABF9194AC02102A804F05AFD75
:203BC00002A8B047164A174B1268094D4FF4207108481A602E6000F085FC0423002280212B
:203BE000084808F097FE4FF48473238074E700BF10120020C4110020505F0100985F010012
:203C00005C5F010000120020163000202D300020785F0100285F0100445F01000881010045
:203C20003C120020F0110020F0B5B3B007460F4AC02102A80E4C04F01DFD02A8B84725681E
:203C400095B163681E68304600F088FB2B460190084AC021009602A804F00CFD02A8B847C9
:203C600054F80C5F002DECD133B0F0BDC45F010080060020D45F01002DE9F0430788B3B0DA
:203C80000546002F4CD18846144612B11378002B4CD1002000F040FB4D4B002418602346E7
:203CA0004C4AC02102A804F0E5FC02A8C0474046FFF7BAFF00232B80022034E0202130466D
:203CC00010F058FD08B1002303700A2201A9304610F0B6FFDFF80C91C9F80000002854D1BD
:203CE000019B9E4243D03B68984216D00146204600F0EEFA3849204610F0A4FD002851D17B
:203D0000D9F80030032B43DC08F016FB02A8334AC02104F0AFFC02A8C0474046FFF784FFF5
:203D200000232B80032033B0BDE8F0832021104610F020FD814600283BD00646204606F839
:203D4000017B00F0E9FA224F21463860244810F079FD10B13B680133A1D01EB199F8013028
:203D6000002BABD11F4B4FF0FF321A60002633461D4AC02102A804F07DFC02A8C047002376
:203D800002202B8033B0BDE8F0830428EFD8AAE708F0C2FA02A8154AC02104F06BFC02A834
:203DA000C047BAE720460E4910F04CFD0028A7D0B3E7204600F0B0FA054E21463060084882
:203DC00010F040FD0028CDD033680133CAD166E7F4110020285B0100EC5F010008600100CC
:203DE000E85F0100E4110020645B0100F05F010070B50388B2B0064623B10023338003202B
:203E000032B070BD0D460AF05DFA044602A8002C3FD0244AC02104F02DFC02A8A847224A4F
:203E2000C02102A804F026FC02A8A84720460AF041FA01462846FFF769F81C4AC02102A8B0
:203E400004F018FC02A8A84720460AF035FA01462846FFF76FF8627C1549042A94BF51F81A
:203E600022001448237C144AC021009002A804F001FC02A8A847114AC02102A804F0FAFB53
:203E800002A8A84720460AF023FA04460028C6D1B3E70B4AC02104F0EDFB02A8A84734800A
:203EA0000220ADE73C600100B85B010054600100C8650100705C01005C60010008810100A4
:203EC0002060010030B50388B1B004464BB9074A0D466846C02104F0CDFB6846A847FDF7C2
:203EE000CBFA00230320238031B030BD7460010010B5074C204601F081F92046054901F0E3
:203F000083F9BDE810400449044808F079BD00BFBC1100205C0600206D300000F811002075
:203F200070B505460D4801F06DF9064698B17468206818B909E054F80C0F30B1294610F0FB
:203F400081FC0028F7D1204670BD304601F0CAF906460028EBD1002070BD00BFBC1100200E
:203F600010B503880446442B0CD0452B14D01BB100230380032010BDFFF776F84423238038
:203F8000012010BD094B1B788B420DD162B10849002045230880238006490548FFF702F8FE
:203FA0000128EBD8002010BD012010BD903C002014120020B93F00000146014804F034BB9D
:203FC000E05701000021014800F066BC6406002070B5694CFCF7E8F8FDF796F800F030FD57
:203FE00000F07EFC0021654800F056FC00F01EFBFDF7F2F900F0BEF900F072FDFCF712F95B
:2040000001F00EFA01F056FE00F0BAFA2368022B3EDC08225A495B4810F064FA00215A485B
:2040200000F03AFC4FF0FF3009F010F823680546022B514E15DCFCF711F9FEF761FFFFF710
:20404000C1FF524800F0C6F8FDF7D4F900F062FC0446FDF703FA14F0FF0FF7D1FCF768F9E0
:20406000F4E74B4A4B494C4804F0DEFA4B4804F0DBFA3368022BDEDD002D7AD0A81C00F0D2
:20408000CDF82368022BD6DD454804F0CDFAD2E73F4A4049404804F0C7FA424804F0C4FA64
:2040A0002368022BB5DD3A4A3A493B4804F0BCFA3D4B3E48196804F0B7FA2368022BA8DD11
:2040C000334A3449344804F0AFFA394B3948196804F0AAFA2368022B9BDD2D4A2D492E481C
:2040E00004F0A2FA344B3548196804F09DFA2368022B8EDD264A2749274804F095FA48F2F9
:20410000A5112F4804F090FA2368022B81DD204A2049214804F088FA04212A4804F084FA23
:204120002368022B7FF775AF194A1A491A4804F07BFA254B2548198804F076FA2368022B02
:204140007FF767AF124A1349134804F06DFA204804F06AFA2368022B7FF75BAF084800F02D
:204160006DF82368022B7FF754AF0D4804F05CFA4FE7284683E700BF740600201807002064
:2041800078300020003500202C080020B095010014660100684C0100704C0100F86601001C
:2041A000088101001C6601003C8E0100546601006C82010064660100D87001007066010092
:2041C0007C6601009866010018300020D0660100E066010010B50446006830B1002100F0AE
:2041E0005BFB54F8040F0028F8D110BD10B541600446FDF70DF8206010BD00BF10B5044688
:20420000FDF706F894E80A00034A0B44C01A90428CBF0020012010BDFEFFFF7F00B58BB01A
:2042200002462821684609F033FA6946024804F0FBF90BB05DF804FBE0570100D0B170B54B
:20424000054601260024C4B1E30709D529780D4804F0EAF9082E0CD0013601350134F2E731
:20426000094804F0E1F92978064804F0DDF9082EF2D170BD054804F0D7B92978014804F091
:20428000D3F9E9E7F4570100CC800100E4570100A0B110B50B49044601F022FD20B1BDE873
:2042A0001040094804F0C0B9E18808480B0A43EA012189B2BDE8104004F0B6B9024804F002
:2042C000B3B900BF4C6801004C67010054670100042900D97047F8B506460D4601460C48EA
:2042E00010F0B0FA0B4C0746216851B157B9A3686268AB42A8BF2B46136054F80C1F002928
:20430000F4D1F8BD304610F09DFA0028EFD0F4E7E85F010080060020D0B1F8B50E4F39683A
:2043200099B106463D46002403E055F80C1F013459B1304610F086FA0028F6D104EB44048A
:2043400007EB840463681868F8BD4FF0FF30F8BD4FF0FF30704700BF8006002004289ABFB1
:20436000024B53F820000248704700BF1C6701005C670100704700BF10B50E4C2368B3B1F9
:20438000FCF70EFF226892E80A0092680B44191A4AB114685368926823441B1A994228BF09
:2043A0001946002AF5D1044B0144196010BD024A136010BD30120020341200202DE9F04139
:2043C000038805467BB1592B08D1872912D0822920D059232B800120BDE8F081002303804D
:2043E0000320BDE8F081254A0120136059232B80BDE8F081214F39680029EAD0CB689A4241
:2044000003D024E0CB689A4220D189680029F9D13960DEE7194F4FF000083C68002CD8D05C
:20442000002604E0A3682646002BD2D01C46204600F048FB0028F5D022468821E06800F0FD
:20444000C7FA78B10E4800F0EFFAEBE739608B68002BBED0D86882420BBF9B6819468B6011
:204460009B68F5E7E060A3682EB1B360C4F80880FFF782FFD1E73B60F8E700BF3012002012
:204480001807002010B50446104800F0CDFA1049E3680A684BB142B194420FD0134601E0CB
:2044A0009C420BD09B68002BFAD10A4BA2601B680C60E360BDE81040FFF75EBF054B1B68E6
:2044C000E360BDE81040FFF757BF00BF18070020301200203C120020014800F0A5BA00BF73
:2044E0001807002010B5044600F0D6FA2046BDE81040FFF7C7BF00BF10B5044600F0D4FA4B
:204500002046BDE81040FFF7BDBF00BFC068B0FA80F04009704700BF024B1868003018BF3A
:204520000120704730120020024B186808B1024B18687047301200203412002010B50F4B50
:2045400004461A68824213D072B19368984208BF134605D043B19A68944201D01346F9E725
:20456000A2689A60FFF708FF0023A360E36010BD82681A60FFF700FFF6E700BF30120020AD
:20458000034A04499079D37903EB00230B8070477830002018300020F0B5038883B00546FB
:2045A0005BB14A2B04D188291BD0012003B0F0BD00230380032003B0F0BD194800F022FEEE
:2045C000044630B1A168201DFFF78CFF2468002CF8D1144B01221A704A2301202B8003B070
:2045E000F0BD0F48019200F00DFE04460028F3D0019A031D9A4205D02468231D002CEBD0D5
:204600009A42F9D12146064800F050FE064E6269A369376832600BB1E06998473760DBE768
:20462000381200202E3000203C12002010B5064B002406481C7000F0E1FD2146BDE81040E6
:20464000034800F029B900BF2E300020381200202807002070B504460D48049D0078A26167
:20466000E361656130B9A1600A482146BDE8704000F0CABD084D094B2E68201D2B60FFF7C4
:2046800031FF2E602146BDE87040024800F0BCBD2E300020381200203C1200202807002048
:2046A00010B5044C82B024680094FFF7D3FF02B010BD00BF3C12002070B5094B04461B78C9
:2046C0003BB1084D084B2E6804302B60FFF714FF2E602146BDE87040044800F095BD00BF51
:2046E0002E3000203C120020280700203812002010B50A4B04461B783BB9C360036121463C
:20470000BDE81040064800F0D1BD0430FFF716FF2146BDE81040024800F0C8BD2E30002000
:204720003812002038B50D4B1D7875B904460C4800F068FD38B1844202D10DE0844209D006
:2047400000680028FAD1012038BD0430BDE83840FFF7DCBE002038BD284638BD2E30002011
:20476000381200202DE9F843DFF8A480274DD8F800702E68874247D077B33B4601E0002BA2
:204780003BD01B689842FAD133B3837B8946044623B3002383736FB1BC424FF0870106D03F
:2047A000BB7BDB0703D52246384600F033F83F68002FF1D1A3683BB14C4505D02C60002265
:2047C000832104F10C009847D8F80000844208D12368C8F800302E60BDE8F8833846844279
:2047E000F6D00028F7D003689C4208D0002BF2D01A68944204D01346F8E7BDE8F883034629
:2048000022681A602E60E7E73B46BDE73C1200204012002070B586687EB104460A48022330
:204820000460A37304F10C000D46B0470238012804D9832D02D00123A37370BD21462046BD
:20484000BDE87040FFF78EBF3C12002070B50C4A0C4B146800251D7084B1012601E0246889
:2048600064B1E37B002BFAD0A673E573204600228221FFF7CFFF2468002CF2D170BD00BF09
:204880004012002031300020024B1878421C1A70704700BF3230002070B50F4D2C6884428D
:2048A00006D034B1234600E01BB11B689842FBD170BD0028FCD00346084E04600A463468EF
:2048C0000120002198739981184681212B60FFF7A1FF346070BD00BF401200203C120020F0
:2048E00070B407480749084A0023084D084C8A2603700B6013602E70237070BC704700BF03
:2049000030300020401200203C120020323000202F3000202DE9F041234D2B780BB1FFF72A
:2049200095FF224E3378BBB12148224F0278013B02EB4201890001327C1802F01F020270C7
:20494000A068DBB233707F5CD4F8048098B1812F06D0827BD20705D428781844BDE8F08164
:204960000123837342463946FFF754FF337828781844BDE8F081104A146834B9ECE7A37B5C
:20498000D9070AD42468002CF0D02B78002BF6D0FFF75CFFA37BD907F4D5424639462046C8
:2049A000FFF738FFEEE700BF31300020303000202F3000204412002040120020024A034B34
:2049C00010781B78184470473030002031300020F0B40C4D2C78202C11D00B4B0B4E1B7898
:2049E000671C234403F01F0303EB43039B00F418A06062602F70F1540020F0BC7047012093
:204A0000F0BC7047303000202F3000204412002038B5837B034CDB07256801D5FFF7FAFE51
:204A2000256038BD3C12002038B1837B013B012B03D8024A01231370C37370473130002003
:204A4000FCF7F2BB38B5094C049D226822B180E82A002060002038BD024680E82A00084627
:204A60002260FCF7E3FB002038BD00BFC413002010B5084C206858B1002243688168226036
:204A80009847236823B1BDE810401868FCF7CEBB10BD00BFC413002010B541600446FCF7C1
:204AA0007FFB206010BD00BF10B50446FCF778FB94E80600C1F101031844904284BF5218E8
:204AC000226010BD10B50446FCF76AFB23686268C3F101031844904294BF0020012010BD84
:204AE000084B82B002AA42F8043D9A4288BFCD2103D903F8011B9342FBD10348002102B047
:204B0000FFF7CABE923C00203807002038B5134CFCF7A4FC2378124DCD2B08D0AC4202D35E
:204B20000EE0AC4214D014F8013FCD2BF9D1AC4202D30DE0AC420BD014F8013FCD2BF9D021
:204B4000FCF78CFCAC42064804D2001B80B238BDFCF784FC4FF6FF7038BD00BF923C0020BD
:204B60000050002070B5038804465BB1902B05D11848FFF7CBFC70B9012070BD00230380F4
:204B8000032070BD4FF4A0611248FFF7ABFC90232380012070BDFFF7B9FF0F4D0F4B064636
:204BA0005D1BADB2A8420DD90D4B1B68002B09DD0C4A0D490D4803F037FD2A4631460C48FF
:204BC00003F032FD0348FFF797FC90232380012070BD00BFC8130020923C00200050002023
:204BE00074060020F4670100FC670100704C01000068010010B5044690F84C2003460132B6
:204C000080F84C2080212030054AFFF749FD054B2246BDE8104019780020FFF7D9BE00BF8A
:204C2000F54B00008E3C002070B5038804464BB1CB2B03D1822909D0012070BD0023038012
:204C4000032070BDCB232380012070BDFDF792FFBFF35F8F104B00221E681A60BFF35F8FE3
:204C60000E4DFDF78FFF286820B9EBE755F8040F0028E7D090F8453026FA03F3DB07F5D51E
:204C8000FFF750FD0028F1D02B68054A18460221FFF706FDEAE700BFE4130020F0040020D1
:204CA000E14C0000034A1368034303481360FFF7BBBE00BFE41300204807002010B5044638
:204CC00090F84500FDF7D4F910B994F8440010BD012806BF94F8440080F00100002010BDC4
:204CE00070B50446FFF71EFD00B970BD04F120052846FFF717FD06462046FFF7DFFF01280D
:204D00000ED00028F1D1002EEFD12846FFF7F0FC0D4B22463046BDE870401978FFF758BE65
:204D2000002EE2D000262846234684F84C60074A7E21FFF7B5FC064B30462246BDE8704053
:204D40001978FFF745BE00BF8D3C0020F54B00008F3C00202DE9F843FFF796FD214B224C42
:204D60001870FFF791FD214B214F1870FFF78CFD204D2368204A00212870B9607A6043B340
:204D8000DFF880801D4E0125D8F80020996C926B93F8450041F08C0990472368494693F8A7
:204DA0004500FDF727F92268D8F8003092F8450005FA00F232601B6B98472368BA6893F821
:204DC000451054F8043F05FA01F10A43BA60002BDAD10B480021FFF75FFDBDE8F8430448CF
:204DE00000F0A4B98F3C0020F00400208D3C0020D81300208E3C0020A54C0000E020024056
:204E000048070020B4010010F8B5048805466C2C0BD07E2C04D0CCB1002303800320F8BDEE
:204E200085291AD11D4C002323601C4C264604E00A2814D023687E2B2ADD194800F0DEFA98
:204E4000431CF5D16C232B800120F8BDFFF71CFD144A124B10701C60E7E70120F8BD0F4C58
:204E6000114F23680F4A581C0026117820603A463046FE54FFF7ACFD0C4B3246186885216F
:204E8000FFF7A6FD0028CED17E232B800120F8BD05495A1CC8543260CFE700BF7014002005
:204EA00068140020903C0020741400203C1200200D281FD010B5104C0146237833B10A2817
:204EC00010D00E48FFF7B0FD012010BD0C4800F07FFA0028F5D1012308482370FFF7A4FDC2
:204EE000012010BD064800F073FA0028E9D000232370E6E7002070473330002058070020DC
:204F00006814002008B505490548802200F058FABDE8084000210348FFF7BEBCE8130020D5
:204F2000681400205807002010B1837A012B01D901207047FDF736BE10B1837A012B01D90E
:204F400001207047FDF7CEBE10B50446FDF71EFE08B9042010BDE178024A01238B40136021
:204F6000002010BDA0200240C178034A01238B4013600020704700BF9020024010B584B0D9
:204F80008DF80F1010B1827A012A02D9012004B010BD0446FDF7FAFD10B9032004B010BD66
:204FA000002320460193009301220DF10F01FDF7E9FEECE780B170B5847A82B0012C02D9D4
:204FC000012002B070BD044616460D46FDF7DEFD20B9032002B070BD0120704700233246BB
:204FE0002946204601930093FDF7CCFEE9E700BF80B170B5857A82B0012D044602D901206D
:2050000002B070BD16460D46FDF7C0FD20B9032002B070BD01207047002200962B4620460F
:2050200001921146FDF7AEFEEAE700BF70B5154C154D26782B683046DB6B98472B68A078F7
:20504000DB6B9847637893B90123104A03FA06F61660E3780B4A917823B101230C4A8B4045
:20506000136070BD0123094A8B40136070BD0123074A03FA06F61660E378024A9178002BEF
:20508000EBD1EFE7B84C0100B4010010A020024090200240F0B40F4C0F4F22460F4E00237B
:2050A000012540FA03F1C90706D5517859B114F8131005FA01F131600133022B02F1020215
:2050C000EFD1F0BC704714F8131005FA01F13960F2E700BFB84C010090200240A020024063
:2050E000F0B40F4C0F4F22460F4E0023012540FA03F1C90706D5517859B114F8131005FA6B
:2051000001F131600133022B02F10202EFD1F0BC704714F8131005FA01F13960F2E700BF40
:20512000B84C0100A0200240902002400146014800F06AB8F414002038B50546074800F035
:2051400061F848B10446A068284002D0636803B198472468002CF6D138BD00BFF4140020B8
:20516000014800F04BB800BFF4140020002301390170437083707047427881780378511A48
:2051800033EA010104D00132134043700120704700207047427883780178D31A31EA0303F8
:2051A00014BF10464FF0FF30704700BF0346807859781A78091A11421DBF411C0A409A703B
:2051C0004FF0FF30704700BF8278437801789B1A0B4214BF10464FF0FF30704743788278B8
:2051E00000789B1A184070474378817802785B1A13420CBF01200020704700BF0023036073
:20520000704700BF0068704710B404685CB1A14223D023680BB906E0134699420FD01A681C
:205220001C46002AF8D100230B6002680AB910E01A461368002BFBD1116010BC70475CB19B
:205240000A68226000221A6000230B600268002AEFD1016010BC70470C4622682346026051
:20526000F0E700BF30B4056865B1A94219D02B682C460BB906E01346994207D01A681C46BF
:20528000002AF8D10D60016030BC704744B10A68226000221A6005680D60016030BC704747
:2052A0000D462A682B460260F3E700BF10B404685CB18C4212D023680BB906E01346994247
:2052C00005D01A681C46002AF8D110BC70472CB11A68226000221A6010BC70470A680B46DC
:2052E0000260F7E700B10068704700BF10B504464288002140680FF0CFF923886288A068D9
:2053000002FB03F2BDE8104000210FF0C5B900BF30B44588BDB141680B7863B14A1C002361
:2053200003E01478114601322CB10133AB42F8D1002030BC704701220A700288806830BCEF
:2053400003FB020070472846F3E700BF70B4448882685CB18A4206460BD00588002301E024
:20536000914207D00133A3422A44F9D1FF2070BC704700237268D05C0028F8D00138D054BA
:20538000726870BCD05C704783688B4208D84288008800FB023081422CBF00200120704767
:2053A00000207047418849B143680020194413F8012B02B901308B42F9D1704708467047B5
:2053C0000023013A0160027143718371704700BF10B44479827903460079A21A30EA020265
:2053E00009D01A68012011555A79197902440A405A7110BC7047002010BC704703468079A3
:2054000059791A79091A114207D010B4411C1C680A40205C9A7110BC70474FF0FF307047BC
:2054200008B50448FFF762FFBDE808400248FFF75DBF00BF740700206807002038B50F4896
:20544000FFF766FF044688B10D48FFF761FF0546206060B100F0BCFA05F19C01A5F8800091
:2054600005F1820000F0B6FB204638BD38BD21460248FFF76BFF284638BD00BF6807002001
:205480007407002010B5044607482146FFF77CFF00B910BD21680548FFF758FF2146BDE886
:2054A00010400148FFF752BF680700207407002010B5044609482146FFF766FF00B910BD7A
:2054C0002468B4F88010204600F064FB04F19C0104F18200BDE8104000F08EBB6807002089
:2054E00010B5044603482146FFF74EFF00B1206810BD00BF680700200368B3F88000704707
:20550000006800EBC1003430704700BF036803EB4101B1F88200704738B50F4D002818BFD8
:2055200005460E48FFF76EFE044650B1211D284600F0D6FB40B92046FFF7D4FE0446002817
:20554000F4D14FF0FF3038BD054B06489B68E41AA41000FB04F038BD4C680100A81A002055
:2055600080070020ABAAAAAA10B10368072B0ED90C4A1368072B12D830B40B4D5C1C036092
:205580008160146045F82300012030BC7047064A52F823309842EBD1816001207047002036
:2055A000704700BF9C1B00207C1B0020F8B5064608461A4F1A4C1B4D36B358B1F168736843
:2055C000401A90FBF3F0411C24D0BB6800EB400003EB8000FFF786FED8B1BB68C31A9B1048
:2055E00004FB03F35A1C17D07268F06803FB02F3C0180ED093FBF2F35A1CDDD0EB5C326807
:205600001341D907D8D5F8BD3046FFF76BFE3046F8BDF8BD0020DDE70020F8BD80070020DF
:20562000ABAAAAAA6C1B002010B504461648FFF7E9FDD8B1154A164B9168401A801003FBA7
:2056400000F394B1591C17D06268E06802FB03F3C0180BD093FBF2F35A1C07D00D4922685E
:20566000CB5C1341DB0701D510BD204601462046BDE81040FFF79ABF002001462046BDE861
:205680001040FFF793BF00BFA81A002080070020ABAAAAAA6C1B00202DE9F04F754D83B090
:2056A000002918BF0D460446284690469946FFF733FF421C1ED00746002C34D06368E66820
:2056C0001A4603FB0766002130460EF0E5FF6EB1E2686368B21A92FBF3F35A1C06D0664819
:2056E0002468C15C0122A2400A43C254304603B0BDE8F08F614F3846FFF70AFE0646E0B143
:20570000804641465E48FFF77FFDBF685D4BF61BB610294608F1040003FB06F700F0DCFA51
:205720000CB1791CCAD10021626808460EF0B4FF0026304603B0BDE8F08F494640460AF010
:205740008DFD0028F4D0FFF7E7FE431C4ED0BA684D4B00EB400912EB8909195C46D001B1C1
:205760001E54454BC2EB090200934E46DFF82081DFF810A101941EE0996849B30AFB0CFCAB
:20578000BCF1FF3F14D0D3F804B0D8680BFB0CFE10EB0E000CD09EFBFBFEBEF1FF3F07D030
:2057A000009C1B6814F80EE04EFA03F3DC070BD4364B98450FD058F8043F4FEAA20C002BEE
:2057C000DAD10AFB0CFCF3E78847BA68C2EB09024FEAA20CF5E7009A002349462848019C72
:2057E00002F80C30C846FFF761FD8AE72448FFF709FD814600289BD04FF0000BDA46DFF89D
:205800008880204E4846019402E0FFF76BFDD0B1BA68821A931006FB03F318F8031000298A
:20582000F3D1154CE35C0094CBB1DC0748BF01315B10FAD1BAF1000F01D05945E5DAB1B158
:205840008B468246E1E7019CBAF1000F3FF470AFBA68094BD1460093C2EB0A0285E7BAF14E
:20586000000F04D0BBF1000F01DC9B46CDE78146019C7AE74C6801006C1B00208007002050
:20588000A81A0020ABAAAAAA981A0020981B0020781B002010B504460846FFF73DFEB4B132
:2058A000411C12D06168E26801FB00F3D0180DD093FBF1F35A1C08D006492268CB5C1341CE
:2058C00013F0010F08BF002010BD002010BD204610BD00BF6C1B0020034610B311B370B487
:2058E000C56844684A1B92FBF4F2501C1CD00F4E1C68B55C012000FA04F425EA0404B4547B
:20590000DD685C68491B91FBF4F14A1C07D0084C1D68625C0123AB4022EA0303635470BCD1
:2059200070477047084670470020EBE76C1B0020981A002088B189B1C2684368891A91FB12
:20594000F3F14B1C0CD010B4064C0368625C012000FA03F31343635410BC7047084670473B
:2059600000207047981A002090B191B1C2684368891A91FBF3F14B1C0DD010B4074C03684D
:20598000625C012000FA03F322EA0303635410BC7047084670470020704700BF981A00207F
:2059A00088B189B1C2684368881A90FBF3F0431C08D0064B00EB40009B6813EB800002D089
:2059C00004307047002070470846704780070020F8B50E4D0E4C2A7823881344802B01DDCA
:2059E0000020F8BD06460B4F39460EF07BFD0A4B29781B7870181944C9B2394422880EF029
:205A000071FD287823881844F8BD00BF343000201A300020A01B00201C300020F0B4104BC9
:205A2000104F1B783E78104A33441288DBB213449BB21A18802A10DC013B1BB2002B07DB44
:205A40000A4AD45C5D1ED1182BB20C54591CF8D130443870F0BC012070470020F0BC7047C0
:205A60001C300020343000201A300020A01B0020084A138883420ADB10B4074C80B2218868
:205A80001B1A138008442080012010BC70470020704700BF1A3000201C300020014B18805E
:205AA000704700BF1A300020044B054A1B78127804481344DBB21844704700BF1C300020DD
:205AC00034300020A01B002000487047A01B0020014B1888704700BF1A300020034A044B25
:205AE00010781B781844C0B2704700BF343000201C300020054A064B10781B78054A034406
:205B00001088DBB2184480B2704700BF343000201C3000201A3000200649074A074B127886
:205B200008781B881044C3F18003C0B2181A80B2704700BF343000201C3000201A30002011
:205B400038B5094D094C1A22002109480EF0A4FD2946204600F0C0F8294604F10800BDE8D2
:205B6000384000F0B9B800BF4C6801004C3000205C30002004480549054A002303800B8076
:205B80001370FFF7DDBF00BF1C3000201A30002034300020802928BF802170B50C460646E3
:205BA0000849094A094D00230B8013702B80FFF7C7FF3146224606480EF094FC2C80204686
:205BC00070BD00BF1C300020343000201A300020A01B002010B50C461A2205490EF082FC87
:205BE0002046BDE81040102202490EF07BBC00BF5C3000204C30002010B50C461A220146F7
:205C000004480EF06FFC2146BDE81040102202480EF068BC5C3000204C300020024B23F825
:205C200010100120704700BF5C300020014B33F8100070475C30002008B5044B0D3803EBD8
:205C4000C00000F049F8012008BD00BF4C300020024B0D3803EBC000704700BF4C300020C0
:205C60000149024800F03CB84C6801005430002070B505460E480E46FFF7C4FA044660B12A
:205C8000012D0CD01DB963680BB1984770B92046FFF728FB04460028F2D1002070BDA36889
:205CA000002BF4D0304698470028F0D070BD00BF201C0020054B10B51B689847044B5B68E7
:205CC0009847BDE81040034B5B681847A04D0100D87001006C82010008220EF003BC00BFB4
:205CE00008B508220EF0CCFBB0FA80F0400908BD08B50848FEF7E0FC0748FFF795FC40B12B
:205D0000037A01465B0803720348FFF74FFC0028F6D108BD803000208C0700200146014894
:205D2000FFF7B8BD8C07002080B110B50446FBF737FA2368C01AB0F5963F05D2207A032867
:205D400094BF0020012010BD002010BD00207047F8B5074615460E46A1B1022900D0F8BD73
:205D600001463748FFF796FD0446002837D0FBF717FA237A20602B44102BA8BF1023237262
:205D80000C350EE001462E48FFF784FD044630B3FBF706FA237A20602B44102BA8BF102320
:205DA0002372FBF7FDF92368ED01C01AB0F5963FADB211D2237A042B35BF19220A224B23C2
:205DC0005A2302FB05F5A2881E4903FB0253A1FB03235B09A380F8BD19224B23F1E739466D
:205DE000002309221648FFF757FC04460028B6D0B0F906300BB36FF03B029342A8BF1346E8
:205E00006FF058029342B8BF13464FF470625A3392FBF3F39BB2B3F5C07F28BF4FF4C0737E
:205E2000A380FBF7BDF9237A20602B44102BA8BF1023022E2372B4D1A2E74FF48073EFE757
:205E40008C0700201F85EB5138B505460420FFF7EDFE294604B21C48FFF71CFD78B1B0F908
:205E6000062004EB84045A23640003FB0244174AE31782FB0424C3EB6414C48038BD0346B8
:205E8000294609221048FFF707FC0028F6D0C480B4B16FF03B03A342A8BF23466FF0580275
:205EA0009342B8BF13464FF470625A3392FBF3F39BB2B3F5C07F28BF4FF4C073838038BD9F
:205EC0004FF48073FAE700BF8C0700201F85EB5110B50848FFF7A8FB58B1044621460548A4
:205EE000FFF7FAFC21460348FFF760FB04460028F4D110BD8C07002010B500210548FFF7D3
:205F000033FBBDE810400023034A4FF4E1310348FEF7C6BB8C070020F15C00008030002008
:205F2000F8B5FBF73DF9104F06463C4600250D20FFF78EFE2146FFF7D3FE103420B901350A
:205F4000102DF4D10020F8BD0720FFF76FFE07EB05152B7B8342F5D1A868301AB0F5206F15
:205F60008CBF00200120F8BDE41C0020F8B5194F00243D460D20FFF76BFE2946FFF7B0FE65
:205F800018BB0134102C05F11005F3D112480F24013C07EB041600E0013C314610220EF054
:205FA000A1FA3046103E002CF6D10720FFF73EFE3873FBF7F5F8B8600D20FFF749FEBDE885
:205FC000F84001460348FFF787BE002CEDD02846DEE700BFE41C0020D41D002040B130B4DB
:205FE0000D460446114628461A46234630BC1847704700BF032912DD8AB110B413889278F6
:20600000C3F30B030AB143F400431C0A02210F228370C4700170427010BC042070474FF0DD
:20602000FF307047012906DD2AB100223F2302704370022070474FF0FF30704701290CDDD8
:206040005AB193880222C3F30A03A3F5F0439BB2190A03704170104670474FF0FF32FAE776
:20606000072916DDAAB1034630B491680625817091681A24090AC170518908201971D17A0E
:206080005971117B9971127C1D70DA715C7030BC70474FF0FF307047002A3FD0F0B592F83E
:2060A0002E5092F82A4005EB8506331D04FB03F3012C03F101072DDC042D2BDC03F1020E40
:2060C0008E4527DA012C847005D01B220770033342701846F0BD92F82B10C170918D0171C9
:2060E000918D8571090A4171002DEED001460644148E05318C70148E0632240ACC70948D12
:206100000C71948D240A4C7192F82E408C71B142EED1DAE74FF0FF331846F0BD4FF0FF33A1
:206120001846704730B402B3537C002B15BF1A24022419250125A14217DD8370537C6BB166
:20614000014602F11003283233F8024F02314C701C8893424FEA14248C70F5D11C230570CD
:2061600043700235284630BC70474FF0FF35F9E7DAB3F8B5B2F84A30042B33D892F848E087
:20618000BEF1000F2AD10223012799422ADD04461546002680F802E0C67006714671867197
:2061A000C67106724672B2F84A3002F14C018372B2F84A300C301B0AE372B2F84A200EF033
:2061C00091F9B5F84A30C82223441E73B5F84A30B81C23445E7327706270F8BD03F10C07D4
:2061E0000D33D2E74FF0FF30F8BD4FF0FF307047002A00F034812DE9F04700259046D57002
:20620000002900F01E8101291DD90746A9462E460446427814F8023B023943EA02231BB24F
:20622000012D5FFA81FA9AB24CD03AD3022D0ED03046F1B2C1EB0A0111F0FF01204400F0B5
:20624000F8800129E4D14FF0FF30BDE8F087002B73DBD6B25645C2F30622F4D81B2A00F0E3
:2062600096801C2A00F0CE801A2AECD1062EEAD18378C8F80830C27843EA0223C8F808301D
:20628000027943EA0243C8F80830427943EA0263C8F80830837988F80C30C37988F8103020
:2062A00069E0002BCFDBC2F3C7137E2B02F07F063AD07F2B15D1002EC5D1E01B88F8030035
:2062C000BDE8F087002BBEDAC2F3C323012BC2F30A0223D00F2BB6D1002AB4D1E01BBDE854
:2062E000F0875645AFD81E2BADD1022EABD1C278837843EA02231BB29AB2D10B88F8021084
:20630000110545BF6FEA02536FEA1353C3F30B031BB20221A8F8003008468BE700219146BA
:2063200008460E46022585E7002E8CD1E31B88F803303146304601257CE7C2F30A06564516
:20634000C2F3C3223FF67FAF092A7FF47CAF002E3FF479AF8378012E88F848300BD0C27AAD
:20636000837A43EA0222042AA8F84A2003D802F10C039E426AD0B31CC3EB0909B9F1000F58
:20638000FFF661AF3046F1B208BF012552E7002E3FF459AF8378002BEDD0012B7FF453AFCC
:2063A0008379042B3FF74FAF03EB83014A1D96427FF449AF012288F82A20C27888F82B2070
:2063C00090F805E0027942EA0E22A8F82C20827988F82E20002BCED04346014490F808E0BD
:2063E000C279053042EA0E221A8690F805E00279063342EA0E229A858279814283F82E200E
:20640000ECD1B8E7012E18D0192E7FF41CAF0346827800F1180E88F8112008F110011879DE
:20642000DA78023342EA0022734521F8022FF6D1A1E7C01B8DB1BDE8F087837888F8113045
:2064400099E7084688F80310BDE8F08700F10C0108F14C000EF046F88DE7C1B2F2E74FF041
:20646000FF30704730B591B0FFF71EFB0446FFF72FFB6A460146204600F0FAFAA0B30446B9
:20648000FFF7F6FA80B39DF810100C20FFF7C6FB9DF817308BB1BDF81C5000F0E9F885427A
:2064A00005D04FF6FF73BDF81C209A421CD169469DF8170000F0A4F9D0B102A90D20FFF75F
:2064C000BBFB9DF815303BB14FF6FF710720FFF7A5FB204611B030BD9DF81A100720FFF7DE
:2064E0009DFB204611B030BD4FF0FF3011B030BD69460E20FFF7A0FBDFE700BF98B392B351
:20650000F8B506460C2014460D46B04700232074A3741DB30122E37462750920B04700277C
:2065200002232376A07567740720B047A07600F09FF8E0830A20B047012816BF032367766D
:20654000637600F095F8A0830B20B047012813D055B10223E37501232375F8BD0820B04781
:206560006575E074D9E770470323E375637E022BF1D000232375F8BD0023E375F6E700BFA2
:2065800030B591B0054600F073F84FF6FF73984258D04022684600210EF07EF82D4B1A78C7
:2065A00022B35DBBFFF75CFB6A46C1B22A48FFF7A5FFFFF755FB00283CD0FF238DF8003021
:2065C0008DF801300D20FFF743FB014602A8FFF783FBFFF769FA0E90FFF77AFA0F90684691
:2065E00000F06AF90446CDB911B030BD01221A70FCF794F9194B1870002DD3D00720FFF7C4
:2066000015FB0028CED1154C2178F1B189B20720FFF704FB237801332370C3E7FFF7FEF9B7
:2066200080B1FFF751FA0146684600F091F9204611B030BD0E20FFF70BFB01466846FFF750
:206640004BFBBFE74FF0FF30CEE7012319462370DDE700BF363000202D5C000035300020FE
:206660000120FFF78DBF00BF0020FFF789BF00BF014B1888704700BFF4080020014B188079
:20668000704700BFF4080020B8B1037A30B4022B14D00378022B19D00379D3B9447A14F032
:2066A000030418BF0124C37913F0030318BF012301B10C6002B1136030BC7047C579447AB4
:2066C000037945B90CB9012BF2D0CBB100231C46EEE70024E7E704B9C3B1032D21D1032C43
:2066E00016D0022C18D0002BF0D1022D08D0032D15D1A4F10204B4FA84F46409D8E723463F
:20670000023C012C8CBF00240124D1E70123ECE7002BDBD10123ECE7002BF7D001230024C3
:20672000C6E7022DDDD1002CF6D1002BE7D02346BEE700BF30B504460D46084683B0002109
:2067400006220DF0A9FF637DD9075CBF01232B70237E012B23D901AA694604F11000FFF7B4
:2067600093FF009B0BB10223EB70019B0BB102236B70E37D03F00303022B03D0032B0CBF06
:2067800008230023AB70637E03F00303022B03D0032B0CBF082300232B7103B030BDE37DD3
:2067A0009A0706D0637E9B0703D0E28BA38B9A4202D000232375CEE701232375CBE700BF26
:2067C00010B5002182B0019198B1044601AA1030FFF75AFF019B63B1084AA38B12889A429C
:2067E0000AD04FF6FF70181AB0FA80F0400902B010BD002002B010BD0120FBE7F408002039
:2068000002280CBF022308230B4403E013F8012DFF2A03D18B42F9D1012070470020704785
:20682000002844D0B0B50446637E1746084663B1022B38D004F1080108228B1803E013F8DF
:20684000015DFF2D1AD19942F9D110B11949FFF743FAE37D5BB1022B0CBF02220822A3185B
:2068600003E013F8011DFF2913D1A342F9D14FB138461049FFF730FA0120B0BD082A03D0C7
:206880000020B0BD0120B0BD0028E2D0FFF724FADFE7082AF4D1002FF4D038462146FFF764
:2068A0001BFA0120B0BD1A4604F10801C5E70020704700BF4C68010000B583B06946FFF753
:2068C00039FF9DF800309DF801109DF8022002330B449DF8031013449DF804200B449DF83E
:2068E00005001344184403B05DF804FB70B4447885780678C278E4002D01037905F01005AC
:2069000004F008042C43520106F007052C4302F020029B01224303F0400313430B7045796A
