:020000040000FA
:2000000000500020810F0000790F0000610F00007D0F00007D0F00007D0F00000000000044
:200020000000000000000000000000007D0F00007D0F0000000000007D0F00007D0F000090
:20004000AD3B00007D0F00002D4400007D0F0000A9320000513800007D0F00007D0F0000B3
:200060007D0F0000814400007D0F00007D0F00007D0F00007D0F00007D0F00007D0F0000E7
:200080007D0F00007D0F00007D0F00007D0F00007D0F00007D0F00007D0F00007D0F000000
:2000A0007D0F00007D0F00007D0F00007D0F00007D0F00007D0F00007D0F00007D0F0000E0
:2000C0007D0F0000C9460000294B1B689B0702D44FF000407047F0B5002083B0452102F090
:2000E00035F90DF106010120022201F071F838B901A8022101F096F84FF0004003B0F0BD13
:200100000DF106010020022201F062F80028EFD0BDF806305BBA9CB2200BADF8043016F00C
:2001200099FD16F03BF90646C4F30B000F4616F0A1FD0DA3D3E9002304460D4630463946C7
:2001400016F0FEFD02460B462046294616F0F8FD17F090F8074917F0EBF917F039FB03B07D
:20016000F0BD00BFAFF300807B14AE47E17A843FDC0E00200000C84208B51F4B1B68032B63
:2001800033D1431E012B30D81C4A1D4B012812881B8812D0184616F05DFD0022194B16F066
:2001A000CFFD0022184B16F0CBFD17F063F8174917F0BEF917F00CFB08BD104616F04AFD2A
:2001C0000022104B16F0BCFD09A3D3E9002316F0B7FD00220E4B16F0FFFB17F04BF80B4985
:2001E00017F0A6F917F0F4FA08BD4FF0004008BD0000000000A06440000F0020AA320020EC
:20020000AC3200200000F03E000059400000C84200004440000000002DE9F041664B1B6810
:2002200053B1044600216548062217F0FDFE14F0380606D162073ED14FF000463046BDE847
:20024000F08102F0A1FF5E4D286007E002F09CFF2A686FF009039B1AC34203D501F0E0FB99
:200260000028F3D0574B1B78D907E5D5534D0120682102F06BF829463B20062200F0A8FF9C
:2002800006460020014602F061F8002E7ED02F786E78A878E9782A796B79202C6F702E7086
:2002A000E870A9706A712B715AD0102C65D0082C66D00026C2E702F067FF414D286007E02D
:2002C00002F062FF2A686FF009039B1AC34203D501F0A6FB0028F3D03A4B1B78DB07ABD545
:2002E000364D0120682102F031F829464320062200F06EFF074600284DD095F8008095F833
:2003000001C095F802E0EF782A796B790020014685F8018085F800C085F803E0AF706A71C3
:200320002B7102F013F8042C06D0022C2BD0012C84D1B5F9040001E0B5F9000016F09AFC96
:200340001BA3D3E9002316F025FE16F093FF1E4917F0EEF817F03CFA06463046BDE8F081D6
:20036000B5F9000001F086FA174917F0E1F817F02FFA06463046BDE8F081B5F90200F1E78E
:20038000B5F90400EEE7B5F90200D7E72846062100F048FF50E72846062100F043FF384620
:2003A000394601F0D3FF4FF0004647E7AFF300800000000000606040300F0020080F002090
:2003C000FC320020C33200200000C842000000002DE9F04F144623F00047024657EA04001A
:2003E0000E468FB01D469C46214634D06E4B26F0004A9A459346B14626DC24D09F4223DC1C
:20040000694B9F4200F08F80B9F1000FC0F28F804FF0000879BB644B9F4200F0A580634B00
:200420009F4267D0BCF1804F00F0E283604B9C4521D1B9F1000F1EDB104631460FB0BDE872
:20044000F04F16F02BB962B10AF1404000F5801050EA0B0007D10346544918460FB0BDE89B
:20046000F08F5745CCDD53480FB0BDE8F04F16F013BA4FF0000810463146CDF808C0009274
:2004800016F0D2F9009ADDF808C0BBF1000F20D04FEAD97909F1FF3958EA09037AD0464BC3
:2004A0009F4240F38F8003F104739F4240F31084424B9A4540F39283BCF1000F40F392834E
:2004C00037A1D1E900010B46024616F039FC0346C3E7BAF1000F04D0344B29F0404E9E452B
:2004E000D6D1BCF1000FC0F2B683B9F1000F08DB0346B2E7BCF1000FC0F25284134631461C
:20050000ABE70AF1404A0AF5801A58EA0A0340F05E8402460B4616F05FFA0B46024616F033
:2005200039FD034699E700293FF46EAF8CE7244B9F422CDCA3F154739F427FF769AF40F27C
:2005400013403B15834240F34B84C3F58663033321FA03F000FA03F38B427FF459AF00F024
:200560000100C0F1020855E70AF1404303F5801353EA0B0300F03983104B9A4540F364832F
:20058000BCF1000FC0F22E832346294665E74FF002083FE7104631463346BCE7AFF300809E
:2005A0009C7500883CE4377E0000F07F0000F03F0000E03FCC9701000000E041FFFFEF3F5F
:2005C000FFFF3F43BAF5801F4FF0000205DACA4B16F0B6FB8A466FF034024FEA2A53C74E31
:2005E000CAF3130AA3F2FF334AF07F571344B2450C9347F4401740F3D083C14B9A4540F327
:2006000007840026B4460C9BA7F5801701330C933946BC4B4FEACC0C6344D3E900AB524645
:200620005B46CDF834C0CDE9060116F0D5F952465B46CDE90801DDE9060116F0CFF90246F4
:200640000B460020B04916F0A5FC02460B46DDE90801CDE90A2316F073FB02460B46CDE97B
:200660000223CDE904237B1043F0005303F5002399190020002306460F460293DDE9022336
:200680001046194632463B46CDE9000116F058FB02460B46DDE9080116F09EF95246CDE949
:2006A00008015B463046394616F096F902460B46DDE9060116F090F902460B46DDE90001B1
:2006C00016F03EFB02460B46DDE9080116F084F9DDE90A2316F034FBDDE90423CDE906011E
:2006E0001046194616F02CFB02460B4606460F4616F026FB6EA3D3E9002382468B463046B8
:20070000394616F01DFB6CA3D3E9002316F066F932463B4616F014FB69A3D3E9002316F0EA
:200720005DF932463B4616F00BFB67A3D3E9002316F054F932463B4616F002FB64A3D3E963
:20074000002316F04BF932463B4616F0F9FA62A3D3E9002316F042F902460B465046594647
:2007600016F0EEFADDE9042306460F46DDE9000116F034F9DDE9062316F0E2FA32463B4639
:2007800016F02CF9DDE9006782468B4632463B463046394616F0D4FA00225C4BCDE908011E
:2007A00016F01CF952465B4616F018F902980F460646DDE9000132463B4616F0C1FA32469A
:2007C0003B46CDE90001DDE9060116F0B9FA0022CDE906014D4B3046394616F0FDF8DDE92E
:2007E000082316F0F9F802460B465046594616F0F3F8DDE9042316F0A3FA02460B46DDE929
:20080000060116F0EBF882468B46DDE9000152465B4616F0E3F832A3D3E9002302980F46CB
:20082000064616F08DFA30A3D3E90023CDE904013046394616F084FADDE90023CDE9060153
:200840003046394616F0C8F802460B465046594616F0C2F826A3D3E9002316F071FA0246EE
:200860000B46DDE9060116F0B9F8DDF834C0284BCDF818C06344D3E9002316F0AFF8CDE9E1
:2008800000010C9816F0F6F906460F46DDE90401204BDDF818C09C44DDE90023DCE900AB01
:2008A00016F09CF852465B4636E000BFAFF30080EF4E454A287ECA3F65DBC9934A86CD3F7B
:2008C00001411DA96074D13F4D268F515555D53FFFAB6FDBB66DDB3F033333333333E33FC6
:2008E000000000E009C7EE3FF5015B14E02F3EBEFD033ADC09C7EE3F000040438E980300EC
:2009000079B60B00D08601000000F03F00000840C0860100B0860100CDE906AB16F05EF88E
:2009200032463B4616F05AF8029832463B4682468B4616F051F8DDE9062316F04DF8DDE9EB
:20094000042316F049F802460B46DDE9000116F043F8CDE9020108F1FF3858EA09030CBF86
:20096000D54BD64B0022CDE904230023CDE900450093DDE90067204632463B46294616F085
:200980002BF852465B4616F0DBF9DDE90223804689462046294616F0D3F902460B464046DB
:2009A000494616F01BF804460D465246304639465B46CDE9024516F0C3F906460F462046FE
:2009C0003B462946324616F009F8BD4B824699428946884640F3138101F13F4303F5E0034A
:2009E000034340F0E581A0A3D3E90023DDE9020115F0F4FF324604460D463B46504649467D
:200A000015F0EAFF02460B462046294616F028FC002840F0CD814C462015A0F2FE304FF4E0
:200A2000801101414144C1F30A50A64CA0F2FF35C1F3130BC0F5826003302C414BF4801BB5
:200A400021EA040300224BFA00FB3946304615F0C3FF06460F46DDE902018BEAE87B0BEB2E
:200A6000D87B32463B464FEA0B5A15F0B7FF80A3D3E90023002420460D4616F061F932461A
:200A8000804689463B462046294615F0A5FF02460B46DDE9020115F09FFF77A3D3E90023C4
:200AA00016F04EF976A3D3E9002306460F462046294616F045F902460B463046394615F0A4
:200AC0008DFF06460F4632463B464046494615F085FF42464B4604460D4615F07DFF0246D3
:200AE0000B463046394615F077FF2246804689462B462046294616F023F963A3D3E90023EB
:200B000006460F4616F01CF961A3D3E9002315F063FF32463B4616F013F95FA3D3E90023E3
:200B200015F05CFF32463B4616F00AF95CA3D3E9002315F051FF32463B4616F001F95AA32A
:200B4000D3E9002315F04AFF32463B4616F0F8F802460B462046294615F03EFF06460F4628
:200B600032463B462046294616F0EAF80022CDE900014FF080433046394615F02DFF024676
:200B80000B46DDE9000116F005FA424606460F464B462046294616F0D3F842464B4615F0BA
:200BA0001DFF02460B463046394615F015FF22462B4615F011FF02460B4600203F4915F03E
:200BC0000BFF8A44BAF5801F0246C0F227815346DDE9040116F0B4F803463EE4BCF1000F10
:200BE000FFF66EAC0023194637E40B46334934E433461046314616F0A3F803462DE4324BA6
:200C000021F000449C4240F3FA80304B0B4403430CD132463B4615F0DFFE02460B46DDE9CD
:200C2000020116F009FB00283FF4F6AE20A3D3E90023DDE9040116F083F81DA3D3E900231B
:200C400016F07EF8034608E4BCF1000FCADA234605F1004101E402460B460020174916F0DF
:200C600099F942E4AFF30080FE822B654715973C00000000432EE63FEF39FAFE422EE63F10
:200C8000396CA80C615C20BED0A4BE726937663EF16BD2C541BDBB3E2CDE25AF6A56113FA0
:200CA00093BDBE166CC1663F3E5555555555C53F59F3F8C21F6EA5010000F0BF0000F03F3C
:200CC000FFFF8F40FFFF0F00FFCB904000346F3F634B9A4582DD634B9A453FF7EDAB002255
:200CE000604B15F079FE54A3D3E9002306460F4616F026F852A3D3E90023CDE90001304631
:200D0000394616F01DF83246CDE902013B463046394616F015F8002282468B4630463946CF
:200D2000514B16F00DF802460B4647A1D1E9000115F052FE32463B4616F002F802460B46E9
:200D400000204A4915F048FE02460B465046594615F0F6FF3EA3D3E9002315F0F1FF0246D0
:200D60000B46DDE9020115F037FE06460F46DDE9000132463B4615F031FEDDE90023002081
:200D800082468B4615F028FE02460B463046394615F022FECDE90201DDE50026B44637E426
:200DA000334600202F4916F0F5F80346FFF755BB29A3D3E90023DDE9040115F0C1FF26A3DC
:200DC000D3E9002315F0BCFF0346FFF746BBB8F1010F03467FF441AB01F10041FFF73DBBB2
:200DE00000297FF446ABC3F58263033347FA03F000FA03F3BB4217D08846FFF710BB1B4B96
:200E00009C423FF709AEDDE90023924693462EE64FF480264FF0010CFFF7FABB5A4600F0E9
:200E200027F802460B46D3E600F00100C0F10208FFF7F5BAAFF30080000000604715F73FDC
:200E400044DF5DF80BAE543E555555555555D53FFE822B654715F73F9C7500883CE4377EAD
:200E6000FEFFEF3F0000F03F0000D03F0000E03FF8B5C1F30A5604460D460B46174616BB0D
:200E800021F00043034332D00022314B15F058FF304A044697420D460B4637DB40F2FE72C7
:200EA000C1F30A56363E3E44964215DD24A1D1E9000122462B4615F083FD21A3D3E90023DD
:200EC00015F03EFFF8BD40F2FF72964224D040F2FE723E449642E9DC002E09DD23F0FF4382
:200EE00023F4E00343EA065520462946F8BDF8BD16F1350F15DA4CF250339F42D6DC12A1F0
:200F0000D1E9000122462B4615F05AFD0EA3D3E9002315F015FFF8BD02460B4615F05EFD8A
:200F2000F8BD23F0FF4323F4E003363643EA0655204629460022084B15F002FFF8BD00BFF5
:200F40009C7500883CE4377E59F3F8C21F6EA50100005043B03CFFFF0000903CAFF300807F
:200F6000044B1A68B2F5806F03D01B689B0500D4FEE7704728ED00E0FEE700BFFEE700BF67
:200F800008B509F08BFC104A104B9A420DD2D0430F4918440B4620F003000430084453F8AE
:200FA000041B834242F8041BF9D10A480A494FF000028842B8BF40F8042BFADB06F054F984
:200FC000FFF7CEFF08BD00BF00000020B3090020ECC70100B8090020463F0020F0B50027C8
:200FE00006463C463D4683B0304607F071F90195019B9C4206DD00BF019B01330193019BE4
:201000009C42F8DC304607F079F90195019BC4F5C874A34206DA00BF019B01330193019B94
:20102000A342F8DB0137B7F5487F06D0B7F5C87FCCBFC7F548743C46D6E703B0F0BD00BF23
:2010400038B5194D194C2B6820465B68012198472B6801210A461B682046984709F0F4FC65
:2010600002F0FAFD02F07CFD00F0F2FD07F086F907F05AF90120FFF7B1FF0D490D4A0E48B3
:2010800009680123136003600B691020A2F5FF521268984709F0DCFC02F078F8BDE83840B0
:2010A0000020FFF79BBF00BFD801001000400340B00100100C4009400800094008B541F2FE
:2010C000342003F017FA02F05DFB07F06DF8074802F080FB0648082102F022FA06F084FF58
:2010E000BDE808400020FFF779BF00BF558100002C330020F0B585B0002602A80821294C59
:201100000096019602F00CFA9DF80F309DF80E70E56A43EA072748F2A6110220A847394698
:201120000320A84731460120A847636B02A908221D4D0B209847A46A01206946A0472B68A7
:20114000022B1ADC022001A9A04778B92B68022B08DC0021154806F08FFD0020FFF73EFF91
:2011600005B0F0BD124801990AF0F4FB2B68022BEFDD10480AF0EEFBEBE70F490F4A10488E
:201180000AF0E8FB0F480AF0E5FB2B68022BD9DD09490A4A0A480AF0DDFB00990A480AF01C
:2011A000D9FBCFE7F087010044070020200800204087010028C101000087010008870100B0
:2011C000F0860100188701003087010002F074BB10B582B002AC04F8010D134620460A4661
:2011E000012100F0CDFF02B010BD00BF0C4B18708AB110B4541EE4B20C44013911F8010F4A
:20120000A14203F8010FF9D1511CC9B204485DF8044B00F055BE511CC9B2014800F050BE0C
:20122000280E002029B1CC230139C9B243540029FAD17047813801289ABF024B1868002070
:20124000704700BF880E0020024B032202481A6007F016B9880E00208087010010B5044699
:2012600082B07721002001F071F84CB98DF807400DF107010122F420FFF7B8FF02B010BDF0
:2012800025238DF80730F3E730B5802885B016D0812810D11D4C206878B151B30120FFF709
:2012A000DDFF1B4803211B4A002306F06FF90220206005B030BD154B186805B030BD134CC0
:2012C000012500207721256001F040F8124918228820FFF77DFF04A9B62301F8013D2A46A6
:2012E000E020FFF783FF0020FFF7B8FF206805B030BD0748019106F071F901990846FFF760
:20130000ADFF01231846236005B030BD880E0020680E002049120000500E0020F8B5544B09
:201320001B68032B40F09C80431E012B00F29880504D062200210446284616F075FE0020E2
:20134000772101F003F82946F7200622FFF740FF00287ED0E978484A2B796879090341EA01
:201360000311168841EA1013C6EB131101FB01F1B2F9047076000913B2F90200C6EBD303C5
:2013800007FB01F100FB03F0891301EBE0204710A7F57A4E4FEAAE0606FB06F6B2F908107B
:2013A000B2F90A70731301FB0EF103FB07F3B2F90E70491007FB0EF701EBE303B2F806C0C4
:2013C0009B14B2F910E003F50043F61279000CFB03F30EFB06172E786978B2F90CE095F839
:2013E00002C036034FEA0E4546EA0111DB13906105EBA70741EA1C1127D040F6354549421D
:20140000A1EB273105FB01F101F1434101F5A0010029B3BFB1FBF3F34900B1FBF3F35B0086
:20142000D90801FB01F1B2F91450B2F916609F08490B05FB07F501FB06F1B2F912606A1329
:2014400002EB2131314403EB2113012C0BD01846F8BD28460621FFF7E5FE4FF00040F8BDF9
:201460004FF00040F8BD00EB800080300012F8BD880E0020480E0020500E002081380128CA
:201480009ABF024B18680020704700BFB00E0020024B032202481A6006F0F2BFB00E0020F7
:2014A0009087010010B504464421002000F04EFF002C064B14BF1024002402201C8019467E
:2014C000BDE810400246FFF791BE00BFA832002010B5802882B017D0812811D11D4C2068CF
:2014E00080B1002929D00120FFF7DCFF1A4824211A4A002306F04AF80220206002B010BD20
:20150000144B186802B010BD154C0B2023689B6B984723680B209B694FF480419847236849
:201520004FF08041DB690B2098470020FFF7BAFF084B0120186002B010BD0748019106F04C
:201540004DF801990846FFF7ADFF01231846236002B010BDB00E0020900E002091140000F7
:20156000B401001038B5344B1B68032B07D1820705D003280FD0012805D0022807D04FF00B
:201580000043184638BD2D4B1B68184638BD2C4B1B68184638BD2B4D44210446002000F0E3
:2015A000D5FE294604200222FFF712FE70BB264D25480421FFF736FE00202C786B78A97879
:2015C000EA7843EA042442EA01220028D7D0900815F05AFF4FF0745115F0AAFF1B4915F025
:2015E000A7FF16F0F5F8154B154D1860A00815F04BFF4FF0745115F09BFF144915F098FF85
:2016000016F0E6F801232860184638BD2B885BBA2B805B040C4DCBD5012029460222FFF772
:20162000D7FD0028C4D02046A91C0222FFF7D0FD0028C2D1BCE700BFB00E00208C0E002053
:20164000B80E0020A8320020B40E002000007A44014B1868704700BFDC0E002070B506464D
:201660000E4C82B000204521256800F06FFE76B905F002054FF486532560ADF806300DF1C9
:20168000060102220120FFF7B1FD02B070BD41F2C2020123ADF806202360F0E7DC0E002031
:2016A00000B5002083B0452100F050FE01200DF106010222FFF78CFDBDF90630002B08DBBB
:2016C00008481021084A002305F060FF03B05DF804FB064806F0D4FE054B02221A6003B002
:2016E0005DF804FBBC0E0020A1160000B0870100DC0E0020802810B50DD0812809D10C4694
:2017000071B90D4805F06AFF2046FFF7A7FF204610BD002010BD0020FFF7A0FF002010BD28
:201720000120FFF79BFF04481021044A002305F02DFF012010BD00BFBC0E0020A11600009B
:20174000813801289ABF024B18680020704700BF000F002038B5114C114A237803211160E7
:20176000ABB1104D0020432100F0F0FD0421284600F07AFC20700020014600F0E7FD2A88D9
:201780006B880948094952BA5BBA02800B80012323700748BDE8384006F072BEC232002028
:2017A000000F0020040F0020AA320020AC320020C087010030B5802883B023D081281DD13B
:2017C000254C2068E0B100293DD0244D2B785BB14321002000F0BAFD002000F00DFC28704D
:2017E0000020014600F0B2FD1D4803211D4A002305F0CCFE0220206003B030BD164B1868EE
:2018000003B030BD0024184B184D2146042218481C802C8016F008FC2046432100F096FDB0
:2018200002A91023022021F8023D0246FFF7DEFC0A4B21461870204600F088FD064B0120A7
:20184000186003B030BD064805F0C8FE01231846236003B030BD00BF000F0020C2320020C0
:20186000E00E002055170000AC320020AA320020040F002008B5174B1B78032B28D8DFE81A
:2018800003F01E150C0215F0F5F900224FF07D5315F056FA15F0EEFC08BD15F0EBF90022DC
:2018A0000D4B15F04DFA15F0E5FC08BD15F0E2F900220A4B15F044FA15F0DCFC08BD15F098
:2018C000D9F90022064B15F03BFA15F0D3FC08BD002008BDC63200200000303F0000203F25
:2018E0000000103F813801289ABF024B18680020704700BF300F0020024B022202481A6067
:2019000006F0BEBD300F0020D887010010B50C4C0120682100F01AFD3F23214601226C2051
:201920002370FFF763FC21464F236B2001222370FFF75CFCBDE810400020014600F006BD48
:20194000C7320020802838B50BD0812806D111F03F012DD1294B1B68DB043BD4284B186867
:2019600038BD284C072023689B6B9847236807209B694FF40051984723684FF0804107208C
:20198000DB69984723680C20DB6B984723680C209B6A4FF480614FF4407298471A4A4FF4ED
:2019A00080501A4B1060164900221A60086838BD1648174B124D4FF48052016001241A60EE
:2019C00014480821144A00232C6005F0DFFD2C60204638BD0D4B0F48196005F0FFFDFFF7AE
:2019E00095FF0E4A136813F00103FBD1044A06494FF4805013600860106838BD80200240D3
:201A0000300F0020B4010010A0200240340F002090200240100F0020491A0000042800403D
:201A200010B5084C0120682100F090FC214601223A20FFF7CDFB0020014600F087FC207853
:201A400010BD00BFC33200202DE9F041354C236813F0380F15D1344D03F03F042E7856B9F6
:201A60004CBBFFF753FFBDE8F04130480521304A002305F08BBDE3B22B70002CF1D02D4F30
:201A80003DE02D4E3278002AE5D02C4F0025012068213D7000F05AFC394601221C20FFF714
:201AA000A5FB07462946284600F050FC2368002FD1D03570CFE71F4F0120682100F046FC20
:201AC0000923394601226B203B70FFF78FFB3F23394601226C203B70FFF788FB174901224B
:201AE0001C202E70FFF782FB394601223A20FFF76FFB3046314600F029FCE3B22B70DB43ED
:201B0000012068213B7000F021FC012209496C20FFF76CFB0020014600F018FC084808F052
:201B20009BFFA0E7340F0020C5320020100F0020F9180000C7320020C6320020C432002073
:201B400080380100014B00221A707047C8320020154B70B5154800241C7001F0FBFF144A28
:201B6000144D1368296823F0010313600B6A204698472B6820469B6A98472B6820461B6B58
:201B800098470D4B01210D4A196013689B07FCD50B4C152023689B6B9847236815201B6AED
:201BA0000021BDE870401847C8320020400500200C000140B801001028200860282008407B
:201BC000B401001010B5064C042023685B699847236804205B6B98470128F9D110BD00BF04
:201BE000B8010010FFF7EEBF032801D000F016B908B5FFF7ADFF104B00219B688120984760
:201C00000E4B00219B68812098470D4B00219B68812098470B4B00219B68812098470A4B7C
:201C200081209B6800219847084B4FF480521A60BDE8084000F0F2B880870100B087010057
:201C400090870100C0870100D8870100A020024070B508F0F9FE0646FFF7B4FF3C4B4FF4EF
:201C6000A0601B68DB6998473A4B01213A4A196013689B07FCD5394C00F0A2F8FFF762FFC6
:201C8000002008F0E3F9364801F05EFF236819209B6B984723684FF4005119209B699847A0
:201CA000236818209B6B984723684FF4005118209B699847236817209B6B984723684FF4CD
:201CC000005117209B69984723681B209B6B984723684FF400511B209B69984723681E20E8
:201CE0009B6B984723684FF480411E209B69984723680D20DB6B98471A4A4FF400552368EB
:201D0000156000214FF480729B6A0D209847236802209B6B9847236829469B690220984756
:201D2000236803209B6B9847236829469B690320984723681D209B6B9847236829469B6965
:201D40001D20984706B170BDBDE8704008F080BEB80100102820086028200840B40100102A
:201D600054050020A020024010B5094B09481B685B68984710F00C0F044605D0064B0422A8
:201D80001A60022008F068FEB4FA84F0400910BDAC010010002000400428004008B5064B7A
:201DA00002201B685B6B9847012803BF034B186800F00100002008BDB801001060200840B9
:201DC00070B5104D02202B685B6998472B6802205B6B9847012804460A4BF7D11B684FF479
:201DE0004070DB699847084B084A1C6013689B07FCD5074B07481B6807491B680122BDE842
:201E000070401847B80100102820086028200840AC01001000200040006CDC02214B10B512
:201E2000FF221A70FFF7BAFF20B11F491F4A00230B6013601E4B4FF440701B681B6A984762
:201E40001C4B01211C4A196013689B07FCD51B4C082023689B6B984723684FF400510820E6
:201E60009B699847236809209B6B984723684FF4005109209B699847236805209B6B984726
:201E800023684FF4804105209B699847236806209B6B9847236806209B694FF48041BDE8B7
:201EA00010401847AE0900200428004010040542B80100102820086028200840B401001007
:201EC0002DE9F0470646484B48481B78484A5B00036033780F46136001F056F9DFF8148144
:201EE00000F5CC551935D8F80030424C5B0624D403232360022008F0AFFD01F045F900F504
:201F0000CC5519352368D8071FD4FFF72DFF012F03463DD9B0B1DFF8D880364D013607F102
:201F2000FF39022416F8012B631E4B45C8F8002011D3BC422ED20134F4E701F025F9401BBC
:201F40000028D0DB0020BDE8F08701F01DF9401B0028D7DBF6E701232B60022008F07CFD17
:201F600001F012F900F5CC5A0AF1190A2B68D90707D4FFF7F9FEBC42034609D20028DAD1FC
:201F8000E0E701F001F9CAEB00000028EEDBD9E7002BD7D0174C05232360022008F05CFDD6
:201FA00001F0F2F800F5CC5519352368DA0711D4FFF7DAFE044601F0E7F80E4E00F5CC5537
:201FC000193533685B060BD501F0DEF8401B0028F7DBB7E701F0D8F8401B0028E5DBB1E781
:201FE0002046BDE8F08700BFC932002000280040082800400428004070B5174B17491B78C7
:20200000174A5B000B60106001F0BEF8154E00F5CC5519353368134C5A0612D407232360CE
:20202000022008F019FD01F0AFF800F5CC5519352368DB070CD501F0A7F8401B0028F7DB41
:2020400004E001F0A1F8401B0028E3DB002070BDBDE87040FFF788BEC93200200028004070
:2020600008280040042800402DE9F04F404B414A1B7883B05B0043F00103136005460E46AF
:2020800001F082F83C4F00F5CC5419343B683A4A13F040032BD11746BA460B211160022063
:2020A000DFF8D8901C4606F1FF3808F0D5FC012244452CDA02B301F067F800F5CC5B0BF1B9
:2020C000190B3B68D9071BD4FFF74EFE02460028EED00192D9F80010092329550220CAF8F8
:2020E000003008F0B9FC631CDCB2019AE0E701F04BF8001B0028C9DB002003B0BDE8F08F82
:2021000001F042F8CBEB00000028DADBF4E7002AF2D0194C05232360022008F09DFC01F086
:2021200033F800F5CC5719372368DA0717D4FFF71BFE0028E0D0114B35441B680E4E05F81D
:20214000013C01F021F800F5CC54193433685B060BD501F019F8001B0028F7DBCCE701F03F
:2021600013F8C01B0028DFDBC6E70120C5E700BFC9320020002800400428004008280040FF
:202180002DE9F04F81466D4D6D4E28786D4C4000306099F8000083B020608A4616461F46B0
:2021A00000F0F2FFDFF8A0B100F5CC5808F11908DBF80030644C5A063BD4032323600220F6
:2021C00008F04AFC00F0E0FF00F5CC5808F119082368DB0737D4FFF7C7FDBAF1010F034689
:2021E0003FD960B309EB0A03DFF858B1DFF85881019309F101044FF0010A14F8013B0220DC
:20220000CBF80030C8F800A008F026FC00F0BCFF00F5CC5909F11909D8F80030D80719D4A4
:20222000FFF7A2FD019A034694421AD00028E4D105E000F0A9FFC8EB00000028B8DB00207D
:2022400003B0BDE8F08F00F09FFFC8EB00000028BEDBF4E700F098FFC9EB00000028DBDBB1
:20226000EDE70193002BEAD037492A780C463448520042F001020B2502600D60022008F081
:20228000EBFBA24607F1FF390025DFF8B880019B03E0FFF769FD034698B9A9451ED9002B87
:2022A000CDD000F071FF00F5CC5B0BF1190B2368D907EED500F068FFCBEB00000028F6DBB1
:2022C000BDE70193D8F80010092271550220CAF8002008F0C1FB0135019BDEE7002BAED0FD
:2022E000194C05232360022008F0B6FB00F04CFF00F5CC5519352368DA0705D500F044FFEB
:20230000401B0028F7DB9AE7FFF72EFD002896D00C4B3E441B680C4D06F8013C00F034FF25
:2023200000F5CC5419342B685B0601D4012087E700F02AFF001B0028F5DB80E7C932002035
:202340000028004008280040042800402E4B10B504461970FFF722FDB0B12C4B1A78A242C5
:2023600018D02B482B4900221C7002600A601B788BB1012B2BD0BDE81040274B27481B68C5
:2023800027491B6801221847FFF71AFD1F4B1A78A242E6D110BD234C052023684FF4C041F4
:2023A0009B699847236806209B694FF4C04198472368052106221948DB6C9847236808204F
:2023C0009B6B9847236809209B6B9847D3E7154C082023684FF4C0419B69984723680920D6
:2023E0009B694FF4C04198472368082109220B48DB6C9847236805209B6B98472368062018
:202400009B6B9847B7E700BFC9320020AE0900200428004010040542AC01001000200040A4
:20242000006CDC02B40100100120704708B501F0B9FC30B1034B5888A0F10200B0FA80F096
:20244000400908BD6805002008B501F0ABFC30B1044B5B88022B0CBF0120022008BD022057
:2024600008BD00BF6805002030B583B001F004FF044601F097FC08B903B030BD0E4801A910
:2024800001F098FC0128F7D100F07EFE638803F44063002BF0D16FF03F052D1A06E000F029
:2024A0008FFF638803F44063002BE5D100F06CFEE842F4D4E0E700BF0100010470B582B0F9
:2024C00001F070FC234C10BB00256580E37B214E23F01003E373E37B304643F02003E37392
:2024E000E37B01A943F04003E373E37B63F07F03E373A37F5BB2C3F5FF6307339BB2238309
:2025000001F058FC012809D0284602B070BD6388022B08BF0120D7D102B070BD00F034FE7E
:2025200073889BB2022B0DD06FF03F052D1A05E000F046FF63889BB2022B03D000F024FEFB
:20254000E842F5D4608880B2A0F10200B0FA80F04009E1E76805002008B50346B32994BFEE
:202560000A46B4220248194615F084FC002008BD9211002070B50E4D0E4E2C68002006E0E9
:202580002379022B06D024682B68A3420ED02379032BF5D133780120002BF4D1064805F02B
:2025A0008BFB24682B680120A342F0D170BD00BF440F0020CD3200208806002038B50D4A3F
:2025C0000024136819681C725C721C71116002F0B7F80546BFF35F8F074B1A7812B11C70C2
:2025E000FFF76CFFBFF35F8F2846BDE8384002F0AFB800BF4C0F0020CC3200202DE9F04355
:202600002E4B83B080460F461D6800F0BDFD2C4E361A03E000F0B8FDC6420AD52C79022CB8
:20262000F8D0284B0020032C187008D003B0BDE8F0832C79234B0020032C1870F6D1B5F887
:202640000890B9F1060F27DDA9F10606BE4223DC0A3540462946324615F00CFCDFF87480F6
:20266000AA5DAB1988F800205B79A9F10501164F0422294401A83B7015F0FCFB019801F0A9
:2026800085FE124B124A1B7810605BB1FFF796FF304603B0BDE8F083FFF790FF002003B0CB
:2026A000BDE8F08398F80010042049B289B206F055FC3978204606F051FCE7E74C0F00201E
:2026C000E2FAFFFFCA320020CE320020CD3200208C120020B00900200C2801D00120704751
:2026E000042A01D0022070470029FBD0024B00201B680B60704700BF8C12002070B582B028
:2027000001F050FB002837D01D4C6388022B33D11C4E00F039FD7388022B0BD11A4D2D1A87
:2027200004E000F04DFE7388022B03D100F02CFDE842F6D401A9154801F03CFB00F024FD31
:202740006FF03F052D1A08E06388022B09D100F01BFDC54205D500F033FE01F023FB002874
:20276000F2D16088A0F55050043880B201288CBF0020012002B070BD012002B070BD00BFB8
:2027800068050020D805002000FEFFFF0100010410B5114B114C1A680521237E84F8241036
:2027A000928882B003F0F00343F00A03204601A96283237601F0FEFA012802D0002002B063
:2027C00010BD204601F048FBA0F10100B0FA80F0400902B010BD00BF70060020B0050020F4
:2027E00000B583B00A4801A901F0E4FA012803D0002003B05DF804FB054801F02DFBA0F10C
:202800000100B0FA80F0400903B05DF804FB00BF9805002008B5FFF7BBFF012801D000204A
:2028200008BDFFF7DDFF0128F9D1FFF747FEC0B208BD00BF08B501F051FE012812D0FFF7DF
:202840005DFF01F003FC002210460749074B4A8003F510711A799033022A08BF03F88C0CF3
:202860008B42F7D1012008BD68050020500F00202DE9F84F01F032FE012818D001F092FAC5
:2028800088B901F015FA01F08DFA0446002840F08E8001F0F9FA012805460BD001F0D6FBDA
:2028A0000020BDE8F88F574B5B88022BE9D10120BDE8F88F01F044FC53494FF423725348D3
:2028C00015F0D8FADFF88CB15148DFF88C91DFF88CC1504F504E5149514B524A04704FF09A
:2028E000020A8BF800504FF003084FF0040E052406204D4D89F800A08CF8008087F800E0F1
:20290000347008701A602B684749002BFBD00020464A474BDFF84881086052F81CCC52F842
:2029200018EC52F8146C52F8105C52F80C4C52F8207C12E90300203343F8207C43F81CCC40
:2029400043F818EC43F8146C43F8105C43F80C4C43F8080C43F8041C434502F12002DCD14F
:20296000344B354ADFF8FCC0DFF8FCE0334934482D4C344F344E00251862C3F824C001203E
:20298000C3F828E0DF621E632560116008F0FCFA2E4808F05DFA224613682349002BFBD0C4
:2029A00000230B6001F0D6FA01287FF477AF01F0F5FB2748002103460E46022588245A7952
:2029C0001E7102F0FC0265F383025A71DC80903343509031B1F5107F1D4AF0D1C2F8B02175
:2029E00001F07EF9FFF7D4FE012802D00020BDE8F88FFFF7F5FE0128F8D1BDE8F84FFFF7A3
:202A00005DBD00BF68050020EC8E01001C04002190030021AE030021AB030021810300219A
:202A2000C0030021BD0500211C1004405888010000C0002180C600210010044001010E04CE
:202A40006039536311161216546B0070B0050020500F002079030021750300217703002184
:202A6000A0C600212010101A136F236E70B582B0072800F2AC80DFE800F0212AAAAA5E6B9F
:202A800070045E4B197001F08DF900285DD05C4B5B88022B59D1FFF731FE01280CBF0024A6
:202AA000032401F06FFB012800F0A080FFF7B2FE01280CBF2046032002B070BD012900F03F
:202AC0008E80002900F08580022002B070BD8029FAD84C4C4FF47A72208AE38902FB03F37E
:202AE00002FB00F2A3F55C2302F57F42FF32A3F58763454803EB2243A0FB0323CAB2C3F392
:202B000087139A4221D0C82303FB01F13F4801F55C2303F58763A0FB03213D4A890902FBC0
:202B200001331B04A0FB03233A488AB29B092382E2810284A7E731F00403C5D1364BC1F310
:202B400080011A7819708A429DD1002002B070BD31F00103B8D1C8B2AEE74FF6FF742F4DAF
:202B6000AE88A64208BFFF2309D02A460023083290880133A042DBB2F9D1013BDBB255F80D
:202B80003330264C99429FDB236899429CDC0191FFF76AFC4FF6FF739E4201992CD02246AA
:202BA0001C460023083290880133A042DBB2F9D1013BDBB255F8332005EBC300914203F1EE
:202BC000FF3316DD5A1CF5D1FFF724FEBDE7012072E70191FFF72EFE019908466CE7FFF779
:202BE00047FE012814BF0320002065E701F066FB5CE70B4B1860E7E70023D9E7AF09002019
:202C000068050020980500201F85EB51D34D621018FCFFFFB0050020CD32002078910100E8
:202C20007006002099B1F0B50C4683B0172800F2B980DFE800F05E9DB7B7950E8B582978D9
:202C400086B7B7B70E7E126BB78274700E91022070470020086003B0F0BD4FF6FF705B4DE7
:202C6000AB88834208BFFF2309D02A4600230832918801338142DBB2F9D1013BDBB255F850
:202C8000333000202360E6E701F08CF8002840F08D80FFF7EDFD012840F0938007460A25BF
:202CA00080266B1E13F0FF054FF000014FF004020FD001A815F0B8F940F2034301A869464B
:202CC000ADF8043001F076F818B19DF802607306E7D0002F72D176B216F1800F26600CBF4B
:202CE00003200020B7E73A4B002093F900300B60B1E701F057F830B1364B5888A0F102007A
:202D0000B0FA80F0400920600020A4E72F4B00201B680B609FE73E230B6000209BE7A023E6
:202D20000B60002097E72C4B00201B785BB20B6091E780230B6000208DE706230B6000201A
:202D400089E7264B00201B780B6084E7244B00201B681B680B607EE718230B6000207AE77D
:202D60000020204B08601B78F3B104230B6072E71D494FF47A72CB89098A02FB03F302FBD2
:202D800001F2A3F55C2302F57F42FF32A3F58763164903EB2243A1FB0323C3F38713236077
:202DA000002058E7012056E7184654E7094B5B88022B08BF00273FF472AF6AE7FFF73AFD99
:202DC00089E76FF07F032360032044E778910100AF09002068050020B0090020CE32002069
:202DE00070060020CD320020980500201F85EB5170B582B0044600F0D5FF28B3244B5B88EF
:202E0000022B08BF00251FD12249221DA31C224C92B29BB2100A2382E16148700A70FFF718
:202E20006DFC002001F0FAF9204601A900F0C2FF88B9012601F010FA00236380FFF73EFBCC
:202E4000E5B9304602B070BDFFF712FD01281AD0012002B070BD00F0B3FA104E317800E0E3
:202E600099B163880C4A03F44063002BF8D0508880B2B0F5505618BF0126DBE7FFF7DAFC59
:202E8000304602B070BD0546BEE700F00BFDE5E76805002090110020D8050020CD320020BF
:202EA00010B50C46B32C014694BF2246B422044814F0E0FF2046BDE81040FFF799BF00BFAD
:202EC0009211002030B583B001F008FB01281BD000F068FFD0B1154B5B88022B1FD00025B3
:202EE0008024134801A900F065FF012803D19DF806406306F5D07DB90E4B64B293F900009E
:202F0000A042D4BF0020012003B030BDFFF7B0FC012806D10546E3E7FFF78CFCECE7012032
:202F2000F2E7FFF787FC0120EEE700BFD805002001000304AF09002010B500F033FF80B195
:202F40000F4B5B88022B0BD10E4C237853B90E4B1B689B0601D5012323702078C0B210BD49
:202F6000002010BDFFF7AEFFB0FA80F0400920702378002BF1D1044B6FF020021A60ECE729
:202F800068050020CA32002008100440F8B51F4800F0DAFD07F0D4FC012802D00024204605
:202FA000F8BD1B4C002120464FF4107215F03CF840F2863043F23331164B174ADFF874C022
:202FC000164DDFF874E0164F0026CCF8004083E85000AB62C5F82CE03884D0811182FFF7AD
:202FE00047FC01280446D9D10E4B0F4A1E6013680E4843F02003136001F044F901F048F947
:2030000031460B4804F038FEC9E700BF5C060020500F0020440F002098050020680500208F
:20302000B0050020081004400C10044028880100880600204C0F0020380F002010B5064CA7
:20304000042023685B699847236804205B6B98470128F9D110BD00BFB8010010F8B51A4A71
:2030600000200021C2E90001184B04201B685B6B9847012801D0FFF7E1FF144B00201B68E2
:20308000DB699847124B0121124A196013689B07FCD5114A11491368096823F4807323F00D
:2030A00001030F4C13600B6820460E49984740F221200D4D0D490E4B042731260122276087
:2030C0002E6008601A60F8BDB8090020B801001028200860282008400C000140C8010010BB
:2030E00000000140002100043C000140080001400400244310B40949094C0B682268086861
:203100008342FAD1DB01074903EB52620023C1E900235DF8044BD1E90001704708200940DA
:203120000C200940B809002010B50B490B4C0B68226808688342FAD1DB01094903EB5262FC
:203140000023C1E9002304F0FBFB00B910BDBDE8104004F0D5BB00BF082009400C200940F1
:20316000B809002010B507F06FFC034B1C6808B907F06EFC204610BD08200940704700BF39
:203180000146012000F052B807F0F4BA2DE9F04107F05AFC1D4E1E4B1E4F3268012400256F
:2031A00080464FF480314FF480703D601C60186019601368284623219847336820461B6888
:2031C00024219847336802201B6825219847124A1249136843F4E02313600D6007F0CAFA5F
:2031E0000F4B1049104A1B6800F50070086014603C601B6914209847B8F1000F01D0BDE89D
:20320000F081BDE8F04107F023BC00BF84010010042009400000244300200940082009408F
:20322000B00100101C200940A0022443431E012B10B41BD9042802D05DF8044B704700237E
:203240001A4610F004001CBF0E4C216013B10E4B0121196012B10D4B01221A600028EBD001
:203260000B4B01221A605DF8044B704710F0010302D0084A0123116010F00202E1D0064C3C
:203280002160DEE72020094080022443A0022443C0022443182009401C200940014B186872
:2032A000704700BF4812002008B5FFF76DFF184B1860FFF739FF174B1B686BB9164B1B6809
:2032C000E3B9164B1B6833B11549164B00204FF4803208601A6008BD124B4FF480721A6003
:2032E00007F048FA00F205200F4B20F4FF7020F001001860084B1B68002BE2D00B49094BBD
:203300000020012208601A6004F0FAFCD9E700BF48120020A000244380002443C000244390
:20332000C0022443042009401C20094080022443820702D5034B01221A60C30700D47047E9
:2033400007F086BB000C084008B507F07DFB074B1A68012A03BF06490222196000220028BE
:2033600014BF104642F0010008BD00BF000C084051E5CC1A03490448044B012208601A6011
:20338000704700BF00000840FFFF0F00000C084038B5FFF7D9FF064C064D0749074A0123E9
:2033A00025600B601360BDE83840FFF7C1BF00BF00000840FFFF0F000C0008400401004367
:2033C00003490448044B012208601A60704700BF00000840FFFF0F000C00084008B5FFF72F
:2033E000D7FFFEE708B5064805F0BEF830B1054B0121054A196013689B06FCD508BD00BFD0
:203400004C120020000222431410094070B5054607F01AFB0B4C294606460B4805F0A6F8E6
:20342000FFF7E0FF236868681B689847236868689B6898471128F9D106B170BDBDE8704081
:2034400007F006BBA00100104C12002038B5044648B9134805F088F828B1234605C8134318
:203460000028FBD19BB90F490F480B680F4D104C0068002223F4C0530B602A602260C368D4
:20348000012098470B4A13689B06FCD438BD054A136823F4C05343F40063136038BD00BF41
:2034A0004C12002004100940A001001080012243000222431410094038B5054607F0C4FAD9
:2034C00004462946054805F095F80020FFF7BEFF04B138BDBDE8384007F0BABA4C120020E1
:2034E00070B50446B0B10078C0B1A9B10025661804E014F8010F38B1B44205D000F056F923
:20350000631C05F10105F4D100F096F90128FBD0284670BD0546F7E70D46F5E70546F3E7E0
:2035200010B40B4B0B4C13F8012FFF2A0ED1A342F9D1094A39B11144013801390B789142CD
:2035400000F8013FF9D15DF8044B7047034AF1E7C7FF0100CFFF0100F0120050C8FF010039
:2035600038B50C4D02202B685B6998472B6802205B6B984701280446064BF7D11B684FF401
:203580000070DB699847044B044A1C6013689B07FCD538BDB8010010282008602820084093
:2035A0002DE9F04340F2F275DFF8E08083B0FFF7D7FFD8F800302B4EDB682B48984733684A
:2035C0002A4C5B69152098472368DFF8C490284F23F4FE63D9F8002023F0020323603D60CF
:2035E000D36B1D2098472349D9F800204FF0FF334FF0005008600093D2F840C01A481C21B0
:203600001D22E047D8F800301748D3F804C01A494FF4E1326023E04740F2011240F2013E3D
:203620001649174B142008601968164841F01001196003681449002B0CBF134673460B6058
:203640003D60036853B12368326843F0500323601369152003B0BDE8F043184703B0BDE83D
:20366000F08300BFB001001000100040381000404410004090200240006CDC02341000402B
:203680002C1000405012002030100040D0010010B401001008B5064B02201B685B6B9847AE
:2036A000012803BF034B186800F00100002008BDB80100106C20084038B50446FFF7EAFFC8
:2036C00018B1264A13681907FCD4032C03D0244B1B6803B138BDFFF7DDFFF0B9214D4FF47D
:2036E00000702B681B6A9847032C2CD01E4B01211E4A196013689B07FCD51D2000F040FA77
:203700001C2000F03DFA4FF0FF3000F039FABDE838404FF0FF3000F033BA154B15481B680D
:20372000DB689847144B15201B685B69984740F2F270124A1249136823F4FE6323F0020357
:2037400013600860CAE72B684FF400709B6A98472B684FF400701B6B9847C7E718100040F2
:2037600050120020B80100102820086028200840D001001000100040B00100103810004044
:203780004410004010B507F05FF90446054800F0DBF9054B00221A6004B110BDBDE81040C3
:2037A00007F056B9740600205012002010B50446FFF770FF08B9FFF7F3FE044B2146BDE870
:2037C00010401B680248DB69184700BFD00100100010004010B5134B134C1860134A236857
:2037E000A8B1022111615B6A4FF40070984723684FF40070DB6A98470D4B01210D4A1960D8
:2038000013689B07FCD5BDE81040FFF7C9BE10619B6A4FF40070984723684FF400701B6B7C
:203820009847E9E750120020B801001074060020282008602820084008B5FFF72BFF18B10E
:20384000024B1868C0F3C00008BD00BF1810004038B5FFF785FE40F2F2710C4B0C4A1B6811
:20386000116013F0500F10D00A4C0B4D05E02B681B699847094B1B6823B923680848DB069D
:20388000F5D538BDC0B29847F7E738BD401000404410004018100040D00100105012002056
:2038A00000100040034A136823F00403136030BF704700BF10ED00E02DE9F84307F0C4F81D
:2038C00004F0A4F918B1BDE8F84307F0C1B88E4804F04AFE0225044648B1636823B1984744
:2038E000A84228BF2846C5B22468002CF5D1FFF74BFC864B80461B68CBB91F46994604F081
:203900001FF8002840F0A780012D0446064600F0EC80022DD7D1E7B1A9F14101B4B18B1B9B
:20392000002B13DB31460220FFF780FC18E0784BD3F80090C0EB0903022B00F1BE80A3F2A5
:203940008F23002BC0F2CB800127D8E70420FFF76DFC002CE6D108F1FF310220FFF766FC9D
:20396000694804F001FE06250446002800F0AA80A368022003B198472369246825EA0305FD
:20398000002CF5D1FFF71CFD6B0705F0060400F19C80002C40F09D8000F0BCF90020FFF774
:2039A00055FD5C495C4A0B685C4823F003030B601368016843F00F0313608B693920984707
:2039C000574A584900231360184613600B6007F077F8062C00F08580534C544D544E2B68D1
:2039E0002368326823F00303236053685148032198474A4B1B689B6B98472B6807F0B8F977
:203A00004D4A3368002111604A485B680121984723684A4A012143F00303236011602B688B
:203A200007F0D8F9FFF7DEFCFFF77EFBFFF7C8FC354804F099FD044628B1E36803B19847BD
:203A40002468002CF9D100F033F907F001F8BDE8F84306F0FDBF03F07BFF0646FFF74AFB52
:203A6000361A002E7FF72FAFFFF718FC344B00EB4626C8EB0303F34240D40124A5427FF413
:203A800048AF6FF00703C8EB0303F34233D408F58038C6EB080336EA230628BF464631462D
:203AA0000220FFF7C3FB274A136823F00403136030BFBDE8F84306F0CBBF00239D4288BF1F
:203AC0001D4641E7FFF77CFC06241C4B00221A605FE7124B20461B689B6998475CE70123EA
:203AE000ECE7022006F0BCFF76E708F580310220FFF79CFBD7E708F10806D0E7022DC0D02B
:203B0000012D7FF4E0AEBCE75412002080022443182009400010094008100940B801001060
:203B20004010094020042243242208402C200940D801001000400340800104430C40094077
:203B400071FDFFFF10ED00E00146014804F00EBD541200200146014804F04CBD5412002034
:203B600010B5054804F0FCFCBDE81040034B03201B6820211B681847541200208401001020
:203B8000421C0ED010B50446064B4FF4C0421B6800211B689847044AA3001A43002313605A
:203BA00010BD7047B4010010001A4442024B1868186004F0CFBB00BFE020024070B51B4BCD
:203BC0000C461B6805465B68984714F00C0320F0E06222F4EC2207D0042B20D0082B21D080
:203BE0000C2B08BF42F4403214F003030DD142F4C04223060D4B2846BDE870401B6848BF31
:203C000042F480221B6800211847022B04D0012B08BF42F48042ECE742F40052E9E742F47C
:203C20000032E1E742F48032DEE700BFB4010010064B1B68C340DB074CBF054B054B1B6872
:203C400023FA00F000F00100704700BFD020024080200240C020024010B584B0002241233B
:203C600002A802920393FFF7D1FB042006F06CFD032813D00420032106F036FD042006F092
:203C800063FD03280346F9D1074A084812680093546800214FF040521C23A04702A8FFF764
:203CA0000BFC04B010BD00BFA401001000A00C4000B583B00022412368468DE80C00FFF789
:203CC000A5FB012006F040FD012803D00320012106F00AFD6846FFF7EFFB03B05DF804FB1D
:203CE00000B583B00022412368468DE80C00FFF78DFB012006F028FD012803D0044B986B1F
:203D000006F04AFD6846FFF7D7FB03B05DF804FB4800001010B582B04123684600240193D0
:203D20000094FFF773FB0320214606F0DDFC012006F00AFD18B1044B986B06F02DFD68462B
:203D4000FFF7BAFB02B010BD4800001070B50388044653B1B3F52F7F03D182290AD0012013
:203D600070BD00230380032070BD4FF42F732380012070BD094B0A4E1D69FFF721FB05F011
:203D800097F805F02FF88021A847002880B2ECDD05F022F8F3689847EFE700BFF08701006F
:203DA00074AD0100024B186800F00100704700BF9C21084010F0030370B506460D4602D10B
:203DC000028811051FD406F03FFE1F4B00301B6818BF0120DB0720D51C4B1D4C1E60236858
:203DE0004CF250322B6003E02368013A2B6014D013F0FF0FF8D018B32878A0F10100B0FAE0
:203E000080F0400970BD438006F01EFE0E4B00301B6818BF0120DA0702D468B1002070BDC6
:203E2000338813F4405FD7D003F44063B3F5006F04BF084B1E60CFE706F00AFE002070BD34
:203E400006F006FED8E700BF9C21084000100440041004407C1200200A4A01E0013A0ED03D
:203E6000438803F44063B3F5806FF7D1428802F44062A2F58060B0FA80F040097047104635
:203E8000704700BF20A1070030B583B006F0DCFD254C0546236819201B6A9847236812205C
:203EA0001B6A9847236819205B699847236812205B6908349847236801205B6998472368C1
:203EC00001205B6B98470128F9D11849184B194A0860186013689B07FCD5134C1648174917
:203EE0002268002303600B60136919209847236812201B699847A5B140F2FF35104B114A21
:203F000011481249002405600C60114801A91A60FFF750FFA0F10100B0FA80F0400903B08E
:203F200030BD06F095FDE7E7B00100102C200840282008602820084010100460141004609D
:203F40000010044051000706000004601C1004400100060410B586B00021142201A814F0D1
:203F600063F840F60A0215499DF811300C68012161F3030301A8694605948DF81130ADF824
:203F80000420FFF717FF012802D0002006B010BD0B4801E00138F9D0BDF8063003F4406398
:203FA000B3F5806FF6D1BDF8060000F44060A0F58060B0FA80F0400906B010BD9012002037
:203FC00020A1070000B587B00021142201A814F02BF840F609029DF81130012161F3030373
:203FE00001A869468DF81130ADF80420FFF7E2FE012803D0C0B207B05DF804FB104801E052
:204000000138F8D0BDF8063003F44063B3F5806FF6D1BDF8063003F44063B3F5806F03D0CD
:20402000002007B05DF804FB064B1A782AB9064A0599012011601870DDE70120DBE700BF21
:2040400020A10700CB3200209012002030B587B006F0FAFC314C0546236819205B69984782
:20406000236812205B6998472D4B1B68DA071AD52C492D4A00230B6002A8194613601022ED
:2040800013F0D2FF40F60D029DF81530012161F3030302A801A98DF81530ADF80820FFF7D0
:2040A00089FE01282CD0FFF78DFF2048204B00240121204A0460196013689B07FCD51E4C1A
:2040C000012023689B699847236801205B6B98470228F9D1114C192023681B6A98472368FC
:2040E00012201B6A9847236819201B699847236812201B6998470DB906F0AAFC07B030BDDD
:204100000E4A01E0013ACED0BDF80A3003F44063B3F5806FF6D1BDF80A30C4E7B00100104B
:204120009C21084010100460141004602C2008402820086028200840B801001020A1070009
:2041400008B506F025FC052803460BD003280DD018B101280FD0002008BD094B03221A6089
:20416000012008BD064A0120136008BD044B02221A60012008BD024A0521116008BD00BF76
:20418000D021084008B5FFF71DFFFFF7E3FE012802D0FFF75BFF002008BD00BFF8B5174B42
:2041A000174A19781268174B002914BF00241C46D30700D4F8BD06F047FC0646124A134B0D
:2041C0001348144F144D00213B60046011602B6819201B6A98472B6812201B6A98472B6843
:2041E00019201B6998472B6812201B69984706B1F8BDBDE8F84006F02BBC00BFCD320020F7
:204200009C2108400000C08010100460000040801410046018100460B0010010084B1B785A
:2042200033B1002002460749074B0A6018607047064B0749074A002814BF18460846F2E785
:20424000CD32002010100460141004600800C0800200C0800000C080044A054B1178054AF3
:20426000002918BF00231360704700BFCD3200200000C08014100460014B1868704700BF09
:204280007C120020014B1860704700BF8412002038B5064B064C1D6806484FF43441064A15
:2042A0000023256003F072F9012038BD04300440581200205C1200202D430000164B1B68FE
:2042C000DBB170B59B68984708B9002070BD06F0BBFB124B124C1D680646002115F180401E
:2042E00022684FF0000341F10001994208BF904209D325601EB1012070BD0020704706F000
:20430000A7FB012070BDFEF73FFF064A06491368086001331360ECE7841200200430044050
:2043200058120020801200208812002070B5134B1B68B3B19B689847D8B9114D2B6A9847D8
:2043400001280ED1FFF7BAFF6B6A0446984744B1BDE870400B484FF434410B4A002303F0E8
:2043600015B908488021084A0023BDE8704003F00DB9FFF7A3FF0446E9E700BF84120020D4
:20438000F08701005C1200202D430000F8B5224C2368002B3DD09B680646984700B3FFF7F2
:2043A0008DFF1E4BB6F1404F1F6825D822681C4BB2F90C401968E517641A65EBE1750022A3
:2043C000A41945F10005A01845EB0701090241EA106143F609520023000213F03BFAF8BDA8
:2043E000104D2B6A9847FFF769FF6B6A98470B4BB6F1404F1F68D9D9FEF7C6FE0A4B1B6884
:20440000C3F17E4303F57203C34248BF07F1FF37CCE71846F8BD00BF841200208012002093
:2044200090120020F08701008812002010B5104B1B68DA0704D4FFF727FD012800D010BD4C
:204440000C4C23685B0204D40A4B6FF000421A6010BD094B012209481A7003F02DFC6FF436
:2044600080032360034B6FF000421A6010BD00BF9C21084010100460CC32002088060020EC
:2044800008B5124B1B68D90707D4114807F062FAFFF7FAFC012800D008BD06F0D5FA0D4B51
:2044A0001A6812020BD40B4B1A6812F00A0F1CBF6FF00A021A60BDE8084006F0C9BA6FF40B
:2044C00000021A60044803F0F7FBECE79C210840189201001010046088060020014B18789E
:2044E000704700BFCF32002008B500F08BF880B208BD00BF00F010B938B50C4D04202B6889
:204500005B6998472B6804205B6B984701280446064BF7D11B6840F20140DB699847044BA8
:20452000044A1C6013689B07FCD538BDB80100102820086028200840034B1B68002B14BFF6
:2045400001200220704700BF94120020F8B503880446002B2ED0B3F5847F05D1184B1B78BA
:204560008B4205D00120F8BD002303800320F8BD144D2B6873B1144B144A1B6812685B68B0
:204580000220174698470026301847F100012B6898472E600E4B40F201401B689B6A9847E3
:2045A0000C4B01210C4A196013689B07FCD50B48FFF7D0FA4FF4847323800120F8BD00BF40
:2045C000B109002094120020CC01001004800240B8010010282008602820084098060020D1
:2045E00008B5064B04201B685B6B9847012803BF034B1868C0F34000002008BDB801001007
:204600003C20084070B5274B1B689BB1264C0023224612F8011B29B90133042BF9D100203E
:20462000014670BD214A002502EBC302E55492E8030070BDFFF7D4FF00282FD01C4A1D4B23
:204640001268134073B91C4A01211346116018680028FCD102464FF4807106F00FF8174BBF
:2046600001221A6006F0F0F90646114A1368DB07FCD5134B134A1B6814685B68022098476B
:2046800023460022141843F1000516B12046294670BD06F0DDF92046294670BDFFF72CFF72
:2046A000CCE700BF9412002098120020C00900200880024001000080F09F0240A8025042B7
:2046C000CC0100100480024038B50E4D00240E4A2C6013680D4923F00103096813604B6967
:2046E00031209847204622464FF4807105F0C6FF0122074B2A6019782246BDE8384005486C
:2047000003F08EBAA80250420C800240B0010010B1090020AC06002010B5074C2378802B89
:2047200000D010BD03F0FAF9207000210348BDE8104003F0A1BA00BFB1090020AC0600204C
:2047400008B506F081F9003018BF012008BD00BF80F31088704700BF827A044B03EBC20301
:204760005B68C01AB0FA80F0400970479C120020F0B54749837A85B001EBC303D3E84F2F62
:2047800012F0FF0F09D10124C3E8424F1346BFF35F8F3BB1032005B0F0BD0123BFF35F8FA0
:2047A000002BF7D10446827A3A4B01EBC20148601B68C078DB6B384F9847384DA37A3A6839
:2047C00005EB0313526958689047A37A3A6805EB03135868536B9847012806462E4A2F4BF8
:2047E000F3D1A17A126803EB0113D269986890472B4B2C4A1E6013689B07FCD5A37A0320B4
:204800001B01EA582849536923F00F035361A37A1B01EB581862A37A0A6826891B01E858A4
:2048200017683EB1237A002B2CD0637A002B14BF032602266168082332468DE80A001B49CB
:204840000023B847A37A134A26781B01E85813686178A27800965E6C4FF0FF33B047A37A6F
:20486000114E1B01EA58536843F002035360A37A32681B01E85803A9136998470028F6D1CC
:2048800005B0F0BD637A002B14BF01260326D1E79C120020B4010010B80100107C92010068
:2048A0002820086028200840C4010010006CDC0270B5214D837A05EBC3025268904201D0F7
:2048C000042070BD1D491E4A096802EB031304460A6A986890471B4B01221A601A4A1368CE
:2048E0009B07FCD5194E607833689B6B9847336860784FF400519B6998473368A0789B6BE3
:2049000098473368A0784FF400519B699847336820789B6B9847336820789B694FF40051AB
:204920009847A37A002005EBC3035860A37ABFF35F8F05F8330070BD9C120020B80100103C
:204940007C9201002820086028200840B40100102DE9F04F344C857A85B004EBC5046468B6
:20496000A04203D0042005B0BDE8F08F1F462F4BDFF8C4901B6809EB051504465B6B68680A
:2049800090460E469847012803D0052005B0BDE8F08FA37A264909EB0312D2680968114281
:2049A000F3D00E9A0F9902EB010AC2455246B8BF4246002A019235D0D8BF03AD26DDDFF86B
:2049C00074A04FF0000B03ADD845CCBF16F80B1000210391DAF800201B0159F80300536826
:2049E0009847A27ADAF800301201DB6859F80200294698470E9B5B45C4BF039B07F80B301F
:204A0000019B0BF1010B9B45A37ADDD1094E00E0A37A32681B0159F803002946136998471F
:204A20000028F5D100209EE79C120020B801001078200840C40100107C92010070B5846877
:204A40001CB194F90830002B00DB70BD236A002BFBD01A68002AF8D007490546097821B1AC
:204A60001B6A13B19847236A1A682846BDE87040002301F05FB900BFD03200202DE9F047E2
:204A8000064682B014480F4692469946DDF8288003F06AFD044668B1656845B1CDF80080EE
:204AA0003046394652464B46A847054630B92468002CF1D1002002B0BDE8F087B379012BF5
:204AC00003D0284602B0BDE8F087002031463A4601F0E6FA2846F5E7581300202DE9F04FB5
:204AE000A94D07468BB02846884600F0DBFDA74E0446C5F8A0703070E8B9AB79013B032B59
:204B000048D96B6823F07F4323F0FF03002B3ED06B79032B00F05881288901F003FA40B113
:204B2000C46BD0F8409001F083F914B148469649A04734783CB34FF00009C22C76D0944C31
:204B4000484601F075F93278904BC32A73D0BF2A84BFA0221A7002212B898B4800F02AFC7B
:204B60002468204613F090FC21460246864800F0C9FF4146844800F02BFC414682B23846DC
:204B800001F046F8347820460BB0BDE8F08FC3233370C1E72889394601F030F9814600288B
:204BA00000F0EA806B794022069407940894ADF81620002B4DD17748022145222B8900F073
:204BC000F9FBAA7A002A40F09B8007AB00936E4806A900220DF1160300F05CFF00282ED1F3
:204BE000089B002B3EDB08A9BDF8163009F1840B00915A46644867490393FFF73FFF00281A
:204C000036D03478614A002C97D1AB7D18077CD5604B93F90610002977DB9B7D190774D4C3
:204C20005B4C5D49A1232160137089E7484601F0FFF83478A7E700221A7003218CE7BDF847
:204C40001620079B402A28BF40220893ADF81620C7E700F0A7FB0121034645224D4800F0BC
:204C6000A9FBAEE74A4C4D4A82232260337067E70AA941F8040D444800F0FAFE044648486B
:204C800003F072FC824678B990E007DD9AF80830DB0603D509990B5C2F2B0CD0DAF800A032
:204CA000BAF1000F00F08280DAF8040013F0ECFB8442EAD109990246DAF8040013F012FC36
:204CC0000028EBD1AA790123013A9340DBB2D80740F1A380DAF81040002C00F09E8008ABCC
:204CE00000935A46039B28482A49A0479AF808305B0686D550462449264A01F0D1F980E7FE
:204D00002849244800F0A0FE5FE7697DC91160D0089A079B9A4272D00132069900F09E80B0
:204D2000BDF816301B4C0122DFF868A0504600F0CBFEB4F8A430BDF81620934200F2878087
:204D40003478002C7FF4F9AE124809F1460100F03FFB80B2A9F8440090B33478DFF82CA0F3
:204D6000002C7FF4EAAE484601F078F89AF8004020460BB0BDE8F08F054C0B4AA323226008
:204D800033701C46D7E600BF60130020D1320020F0060020AC120020BC9201009C9201006A
:204DA0005C1300206B130020AC9201003E48842100F044FE3C48842100F040FE3478C0E780
:204DC000C1233370394CBBE63846298901F048F9A2E6089A002AB7D0334C013218BF01223D
:204DE0002046402300F070FEB4F8A42020463F2A88BF4022D4F8A81000F084FEA0E72A4CB1
:204E0000B4F8A4108A4233D382232046A37128490F2200F077FE347893E7990704D5DAF8C9
:204E20001440002C7FF45BAF5A0704D5DAF81840002C7FF454AF1C0704D5DAF81C40002C19
:204E40007FF44DAF8521184800F0F8FDB2E75046DAF8A81000F056FE347872E7124CBDF8E3
:204E60001630B4F8A4209A4294BF002201225BE7BDF816308A1A9A4294BF0022012220464D
:204E8000069900F021FE0798B4F8A430BDF816201B1AD4F8A8109A42014428BF1A462046D3
:204EA00000F030FE34784CE7AC120020F00600209C92010010B504460D486160214603F053
:204EC00055FB94F90830002B00DB10BD206A0028FBD0036A002BF8D00268002AF5D0054B64
:204EE0000461C360BDE810400830002300F022BF5C1300203D4A000008B50B4B1A7802B19B
:204F000008BD012209481A7003F02AFB084803F027FB08480849FFF7CDFF00F073FEBDE8E8
:204F2000084000F037BA00BFD0320020581300205C130020BC060020CC920100014803F0D0
:204F400013BB00BF5C13002003F08ABB2DE9F04F83B00191914698460C9FFFF7EFFF064653
:204F6000002800F0A68000252C463B684FF02F0B9C4207D3A8450DD94FF03C0309F8053001
:204F80003B680135621C9A4204D3A84584BF09F805B00135706813F077FA02343A6800EBDC
:204FA000040A924552D805D3A84503D93E2309F805300135F0680AF10104A0B1037893B10C
:204FC0003B689C4206D3A84504D93B2309F80530F068013513F058FA0AF1020A3A6800EBA2
:204FE0000A04944210D8A84503D23B68621B9A4254D83046FFF7A8FF064600283AD0CCB9E5
:205000003B689C42BED3B5E7F368CAEB020208F10101002AA8BF9B18491B09EB0500284AC0
:2050200006F0BEFC0544A84538D33046FFF78CFF0646F8B13B68A34206D8A84504D92C2314
:2050400009F805303B680135013491E77368121B08F10101002AA8BF9B18491B09EB0500F0
:20506000174A06F09DFC0544A84503D93B689A459CD29FE795B934B9DEB13B6843443B6029
:2050800003B0BDE8F08F019C8221204600F0D6FC20460C490F2200F035FDEDE7019C4946C3
:2050A0002A46204600F02EFD2046282100F0D8FCE2E74FF0FF333B6003B0BDE8F08F00BF21
:2050C000E09201009C920100014802F0F5BD00BFE006002010B5038804465BB15D2B05D178
:2050E00088290FD082290DD0012010BD00230380032010BD1948802102F008FC5D232380F9
:20510000012010BD00F046FEE8B900F025FE50EA010318D0C90141EA50614FF47A7200239B
:20512000C00112F097FB00234FF4F0528B4208BF82420FD350EA010314BF0146012107486F
:2051400002F0E4FBDAE7064802F0B6FD5D232380012010BD4FF4F051F1E700BF101400205A
:20516000E006002070B5FDF7C5FF0E490A68821A12D04FF47A73A2FB03230B4ED40944EAAE
:205180004364DD09D6E9002312196B41C6E9002308601046194670BD034BD3E9002310462A
:2051A000194670BD0C140020E00900200148002102F062BDE00600200C2830B438D803016D
:2051C000DBB20C292ED8CCB22343B0F5867F137012D96FF4867543191B0A0D385370907024
:2051E00002230320B1F5867F11D80C2902D90D391154013030BC70470C281FD90D38B1F52D
:20520000867F50704FF001034FF00200EDD96FF486740C19240AD5180D391454A970D81C27
:2052200030BC7047B1F5867F94BF0D240E24CBE7B0F5867F94BFD023E023C2E701200023D8
:20524000D0E700BF13F07F4F2DE9F8434FEA134614BF012700271C4615463B464FEA06493C
:2052600006B17B1C34F0FF0819D001330133401A2A461946FFF7A0FF17B1230E2B540130FD
:20528000B9F1000F01D02E540130B8F1000F09D0230A2B5401302C540130BDE8F883002C66
:2052A000E5D0E3E7002CF6D1BDE8F883F8B50E689DF8187016B902600B60F8BD0C461D4616
:2052C000036811469F5523682A46013323600068184412F045FE23682B442360F8BD00BF6C
:2052E000F8B5069C401A21461F461646FFF764FF054639463018224612F0BCFD2819F8BD59
:205300002DE9F04F83B09DF83480DDF830A0B8F1000F37D0934600221E46994684468E467C
:20532000144617460AF1010303E001349C42224624D8B15CB518414501D05245F5D1C9EB1B
:205340000505CEEB0C000BEB070229460193CDF800C0FFF731FF074449460BEB07002A468A
:2053600012F088FD0134019BDDF800C006EB040901349C42E6462F442246DAD9384603B044
:20538000BDE8F08FCDF830A003B0BDE8F04FFFF7A7BF00BF08B512F095FE014B188008BDA7
:2053A000AE320020024B1888013080B218807047AE320020F8B504460F4616461D46002122
:2053C000AC2212F031FE6771A6712581F8BD00BFF0B501220023016002710B7004680579A1
:2053E000227883B042EA85122270056842792C78120102F0300222432A700568827A2C787C
:2054000002F00F0222432A7002688479547002890468120AA27002680489D470827912B939
:20542000042003B0F0BD0568827A04354AB100F10A0212F8014F013305F8014B847A9C429B
:20544000F7D8C37C0E46C3F34001044661B190F86A30002100932A4604F16B030120FFF7D7
:205460003FFFE37C054401211A0709D5226C636C032000922A46FFF733FFE37C05440321AF
:20548000DF060BD594F824302A460093042004F12503FFF725FFE37C05440421980607D5C2
:2054A0002A4600230520FFF7CDFEE37C054405215A0607D52A46636E0620FFF7C3FEE37CEC
:2054C00005440621DB0907D02A460720B4F85030FFF7B8FE07210544237DDF070BD5A06C4F
:2054E0002F22E36C8DE805002A460820FFF708FF237D0544082118070BD5E06D2F22236EBD
:205500008DE805002A460B20FFF7FAFE237D05440B21DA0607D52A46A38B0C20FFF792FE67
:20552000237D05440C215F0607D52A46236A0E20FFF788FE237D05440E21DB090CD0D4F8C9
:2055400094002622D4F898308DE805002A460F20FFF7D6FE0F210544637D980708D52A46B3
:20556000B4F868301120FFF76DFE637D05441121DA060BD5606D2622A36D8DE805002A462B
:205580001420FFF7BDFE637D05441421DB091AD0676F94F878303F010BB147F00807B4F802
:2055A0007A3000201B0900E01046421C5B0892B2FAD10AB100F00F032A463B431720FFF71F
:2055C00041FE17210544A37D1F071CD5D4F8807094F884303F010BB147F00807B4F8863034
:2055E00000201B0900E01046421C5B0892B2FAD10AB100F00F033B432A461B20FFF722FE65
:20560000A37D05441B21D80607D52A461C20D4F88C30FFF717FE1C210544E37D1A0709D507
:20562000226B636B232000922A46FFF759FEE37D05442321DB0908D0A26BE36B27200092A0
:205640002A46FFF74DFE27210544A37EDB0606D52A463C20D4F89030FFF7F4FD0544236818
:20566000EB1A3E2B12DCB4F8A42022B1FF2305F8013BB4F8A4202846D4F8A81012F070FC60
:20568000B4F8A430AD1BE81803B0F0BD034B044A002020601A6003B0F0BD00BFF006002077
:2056A0000C9301002DE9F04F0C460546002185B01746AC2212F0B8FC2C602678B6092E7199
:2056C0002378012EC3F301136B71227802F00F02AA726378AB71A178E37843EA01232B8139
:2056E00006D0B04BB04A80201A6005B0BDE8F08F082A06D9AB4BAD4A80201A6005B0BDE87A
:20570000F08F04F10408414605F10B0012F0B2FB05F113000021082212F086FCAB7A04EBE6
:20572000070A984405F154034FF0000905F1580B0393D04580F0678198F8003003F0F002E6
:20574000F02A00F0628118090D2803F00F0300F03E810E2800F0418108F101010D2B00F047
:2057600032810E2B00F0448101EB0308D04500F248818144B9F13C0F00F2438105EBD90E7A
:205780009EF8132009F0070006FA00F0104309F1FF328EF813003B2A00F20C81DFE812F08C
:2057A000F6000A01F300E800E500DB00D000C6000A010A01BC00B2000A01A8009E000A01D7
:2057C00093000A010A018B000A010A0172000A010A010A0157004C000A010A010A010A011D
:2057E0000A010A013C000A010A010A013C000A010A010A010A010A010A010A010A010A0197
:205800000A010A010A010A010A010A010A010A010A010A010A014100624B654AA5201A6033
:2058200063E733B1002311F8012B414542EA0323F9D1C5F890307CE733B1002311F8012B24
:20584000414542EA0323F9D1C5F88C3071E733B1002311F8012B414542EA0323F9D103F004
:20586000070023F00F02102181408240C3F3C0001B09A5F88610C5F8882085F88400C5F859
:20588000803056E733B1002311F8012B414542EA0323F9D103F0070023F00F02102181402D
:2058A0008240C3F3C0001B09A5F87A10EA6785F878006B673DE726200A46009003995846C9
:2058C000FFF7F4FC35E733B1002311F8012B414542EA0323F9D1A5F868302AE726200A460C
:2058E000009005F1940105F19800FFF7DFFC20E733B1002311F8012B414542EA0323F9D149
:205900002B6216E733B1002311F8012B414542EA0323F9D1AB830CE72F200A46009005F1D9
:205920005C0105F16000FFF7C1FC02E72F200A46009005F1480105F14C00FFF7B7FCF8E6E1
:2059400033B1002311F8012B414542EA0323F9D1A5F85030EDE633B1002311F8012B4145B7
:2059600042EA0323F9D16B66E3E685F89C60E0E6082B28BF08231A4685F8243005F12500A1
:2059800012F078FAD5E669642B64D2E6082B28BF08231A4685F86A3005F16B0012F06AFA41
:2059A000C7E600BFF00600203C930100549301007C93010019F0010F3FF4BBAE1D4B1E4A18
:2059C00082201A6091E611F8013B0D33CCE698F8010008F102010D30C0E698F8022098F84B
:2059E000010002F20D1202EB002008F10301B5E691F801E011F8022B0EF20D1303EB02231B
:205A0000B2E6802071E600206FE608F10102A31A3B449BB2402B84BF40210B464FF000005E
:205A2000C5F8A82094BFA5F8A430A5F8A410D0545BE600BFF0060020A4930100FF299ABFD9
:205A4000817101200020704710B50446082A28BF0822A2720B3012F00DFAA07A10BD00BF0C
:205A6000037D818343F0100303750120704700BF037DC3F3C00313B1036E0B60C36D184626
:205A8000704700BFC37C416643F04003C3740120704700BF30B4447D029DE4110ED009B195
:205AA000446F0C6012B190F87810117013B1B0F87A201A802DB1C36F01242B60204630BCC1
:205AC00070470124FAE700BF10B4A3F11004B4F5FE6F02D8B1F5801F03D300205DF8044B0F
:205AE0007047447D003218BF012280F8782064F07F024167A0F87A3042755DF8044B0120B7
:205B0000704700BF402A28BF4022C0F8A810A0F8A4201046704700BFF8B50446008878B11C
:205B2000B0F5DA7F08D11C4B1B788B4216D04FF4DA7323800120F8BD002323800320F8BD3A
:205B4000014602460AF0BCFD43F21632134B028218604FF4DA7323800120F8BD104B1B7835
:205B60009B07E4D50F4A104B1278104D2832DFF844C00F4F32F803E008330FCB002685E8E7
:205B80000F002846DCF800103A88A5F810E0AE74FEF7A4FFCBE700BF453F00202014002032
:205BA000BC3C0020E8320020BC37002024140020AC370020C43C0020CB688A6830B40D6887
:205BC0004C68056044608260C3600B8A30BC03828B7C8374704700BF38B5102205460C46CD
:205BE00012F016F920B92A8A238A9A4202D038BD002038BDAB7CA07C181AB0FA80F04009CA
:205C000038BD00BF0148002102F036B8F406002070B582B0B8B148F2FE0314460288054642
:205C20009A420E4603D00A4B5B6A984758B12B8A084A31461068009322462B460AF04EFCB9
:205C4000204602B070BD4FF0FF34204602B070BD00C5010020140020064B10B501220648A7
:205C60001A7002F07DFC054B1B6813B1BDE81040184710BDD2320020381400200093010053
:205C80002DE9D04D1F4B83B01B7804460BB9FFF7E3FF1D4802F068FC214680461A4802F07F
:205CA000A9FC194802F060FC014628B3D4E90467D0E904239F4208BF964207D21FE0D3E952
:205CC00004AB5F4508BF564503D319460B68002BF5D122460C4802F0A3FC0B4802F044FCA4
:205CE000804506D0094B9B68019303B0BDE8D04D184703B0BDE8D08D002CEAD1EDE70021B9
:205D0000E7E700BFD23200203814002000930100064B10B55B6804469847C4E904012146B7
:205D2000BDE81040024802F065BC00BF0093010038140020074970B54968064614461D4623
:205D4000884724184D41C6E904453046BDE87040FFF796BF0093010010B50C4802F004FCFD
:205D6000044678B10A4B5B689847D4E90423994208BF904203D2101A63EB010110BD002025
:205D8000002110BD4EF66020002110BD38140020009301002DE97043164D6E68B0478046A4
:205DA0001548894602F0E0FB044628B1D0E90423994508BF904502D20020BDE870830E488B
:205DC000214602F017FC63680BB120469847AB689847094802F0C8FB0028EDD0D0E90445AC
:205DE000B047A94208BFA0422CBF01200020BDE8708300BF009301003814002070B5064624
:205E000009480D4602F042FC044658B10023868080F8243029462630FFF7CEFE034821462D
:205E200002F0A4FB204670BD040700203C14002070B110B504460830FFF76AFF2146054828
:205E400002F0D8FB2146BDE81040034802F03CBC704700BF3C140020040700202DE9F04194
:205E600090F846500446C5F3011535BB90F82430042B13D8263004F14601B4F84420FFF76E
:205E8000C7FE94F8243033B3226A04F10800520022620023BDE8F041FFF74CBFC66B263097
:205EA000276C00F063F82046FFF7C2FF8EB1384629463346BDE8F041184704F14601B4F825
:205EC00044202630FFF7A4FE2046BDE8F041FFF7AFBFBDE8F0810B4B2461E36012F0F2F8B0
:205EE00040F2DD52084BA3FB00139B0A02FB130202F6B832226204F108000023BDE8F0412A
:205F0000FFF718BF0D5F0000B76FA5AE83683BB193F824201846013283F82420FFF79EBF86
:205F2000704700BF10B50446074802F01DFB48B18388A34203D106E08388A34202D00068B6
:205F40000028F9D110BD10BD3C14002010B504460448214602F0B8FB2146BDE81040024838
:205F600002F048BB100700204814002070B505460D4802F0F9FA044698B1002601E02468A9
:205F80006CB104F118002946FFF726FE0028F6D02046FFF7DBFF24680136002CF1D1304603
:205FA00070BD0646FBE700BF481400202DE9F041054613488846164602F0D6FA0446E8B18F
:205FC000002704F118002946FFF706FE18B194F82C30B34205D02468002CF2D13846BDE80B
:205FE000F08104F12D004146324611F011FF0028F1D12046FFF7AAFF0137ECE70746EDE7E3
:20600000481400202DE9F041064614480F4602F0ABFA0446F8B14FF0000804F11800251DA0
:206020001EB13146FFF7D8FD78B1BD4208D0284612F02AFA39460246284611F0E9FE20B9C5
:20604000204608F10108FFF781FF2468002CE4D14046BDE8F0818046FAE700BF4814002077
:20606000F8B505460D480E4602F07EFA044698B1002704F118002946FFF7AEFD10B1E38E0C
:20608000B34204D02468002CF3D13846F8BD2046FFF75CFF0137F5E70746F6E74814002017
:2060A0002DE9F84F0B468979012901D0BDE8F88F92F906100029F9DBD97C49060FD5D3F818
:2060C000A060002E4AD0596E59B10129EED1304603F10B019A7ABDE8F84FFFF767BFBDE887
:2060E000F88FD3F860B030465946DF6D144603F10B0A93F80A90FFF785FF1E4802F0C6FAC3
:20610000B846054660B3122FC4BF1327B8463A46594600270430A84411F0ACFE314605F1A9
:20612000180088F80470FFF747FD4A46514685F82C9005F12D0011F09DFE0F482946EF86BF
:2061400002F014FAA96B20464B1CAB63FFF79AFCAB6B23F07F43AB63BDE8F88FBDE8F88F73
:20616000A323A3712046BDE8F84F04491022FFF7C9BC00BF100700204814002000940100F2
:2061800010B5BAB00A460446282168460CF0BAF96B46C021034A0AA805F002FC0AA8A04773
:2061A0003AB010BDE0920100F0B50746B1B0D9B10D460126002404B3E3070DD5C021134A79
:2061C0002B78684605F0ECFB6846B847082E12D0013601350134EEE76846C0210C4A05F07C
:2061E000DFFB6846B847E9E76846C021094A05F0D7FB6846B84731B0F0BD6846C021034A88
:206200002B7805F0CDFB6846B847E1E7289401002494010014940100F0B50388B1B00646AD
:206220000D461BB36F2B1CD1254B264F186843683A68254829469847012836D96C46234AF2
:20624000C021204605F0ACFB2046A84728462049FFF7AAFF2046C0211E4A05F0A1FB2046EA
:20626000A84700233380032031B0F0BD13781446202B03D114F8013F202BFBD0204620219B
:2062800011F060FF0F4F386018B1002300F8013B3860204600F090FF094B186038B10A4A02
:2062A00000216F2311803380C1E70020DCE76846C021094A05F074FB68466C46A847BEE722
:2062C0004C1400205414002050140020689401002C3300206C9401003094010000F054BFED
:2062E000074A106858B170B40648074E074D0024146031702B80006870BC01F0DDBC7047F8
:20630000A81400208C140020D3320020B032002030B50388B1B004465BB90D46074AC02106
:20632000684605F03DFB6846A847054B05489B6A984700230320238031B030BD3C950100DB
:2063400000C501006095010030B50388B1B004465BB90D46074AC021684605F021FB684660
:20636000A847054B0548DB6A984700230320238031B030BD6895010000C5010060950100FC
:20638000F0B50388B1B0074623B1002303203B8031B0F0BD114A0D466846C02105F000FB8F
:2063A0006846A8470E4802F0DFF806460028ECD0746823685BB1A368C0210A4A684605F09B
:2063C000EFFA6846A84754F80C3F002BF3D1304602F046F906460028EAD1D6E78C950100FC
:2063E000581400204499010070B50388B0B0054623B1002303202B8030B070BD0C46374A33
:20640000C021684605F0CCFA6846A047344BC0211B68344A344E684605F0C2FA6846A047C6
:206420003368C021314A684605F0BAFA6846A0473368002BDDD005F02BFB064603F0A0FA12
:20644000C02103462A4A684605F0AAFA6846A047284BC0211B68284A684605F0A1FA68468D
:20646000A047264BC0211B78254A684605F098FA6846A0476846C021224A05F091FA6846EE
:20648000A04716B3311D2046FFF78EFE6846C0211D4A05F085FA6846A047FCF72BFE1B4B95
:2064A000C0211B681A4AC31ADB09684605F078FA6846A04708F0A0FCC0210346154A6846DE
:2064C00005F06EFA6846A04793E76846C021124A05F066FA6846A047DFE700BFA4950100BC
:2064E00004260020B4950100FC250020CC950100E495010038260020F89501007433002018
:20650000109601002896010028C10100F4330020449601006C9601003C960100F0B5048802
:20652000B5B0074624B1002303203B8035B0F0BD0D4608F0CBFA18B102203C8035B0F0BDF8
:2065400007F0E4FA0646C02104A8002E39D0204A05F026FA04A8A847306902F005F804466A
:20656000F288B38804A80092C0211A4A05F018FA04A8A847F4B1627D237D0092228AC021FE
:206580000192628A04A80292134A05F009FA04A8A847A11D2846FFF707FEC0210F4A04A83F
:2065A00005F0FEF904A8A847204602F059F804460028E0D1304607F0AFFA06460028CBD162
:2065C000B1E7074A05F0ECF904A8A847ABE700BFB4960100C4960100F096010028C10100F5
:2065E000949601002DE9F0430788B3B00546002F29D188461446002A33D01678002E3BD1A4
:2066000030463C4911F004FE00282CD13A4E0123336014B12378002B39D1384C0023236059
:2066200002AF3368ABB1364B364AC02100923846354A05F0B5F93846C047206806F048FA59
:20664000306806F031FA00232B80032033B0BDE8F08320682D492B4A2D4B002818BF0A465B
:20666000E3E71646CCE730462A4911F0D1FD002838D1214E3060CCE71046202111F062FDAF
:20668000002834D000F8017B26460446B8E72046202111F057FD08B10023037020461549F6
:2066A00011F0B6FD814658B902AFC0211A4A3846124C05F075F93846C047C4F80090B0E7B1
:2066C0002046144911F0A4FD0028A6D02346134A02A8C02105F064F902A8C04700232B8095
:2066E0000220B3E7334602A8C0210D4AF2E72646044685E754970100941400208814002018
:206700003C97010048970100B49701004C97010038970100E8920100749701009497010012
:2067200058970100F0B50388B1B0054623B1002303202B8031B0F0BD0E46134AC0216846FA
:2067400005F02EF96846B047104C04F1600714F8023C227C0BB1012A03D92034BC42F6D1FC
:20676000E5E70B4AC021684605F01AF96846B04730462146FFF704FD6846C021054A05F015
:206780000FF96846B047E8E7D09701005A360020E897010028C1010070B50388CAB0064685
:2067A00023B10023032033804AB070BD304A0D461AA8C02105F0F4F81AA8A84709F030FFBB
:2067C00009F0E2FE0446C0211AA8002C49D0294A05F0E6F81AA8A8472846211DFFF7D0FC49
:2067E000A3691AA8C0215BBB234A05F0D9F81AA8A84709F00FFA00282BDD09F00BFAC021DF
:2068000003461E4A1AA805F0CBF81AA8A84709F0CBFA04460028C4D02246642101A809F049
:2068200025FBC021164A01AB1AA805F0B9F81AA8A847204609F0BEFA04460028ECD1B0E755
:20684000104A05F0ADF81AA8A84709F0E3F90028D3DC1AA8C0210C4A05F0A2F81AA8A847AE
:206860009FE70A4A05F09CF81AA8A847C1E700BFEC970100E8970100189801003C98010013
:206880005C980100FC9701006498010030980100F0B50388CFB006466BB91B4B0D461B7B3B
:2068A00013B10CF069FE58B91EA8C021174A05F077F81EA8A8470023032033804FB0F0BDDA
:2068C000134F386802F0ACF80446C0211EA8114A05F066F81EA8A847002CECD022467821E3
:2068E00068460CF0EFFEC0210B4A6B461EA805F057F81EA8A8472146386802F059F80446C7
:206900000028EBD1D7E700BFD03D0020789801005C0900209098010044990100F0B503881C
