:020000040000FA
:2000000000500020E9000000E1000000C9000000E5000000E5000000E5000000000000002E
:20002000000000000000000000000000E5000000E500000000000000E5000000E50000002C
:20004000351C0000E5000000B1240000E500000051130000E5180000E5000000E500000085
:20006000E500000005250000E5000000E5000000E5000000E5000000E5000000E500000013
:20008000E5000000E5000000E5000000E5000000E5000000E5000000E5000000E500000038
:2000A000E5000000E5000000E5000000E5000000E5000000E5000000E5000000E500000018
:2000C000E50000004D270000044B1A68B2F5806F03D01B689B0500D4FEE7704728ED00E005
:2000E000FEE700BFFEE700BF08B506F011FC104A104B9A420DD2D0430F4918440B4620F060
:2001000003000430084453F8041B834242F8041BF9D10A480A494FF000028842B8BF40F8AB
:20012000042BFADB03F006FDFFF7CEFF08BD00BF00000020D9080020BC2F0100E008002069
:2001400095310020F0B5002706463C463D4683B0304604F02FFD0195019B9C4206DD00BF21
:20016000019B01330193019B9C42F8DC304604F047FD0195019BC4F5C874A34206DA00BF74
:20018000019B01330193019BA342F8DB0137B7F5487F06D0B7F5C87FCCBFC7F548743C46AE
:2001A000D6E703B0F0BD00BF38B5194D194C2B6820465B68012198472B68012211461B685E
:2001C0002046984707F0F4F801F08EFD01F00CFD00F0FAF804F054FD04F0B8FC0120FFF79B
:2001E000B1FF0D490D4A0E4809680123136003600B691020A2F5FF521268984707F0DCF831
:2002000001F01AF8BDE838400020FFF79BBF00BFD801001000400340B00100100C400940CD
:200220000800094008B541F2342002F0A5F901F0F3FA04F0F7FB074801F016FB064808210D
:2002400001F0BCF904F016FBBDE808400220FFF779BF00BFD1490000CC290020F0B585B0EE
:20026000002602A80821294C0096019601F0A6F99DF80F309DF80E70E56A43EA072742F28E
:2002800034210220A84739460320A84731460120A847636B02A908221D4D0B209847A46ABB
:2002A00069460120A0472B68022B1ADC01A90220A04758B92B68022B04DC0020FFF742FF16
:2002C00005B0F0BD0199134807F024FF2B68022BF3DD114807F01EFF0020FFF733FF05B0B3
:2002E000F0BD0E4A0E490F4807F014FF0E4807F011FF2B68022BD9DD084A0949094807F082
:2003000009FF0099094807F005FFCFE7F80F010064060020000F01006C2B0100B00E010041
:20032000C00E0100C80E0100D80E0100F00E010001F00CBB024B4FF080421A60704700BF3B
:20034000A020024038B50A4D0A4C2B681E20DB6B98472B684FF080422260DB6B01209847AF
:20036000022323600448BDE8384001F031BC00BFB4010010A020024028040020024B4FF030
:2003800080421A60704700BF90200240024B4FF080421A60704700BFA0200240014B1870A5
:2003A000704700BF0120024010B5064C042023685B699847236804205B6B98470128F9D1B4
:2003C00010BD00BFB8010010F0B591B006F0F0FF0746FFF7E9FF1E4B4FF4A0601B68DB695F
:2003E00098471C4B01211C4A196013689907FCD500201A4C06F014FA01AD194801F0E8FB5D
:200400000FCC0FC50FCC0FC50FCC0FC594E80700019C85E80700621C0FD0124E01AD336835
:2004200020469B6B9847336820469B694FF40051984755F8044F631CF1D1FFF783FF0FB1E0
:2004400011B0F0BD11B0BDE8F04006F0B5BF00BFB80100102820086028200840940F0100C2
:200460003C040020B40100100120704708B501F0DFFC30B1034B5888A0F10200B0FA80F03A
:20048000400908BDFC04002008B501F0D1FC30B1044B5B88022B14BF0220012008BD022076
:2004A00008BD00BFFC04002030B583B001F026FF044601F0BDFC08B903B030BD01A90E4815
:2004C00001F0BEFC0128F7D100F0B4FE638803F44063002BF0D16FF03F052D1A06E000F0AD
:2004E000BDFF638803F44063002BE5D100F0A2FEC542F4D4E0E700BF0100010470B582B098
:2005000001F096FC234C10BB00256580E37B214E65F30413E373E37B304643F02003E37302
:20052000E37B01A943F04003E373E37B43F08003E373A37F5BB2C3F5FF6307339BB2238307
:2005400001F07EFC012809D0284602B070BD6388022B08BF0120D7D102B070BD00F06AFE02
:2005600073889BB2022B0DD06FF03F052D1A05E000F074FF63889BB2022B03D000F05AFE77
:20058000C542F5D4608880B2A0F10200B0FA80F04009E1E7FC04002008B5B32994BF0A4657
:2005A000B4220146024810F075F9002008BD00BF2209002070B50E4D0E4E2C68002006E001
:2005C0002379022B06D024682B689C420ED02379032BF5D133780120002BF4D1064803F014
:2005E000B3FF24682B6801209C42F0D170BD00BF140900207D2900201806002038B50D4AF9
:200600000024136819681C725C721C71116002F0D9F80546BFF35F8F074B1A7812B11C707F
:20062000FFF76CFFBFF35F8F2846BDE8384002F0D1B800BF1C0900207C2900202DE9F043A1
:200640002F4B83B080460F461D6800F0F3FD2D4E361A03E000F0EEFDC6420AD52C79022C2A
:20066000F8D0294B0020032C187008D003B0BDE8F0832C79244B0020032C1870F6D1B5F865
:200680000890B9F1060F28DDA9F10606BE4224DC0A3540462946324610F0FCF8DFF87880E9
:2006A000AA57AB1988F800205B790422A9F10501164F0DEB020029443B7010F0EBF8019848
:2006C00001F0A6FE124B134A1B7810605BB1FFF795FF304603B0BDE8F083FFF78FFF00204D
:2006E00003B0BDE8F08398F80010042049B289B205F00AF83978204605F006F8E7E700BFA7
:200700001C090020E2FAFFFF7A2900207E2900207D2900205C0C0020D70800200C2801D0DE
:2007200001207047042A01D0022070470029FBD0024B00201B680B60704700BF5C0C0020BC
:2007400070B582B001F074FB002837D01D4C6388022B33D11C4E00F06DFD7388022B0BD166
:200760001A4D2D1A04E000F079FE7388022B03D100F060FDE842F6D401A9154801F060FBF0
:2007800000F058FD6FF03F052D1A08E06388022B09D100F04FFDC54205D500F05FFE01F0F5
:2007A00047FB0028F2D16088A0F55050043880B201288CBF0020012002B070BD012002B01A
:2007C00070BD00BFFC0400206C05002000FEFFFF0100010410B5012082B0FFF7DFFD104C34
:2007E000104B05211A68237E84F82410928803F0F80343F00803204601A96283237601F0E0
:200800001FFB012802D0002002B010BD204601F061FBA0F10100B0FA80F0400902B010BDFD
:20082000440500200006002000B583B001A90A4801F006FB012803D0002003B05DF804FB30
:20084000054801F047FBA0F10100B0FA80F0400903B05DF804FB00BF2C05002008B5FFF759
:20086000E3FF012801D0002008BDFFF747FEC0B208BD00BF08B5FFF7ADFF012801D000200D
:2008800008BDBDE80840FFF7E9BF00BF08B5FFF757FF01F01BFC002210460749074B4A8054
:2008A00003F510711A799033022A08BF03F88C0C8B42F7D108BD00BFFC040020D8090020A9
:2008C00008B501F04DFE012801D0FFF7DFFF012008BD00BF2DE9F84301F042FE012818D019
:2008E00001F0A6FA88B901F029FA01F0A1FA0446002840F0888001F005FB012805460BD09C
:2009000001F0E4FB0020BDE8F883544B5B88022BE9D10120BDE8F88301F054FC4FF4237204
:200920004F4950480FF0B6FF4F4B5049504F1C70504A0224DFF890E10D704F4E3C704F4810
:20094000032404278EF8004001F511711770052506244B4A35700470196313684849002BCB
:20096000FBD04FF00009C1F800904FF6077846F2A31C444ADFF854E1434F444E444D454C80
:200980004548464BDFF848910BE00B4602F12400D2F820C0D2F83480976BD2F83CE02032D4
:2009A00071C803F120014945C3F800C058609C60DD601E61C3F814809F61C3F81CE0E4D1B5
:2009C000374B3849384D1962384A394939482C4C394F3A4E5D6200259F62D8621E63012046
:2009E0002560116006F0B0FE354806F013FE224613682349002BFBD000230B6001F0EAFA31
:200A000001287FF47DAF01F00BFC2E48002103460E46022588245A791E7102F0FC0265F365
:200A200083025A71DC80903343509031B1F5107F244AF0D1C2F8B02101F098F9FFF7CAFEC4
:200A4000012802D00020BDE8F883FFF7EDFE0128F8D1BDE8F843FFF751BD00BFFC040020C5
:200A6000E41601001C040021900300217903002175030021AE030021AB030021810300210A
:200A80001C1004403010010030400040B00A3F002E1F133F4D00F1247F14071300C000216D
:200AA00080C60021603953632010101A0010044001010E0411161216136F236E546B00702D
:200AC00044050020D80900207703002101400340A0C60021F0B583B0072800F2AF80DFE817
:200AE00000F0212AADAD5D6A6F04654B197001F09FF900285CD0634B5B88022B58D1FFF734
:200B00001FFE012814BF0324002401F07DFB012800F0AE80FFF75EFE012800F0A180032012
:200B200003B0F0BD012900F09580002900F08880022003B0F0BD8029FAD8534C4FF47A7339
:200B4000208AE28903FB00F003FB02F200F57F40A2F55C23FF30A3F587634C4A03EB20433E
:200B6000A2FB0323C3F38713994221D0C82303FB01F1474801F55C2303F58763A0FB032116
:200B8000444AC1F38F1102FB01331B04A0FB0323414A9B09E18123821184A8E731F00403E0
:200BA000C6D13E4BC1F380011A7819708A429ED1002003B0F0BD31F00103B9D1C8B2AFE74B
:200BC0004FF6FF75364EB788AF4208BFFF2009D03246002000E0184608329488431CAC4270
:200BE000DBB2F8D156F830302D4C9942A0DB236899429DDC0191FFF757FC4FF6FF739F42D0
:200C000001993BD022461C460023083290880133A042DBB2F9D1013BDBB256F8332006EB28
:200C2000C300914203F1FF3325DD5A1CF5D1FFF7D1FD0128BCD1FFF711FEB9E701206FE724
:200C4000019101F08DFC0128B2D0FFF71FFE0199084665E7FFF73EFE01287FF460AFA7E72B
:200C6000FFF7FCFD012808BF20463FF459AF56E701F066FB4EE70B4B1860D8E70023CAE7CF
:200C8000D6080020FC0400202C0500201F85EB51D34D621018FCFFFF440500207D29002032
:200CA000140F01000006002099B1F0B50C4683B0172800F2B780DFE800F08066B5B55D0E9C
:200CC000544E211B16B5B5B50E129E99B595918D0E5A022070470020086003B0F0BD802376
:200CE0000B600020F9E75A4B00201B780B60F4E7584B00201B785BB20B60EEE701F098F8C7
:200D0000002840F09180FFF7E5FD012840F0948007460A256FF07F066B1E13F0FF054FF0F6
:200D200000014FF004020FD001A80FF08DFE40F20343694601A8ADF8043001F081F818B17F
:200D40009DF902607306E7D0002F7AD12660803675D00020C1E7404B002093F900300B60D6
:200D6000BBE73E4B00201B681B680B60B5E718230B60EEE700203A4B08601B78002BE8D01D
:200D800004230B60A9E7374A4FF47A73118AD28903FB01F103FB02F201F57F41A2F55C23DC
:200DA000FF31A3F58763304A03EB2143A2FB0323C3F38713236000208FE701F039F830B186
:200DC0002A4B5888A0F10200B0FA80F040092060002082E73E230B6000207EE7A0230B6040
:200DE00000207AE706230B60002076E7204B00201B680B6071E74FF6FF751D4EB388AB4244
:200E000008BFFF2109D03246002100E01946083290884B1CA842DBB2F8D156F83130002072
:200E200023605AE7012058E7104B5B88022B08BF00273FF46EAF66E76FF07F032360032011
:200E40004BE701F08DFB012880D0FFF71FFD7DE77E290020D7080020D6080020000600200E
:200E60007D2900202C0500201F85EB51FC040020140F010070B582B0044600F0D9FF28B3F3
:200E8000264B5B88022B08BF00251FD12449221DA31C244C92B29BB2100A2382E1614870D0
:200EA0000A70FFF74DFC002001F0FAF9204601A900F0C6FFD0B9012601F010FA00236380FF
:200EC000FFF71CFB4DB9304602B070BDFFF702FD01281ED0012002B070BD01F041FB012848
:200EE000F1D0FFF7D3FC304602B070BD00F0B6FA0D4E317800E071B163880A4A03F4406398
:200F0000002BF8D0508880B2B0F5505618BF0126D2E70546BAE700F00FFDEAE7FC040020F9
:200F2000200900206C0500207D29002010B50C46B32998BF2246014688BFB42203480FF0B1
:200F4000A9FC2046BDE81040FFF794BF2209002030B583B000F06CFFD0B1184B5B88022B96
:200F600020D000256FF07F0401A9154800F068FF012803D19DF906406306F5D0ADB9114B53
:200F800093F90000A042D4BF0020012003B030BDFFF7A0FC01280FD001F0E2FA012801D00E
:200FA000FFF774FC012003B030BD01F0D9FA0128E5D0FFF76BFCE2E70546D3E76C050020AC
:200FC00001000304D608002008B501F0C9FA012803D0BDE80840FFF7BBBF08BD10B500F0C7
:200FE00027FF80B1124B5B88022B0BD1114C237853B9114B1B689B0601D5012323702078A8
:20100000C0B210BD002010BD01F0AAFA01280DD0FFF79EFFB0FA80F0400920702378002BBD
:20102000EDD1054B6FF020021A60E8E70020F4E7FC0400207A29002008100440F8B51E488B
:2010400000F0C6FD06F03AFA012802D000242046F8BD1A4C4FF41072204600210FF0F4FCD8
:2010600040F2863043F23331154A164B1460164D164ADFF870E0164F00261C605E60AB62FF
:20108000C5F82CE03884D0811182FFF723FC01280446DBD10F4B104A1E6013680F4843F07C
:2010A0002003136001F030F901F034F931460C4803F082F9CBE700BFEC050020D8090020A6
:2010C0001C09002014090020FC0400202C05002044050020081004400C100440E80F010000
:2010E000180600200809002010B5064C042023685B699847236804205B6B98470128F9D1D1
:2011000010BD00BFB8010010F8B51A4A00200021C2E90001184B04201B685B6B98470128A4
:2011200001D0FFF7E1FF144B00201B68DB699847124B0121124A196013689B07FCD5114A46
:2011400011491368096823F4807323F001030F4C13600B6820460E49984740F221200D4D7E
:201160000D490E4B04273126012227602E6008601A60F8BDE0080020B801001028200860EE
:20118000282008400C000140C801001000000140002100043C000140080001400400244302
:2011A00010B40949094C0B68226808688342FAD1DB01074903EB52620023C1E9002310BC3D
:2011C000D1E90001704700BF082009400C200940E008002010B50B490B4C0B682268086813
:2011E0008342FAD1DB01094903EB52620023C1E9002302F021FF00B910BDBDE8104002F020
:20120000FBBE00BF082009400C200940E008002010B506F0CDF8034B1C6808B906F0CCF89B
:20122000204610BD08200940704700BF0146012000F052B806F0DCB92DE9F04106F0B8F8BA
:201240001D4E1E4B1E4F32680124002580464FF480314FF480703D601C60186019601368F7
:20126000284623219847336820461B6824219847336825211B6802209847124A124913689E
:2012800043F4E02313600D6006F0B2F90F4B1049104A1B6800F50070086014603C601B69A2
:2012A00014209847B8F1000F01D0BDE8F081BDE8F04106F081B800BF8401001004200940B6
:2012C000000024430020094008200940B00100101C200940A0022443431E012B10B419D93B
:2012E000042801D010BC704700231A4610F004001CBF0E4C216013B10D4B0121196012B1B7
:201300000C4B01221A600028ECD00B4B01221A6010BC704710F0010302D0084A01231160C2
:2013200010F00202E2D0064C2160DFE72020094080022443A0022443C00224431820094039
:201340001C200940014B1868704700BF180C002008B5FFF76FFF184B1860FFF73BFF174BF4
:201360001B686BB9164B1B68E3B9164B1B6833B11549164B00204FF4803208601A6008BD03
:20138000124B4FF480721A6006F032F900F205200F4B20F4FF7020F001001860084B1B68CD
:2013A000002BE2D00B49094B0020012208601A6003F0EEF8D9E700BF180C0020A0002443E0
:2013C00080002443C0002443C0022443042009401C2009408002244303490448044B0122F1
:2013E00008601A60704700BF00000840FFFF0F00000C0840F8B505F0DBFF124AB0FA80F0FA
:201400001368012B0BD0104C104D1149114A0123400925600B601360C3070FD4F8BD0E4F4D
:20142000094D0A4E0A4C0B49400940F0020017602E6023600B601360C307EFD5BDE8F84008
:2014400005F0BABF000C084000000840FFFF0F000C0008400401004351E5CC1A0349044825
:20146000044B012208601A60704700BF00000840FFFF0F000C00084008B5FFF7BBFFFEE7A7
:2014800008B5064803F04EFC30B1054B0121054A196013689B06FCD508BD00BF1C0C002030
:2014A000000222431410094070B5054605F080FF0B4C294606460B4803F036FCFFF7E0FF15
:2014C000236868681B689847236868689B6898471128F9D106B170BDBDE8704005F06CBFB6
:2014E000A00100101C0C002038B550B90446134803F018FC28B1234605C813430028FBD1F8
:201500009BB90F490F480B680F4D104C0068002223F4C0530B602A602260C3680120984747
:201520000B4A13689B06FCD438BD054A136823F4C05343F40063136038BD00BF1C0C002078
:2015400004100940A001001080012243000222431410094038B5054605F02AFF04462946B4
:20156000054803F033FC0020FFF7BEFF04B138BDBDE8384005F020BF1C0C002070B50446D7
:20158000B0B10078C0B1A9B10025661804E014F8010F38B1B44205D000F052F9631C05F1A0
:2015A0000105F4D100F092F90128FBD0284670BD0546F7E70D46F5E70546F3E710B40B4BBF
:2015C0000B4C13F8012FFF2A0DD1A342F9D1094A39B11144013801390B78914200F8013F30
:2015E000F9D110BC7047044AF2E700BFC7FF0100CFFF0100F0120050C8FF010038B50C4DC2
:2016000002202B685B6998472B6802205B6B984701280446064BF7D11B684FF40070DB6912
:201620009847044B044A1C6013689B07FCD538BDB801001028200860282008402DE9F0437D
:2016400040F2F275DFF8DC8083B0FFF7D7FFD8F800302A4EDB682A4898473368294C5B69DF
:20166000152098472368DFF8C090274F23F4FE63D9F8002023F0020323603D60D36B03202C
:2016800098472249D9F800300820122208600092D3F840900322132302211948C847D8F850
:2016A00000206023D2F8048019494FF4E1321448C04740F2011240F2013E1649164B142074
:2016C00008601968154841F01001196003681449002B0CBF134673460B603D60036853B1C2
:2016E0002368326843F0500323601369152003B0BDE8F043184703B0BDE8F083B001001095
:2017000000100040381000404410004090200240006CDC02341000402C100040200C0020D5
:2017200030100040D0010010B401001008B5064B02201B685B6B9847012803BF034B186872
:2017400000F00100002008BDB80100106C20084038B50446FFF7EAFF18B1254A136819072D
:20176000FCD4032C03D0234B1B6803B138BDFFF7DDFFE0B9204D4FF400702B681B6A98477B
:20178000032C2AD01D4B01211D4A196013689B07FCD5032000F038FA022000F035FA13200F
:2017A00000F032FABDE83840122000F02DBA154B15481B68DB689847144B15201B685B69AA
:2017C000984740F2F270124A1249136823F4FE6323F0020313600860CCE72B684FF4007000
:2017E0009B6A98472B684FF400701B6B9847C9E718100040200C0020B8010010282008607D
:2018000028200840D001001000100040B0010010381000404410004010B505F0C9FD044660
:20182000054800F0D5F9054B00221A6004B110BDBDE8104005F0C0BD04060020200C002052
:2018400010B50446FFF772FF08B9FFF7F7FE044B2146BDE810401B680248DB69184700BF8C
:20186000D00100100010004010B5134B134C1860134A2368A8B1022111615B6A4FF40070EF
:20188000984723684FF40070DB6A98470D4B01210D4A196013689B07FCD5BDE81040FFF7E4
:2018A000CDBE10619B6A4FF40070984723684FF400701B6B9847E9E7200C0020B80100100D
:2018C00004060020282008602820084008B5FFF72DFF18B1024B1868C0F3C00008BD00BF32
:2018E0001810004038B5FFF789FE40F2F2710C4B0C4A1B68116013F0500F10D00A4C0B4DF0
:2019000005E02B681B699847094B1B6823B923680848DB06F5D538BDC0B29847F7E738BD9A
:20192000401000404410004018100040D0010010200C002000100040034A136823F00403BC
:20194000136030BF704700BF10ED00E02DE9F84305F02EFD02F0C2FD18B1BDE8F84305F012
:201960002BBD8B4803F0DEF90225044648B1636823B19847A84228BF2846C5B22468002C8C
:20198000F5D1FFF757FC834B80461B68CBB91F46994602F051FB002840F0C88004460646E5
:2019A000012D1DD0022DD8D1002F3AD0A9F14101A4B38B1B002B31DB31460220FFF78CFCD4
:2019C00036E0754BD3F80090C0EB0903022B00F1C180A3F28F23002BC0F2C7800127D8E76E
:2019E000002C00F0CB806FF00703C8EB0303F34200F1C18008F580318B1B11EA230138BF8D
:201A000031460220FFF768FC644A136823F00403136030BFBDE8F84305F0CEBC0420FFF7B5
:201A20005BFC002CC8D108F1FF310220FFF754FC574803F077F90625044600286FD0A36810
:201A4000022003B198472369246825EA0305002CF5D1FFF703FD6B0705F0060462D4002CE7
:201A60007DD100F09DF90020FFF73EFD4C494D4A0B684D4823F003030B601368016843F072
:201A80000F0313608B6939209847484A484900231360184613600B6005F0ACFA062C66D09D
:201AA000444C454D454E2B682368326823F00303236053680321424898473B4B1B689B6BC6
:201AC00098472B6805F0E8FB3E4A3368002111603B485B680121984723683B4A012143F05B
:201AE0000303236011602B6805F00EFCFFF7C8FCFFF770FBFFF7B2FC254803F013F90446E5
:201B000028B1E36803B198472468002CF9D100F015F905F051FCBDE8F84305F04DBCFFF778
:201B20009DFC0624284B00221A6098E702F08CFA0646FFF735FB361A002E7FF70EAFFFF7C3
:201B400001FC224B00EB4626C8EB0303F34218D4012425E70023AB4238BF1D463EE7124BCD
:201B600020461B689B6998477BE70123F3E7022005F070FC94E708F1080142E708F5803162
:201B80003FE7022D3FF42FAF012D7FF4E6AE2AE7240C0020800224431820094010ED00E002
:201BA0000010094008100940B80100104010094020042243242208402C200940D801001074
:201BC00000400340800104430C40094071FDFFFF0146014803F0A8B8240C002001460148F6
:201BE00003F0F4B8240C002010B5054803F096F8BDE81040034B20211B6803201B68184757
:201C0000240C002084010010431C0ED010B50446064B4FF4C0421B6800211B689847044AA9
:201C2000A3001A430023136010BD7047B4010010001A4442024B1868186003F00DB800BF69
:201C4000E020024070B51D4B0C461B6805465B68984714F00C0320F0E06222F4EC2207D093
:201C6000042B22D0082B26D00C2B08BF42F4403214F003030CD142F4C04204F080048CB998
:201C80000E4B2846BDE870401B6800211B681847022B0DD0012B04F0800408BF42F4804235
:201CA000002CEDD042F48022EAE742F40032DFE742F40052E1E742F48032D9E7B4010010A7
:201CC000064B1B68C340DB074CBF054B054B1B6823FA00F000F00100704700BFD020024077
:201CE00080200240C020024010B584B00022412302A802920393FFF7D7FB042005F090FB21
:201D0000032812D00321042005F05AFB042005F087FB0328FAD1074A1C231268009054683D
:201D200000214FF040520448A04702A8FFF712FC04B010BDA401001000A00C4000B583B0C6
:201D40000022412368468DE80C00FFF7ADFB012005F066FB012803D00121032005F030FB58
:201D60006846FFF7F7FB03B05DF804FB00B583B00022412368468DE80C00FFF795FB012082
:201D800005F04EFB012803D0044B986B05F0FAFA6846FFF7DFFB03B05DF804FB48000010F1
:201DA00010B582B041236846002401930094FFF77BFB0320214605F003FB012005F030FBA4
:201DC00018B1044B986B05F0DDFA6846FFF7C2FB02B010BD4800001070B50388044653B1E6
:201DE000B3F52F7F03D182290AD0012070BD00230380032070BD4FF42F732380012070BD1A
:201E0000094B0A4E1D69FFF729FB03F029FC03F0C1FB8021A847002880B2ECDD03F0B4FB5A
:201E2000F3689847EFE700BFF80F0100142B0100024B186800F00100704700BF9C21084052
:201E400010F0030370B506460D4602D10288110508D405F0ADFA1B4B1B68DB0714D450B317
:201E6000002070BD438005F0A3FA164B1B68DA07F5D5338813F4405F06D003F44063B3F5B8
:201E8000006F04BF104B1E60104B114C1E6023684CF250322B6003E02368013A2B60DED049
:201EA00013F0FF0FF8D050B12878A0F10100B0FA80F0400970BD05F07FFA002070BD05F0D6
:201EC0007BFAF1E79C2108404C0C002000100440041004400A4A01E0013A0ED0438803F47C
:201EE0004063B3F5806FF7D1428802F44062A2F58060B0FA80F0400970471046704700BF21
:201F000020A1070030B583B005F052FA264C0546236819201B6A9847236812201B6A98479A
:201F2000236819205B699847236812205B6908349847236801205B699847236801205B6BDD
:201F400098470128F9D11949194B1A4A0860186013689B07FCD5144C1748184922680023EA
:201F600003600B60136919209847236812201B699847B5B140F2FF35FEF700FA104B114A6E
:201F80001149124800240D60046001A91A601048FFF756FFA0F10100B0FA80F0400903B029
:201FA00030BD05F009FAE5E7B00100102C20084028200860282008401010046014100460CF
:201FC0000010044051000706000004601C1004400100060410B586B01422002101A80EF077
:201FE00033FD40F60A0215499DF811300C68012161F3030301A8694605948DF81130ADF8EF
:202000000420FFF71DFF012802D0002006B010BD0B4801E00138F9D0BDF8063003F4406331
:20202000B3F5806FF6D1BDF8060000F44060A0F58060B0FA80F0400906B010BD600C00200C
:2020400020A1070000B587B01422002101A80EF0FBFC40F609029DF81130012161F3030344
:2020600001A869468DF81130ADF80420FFF7E8FE012803D0C0B207B05DF804FB104801E0EB
:202080000138F8D0BDF8063003F44063B3F5806FF6D1BDF8063003F44063B3F5806F03D06D
:2020A000002007B05DF804FB064B1A782AB9064A0599012011601870DDE70120DBE700BFC1
:2020C00020A107007B290020600C002030B587B005F06EF9324C0546236819205B69984740
:2020E000236812205B6998472E4B1B68DA071AD52D492E4A00230B6002A81946136010228A
:202100000EF0A2FC40F60D029DF81530012161F3030302A801A98DF81530ADF80820FFF7A7
:202120008FFE01282ED0FFF78DFF2148214B00240121214A0460196013689B07FCD51F4CAD
:20214000012023689B699847236801205B6B98470228F9D1124CFEF719F9236819201B6AFD
:202160009847236812201B6A9847236819201B699847236812201B6998470DB905F01CF948
:2021800007B030BD0E4A01E0013ACCD0BDF80A3003F44063B3F5806FF6D1BDF80A30C2E70C
:2021A000B00100109C21084010100460141004602C2008402820086028200840B8010010B0
:2021C00020A1070008B505F09FF9052803460BD003280DD018B101280FD0002008BD094B8A
:2021E00003221A60012008BD064A0120136008BD044B02221A60012008BD024A05211160FB
:2022000008BD00BFD021084008B5FFF71BFFFFF7E1FE012802D0FFF759FF002008BD00BF72
:20222000F8B5174B174A19781268174B002914BF00241C46D30700D4F8BD05F0B9F80646EA
:20224000124D1349134F144A14482B680F600021046011601B6A192098472B6812201B6AC8
:2022600098472B6819201B6998472B6812201B69984706B1F8BDBDE8F84005F09DB800BFD6
:202280007D2900209C2108400000C080B0010010181004600000408010100460141004601A
:2022A000084B1B7833B1002002460749074B0A6018607047064B0749074A00280CBF18466E
:2022C0000846F2E77D29002010100460141004600200C0800800C0800000C080044A054B9D
:2022E0001178054A002918BF00231360704700BF7D2900200000C08014100460014B1868A0
:20230000704700BF4C0C0020014B1860704700BF540C002038B5064B064C1D68064A00238D
:202320004FF434410548256001F04AFF012038BD04300440280C0020B12300002C0C0020CB
:20234000164B1B68DBB170B59B68984708B9002070BD05F02DF8124B124C1D680646002131
:2023600015F1804022684FF0000341F10001994208BF904209D325601EB1012070BD002086
:20238000704705F019F8012070BDFEF753FF064A06491368086001331360ECE7540C00206F
:2023A00004300440280C0020500C0020580C002070B5134B1B68B3B19B689847D8B9114D16
:2023C0002B6A984701280ED1FFF7BAFF6B6A0446984744B1BDE8704000230B4A4FF434415A
:2023E0000A4801F0EDBE0023074A80210748BDE8704001F0E5BEFFF7A3FF0446E9E700BF31
:20240000540C0020F80F0100B12300002C0C0020F8B5224C2368002B3DD09B6806469847FC
:2024200000B3FFF78DFF1E4BB6F1404F1F6825D822681C4BB2F90C401968E517641A65EB11
:20244000E1750022A41945F10005A01845EB0701090241EA106143F60952002300020EF0BE
:2024600057F8F8BD104D2B6A9847FFF769FF6B6A98470B4BB6F1404F1F68D9D9FEF7DAFEE3
:202480000A4B1B68C3F17E4303F57203C34248BF07F1FF37CCE71846F8BD00BF540C002043
:2024A000500C0020600C0020F80F0100580C002010B5104B1B68DA0704D4FFF723FD0128ED
:2024C00000D010BD0C4C23685B0204D40A4B6FF000421A6010BD094B012209481A7002F0C6
:2024E00033F86FF480032360034B6FF000421A6010BD00BF9C210840101004607C29002005
:202500001806002008B5124B1B68D90707D4114805F000FEFFF7F6FC012800D008BD04F03F
:2025200047FF0D4B1A6812020BD40B4B1A6812F00A0F1CBF6FF00A021A60BDE8084004F0F4
:202540003BBF6FF400021A60044801F0FDFFECE79C2108408819010010100460180600202D
:20256000014B1878704700BF7F29002008B500F08BF880B208BD00BF00F010B938B50C4D5C
:2025800004202B685B6998472B6804205B6B984701280446064BF7D11B6840F20140DB69BF
:2025A0009847044B044A1C6013689B07FCD538BDB80100102820086028200840034B1B6866
:2025C000002B14BF01200220704700BF640C0020F8B503880446002B2ED0B3F5847F05D188
:2025E000184B1B788B4205D00120F8BD002303800320F8BD144D2B6873B1144B144A1B6897
:2026000012685B680220174698470026301847F100012B6898472E600E4B40F201401B6829
:202620009B6A98470C4B01210C4A196013689B07FCD50B48FFF7D2FA4FF48473238001206D
:20264000F8BD00BFD8080020640C0020CC01001004800240B80100102820086028200840CA
:202660002806002008B5064B04201B685B6B9847012803BF034B1868C0F34000002008BD21
:20268000B80100103C20084070B5274B1B689BB1264C0023224612F8011B29B90133042BFF
:2026A000F9D10020014670BD214A002502EBC302E55492E8030070BDFFF7D4FF00282FD0A7
:2026C0001C4A1D4B1268134073B91C4A0121134611601A68002AFCD110464FF4807104F0EA
:2026E000D1FE174B01221A6004F062FE0646114A1368DB07FCD5134B134A1B6814685B6866
:202700000220984723460022141843F1000516B12046294670BD04F04FFE2046294670BDBC
:20272000FFF72CFFCCE700BF640C0020680C0020E80800200880024001000080F09F0240B6
:20274000A8025042CC0100100480024038B50E4D00240E4A2C6013680D4923F001030968F1
:2027600013604B6931209847224620464FF4807104F088FE0122074B2A6019782246BDE8E9
:202780003840054801F0B4BEA80250420C800240B0010010D80800203C06002010B5074CCC
:2027A0002378802B00D010BD01F0FEFD207000210348BDE8104001F0FFBD00BFD8080020ED
:2027C0003C06002008B504F0F3FD003018BF012008BD00BF80F31088704700BF827A044B7E
:2027E00003EBC2035B68181AB0FA80F0400970476C0C0020F0B54749837A85B001EBC30366
:20280000D3E84F2F12F0FF0F09D10124C3E8424F1346BFF35F8F3BB1032005B0F0BD0123A6
:20282000BFF35F8F002BF7D10446827A3A4B01EBC20148601B68C078DB6B384F9847384DF7
:20284000A37A3A6805EB0313526958689047A37A3A6805EB03135868536B984701280646CA
:202860002F4B2E4AF3D1A17A126803EB0113D269986890472B4B2C4A1E6013689B07FCD5A1
:20288000A37A03201B01EA582849536923F00F035361A37A1B01EB581862A37A0A68268960
:2028A0001B01E85817683EB1237A002B2CD0637A002B14BF032602266168082332468DE87D
:2028C0000A0000231A49B847A37A134A26781B01E85813686178A27800965E6C4FF0FF33B6
:2028E000B047A37A114E1B01EA58536843F002035360A37A32681B01E85803A91369984747
:202900000028F6D105B0F0BD637A002B14BF01260326D1E76C0C0020B4010010B80100105D
:20292000EC1901002820086028200840C4010010006CDC0270B5214D837A05EBC302526833
:20294000904201D0042070BD1D491E4A096802EB031304460A6A986890471B4B01221A60A9
:202960001A4A13689B07FCD5194E607833689B6B984733684FF4005160789B6998473368C1
:20298000A0789B6B984733684FF40051A0789B699847336820789B6B9847336820784FF482
:2029A00000519B699847A37A002005EBC3035860A37ABFF35F8F05F8330070BD6C0C002086
:2029C000B8010010EC1901002820086028200840B40100102DE9F04F364C857A85B004EB29
:2029E000C5046468A04203D0042005B0BDE8F08F1F46314BDFF8CC901B6809EB05150446A1
:202A00005B6B686890460E469847012803D0052005B0BDE8F08FA37A284909EB0312D2684C
:202A200009681142F3D00E9A0F9902EB010AC2455246B8BF4246002A019239D0D8BF03AD1C
:202A40002ADD18464FF0000B03ADDFF874A000E0A07AC345B4BF16F80B1000210391DAF807
:202A60000020000159F8000052689047A17ADAF800200901D26859F80100294690470E9BC1
:202A80009B45B8BF039A019BB8BF07F80B200BF1010B5B45DCD1A37A094E00E0A37A3268A5
:202AA0001B0159F803002946136998470028F5D100209AE76C0C0020B8010010782008400C
:202AC000C4010010EC19010010B5BAB004460A466846282108F084FF6B46044AC0210AA84E
:202AE00005F03EFB0AA8A0473AB010BD0C1A0100F0B50746B1B0D9B10D460126002404B3FF
:202B0000E3070DD52B78134AC021684605F028FB6846B847082E12D0013601350134EEE706
:202B20000D4AC021684605F01BFB6846B847E9E768460A4AC02105F013FB6846B84731B0B3
:202B4000F0BD2B78034AC021684605F009FB6846B847E1E7241A0100201A0100101A010036
:202B6000F0B50388B1B006460D461BB36F2B1CD1254B264F186843683A6829462448984764
:202B8000012836D96C46234AC021204605F0E8FA2046A84720492846FFF7AAFF1F4AC021AB
:202BA000204605F0DDFA2046A84700233380032031B0F0BD13781446202B03D114F8013FB7
:202BC000202BFBD0202120460DF08CFF0F4F386018B1002300F8013B3860204600F052FF5B
:202BE000094B186038B10A4A00216F2311803380C1E70020DCE76846094AC02105F0B0FAC9
:202C000068466C46A847BEE77C0C0020840C0020800C0020641A0100CC290020681A0100A5
:202C20002C1A010000F016BF074A106858B170B40648074E074D0024146031702B8000684F
:202C400070BC01F081BC7047DC0C0020B80C0020802900206829002030B50388B1B00446E2
:202C60005BB90D46074AC021684605F079FA6846A847054B05489B6A98470023032023809E
:202C800031B030BD381B0100B42D01005C1B010030B50388B1B004465BB90D46074AC02104
:202CA000684605F05DFA6846A847054B0548DB6A984700230320238031B030BD641B010085
:202CC000B42D01005C1B0100F0B50388B1B0074623B1002303203B8031B0F0BD114A0D46AB
:202CE0006846C02105F03CFA6846A8470E4802F019F806460028ECD0746823685BB1A36876
:202D00000A4AC021684605F02BFA6846A84754F80C3F002BF3D1304602F074F8064600284B
:202D2000EAD1D6E7881B0100880C0020441F010070B50388B0B0054623B1002303202B803F
:202D400030B070BD0C46344AC021684605F008FA6846A047314B324A1B68C021314E6846F2
:202D600005F0FEF96846A04733682F4AC021684605F0F6F96846A0473368002BDDD006F04D
:202D80009FF8064603F0EAF9284A0346C021684605F0E6F96846A047254B264A1B68C02183
:202DA000684605F0DDF96846A047234B234A1B78C021684605F0D4F96846A047204AC02166
:202DC000684605F0CDF96846A04716B3311D2046FFF78EFE1B4AC021684605F0C1F96846A5
:202DE000A047FEF7DDF9184B184A1B68C021C31ADB09684605F0B4F96846A04707F0D6FD88
:202E0000134A0346C021684605F0AAF96846A04793E7104ADFE700BFA01B0100F018002013
:202E2000B01B0100D8180020C81B0100E01B010038190020F41B01000C2A00200C1C0100D6
:202E4000241C01006C2B0100942A0020401C0100681C0100381C0100F0B50488B5B00746A1
:202E600024B1002303203B8035B0F0BD0D4607F071FA18B102203C8035B0F0BD06F028FCE2
:202E8000064604A8002E3AD0204AC02105F068F904A8A847306901F045FF0446F288B388F9
:202EA000C021009204A81A4A05F05AF904A8A847F4B1628A237D0292228A04A80192617D1E
:202EC000144A0091C02105F04BF904A8A847A11D2846FFF70DFE104AC02104A805F040F90C
:202EE00004A8A847204601F08DFF04460028E0D1304606F0F3FB06460028CBD1B1E7074ADE
:202F0000C02105F02DF904A8A847AAE7B01C0100C01C0100EC1C01006C2B0100901C010091
:202F20002DE9F0430788B3B00546002F2ED188461446002A33D01678002E3BD13C493046C5
:202F40000DF038FE00282CD13A4E0123336014B12378002B39D1384F00233B6002AC3368B7
:202F6000D3B938683549364A364B002818BF0A46C02100922046344A05F0F2F82046C047B4
:202F8000386805F0B3FC306805F09CFC00232B80032033B0BDE8F0832C4B294AE8E71646C7
:202FA000CCE72B4930460DF005FE002838D1214E3060CCE7202110460DF094FD002833D041
:202FC00000F8017B26460446B8E7202120460DF089FD08B100230370154920460DF0EAFD07
:202FE000814658B902AC1B4AC0212046124F05F0B7F82046C047C7F80090B0E71449204684
:203000000DF0D8FD0028A6D02346134A02A8C02105F0A6F802A8C04700232B800220B8E71C
:20302000334602A80D4AF2E72646044686E700BF501D0100D80C0020C00C0020481D010097
:20304000441D0100341D0100B41D0100381D0100541D0100741D0100941D0100581D010068
:20306000F0B50388B1B0054623B1002303202B8031B0F0BD0E46134AC021684605F070F884
:203080006846B047104C04F1600714F8023C13B1237C012B03D92034BC42F6D1E5E70B4AE4
:2030A000C021684605F05CF86846B04721463046FFF70AFD064AC021684605F051F86846EE
:2030C000B047E8E7D01D0100FA2C0020E81D01006C2B010070B50388CAB0064623B10023EB
:2030E000032033804AB070BD2F4A0D461AA8C02105F036F81AA8A84708F0E4FE08F096FE2A
:20310000044600284DD0294AC0211AA805F028F81AA8A847211D2846FFF7D6FCA3696BBB9E
:20312000234AC0211AA805F01BF81AA8A84707F08BFF00282DDD07F087FF1E4A0346C02104
:203140001AA805F00DF81AA8A84708F047F804460028C4D02246642101A808F0A1F801ABF2
:20316000154AC0211AA804F0FBFF1AA8A847204608F03AF804460028ECD1B0E70F4AC0211E
:203180001AA804F0EDFF1AA8A84707F05DFF0028D1DC0B4AC0211AA804F0E2FF1AA8A84736
:2031A0009DE7084ABDE700BFEC1D0100E81D0100181E01003C1E01005C1E0100FC1D01009F
:2031C000641E0100301E0100F0B50388CFB006466BB91B4B0D461B7B13B10AF07BFD58B968
:2031E0001EA8184AC02104F0BBFF1EA8A8470023032033804FB0F0BD134F386801F08AFF42
:203200000446124A1EA8C02104F0AAFF1EA8A847002CECD02246782168460AF0F7FD6B46D9
:203220000B4AC0211EA804F09BFF1EA8A8472146386801F031FF04460028EBD1D7E700BF7C
:2032400010300020781E010054080020901E0100441F0100F0B50388B5B0064623B1002310
:203260000320338035B0F0BD0C467B4AC02104A87A4D04F075FF04A8A0472B7B002B00F0BF
:20328000D8806B7B764AC02104A804F069FF04A8A047744B1B699847002840F0C880724A36
:2032A000C02104A804F05CFF04A8A0476F4AC02104A804F055FF04A8A0476D492046FFF76C
:2032C00003FC95F854306B4AC02104A804F048FF04A8A047684AC02104A804F041FF04A8AF
:2032E000A04766492046FFF7EFFB654A95F84030C02104A804F034FF04A8A047AB7BC021F8
:20330000032B96BF5F4A604B52F8233004A85F4A04F026FF04A8A047AB681B8C002B00F063
:2033200090805B4A5849012B0CBF13460B46594AC02104A804F014FF04A8A047EB8A564AB7
:20334000C02104A804F00CFF04A8A0472B7E434AFF2B16BF528B4FF0FF335343C0214F4ABB
:2033600004A804F0FDFE04A8A04795F85E30C021032B96BF4A4A444B52F8233004A8494AA1
:2033800004F0EEFE04A8A047474AC02104A804F0E7FE04A8A047686C304F002853D00AF098
:2033A000C5FC01462046FFF78FFB7B6C3F4A9B79C02104A804F0D4FE04A8A047B5F84A308E
:2033C0003B4AC02104A804F0CBFE04A8A047AA8AB5F848300092C021364A04A804F0C0FEE1
:2033E00004A8A047EB7B344AC02104A804F0B8FE04A8A04795F85B2095F85A300092C021FA
:203400002E4A04A804F0ACFE04A8A047697C2A7CA87C0A448DE80600029095F85730284AC7
:20342000C02104A804F09CFE04A8A04717E7254A36E7254AC02104A804F092FE04A8A04741
:203440000DE7224B73E7224AC02104A804F088FE04A8A047B2E700BFB41E01001030002020
:20346000D81E0100B42D0100FC1E01000C1F01002C300020181F0100281F01003C300020A4
:20348000341F0100E8270100A01E01003C1F0100AC1E0100481F0100541F0100701F010076
:2034A000D8270100941F0100A41F0100BC1F0100D81F0100E81F010004200100182001005A
:2034C00048200100EC1E0100C41E0100A81E0100D01F010030B50388B1B0044653B90D4664
:2034E000074AC021684604F03BFE6846A84705480AF0E6FF00230320238031B030BD00BF80
:20350000882001005C1B01002DE9F0410788B0B00546002F3ED188461446002A5CD01678BF
:20352000002E63D14A4930460DF044FB002855D1484E0123336014B12378002B60D1464BFC
:203540000022FD2119805A809A80DA801A815A819A81DA813368414C13B3236998470646B3
:203560006846002E31D13E4AC02104F0F9FD6846C04739494046FFF7A7FA3A4AC0216846B3
:2035800004F0EEFD6846C047A368314632489847E368984700232B80032030B0BDE8F081AB
:2035A0002369984748B1304AC021684604F0D8FD6846C047E3699847ECE768462B4AC0211E
:2035C00004F0CEFD6846C047E4E7294AC02104F0C7FD6846C047DDE71646A3E7254930465D
:2035E0000DF0E8FA28BB1B4E3060A4E7202110460DF078FA48B300F8017B2646044691E7E2
:20360000202120460DF06EFA08B1002303701249204608F07DF9074600289BD12346164A76
:20362000C021684604F09CFD6846C0472F800220B3E73346114AC021684604F091FD6846BB
:20364000C04700232B800220A7E72646044669E7501D0100BC0C0020C40C0020B42D0100B7
:20366000D0200100F42001001821010040210100FC200100541D0100BC200100A420010077
:20368000F0B50588B3B004460E46D5B1B5F5847F12D1464D2B68454D23B3454800F0C6FC14
:2036A00068B12B68F3B1434AC02102A804F058FD02A8B04700232B6000232380032033B03E
:2036C000F0BD174612B11378002B2FD13A4AC02102A804F045FD02A8B04700230220238099
:2036E00033B0F0BD354AC02102A804F039FD02A8B04733493046FFF7E7F9324A324B158807
:203700001F78FDF74DFD2A4B009719684FF47A72401A02FB00F0C00901902B4602A82B4AE7
:20372000C02104F01DFD02A8B047C5E7202110460DF0D8F900B105702149384608F0E8F802
:20374000054658B93B46224AC02102A804F008FD02A8B0470220258033B0F0BD1D4AC0215C
:2037600002A804F0FDFC02A8B04715493046FFF7ABF9194AC02102A804F0F2FC02A8B04732
:20378000164A174B1268094D4FF4207108481A602E6000F037FC042300228021084807F017
:2037A000E5FB4FF48473238074E700BFDC0C0020A80C002080210100C82101008C2101001C
:2037C0008C0C00206829002080290020A821010058210100742101006C2B0100180D002000
:2037E000B80C0020F0B5B3B007460F4AC02102A80E4C04F0B5FC02A8B847256895B1636866
:203800001E68304600F03AFB2B460190084AC021009602A804F0A4FC02A8B84754F80C5F1E
:20382000002DECD133B0F0BDF421010068060020042201002DE9F0430788B3B00546002F8E
:2038400037D18846144612B11378002B37D1002000F0F2FA3A4B002418602346394AC021CD
:2038600002A804F07DFC02A8C0474046FFF7BAFF00232B8002201FE0202130460DF032F97D
:2038800008B1002303700A2201A930460DF004FB2D4B1860002840D1019B9E422FD03B684A
:2038A000984203D00146204600F0A2FA4046FFF799FF00232B80032033B0BDE8F0832021E1
:2038C00010460DF00FF9814650B30646204606F8017B00F0B1FA1A4F214638601B480DF034
:2038E00069F910B13B680133B7D01EB199F80130002BC1D1144B4FF0FF321A600026334611
:20390000134AC02102A804F02BFC02A8C047002302202B8033B0BDE8F0830428EFD8BEE770
:20392000204600F089FA064E2146306007480DF041F90028DED033680133DBD18DE700BF59
:203940009C0C0020581D0100D40C002018220100941D010070B50388B2B0064623B10023E7
:203960003380032032B070BD0D4608F05FFB044602A8002C3FD0244AC02104F0F1FB02A8B5
:20398000A847224AC02102A804F0EAFB02A8A847204608F043FB01462846FFF795F81C4A95
:2039A000C02102A804F0DCFB02A8A847204608F037FB01462846FFF79BF8627C1549042AE0
:2039C00094BF51F822001448237C144AC021009002A804F0C5FB02A8A847114AC02102A882
:2039E00004F0BEFB02A8A847204608F025FB04460028C6D1B3E70B4AC02104F0B1FB02A8E0
:203A0000A84734800220ADE738220100E81D010050220100C4270100A01E01005822010053
:203A20006C2B01001C22010030B50388B1B004464BB9074A0D466846C02104F091FB68462F
:203A4000A847FDF719FD00230320238031B030BD7022010010B5074C204601F05FF92046F6
:203A6000054901F061F9BDE810400449044807F0BBBA00BF880C00204C060020292C000079
:203A8000A00C002070B505460D4801F04BF9064698B17468206818B909E054F80C0F30B165
:203AA00029460DF087F80028F7D1204670BD304601F0A8F906460028EBD1002070BD00BF54
:203AC000880C002010B503880446442B0CD0452B14D01BB100230380032010BDFFF7A2F807
:203AE00044232380012010BD094B1B788B420DD162B1084900204523088023800649054889
:203B0000FFF72EF80128EBD8002010BD012010BD93310020E00C00201D3B000001460148EA
:203B200004F0F8BA0C1A01000021014800F044BC5406002070B5684CFCF736FBFDF7E4FA15
:203B400000F00EFD00F05CFC0021644800F034FC00F0FCFAFDF740FC00F09CF900F050FD5D
:203B6000FCF760FB01F0DEF901F01AFE00F098FA2368022B3CDC082259495A480CF08AFEE2
:203B80000021594800F018FC4FF0FF3007F078FC23680546022B504E13DCFCF75FFBFFF7B3
:203BA000C3FF524800F0C6F8FDF724FC00F042FC0446FDF753FC14F0FF0FF7D1FCF7B8FBAC
:203BC000F4E74B4A4B494C4804F0A4FA4B4804F0A1FA3368022BE0DD002D7AD0A81C00F0E9
:203BE000CDF82368022BD8DD454804F093FAD4E73F4A4049404804F08DFA424804F08AFAB3
:203C00002368022BB7DD3A4A3A493B4804F082FA3D4B3E48196804F07DFA2368022BAADD25
:203C2000334A3449344804F075FA394B3948196804F070FA2368022B9DDD2D4A2D492E4832
:203C400004F068FA344B3548196804F063FA2368022B90DD264A2749274804F05BFA42F24F
:203C600034212F4804F056FA2368022B83DD204A2049214804F04EFA04212A4804F04AFAD5
:203C80002368022B7FF777AF194A1A491A4804F041FA254B2548198804F03CFA2368022B19
:203CA0007FF769AF124A1349134804F033FA204804F030FA2368022B7FF75DAF084800F042
:203CC0006DF82368022B7FF756AF0D4804F022FA51E7284683E700BF64060020F806002070
:203CE000CC290020542E00200C080020102E010010280100C00E0100C80E0100E0280100B2
:203D00006C2B010018280100B42D01003C2801006C2C01004C280100142B010058280100B4
:203D200064280100802801006A290020B8280100C828010010B50446006830B1002100F05F
:203D40003BFB54F8040F0028F8D110BD10B541600446FDF75DFA206010BD00BF10B50446FA
:203D6000FDF756FA94E80A00034A0B44C01A90428CBF0020012010BDFEFFFF7F00B58BB06D
:203D800002462821684607F02BFE6946024804F0C1F90BB05DF804FB0C1A0100D0B170B541
:203DA000054601260024C4B1E30709D529780D4804F0B0F9082E0CD0013601350134F2E710
:203DC000094804F0A7F92978064804F0A3F9082EF2D170BD054804F09DB92978014804F0E4
:203DE00099F9E9E7241A0100201A0100101A0100042900D97047F8B506460D4601460C4818
:203E00000CF0D8FE0B4C0746216851B157B9A3686268AB42A8BF2B46136054F80C1F0029E4
:203E2000F4D1F8BD30460CF0C5FE0028EFD0F4E71822010068060020D0B1F8B50E4F39681C
:203E400099B106463D46002403E055F80C1F013459B130460CF0AEFE0028F6D104EB440447
:203E600007EB840463681868F8BD4FF0FF30F8BD4FF0FF30704700BF6806002004289ABFAE
:203E8000024B53F820000248704700BF0429010044290100704700BF10B50E4C2368B3B18A
:203EA000FDF77EF9226892E80A0092680B44191A4AB114685368926823441B1A994228BF83
:203EC0001946002AF5D1044B0144196010BD024A136010BD0C0D0020100D00202DE9F04170
:203EE000038805467BB1592B08D1872912D0822920D059232B800120BDE8F0810023038032
:203F00000320BDE8F081254A0120136059232B80BDE8F081214F39680029EAD0CB689A4225
:203F200003D024E0CB689A4220D189680029F9D13960DEE7194F4FF000083C68002CD8D041
:203F4000002604E0A3682646002BD2D01C46204600F048FB0028F5D022468821E06800F0E2
:203F6000C7FA78B10E4800F0EFFAEBE739608B68002BBED0D86882420BBF9B6819468B60F6
:203F80009B68F5E7E060A3682EB1B360C4F80880FFF782FFD1E73B60F8E700BF0C0D002020
:203FA000F806002010B50446104800F0CDFA1049E3680A684BB142B194420FD0134601E0D1
:203FC0009C420BD09B68002BFAD10A4BA2601B680C60E360BDE81040FFF75EBF054B1B68CB
:203FE000E360BDE81040FFF757BF00BFF80600200C0D0020180D0020014800F0A5BA00BFCB
:20400000F806002010B5044600F0D6FA2046BDE81040FFF7C7BF00BF10B5044600F0D4FA50
:204020002046BDE81040FFF7BDBF00BFC068B0FA80F04009704700BF024B1868003018BF1F
:20404000012070470C0D0020024B186808B1024B186870470C0D0020100D002010B50F4BB0
:2040600004461A68824213D072B19368984208BF134605D043B19A68944201D01346F9E70A
:20408000A2689A60FFF708FF0023A360E36010BD82681A60FFF700FFF6E700BF0C0D0020BB
:2040A000034A04499079D37903EB00230B807047CC2900206A290020F0B5038883B0054648
:2040C0005BB14A2B04D188291BD0012003B0F0BD00230380032003B0F0BD194800F022FED3
:2040E000044630B1A168201DFFF78CFF2468002CF8D1144B01221A704A2301202B8003B055
:20410000F0BD0F48019200F00DFE04460028F3D0019A031D9A4205D02468231D002CEBD0B9
:204120009A42F9D12146064800F050FE064E6269A369376832600BB1E06998473760DBE74D
:20414000140D002081290020180D002010B5064B002406481C7000F0E1FD2146BDE81040D1
:20416000034800F029B900BF81290020140D00200807002070B504460D48049D0078A26149
:20418000E361656130B9A1600A482146BDE8704000F0CABD084D094B2E68201D2B60FFF7A9
:2041A00031FF2E602146BDE87040024800F0BCBD81290020140D0020180D00200807002053
:2041C00010B5044C82B024680094FFF7D3FF02B010BD00BF180D002070B5094B04461B78D7
:2041E0003BB1084D084B2E6804302B60FFF714FF2E602146BDE87040044800F095BD00BF36
:2042000081290020180D002008070020140D002010B50A4B04461B783BB9C3600361214646
:20422000BDE81040064800F0D1BD0430FFF716FF2146BDE81040024800F0C8BD8129002099
:20424000140D002038B50D4B1D7875B904460C4800F068FD38B1844202D10DE0844209D014
:2042600000680028FAD1012038BD0430BDE83840FFF7DCBE002038BD284638BD81290020AA
:20428000140D00202DE9F843DFF8A480274DD8F800702E68874247D077B33B4601E0002BB0
:2042A0003BD01B689842FAD133B3837B8946044623B3002383736FB1BC424FF0870106D024
:2042C000BB7BDB0703D52246384600F033F83F68002FF1D1A3683BB14C4505D02C6000224A
:2042E000832104F10C009847D8F80000844208D12368C8F800302E60BDE8F883384684425E
:20430000F6D00028F7D003689C4208D0002BF2D01A68944204D01346F8E7BDE8F88303460D
:2043200022681A602E60E7E73B46BDE7180D00201C0D002070B586687EB104460A48022367
:204340000460A37304F10C000D46B0470238012804D9832D02D00123A37370BD21462046A2
:20436000BDE87040FFF78EBF180D002070B50C4A0C4B146800251D7084B1012601E0246897
:2043800064B1E37B002BFAD0A673E573204600228221FFF7CFFF2468002CF2D170BD00BFEE
:2043A0001C0D002084290020024B1878421C1A70704700BF8529002070B50F4D2C68844203
:2043C00006D034B1234600E01BB11B689842FBD170BD0028FCD00346084E04600A463468D4
:2043E0000120002198739981184681212B60FFF7A1FF346070BD00BF1C0D0020180D002027
:2044000070B407480749084A0023084D084C8A2603700B6013602E70237070BC704700BFE7
:20442000832900201C0D0020180D002085290020822900202DE9F041234D2B780BB1FFF77D
:2044400095FF224E3378BBB12148224F0278013B02EB4201890001327C1802F01F020270AC
:20446000A068DBB233707F5CD4F8048098B1812F06D0827BD20705D428781844BDE8F08149
:204480000123837342463946FFF754FF337828781844BDE8F081104A146834B9ECE7A37B41
:2044A000D9070AD42468002CF0D02B78002BF6D0FFF75CFFA37BD907F4D5424639462046AD
:2044C000FFF738FFEEE700BF842900208329002082290020200D00201C0D0020024A034B87
:2044E00010781B78184470478329002084290020F0B40C4D2C78202C11D00B4B0B4E1B78E5
:20450000671C234403F01F0303EB43039B00F418A06062602F70F1540020F0BC7047012077
:20452000F0BC70478329002082290020200D002038B5837B034CDB07256801D5FFF7FAFEC7
:20454000256038BD180D002038B1837B013B012B03D8024A01231370C373704784290020C5
:20456000FCF762BE38B5094C049D226822B180E82A002060002038BD024680E82A00084699
:204580002260FCF753FE002038BD00BFA00E002010B5084C206858B10022436881682260D1
:2045A0009847236823B1BDE810401868FCF73EBE10BD00BFA00E002010B541600446FCF75C
:2045C000EFFD206010BD00BF10B50446FCF7E8FD94E80600C1F101031844904284BF5218E9
:2045E000226010BD10B50446FCF7DAFD23686268C3F101031844904294BF0020012010BDF7
:20460000084B82B002AA42F8043D9A4288BFCD2103D903F8011B9342FBD10348002102B02B
:20462000FFF7CABE953100201807002038B5134CFCF714FF2378124DCD2B08D0AC4202D3F8
:204640000EE0AC4214D014F8013FCD2BF9D1AC4202D30DE0AC420BD014F8013FCD2BF9D006
:20466000FCF7FCFEAC42064804D2001B80B238BDFCF7F4FE4FF6FF7038BD00BF95310020C6
:204680000050002070B5038804465BB1902B05D11848FFF7CBFC70B9012070BD00230380D9
:2046A000032070BD4FF4A0611248FFF7ABFC90232380012070BDFFF7B9FF0F4D0F4B06461B
:2046C0005D1BADB2A8420DD90D4B1B68002B09DD0C4A0D490D4803F01DFD2A4631460C48FE
:2046E00003F018FD0348FFF797FC90232380012070BD00BFA40E0020953100200050002053
:2047000064060020E0290100E8290100C80E0100EC29010010B5044690F84C200346013287
:2047200080F84C2080212030054AFFF749FD054B2246BDE8104019780020FFF7D9BE00BF6F
:20474000154700009131002070B5038804464BB1CB2B03D1822909D0012070BD00230380E3
:20476000032070BDCB232380012070BDFEF72AF8BFF35F8F104B00221E681A60BFF35F8F36
:204780000E4DFEF727F8286820B9EBE755F8040F0028E7D090F8453026FA03F3DB07F5D571
:2047A000FFF750FD0028F1D02B68054A18460221FFF706FDEAE700BFC00E0020F0040020DF
:2047C00001480000034A1368034303481360FFF7BBBE00BFC00E00202807002010B504464A
:2047E00090F84500FDF76CFA10B994F8440010BD012806BF94F8440080F00100002010BD10
:2048000070B50446FFF71EFD00B970BD04F120052846FFF717FD06462046FFF7DFFF0128F1
:204820000ED00028F1D1002EEFD12846FFF7F0FC0D4B22463046BDE870401978FFF758BE4A
:20484000002EE2D000262846234684F84C60074A7E21FFF7B5FC064B30462246BDE8704038
:204860001978FFF745BE00BF9031002015470000923100202DE9F843FFF796FD214B224C1B
:204880001870FFF791FD214B214F1870FFF78CFD204D2368204A00212870B9607A6043B325
:2048A000DFF880801D4E0125D8F80020996C926B93F8450041F08C0990472368494693F88C
:2048C0004500FDF7BFF92268D8F8003092F8450005FA00F232601B6B98472368BA6893F86E
:2048E000451054F8043F05FA01F10A43BA60002BDAD10B480021FFF75FFDBDE8F8430448B4
:2049000000F0A4B992310020F004002090310020B40E002091310020C5470000E020024060
:2049200028070020B4010010F8B5048805466C2C0BD07E2C04D0CCB1002303800320F8BDF3
:2049400085291AD11D4C002323601C4C264604E00A2814D023687E2B2ADD194800F0D0FA8B
:20496000431CF5D16C232B800120F8BDFFF71CFD144A124B10701C60E7E70120F8BD0F4C3D
:20498000114F23680F4A581C0026117820603A463046FE54FFF7ACFD0C4B32461868852154
:2049A000FFF7A6FD0028CED17E232B800120F8BD05495A1CC8543260CFE700BF4C0F002013
:2049C000440F002093310020500F0020180D00200D281FD010B5104C0146237833B10A287F
:2049E00010D00E48FFF7B0FD012010BD0C4800F071FA0028F5D1012308482370FFF7A4FDB5
:204A0000012010BD064800F065FA0028E9D000232370E6E7002070478629002038070020A2
:204A2000440F002008B505490548802200F04AFABDE8084000210348FFF7BEBCC40E00201A
:204A4000440F00203807002010B1837A012B01D901207047FDF7CEBE10B1837A012B01D9A4
:204A600001207047FDF766BF10B50446FDF7B6FE08B9042010BDE178024A01238B401360D5
:204A8000002010BDA0200240C178034A01238B4013600020704700BF9020024010B584B0BE
:204AA0008DF80F1010B1827A012A02D9012004B010BD0446FDF792FE10B9032004B010BDB2
:204AC000002320460193009301220DF10F01FDF781FFECE780B170B5847A82B0012C02D920
:204AE000012002B070BD044616460D46FDF776FE20B9032002B070BD012070470023324607
:204B00002946204601930093FDF764FFE9E700BF80B170B5857A82B0012D044602D90120B8
:204B200002B070BD16460D46FDF758FE20B9032002B070BD01207047002200962B4620465B
:204B400001921146FDF746FFEAE700BF70B5154C154D26782B683046DB6B98472B68A07843
:204B6000DB6B9847637893B90123104A03FA06F61660E3780B4A917823B101230C4A8B402A
:204B8000136070BD0123094A8B40136070BD0123074A03FA06F61660E378024A9178002BD4
:204BA000EBD1EFE7100F0100B4010010A020024090200240F0B40F4C0F4F22460F4E002345
:204BC000012540FA03F1C90706D5517859B114F8131005FA01F131600133022B02F10202FA
:204BE000EFD1F0BC704714F8131005FA01F13960F2E700BF100F010090200240A02002402D
:204C0000F0B40F4C0F4F22460F4E0023012540FA03F1C90706D5517859B114F8131005FA4F
:204C200001F131600133022B02F10202EFD1F0BC704714F8131005FA01F13960F2E700BF25
:204C4000100F0100A0200240902002400146014800F06AB8D00F002038B50546074800F028
:204C600061F848B10446A068284002D0636803B198472468002CF6D138BD00BFD00F0020C6
:204C8000014800F04BB800BFD00F0020002301390170437083707047427881780378511A56
:204CA00033EA010104D00132134043700120704700207047427883780178D31A31EA0303DD
:204CC00014BF10464FF0FF30704700BF0346807859781A78091A11421DBF411C0A409A7020
:204CE0004FF0FF30704700BF8278437801789B1A0B4214BF10464FF0FF307047437882789D
:204D000000789B1A184070474378817802785B1A13420CBF01200020704700BF0023036057
:204D2000704700BF0068704710B404685CB1A14223D023680BB906E0134699420FD01A6801
:204D40001C46002AF8D100230B6002680AB910E01A461368002BFBD1116010BC70475CB180
:204D60000A68226000221A6000230B600268002AEFD1016010BC70470C4622682346026036
:204D8000F0E700BF30B4056865B1A94219D02B682C460BB906E01346994207D01A681C46A4
:204DA000002AF8D10D60016030BC704744B10A68226000221A6005680D60016030BC70472C
:204DC0000D462A682B460260F3E700BF10B404685CB18C4212D023680BB906E0134699422C
:204DE00005D01A681C46002AF8D110BC70472CB11A68226000221A6010BC70470A680B46C1
:204E00000260F7E700B10068704700BF10B504464288002140680BF017FE23886288A06874
:204E200002FB03F2BDE8104000210BF00DBE00BF30B44588BDB141680B7863B14A1C0023FD
:204E400003E01478114601322CB10133AB42F8D1002030BC704701220A700288806830BCD4
:204E600003FB020070472846F3E700BF70B4448882685CB18A4206460BD00588002301E009
:204E8000914207D00133A3422A44F9D1FF2070BC704700237268D05C0028F8D00138D0549F
:204EA000726870BCD05C704783688B4208D84288008800FB023081422CBF0020012070474C
:204EC000002070470023013A0160027143718371704700BF10B44479827903460079A21AB1
:204EE00030EA020209D01A68012011555A79197902440A405A7110BC7047002010BC7047CC
:204F00000346807959791A79091A114207D010B4411C1C680A40205C9A7110BC70474FF065
:204F2000FF30704708B50448FFF770FFBDE808400248FFF76BBF00BF54070020480700201D
:204F400038B50F48FFF774FF044688B10D48FFF76FFF0546206060B100F0B0FA05F19C015F
:204F6000A5F8800005F1820000F0AAFB204638BD38BD21460248FFF779FF284638BD00BF76
:204F8000480700205407002010B5044607482146FFF78AFF00B910BD21680548FFF766FF2C
:204FA0002146BDE810400148FFF760BF480700205407002010B5044609482146FFF774FF1D
:204FC00000B910BD2468B4F88010204600F058FB04F19C0104F18200BDE8104000F082BBAF
:204FE0004807002010B5044603482146FFF75CFF00B1206810BD00BF480700200368B3F8E6
:205000008000704738B50F4D002818BF05460E48FFF788FE044650B1211D284600F0D6FB3C
:2050200040B92046FFF7EEFE04460028F4D14FF0FF3038BD054B06489B68E41AA41000FB47
:2050400004F038BD382A01008415002060070020ABAAAAAA10B10368072B0ED90C4A136805
:20506000072B12D830B40B4D5C1C03608160146045F82300012030BC7047064A52F8233097
:205080009842EBD18160012070470020704700BF7816002058160020F8B5064608461A4F3F
:2050A0001A4C1B4D36B358B1F1687368401A90FBF3F0411C24D0BB6800EB400003EB800027
:2050C000FFF7A0FED8B1BB68C31A9B1004FB03F35A1C17D07268F06803FB02F3C0180ED0DB
:2050E00093FBF2F35A1CDDD0EB5C32681341D907D8D5F8BD3046FFF785FE3046F8BDF8BDD4
:205100000020DDE70020F8BD60070020ABAAAAAA4816002010B504461648FFF703FED8B13B
:20512000154A164B9168401A801003FB00F394B1591C17D06268E06802FB03F3C0180BD082
:2051400093FBF2F35A1C07D00D492268CB5C1341DB0701D510BD204601462046BDE81040A7
:20516000FFF79ABF002001462046BDE81040FFF793BF00BF8415002060070020ABAAAAAA2E
:20518000481600202DE9F04F754D83B0002918BF0D460446284690469946FFF733FF421C01
:2051A0001ED00746002C34D06368E6681A4603FB0766002130460BF047FC6EB1E268636897
:2051C000B21A92FBF3F35A1C06D066482468C15C0122A2400A43C254304603B0BDE8F08F38
:2051E000614F3846FFF724FE0646E0B1804641465E48FFF799FDBF685D4BF61BB6102946F8
:2052000008F1040003FB06F700F0DCFA0CB1791CCAD10021626808460BF016FC0026304601
:2052200003B0BDE8F08F4946404608F009FD0028F4D0FFF7E7FE431C4ED0BA684D4B00EB9B
:20524000400912EB8909195C46D001B11E54454BC2EB090200934E46DFF82081DFF810A158
:2052600001941EE0996849B30AFB0CFCBCF1FF3F14D0D3F804B0D8680BFB0CFE10EB0E00EA
:205280000CD09EFBFBFEBEF1FF3F07D0009C1B6814F80EE04EFA03F3DC070BD4364B984565
:2052A0000FD058F8043F4FEAA20C002BDAD10AFB0CFCF3E78847BA68C2EB09024FEAA20C48
:2052C000F5E7009A002349462848019C02F80C30C846FFF77BFD8AE72448FFF723FD81462D
:2052E00000289BD04FF0000BDA46DFF88880204E4846019402E0FFF785FDD0B1BA68821AA8
:20530000931006FB03F318F803100029F3D1154CE35C0094CBB1DC0748BF01315B10FAD1E1
:20532000BAF1000F01D05945E5DAB1B18B468246E1E7019CBAF1000F3FF470AFBA68094BA3
:20534000D1460093C2EB0A0285E7BAF1000F04D0BBF1000F01DC9B46CDE78146019C7AE7FE
:20536000382A0100481600206007002084150020ABAAAAAA74150020741600205416002086
:2053800010B504460846FFF73DFEB4B1411C12D06168E26801FB00F3D0180DD093FBF1F3A2
:2053A0005A1C08D006492268CB5C134113F0010F08BF002010BD002010BD204610BD00BFA5
:2053C00048160020034610B311B370B4C56844684A1B92FBF4F2501C1CD00F4E1C68B55C60
:2053E000012000FA04F425EA0404B454DD685C68491B91FBF4F14A1C07D0084C1D68625CC9
:205400000123AB4022EA0303635470BC70477047084670470020EBE74816002074150020FC
:2054200088B189B1C2684368891A91FBF3F14B1C0CD010B4064C0368625C012000FA03F37E
:205440001343635410BC704708467047002070477415002090B191B1C2684368891A91FBB0
:20546000F3F14B1C0DD010B4074C0368625C012000FA03F322EA0303635410BC7047084619
:2054800070470020704700BF7415002088B189B1C2684368881A90FBF3F0431C08D0064B36
:2054A00000EB40009B6813EB800002D004307047002070470846704760070020F8B50E4D18
:2054C0000E4C2A7823881344802B01DD0020F8BD06460B4F39460BF0DDF90A4B29781B78F1
:2054E00070181944C9B2394422880BF0D3F9287823881844F8BD00BF872900206C290020BE
:205500007C1600206E290020F0B4104B104F1B783E78104A33441288DBB213449BB21A18AD
:20552000802A10DC013B1BB2002B07DB0A4AD45C5D1ED1182BB20C54591CF8D13044387040
:20554000F0BC012070470020F0BC70476E290020872900206C2900207C160020084A138869
:2055600083420ADB10B4074C80B221881B1A138008442080012010BC70470020704700BFA1
:205580006C2900206E290020014B1880704700BF6C290020044B054A1B7812780448134432
:2055A000DBB21844704700BF6E290020872900207C160020004870477C160020014B1888B6
:2055C000704700BF6C290020034A044B10781B781844C0B2704700BF872900206E2900201E
:2055E000054A064B10781B78054A03441088DBB2184480B2704700BF872900206E290020AA
:205600006C2900200649074A074B127808781B881044C3F18003C0B2181A80B2704700BF5F
:20562000872900206E2900206C29002038B5094D094C1A22002109480BF006FA2946204618
:2056400000F0C0F8294604F10800BDE8384000F0B9B800BF382A0100A0290020B0290020B4
:2056600004480549054A002303800B801370FFF7DDBF00BF6E2900206C2900208729002000
:20568000802928BF802170B50C4606460849094A094D00230B8013702B80FFF7C7FF31460D
:2056A000224606480BF0F6F82C80204670BD00BF6E290020872900206C2900207C1600205F
:2056C00010B50C461A2205490BF0E4F82046BDE81040102202490BF0DDB800BFB029002032
:2056E000A029002010B50C461A22014604480BF0D1F82146BDE81040102202480BF0CAB8C2
:20570000B0290020A0290020024B23F810100120704700BFB0290020014B33F81000704751
:20572000B029002008B5044B0D3803EBC00000F049F8012008BD00BFA0290020024B0D3820
:2057400003EBC000704700BFA02900200149024800F03CB8382A0100A829002070B5054600
:205760000E480E46FFF7DEFA044660B1012D0CD01DB963680BB1984770B92046FFF742FB4E
:2057800004460028F2D1002070BDA368002BF4D0304698470028F0D070BD00BFFC16002032
:2057A000054B10B51B689847044B5B689847BDE81040034B5B681847F80F0100142B0100D4
:2057C0006C2C010008220BF065B800BF08B508220BF02EF8B0FA80F0400908BD08B50848F2
:2057E000FEF7FAFC0748FFF795FC40B1037A01465B0803720348FFF74FFC0028F6D108BD1B
:20580000D42900206C07002001460148FFF7B8BD6C07002080B110B50446FBF7C1FC2368D0
:20582000C01AB0F5963F05D2207A032894BF0020012010BD002010BD00207047F8B5074659
:2058400015460E46A1B1022900D0F8BD01463748FFF796FD0446002837D0FBF7A1FC237AA3
:2058600020602B44102BA8BF102323720C350EE001462E48FFF784FD044630B3FBF790FCC1
:20588000237A20602B44102BA8BF10232372FBF787FC2368ED01C01AB0F5963FADB211D28E
:2058A000237A042B35BF19220A224B235A2302FB05F5A2881E4903FB0253A1FB03235B09D5
:2058C000A380F8BD19224B23F1E73946002309221648FFF757FC04460028B6D0B0F9063024
:2058E0000BB36FF03B029342A8BF13466FF058029342B8BF13464FF470625A3392FBF3F346
:205900009BB2B3F5C07F28BF4FF4C073A380FBF747FC237A20602B44102BA8BF1023022E0D
:205920002372B4D1A2E74FF48073EFE76C0700201F85EB5138B505460420FFF7EDFE294699
:2059400004B21C48FFF71CFD78B1B0F9062004EB84045A23640003FB0244174AE31782FBB2
:205960000424C3EB6414C48038BD0346294609221048FFF707FC0028F6D0C480B4B16FF076
:205980003B03A342A8BF23466FF058029342B8BF13464FF470625A3392FBF3F39BB2B3F5AC
:2059A000C07F28BF4FF4C073838038BD4FF48073FAE700BF6C0700201F85EB5110B50848F5
:2059C000FFF7A8FB58B1044621460548FFF7FAFC21460348FFF760FB04460028F4D110BD34
:2059E0006C07002010B500210548FFF733FBBDE810400023034A4FF4E1310348FEF7E0BB28
:205A00006C070020DD570000D4290020F8B5FBF7C7FB104F06463C4600250D20FFF78EFE40
:205A20002146FFF7D3FE103420B90135102DF4D10020F8BD0720FFF76FFE07EB05152B7BD2
:205A40008342F5D1A868301AB0F5206F8CBF00200120F8BDC0170020F8B5194F00243D4639
:205A60000D20FFF76BFE2946FFF7B0FE18BB0134102C05F11005F3D112480F24013C07EBB8
:205A8000041600E0013C314610220AF003FF3046103E002CF6D10720FFF73EFE3873FBF77D
:205AA0007FFBB8600D20FFF749FEBDE8F84001460348FFF787BE002CEDD02846DEE700BF65
:205AC000C0170020B018002040B130B40D460446114628461A46234630BC1847704700BF26
:205AE000032912DD8AB110B413889278C3F30B030AB143F400431C0A02210F228370C4704D
:205B00000170427010BC042070474FF0FF307047012906DD2AB100223F23027043700220E3
:205B200070474FF0FF30704701290CDD5AB193880222C3F30A03A3F5F0439BB2190A0370BB
:205B40004170104670474FF0FF32FAE7072916DDAAB1034630B491680625817091681A243F
:205B6000090AC170518908201971D17A5971117B9971127C1D70DA715C7030BC70474FF096
:205B8000FF307047002A3FD0F0B592F82E5092F82A4005EB8506331D04FB03F3012C03F164
:205BA00001072DDC042D2BDC03F1020E8E4527DA012C847005D01B220770033342701846D4
:205BC000F0BD92F82B10C170918D0171918D8571090A4171002DEED001460644148E053165
:205BE0008C70148E0632240ACC70948D0C71948D240A4C7192F82E408C71B142EED1DAE753
:205C00004FF0FF331846F0BD4FF0FF331846704730B402B3537C002B15BF1A240224192579
:205C20000125A14217DD8370537C6BB1014602F11003283233F8024F02314C701C889342FE
:205C40004FEA14248C70F5D11C23057043700235284630BC70474FF0FF35F9E7DAB3F8B5D5
:205C6000B2F84A30042B33D892F848E0BEF1000F2AD10223012799422ADD04461546002661
:205C800080F802E0C670067146718671C67106724672B2F84A3002F14C018372B2F84A306B
:205CA0000C301B0AE372B2F84A200AF0F3FDB5F84A30C82223441E73B5F84A30B81C2344C5
:205CC0005E7327706270F8BD03F10C070D33D2E74FF0FF30F8BD4FF0FF307047002A00F073
:205CE00034812DE9F04700259046D570002900F01E8101291DD90746A9462E4604464278D6
:205D000014F8023B023943EA02231BB2012D5FFA81FA9AB24CD03AD3022D0ED03046F1B243
:205D2000C1EB0A0111F0FF01204400F0F8800129E4D14FF0FF30BDE8F087002B73DBD6B275
:205D40005645C2F30622F4D81B2A00F096801C2A00F0CE801A2AECD1062EEAD18378C8F885
:205D60000830C27843EA0223C8F80830027943EA0243C8F80830427943EA0263C8F808303D
:205D8000837988F80C30C37988F8103069E0002BCFDBC2F3C7137E2B02F07F063AD07F2BCE
:205DA00015D1002EC5D1E01B88F80300BDE8F087002BBEDAC2F3C323012BC2F30A0223D061
:205DC0000F2BB6D1002AB4D1E01BBDE8F0875645AFD81E2BADD1022EABD1C278837843EA45
:205DE00002231BB29AB2D10B88F80210110545BF6FEA02536FEA1353C3F30B031BB20221BC
:205E0000A8F8003008468BE70021914608460E46022585E7002E8CD1E31B88F80330314612
:205E2000304601257CE7C2F30A065645C2F3C3223FF67FAF092A7FF47CAF002E3FF479AFAC
:205E40008378012E88F848300BD0C27A837A43EA0222042AA8F84A2003D802F10C039E42C6
:205E60006AD0B31CC3EB0909B9F1000FFFF661AF3046F1B208BF012552E7002E3FF459AFF3
:205E80008378002BEDD0012B7FF453AF8379042B3FF74FAF03EB83014A1D96427FF449AF03
:205EA000012288F82A20C27888F82B2090F805E0027942EA0E22A8F82C20827988F82E20F7
:205EC000002BCED04346014490F808E0C279053042EA0E221A8690F805E00279063342EA02
:205EE0000E229A858279814283F82E20ECD1B8E7012E18D0192E7FF41CAF0346827800F1A0
:205F0000180E88F8112008F110011879DA78023342EA0022734521F8022FF6D1A1E7C01B0E
:205F20008DB1BDE8F087837888F8113099E7084688F80310BDE8F08700F10C0108F14C008B
:205F40000AF0A8FC8DE7C1B2F2E74FF0FF30704730B591B0FFF71EFB0446FFF72FFB6A466F
:205F60000146204600F0FAFAA0B30446FFF7F6FA80B39DF810100C20FFF7C6FB9DF8173066
:205F80008BB1BDF81C5000F0E9F8854205D04FF6FF73BDF81C209A421CD169469DF817006B
:205FA00000F0A4F9D0B102A90D20FFF7BBFB9DF815303BB14FF6FF710720FFF7A5FB2046B1
:205FC00011B030BD9DF81A100720FFF79DFB204611B030BD4FF0FF3011B030BD69460E2092
:205FE000FFF7A0FBDFE700BF98B392B3F8B506460C2014460D46B04700232074A3741DB394
:206000000122E37462750920B047002702232376A07567740720B047A07600F09FF8E0831C
:206020000A20B047012816BF03236776637600F095F8A0830B20B047012813D055B102236C
:20604000E37501232375F8BD0820B0476575E074D9E770470323E375637E022BF1D0002343
:206060002375F8BD0023E375F6E700BF30B591B0054600F073F84FF6FF73984258D04022D5
:20608000684600210AF0E0FC2D4B1A7822B35DBBFFF75CFB6A46C1B22A48FFF7A5FFFFF7F2
:2060A00055FB00283CD0FF238DF800308DF801300D20FFF743FB014602A8FFF783FBFFF713
:2060C00069FA0E90FFF77AFA0F90684600F06AF90446CDB911B030BD01221A70FCF746FA57
:2060E000194B1870002DD3D00720FFF715FB0028CED1154C2178F1B189B20720FFF704FBFD
:20610000237801332370C3E7FFF7FEF980B1FFF751FA0146684600F091F9204611B030BD91
:206120000E20FFF70BFB01466846FFF74BFBBFE74FF0FF30CEE7012319462370DDE700BFA2
:206140008929002019570000882900200120FFF78DBF00BF0020FFF789BF00BF014B188801
:20616000704700BFD4080020014B1880704700BFD4080020B8B1037A30B4022B14D0037801
:20618000022B19D00379D3B9447A14F0030418BF0124C37913F0030318BF012301B10C60BE
:2061A00002B1136030BC7047C579447A037945B90CB9012BF2D0CBB100231C46EEE70024F3
:2061C000E7E704B9C3B1032D21D1032C16D0022C18D0002BF0D1022D08D0032D15D1A4F1D5
:2061E0000204B4FA84F46409D8E72346023C012C8CBF00240124D1E70123ECE7002BDBD159
:206200000123ECE7002BF7D001230024C6E7022DDDD1002CF6D1002BE7D02346BEE700BF21
:2062200030B504460D46084683B0002106220AF00BFC637DD9075CBF01232B70237E012BAA
:2062400023D901AA694604F11000FFF793FF009B0BB10223EB70019B0BB102236B70E37DCC
:2062600003F00303022B03D0032B0CBF08230023AB70637E03F00303022B03D0032B0CBFF0
:20628000082300232B7103B030BDE37D9A0706D0637E9B0703D0E28BA38B9A4202D00023DB
:2062A0002375CEE701232375CBE700BF10B5002182B0019198B1044601AA1030FFF75AFFED
:2062C000019B63B1084AA38B12889A420AD04FF6FF70181AB0FA80F0400902B010BD002056
:2062E00002B010BD0120FBE7D408002002280CBF022308230B4403E013F8012DFF2A03D173
:206300008B42F9D10120704700207047002844D0B0B50446637E1746084663B1022B38D077
:2063200004F1080108228B1803E013F8015DFF2D1AD19942F9D110B11949FFF743FAE37DD4
:206340005BB1022B0CBF02220822A31803E013F8011DFF2913D1A342F9D14FB13846104992
:20636000FFF730FA0120B0BD082A03D00020B0BD0120B0BD0028E2D0FFF724FADFE7082A69
:20638000F4D1002FF4D038462146FFF71BFA0120B0BD1A4604F10801C5E70020704700BF27
:2063A000382A010000B583B06946FFF739FF9DF800309DF801109DF8022002330B449DF87A
:2063C000031013449DF804200B449DF805001344184403B05DF804FB70B44478857806789C
:2063E000C278E4002D01037905F0100504F008042C43520106F007052C4302F020029B01E8
:20640000224303F0400313430B7045798479467AC279037A640005F0010545EA861504F0C0
:2064200002009200284302F00C021B01024303F0300313434B7070BC704700BF2DE9F041DC
:2064400080460C4682B06946FFF7EAFE08F110002146FFF7C1FF9DF80030012B02BF98F8FD
:206460001A300320A3709DF8013018BF0220022B2AD09DF802707FB103467A1E0744FFB2A2
:2064800008EB020111F801695D1CE654EBB2BB42F8D101321044C0B29DF80330022B1FD0A0
:2064A0009DF804706FB10346FA1DC6194244F6B212F80159591CE554CBB2B342F8D138447D
:2064C000C0B202B0BDE8F081B8F81C20431C2254B8F81C20DBB2120A0230E254C0B2C8E7A3
:2064E000B8F81E20431C2254B8F81E20DBB2120A0230E254C0B2D3E7F0B50278437885B09F
:2065000002F00706C2F3C005C2F300140846C2F38011C2F3401E03F001078DF804608DF829
:206520000550C3F34006C3F381058DF806408DF80810C3F301140A229B0901A98DF807E0B5
:206540008DF809708DF80A608DF80B508DF80C408DF80D300AF09EF905B0F0BD012951DD90
:206560002DE9F041144686B00F4603A90546FFF7C3FF03A90A2204F110000AF08BF99DF850
:206580001130002B3AD0AE1C03A802AA01A9FFF7F1FD9DF81380B8F1000F44D0029B002B1A
:2065A00035D0727816F8023B03EB0223A383B8F1020F57D0B8F1030F3CD09DF81580B8F1ED
:2065C000000F28D0019BFBB1717816F8023B029A03EB01239BB2E383DAB1B8F1020F4BD077
:2065E000B8F1030F32D0701B8742A7EB0003B8BF0020A663E36306B0BDE8F081AB78EE1C16
:20660000A376C1E700207047A38BE383E5E7A383CDE7A383E1E71E4904F10800FFF7D2F896
:20662000A4F81E80DFE71A492046FFF7CBF8A4F81C80C2E706F108000346621E13F8011D06
:20664000B34202F8011FF9D10646B6E708363246E31D04F10F0012F8011D03F8011F8342B6
:20666000F9D1C0E70A492046FFF7ACF87378237016F8023B6370A0E7054904F10800FFF7F2
:20668000A1F87378237216F8023B6372ABE700BF382A010030B504461A4A83B010680023AC
:2066A000019020468DF800308DF80130FEF7DCF910B1FE2003B030BD01A904222046FEF704
:2066C00009FA28B12046FEF7DFF9FF2003B030BD022269462046FEF71BFA05462046FEF703
:2066E000D3F90DB1FF20E5E79DF80030C22B01D02846DFE79DF80100A0F11400B0FA80F019
:206700004009D7E74C2A010030B5052383B08DF804300446FEF7A8F940B9012201A92046F6
:20672000FEF7D8F948B12046FEF7AEF9002003B030BD9DF80730DB0708D501220DF1070124
:206740002046FEF7E5F90028F3D0ECE72046FEF79BF9012003B030BD10B582B030B303783D
:20676000FF2B20D004462046FEF76EF9D8B92046FEF78AF9AB2320468DF80730FEF774F932
:2067800048B901220DF107012046FEF7A3F978B12046FEF779F92046FFF77CFF012803D00F
:2067A0002046FEF759F9002002B010BD024CDAE72046FFF7A9FFEBE7502A010070B5174CA5
:2067C000002818BF04462046FFF79EFF40B900252046FEF741F9002818BF0025284670BD05
:2067E00005462046FEF740F906460028EFD1B9212046FEF753F960B92046FEF745F90A2623
:206800002046FFF747FF731E0028E1D013F0FF06F6D120463546FEF737F9D9E7502A01005C
:2068200010B50446FFF798FF00B910BD2046BDE81040FFF7C3BF00BF38B50546284B0121D7
:20684000284A19601368002BFCD0274AC021274B11601B689B070AD4254BA2F57F321B6868
:20686000A2F5D572C3F3034343F0F0031370214A214B002111601C68204600F001F92146F1
:20688000284600F09DFA40F21D221C4B1B689BB2934212D81A4B19681A68C1F30361C2F367
:2068A0000343C9B99A1F012A83BF023303F00F031B017023134A0B431370204600F044F940
:2068C000114B02201B68DB68984707490F4B4020012208601A6038BD0139C9B2E2E700BF54
:2068E000101009409402224300600C40B03F0050AC3F005040100940B43F005014130050BB
:20690000BC12005002600840A00100109404604238B51E4B00251C68631C08BF002400F06B
