:020000040000FA
:2000000000500020E9000000E1000000C9000000E5000000E5000000E5000000000000002E
:20002000000000000000000000000000E5000000E500000000000000E5000000E50000002C
:20004000E91B0000E500000071240000E5000000ED1200008D180000E5000000E5000000CF
:20006000E5000000C5240000E5000000E5000000E5000000E5000000E5000000E500000054
:20008000E5000000E5000000E5000000E5000000E5000000E5000000E5000000E500000038
:2000A000E5000000E5000000E5000000E5000000E5000000E5000000E5000000E500000018
:2000C000E50000000D270000044B1A68B2F5806F03D01B689B0500D4FEE7704728ED00E045
:2000E000FEE700BFFEE700BF08B508F075FB104A104B9A420DD2D0430F4918440B4620F0FB
:2001000003000430084453F8041B834242F8041BF9D10A480A494FF000028842B8BF40F8AB
:20012000042BFADB05F0C2F8FFF7CEFF08BD00BF0000002031090020F89101003809002060
:20014000913D0020F0B5002706463C463D4683B0304606F0DFF80195019B9C4206DD00BF6C
:20016000019B01330193019B9C42F8DC304606F0F5F80195019BC4F5C874A34206DA00BFC9
:20018000019B01330193019BA342F8DB0137B7F5487F06D0B7F5C87FCCBFC7F548743C46AE
:2001A000D6E703B0F0BD00BF38B5194D194C2B6820465B68012198472B6801210A461B6866
:2001C0002046984708F0DEFB01F064FD01F0E6FC00F0FAF806F014F906F0E4F80120FFF716
:2001E000B1FF0D490D4A0E4809680123136003600B691020A2F5FF521268984708F0C6FB43
:2002000000F0E6FFBDE838400020FFF79BBF00BFD801001000400340B00100100C400940FB
:200220000800094008B541F2342002F085F901F0C7FA05F0DBFF074801F0EAFA064808219D
:2002400001F090F905F0F2FEBDE808400220FFF779BF00BF9961000078310020F0B585B0A6
:20026000002602A80821294C0096019601F07AF99DF80F309DF80E70E56A43EA072748F2B4
:20028000A5110220A84739460320A84731460120A847636B02A908221D4D0B209847A46A5A
:2002A00001206946A0472B68022B1ADC022001A9A04758B92B68022B04DC0020FFF742FF16
:2002C00005B0F0BD1348019909F0DEFA2B68022BF3DD114809F0D8FA0020FFF733FF05B045
:2002E000F0BD0E490E4A0F4809F0CEFA0E4809F0CBFA2B68022BD9DD0849094A094809F012
:20030000C3FA0099094809F0BFFACFE790520100D4060020A8510100388B01006851010079
:200320007051010058510100805101009851010001F0E0BA024B4FF080421A60704700BFCC
:20034000A020024038B50A4D0A4C2B681E20DB6B98472B684FF080422260DB6B01209847AF
:20036000022323600448BDE8384001F00BBC00BFB4010010A020024028040020024B4FF056
:2003800080421A60704700BF90200240024B4FF080421A60704700BFA0200240014B1870A5
:2003A000704700BF0120024010B5064C042023685B699847236804205B6B98470128F9D1B4
:2003C00010BD00BFB8010010F0B591B008F0DAFA0746FFF7E9FF1E4B4FF4A0601B68DB6978
:2003E00098471C4B01211C4A196013689907FCD500201A4C07F0C8FD01AD194801F0C2FBCB
:200400000FCC0FC50FCC0FC50FCC0FC594E80700019C85E80700621C0FD0124E01AD336835
:2004200020469B6B9847336820469B694FF40051984755F8044F631CF1D1FFF783FF0FB1E0
:2004400011B0F0BD11B0BDE8F04008F09FBA00BFB801001028200860282008403C520100F0
:200460003C040020B40100100120704708B501F0B7FC30B1034B5888A0F10200B0FA80F062
:20048000400908BDFC04002008B501F0A9FC30B1044B5B88022B0CBF0120022008BD0220A6
:2004A00008BD00BFFC04002030B583B001F006FF044601F095FC08B903B030BD0E4801A95D
:2004C00001F096FC0128F7D100F080FE638803F44063002BF0D16FF03F052D1A06E000F009
:2004E00091FF638803F44063002BE5D100F06EFEE842F4D4E0E700BF0100010470B582B0D5
:2005000001F06EFC234C10BB00256580E37B214E23F01003E373E37B304643F02003E37373
:20052000E37B01A943F04003E373E37B63F07F03E373A37F5BB2C3F5FF6307339BB22383E8
:2005400001F056FC012809D0284602B070BD6388022B08BF0120D7D102B070BD00F036FE5E
:2005600073889BB2022B0DD06FF03F052D1A05E000F048FF63889BB2022B03D000F026FED7
:20058000E842F5D4608880B2A0F10200B0FA80F04009E1E7FC04002008B50346B32994BF3B
:2005A0000A46B4220248194614F0BAF9002008BD0210002070B50E4D0E4E2C68002006E028
:2005C0002379022B06D024682B68A3420ED02379032BF5D133780120002BF4D1064805F00B
:2005E0008DFB24682B680120A342F0D170BD00BFB40D0020273100201806002038B50D4AC6
:200600000024136819681C725C721C71116002F0B9F80546BFF35F8F074B1A7812B11C709F
:20062000FFF76CFFBFF35F8F2846BDE8384002F0B1B800BFBC0D0020263100202DE9F0436B
:200640002E4B83B080460F461D6800F0BFFD2C4E361A03E000F0BAFDC6420AD52C79022C94
:20066000F8D0284B0020032C187008D003B0BDE8F0832C79234B0020032C1870F6D1B5F867
:200680000890B9F1060F27DDA9F10606BE4223DC0A3540462946324614F042F9DFF87480A4
:2006A000AA5DAB1988F800205B79A9F10501164F0422294401A83B7014F032F9019801F056
:2006C00087FE124B124A1B7810605BB1FFF796FF304603B0BDE8F083FFF790FF002003B0A9
:2006E000BDE8F08398F80010042049B289B206F0D3FB3978204606F0CFFBE7E7BC0D002096
:20070000E2FAFFFF243100202831002027310020FC1000202F0900200C2801D00120704738
:20072000042A01D0022070470029FBD0024B00201B680B60704700BFFC10002070B582B099
:2007400001F04EFB002837D01D4C6388022B33D11C4E00F03BFD7388022B0BD11A4D2D1A67
:2007600004E000F04FFE7388022B03D100F02EFDE842F6D401A9154801F03AFB00F026FD0D
:200780006FF03F052D1A08E06388022B09D100F01DFDC54205D500F035FE01F021FB002852
:2007A000F2D16088A0F55050043880B201288CBF0020012002B070BD012002B070BD00BF98
:2007C000FC0400206C05002000FEFFFF0100010410B5012082B0FFF7E1FD104C104B05219D
:2007E0001A68237E84F82410928803F0F80343F00803204601A96283237601F0F9FA012845
:2008000002D0002002B010BD204601F043FBA0F10100B0FA80F0400902B010BD44050020F5
:200820000006002000B583B00A4801A901F0E0FA012803D0002003B05DF804FB054801F082
:2008400029FBA0F10100B0FA80F0400903B05DF804FB00BF2C05002008B5FFF7B9FF0128D4
:2008600001D0002008BDFFF7DDFF0128F9D1FFF745FEC0B208BD00BF08B501F051FE0128A8
:2008800012D0FFF75BFF01F001FC002210460749074B4A8003F510711A799033022A08BF92
:2008A00003F88C0C8B42F7D1012008BDFC040020C00D00202DE9F84F01F032FE012818D08E
:2008C00001F08EFA88B901F011FA01F089FA0446002840F08E8001F0F5FA012805460BD00F
:2008E00001F0D4FB0020BDE8F88F574B5B88022BE9D10120BDE8F88F01F044FC53494FF423
:200900002372534814F00CF8DFF88CB15148DFF88C91DFF88CC1504F504E5149514B524ACB
:2009200004704FF0020A8BF800504FF003084FF0040E052406204D4D89F800A08CF800807C
:2009400087F800E0347008701A602B684749002BFBD00020464A474BDFF84881086052F8F5
:200960001CCC52F818EC52F8146C52F8105C52F80C4C52F8207C12E90300203343F8207C11
:2009800043F81CCC43F818EC43F8146C43F8105C43F80C4C43F8080C43F8041C434502F1DB
:2009A0002002DCD1344B354ADFF8FCC0DFF8FCE0334934482D4C344F344E00251862C3F854
:2009C00024C00120C3F828E0DF621E632560116008F074FA2E4808F0D5F9224613682349A6
:2009E000002BFBD000230B6001F0D4FA01287FF477AF01F0F5FB2748002103460E460225BD
:200A000088245A791E7102F0FC0265F383025A71DC80903343509031B1F5107F1D4AF0D160
:200A2000C2F8B02101F07AF9FFF7D2FE012802D00020BDE8F88FFFF7F5FE0128F8D1BDE83A
:200A4000F84FFFF75BBD00BFFC0400208C5901001C04002190030021AE030021AB030021E6
:200A600081030021C0030021BD0500211C100440F852010000C0002180C6002100100440B3
:200A800001010E046039536311161216546B007044050020C00D00207903002175030021E9
:200AA00077030021A0C600212010101A136F236E70B582B0072800F2AC80DFE800F0212A01
:200AC000AAAA5E6B70045E4B197001F089F900285DD05C4B5B88022B59D1FFF72FFE01285E
:200AE0000CBF0024032401F06FFB012800F0A080FFF7B2FE01280CBF2046032002B070BD4A
:200B0000012900F08E80002900F08580022002B070BD8029FAD84C4C4FF47A72208AE38936
:200B200002FB03F302FB00F2A3F55C2302F57F42FF32A3F58763454803EB2243A0FB0323B0
:200B4000CAB2C3F387139A4221D0C82303FB01F13F4801F55C2303F58763A0FB03213D4AFD
:200B6000890902FB01331B04A0FB03233A488AB29B092382E2810284A7E731F00403C5D196
:200B8000364BC1F380011A7819708A429DD1002002B070BD31F00103B8D1C8B2AEE74FF649
:200BA000FF742F4DAE88A64208BFFF2309D02A460023083290880133A042DBB2F9D1013BD8
:200BC000DBB255F83330264C99429FDB236899429CDC0191FFF768FC4FF6FF739E42019916
:200BE0002CD022461C460023083290880133A042DBB2F9D1013BDBB255F8332005EBC30031
:200C0000914203F1FF3316DD5A1CF5D1FFF724FEBDE7012072E70191FFF72EFE01990846DA
:200C20006CE7FFF747FE012814BF0320002065E701F066FB5CE70B4B1860E7E70023D9E787
:200C40002E090020FC0400202C0500201F85EB51D34D621018FCFFFF440500202731002067
:200C6000BC5101000006002099B1F0B50C4683B0172800F2B980DFE800F05E9DB7B7950E9F
:200C80008B58297886B7B7B70E7E126BB78274700E91022070470020086003B0F0BD4FF65A
:200CA000FF705B4DAB88834208BFFF2309D02A4600230832918801338142DBB2F9D1013BF3
:200CC000DBB255F8333000202360E6E701F088F8002840F08D80FFF7EDFD012840F0938045
:200CE00007460A2580266B1E13F0FF054FF000014FF004020FD001A813F0ECFE40F20343D0
:200D000001A86946ADF8043001F072F818B19DF802607306E7D0002F72D176B216F1800F27
:200D200026600CBF03200020B7E73A4B002093F900300B60B1E701F053F830B1364B58889F
:200D4000A0F10200B0FA80F0400920600020A4E72F4B00201B680B609FE73E230B60002078
:200D60009BE7A0230B60002097E72C4B00201B785BB20B6091E780230B6000208DE7062340
:200D80000B60002089E7264B00201B780B6084E7244B00201B681B680B607EE718230B6053
:200DA00000207AE70020204B08601B78F3B104230B6072E71D494FF47A72CB89098A02FB24
:200DC00003F302FB01F2A3F55C2302F57F42FF32A3F58763164903EB2243A1FB0323C3F381
:200DE00087132360002058E7012056E7184654E7094B5B88022B08BF00273FF472AF6AE789
:200E0000FFF73AFD89E76FF07F032360032044E7BC5101002E090020FC0400202F090020A6
:200E20002831002000060020273100202C0500201F85EB5170B582B0044600F0D1FF28B32E
:200E4000244B5B88022B08BF00251FD12249221DA31C224C92B29BB2100A2382E161487016
:200E60000A70FFF76BFC002001F0FAF9204601A900F0BEFF88B9012601F010FA0023638071
:200E8000FFF73CFBE5B9304602B070BDFFF712FD01281AD0012002B070BD00F0B3FA104E1F
:200EA000317800E099B163880C4A03F44063002BF8D0508880B2B0F5505618BF0126DBE77C
:200EC000FFF7DAFC304602B070BD0546BEE700F007FDE5E7FC040020001000206C05002060
:200EE0002731002010B50C46B32C014694BF2246B422044813F014FD2046BDE81040FFF7FB
:200F000099BF00BF0210002030B583B001F008FB01281BD000F064FFD0B1154B5B88022B24
:200F20001FD000258024134801A900F061FF012803D19DF806406306F5D07DB90E4B64B2F9
:200F400093F90000A042D4BF0020012003B030BDFFF7B0FC012806D10546E3E7FFF78CFC7A
:200F6000ECE70120F2E7FFF787FC0120EEE700BF6C050020010003042E09002010B500F0D1
:200F80002FFF80B10F4B5B88022B0BD10E4C237853B90E4B1B689B0601D501232370207809
:200FA000C0B210BD002010BDFFF7AEFFB0FA80F0400920702378002BF1D1044B6FF0200217
:200FC0001A60ECE7FC0400202431002008100440F8B51F4800F0D6FD07F050FC012802D0BE
:200FE00000242046F8BD1B4C002120464FF4107213F070FD40F2863043F23331164B174A4C
:20100000DFF874C0164DDFF874E0164F0026CCF8004083E85000AB62C5F82CE03884D0810A
:201020001182FFF747FC01280446D9D10E4B0F4A1E6013680E4843F02003136001F044F9CF
:2010400001F048F931460B4804F038FEC9E700BFEC050020C00D0020B40D00202C050020CB
:20106000FC04002044050020081004400C100440C852010018060020BC0D0020A80D002014
:2010800010B5064C042023685B699847236804205B6B98470128F9D110BD00BFB80100104B
:2010A000F8B51A4A00200021C2E90001184B04201B685B6B9847012801D0FFF7E1FF144B54
:2010C00000201B68DB699847124B0121124A196013689B07FCD5114A11491368096823F450
:2010E000807323F001030F4C13600B6820460E49984740F221200D4D0D490E4B042731260B
:20110000012227602E6008601A60F8BD38090020B801001028200860282008400C00014049
:20112000C801001000000140002100043C000140080001400400244310B40949094C0B6861
:20114000226808688342FAD1DB01074903EB52620023C1E900235DF8044BD1E90001704731
:20116000082009400C2009403809002010B50B490B4C0B68226808688342FAD1DB0109498D
:2011800003EB52620023C1E9002304F0FBFB00B910BDBDE8104004F0D5BB00BF08200940A4
:2011A0000C2009403809002010B507F0EBFB034B1C6808B907F0EAFB204610BD08200940A4
:2011C000704700BF0146012000F052B807F070BA2DE9F04107F0D6FB1D4E1E4B1E4F32682C
:2011E0000124002580464FF480314FF480703D601C60186019601368284623219847336807
:2012000020461B6824219847336802201B6825219847124A1249136843F4E02313600D6010
:2012200007F046FA0F4B1049104A1B6800F50070086014603C601B6914209847B8F1000FBB
:2012400001D0BDE8F081BDE8F04107F09FBB00BF84010010042009400000244300200940EF
:2012600008200940B00100101C200940A0022443431E012B10B41BD9042802D05DF8044BC7
:20128000704700231A4610F004001CBF0E4C216013B10E4B0121196012B10D4B01221A60EA
:2012A0000028EBD00B4B01221A605DF8044B704710F0010302D0084A0123116010F002023C
:2012C000E1D0064C2160DEE72020094080022443A0022443C0022443182009401C2009401B
:2012E000014B1868704700BFB810002008B5FFF76DFF184B1860FFF739FF174B1B686BB993
:20130000164B1B68E3B9164B1B6833B11549164B00204FF4803208601A6008BD124B4FF46A
:2013200080721A6007F0C4F900F205200F4B20F4FF7020F001001860084B1B68002BE2D05D
:201340000B49094B0020012208601A6004F0FAFCD9E700BFB8100020A00024438000244381
:20136000C0002443C0022443042009401C20094080022443820702D5034B01221A60C3072D
:2013800000D4704707F002BB000C084008B507F0F9FA074B1A68012A03BF06490222196066
:2013A0000022002814BF104642F0010008BD00BF000C084051E5CC1A03490448044B012289
:2013C00008601A60704700BF00000840FFFF0F00000C084038B5FFF7D9FF064C064D07495C
:2013E000074A012325600B601360BDE83840FFF7C1BF00BF00000840FFFF0F000C0008401A
:201400000401004303490448044B012208601A60704700BF00000840FFFF0F000C00084079
:2014200008B5FFF7D7FFFEE708B5064805F03AF830B1054B0121054A196013689B06FCD504
:2014400008BD00BFBC100020000222431410094070B5054607F096FA0B4C294606460B48EC
:2014600005F022F8FFF7E0FF236868681B689847236868689B6898471128F9D106B170BDA7
:20148000BDE8704007F082BAA0010010BC10002038B5044648B9134805F004F828B1234661
:2014A00005C813430028FBD19BB90F490F480B680F4D104C0068002223F4C0530B602A603E
:2014C0002260C368012098470B4A13689B06FCD438BD054A136823F4C05343F40063136028
:2014E00038BD00BFBC10002004100940A001001080012243000222431410094038B505464C
:2015000007F040FA04462946054805F011F80020FFF7BEFF04B138BDBDE8384007F036BA15
:20152000BC10002070B50446B0B10078C0B1A9B10025661804E014F8010F38B1B44205D055
:2015400000F052F9631C05F10105F4D100F092F90128FBD0284670BD0546F7E70D46F5E7AE
:201560000546F3E710B40B4B0B4C13F8012FFF2A0ED1A342F9D1094A39B1114401380139DE
:201580000B78914200F8013FF9D15DF8044B7047034AF1E7C7FF0100CFFF0100F01200508B
:2015A000C8FF010038B50C4D02202B685B6998472B6802205B6B984701280446064BF7D1DF
:2015C0001B684FF40070DB699847044B044A1C6013689B07FCD538BDB8010010282008603D
:2015E000282008402DE9F04340F2F275DFF8DC8083B0FFF7D7FFD8F800302A4EDB682A481A
:2016000098473368294C5B69152098472368DFF8C090274F23F4FE63D9F8002023F002035A
:2016200023603D60D36B032098472249D9F800300820122208600092D3F840C01A48022138
:2016400003221323E047D8F800301748D3F804C019494FF4E1326023E04740F2011240F241
:20166000013E1649164B142008601968154841F01001196003681449002B0CBF1346734666
:201680000B603D60036853B12368326843F0500323601369152003B0BDE8F043184703B057
:2016A000BDE8F083B001001000100040381000404410004090200240006CDC023410004025
:2016C0002C100040C010002030100040D0010010B401001008B5064B02201B685B6B984720
:2016E000012803BF034B186800F00100002008BDB80100106C20084038B50446FFF7EAFFA8
:2017000018B1254A13681907FCD4032C03D0234B1B6803B138BDFFF7DDFFE0B9204D4FF46F
:2017200000702B681B6A9847032C2AD01D4B01211D4A196013689B07FCD5032000F03EFA76
:20174000022000F03BFA132000F038FABDE83840122000F033BA154B15481B68DB6898475F
:20176000144B15201B685B69984740F2F270124A1249136823F4FE6323F00203136008607E
:20178000CCE72B684FF400709B6A98472B684FF400701B6B9847C9E718100040C0100020B9
:2017A000B80100102820086028200840D001001000100040B0010010381000404410004012
:2017C00010B507F0DFF80446054800F0DBF9054B00221A6004B110BDBDE8104007F0D6B833
:2017E00004060020C010002010B50446FFF772FF08B9FFF7F7FE044B2146BDE810401B687F
:201800000248DB69184700BFD00100100010004010B5134B134C1860134A2368A8B102218D
:2018200011615B6A4FF40070984723684FF40070DB6A98470D4B01210D4A196013689B0716
:20184000FCD5BDE81040FFF7CDBE10619B6A4FF40070984723684FF400701B6B9847E9E7C6
:20186000C0100020B801001004060020282008602820084008B5FFF72DFF18B1024B1868D0
:20188000C0F3C00008BD00BF1810004038B5FFF789FE40F2F2710C4B0C4A1B68116013F046
:2018A000500F10D00A4C0B4D05E02B681B699847094B1B6823B923680848DB06F5D538BD32
:2018C000C0B29847F7E738BD401000404410004018100040D0010010C01000200010004037
:2018E000034A136823F00403136030BF704700BF10ED00E02DE9F84307F044F804F0A8F938
:2019000018B1BDE8F84307F041B88E4804F0CAFD0225044648B1636823B19847A84228BFE4
:201920002846C5B22468002CF5D1FFF74FFC864B80461B68CBB91F46994604F023F80028EA
:2019400040F0A780012D0446064600F0EC80022DD7D1E7B1A9F14101B4B18B1B002B13DBA1
:2019600031460220FFF784FC18E0784BD3F80090C0EB0903022B00F1BE80A3F28F23002BBD
:20198000C0F2CB800127D8E70420FFF771FC002CE6D108F1FF310220FFF76AFC694804F0AD
:2019A00081FD06250446002800F0AA80A368022003B198472369246825EA0305002CF5D111
:2019C000FFF720FD6B0705F0060400F19C80002C40F09D8000F0BCF90020FFF759FD5C4947
:2019E0005C4A0B685C4823F003030B601368016843F00F0313608B6939209847574A58499C
:201A000000231360184613600B6006F0F3FF062C00F08580534C544D544E2B68236832684B
:201A200023F00303236053685148032198474A4B1B689B6B98472B6807F034F94D4A3368CD
:201A4000002111604A485B680121984723684A4A012143F00303236011602B6807F054F959
:201A6000FFF7E2FCFFF782FBFFF7CCFC354804F019FD044628B1E36803B198472468002C21
:201A8000F9D100F033F906F081FFBDE8F84306F07DBF03F07FFF0646FFF74EFB361A002E5E
:201AA0007FF72FAFFFF71CFC344B00EB4626C8EB0303F34240D40124A5427FF448AF6FF017
:201AC0000703C8EB0303F34233D408F58038C6EB080336EA230628BF464631460220FFF74B
:201AE000C7FB274A136823F00403136030BFBDE8F84306F04BBF00239D4288BF1D4641E708
:201B0000FFF780FC06241C4B00221A605FE7124B20461B689B6998475CE70123ECE702205B
:201B200006F038FF76E708F580310220FFF7A0FBD7E708F10806D0E7022DC0D0012D7FF4DE
:201B4000E0AEBCE7C410002080022443182009400010094008100940B801001040100940DA
:201B600020042243242208402C200940D801001000400340800104430C40094071FDFFFF84
:201B800010ED00E00146014804F08EBCC41000200146014804F0CCBCC410002010B5054894
:201BA00004F07CFCBDE81040034B03201B6820211B681847C410002084010010421C0ED0E8
:201BC00010B50446064B4FF4C0421B6800211B689847044AA3001A430023136010BD7047F2
:201BE000B4010010001A4442024B1868186004F0F3BB00BFE020024070B51B4B0C461B6838
:201C000005465B68984714F00C0320F0E06222F4EC2207D0042B20D0082B21D00C2B08BF36
:201C200042F4403214F003030DD142F4C04223060D4B2846BDE870401B6848BF42F4802236
:201C40001B6800211847022B04D0012B08BF42F48042ECE742F40052E9E742F40032E1E73A
:201C600042F48032DEE700BFB4010010064B1B68C340DB074CBF054B054B1B6823FA00F03F
:201C800000F00100704700BFD020024080200240C020024010B584B00022412302A80292EA
:201CA0000393FFF7D5FB042006F0ECFC032813D00420032106F0B6FC042006F0E3FC0328A4
:201CC0000346F9D1074A084812680093546800214FF040521C23A04702A8FFF70FFC04B010
:201CE00010BD00BFA401001000A00C4000B583B00022412368468DE80C00FFF7A9FB01205F
:201D000006F0C0FC012803D00320012106F08AFC6846FFF7F3FB03B05DF804FB00B583B0D3
:201D20000022412368468DE80C00FFF791FB012006F0A8FC012803D0044B986B06F0CAFCA7
:201D40006846FFF7DBFB03B05DF804FB4800001010B582B041236846002401930094FFF75F
:201D600077FB0320214606F05DFC012006F08AFC18B1044B986B06F0ADFC6846FFF7BEFB64
:201D800002B010BD4800001070B50388044653B1B3F52F7F03D182290AD0012070BD00234E
:201DA0000380032070BD4FF42F732380012070BD094B0A4E1D69FFF725FB05F017F804F03A
:201DC000AFFF8021A847002880B2ECDD04F0A2FFF3689847EFE700BF90520100847701005F
:201DE000024B186800F00100704700BF9C21084010F0030370B506460D4602D1028811056D
:201E00001FD406F0BFFD1F4B00301B6818BF0120DB0720D51C4B1D4C1E6023684CF2503298
:201E20002B6003E02368013A2B6014D013F0FF0FF8D018B32878A0F10100B0FA80F04009C6
:201E400070BD438006F09EFD0E4B00301B6818BF0120DA0702D468B1002070BD338813F41E
:201E6000405FD7D003F44063B3F5006F04BF084B1E60CFE706F08AFD002070BD06F086FDDE
:201E8000D8E700BF9C2108400010044004100440EC1000200A4A01E0013A0ED0438803F4E7
:201EA0004063B3F5806FF7D1428802F44062A2F58060B0FA80F0400970471046704700BF61
:201EC00020A1070030B583B006F05CFD264C0546236819201B6A9847236812201B6A9847CD
:201EE000236819205B699847236812205B6908349847236801205B699847236801205B6B1E
:201F000098470128F9D11949194B1A4A0860186013689B07FCD5144C17481849226800232A
:201F200003600B60136919209847236812201B699847B5B140F2FF35FEF720FA104B114A8E
:201F400011481249002405600C60114801A91A60FFF74EFFA0F10100B0FA80F0400903B070
:201F600030BD06F013FDE5E7B00100102C2008402820086028200840101004601410046001
:201F80000010044051000706000004601C1004400100060410B586B00021142201A812F0B3
:201FA00099FD40F60A0215499DF811300C68012161F3030301A8694605948DF81130ADF8C9
:201FC0000420FFF715FF012802D0002006B010BD0B4801E00138F9D0BDF8063003F440637A
:201FE000B3F5806FF6D1BDF8060000F44060A0F58060B0FA80F0400906B010BD00110020A8
:2020000020A1070000B587B00021142201A812F061FD40F609029DF81130012161F3030319
:2020200001A869468DF81130ADF80420FFF7E0FE012803D0C0B207B05DF804FB104801E033
:202040000138F8D0BDF8063003F44063B3F5806FF6D1BDF8063003F44063B3F5806F03D0AD
:20206000002007B05DF804FB064B1A782AB9064A0599012011601870DDE70120DBE700BF01
:2020800020A10700253100200011002030B587B006F078FC324C0546236819205B6998471B
:2020A000236812205B6998472E4B1B68DA071AD52D492E4A00230B6002A8194613601022CA
:2020C00012F008FD40F60D029DF81530012161F3030302A801A98DF81530ADF80820FFF77D
:2020E00087FE01282ED0FFF78DFF2148214B00240121214A0460196013689B07FCD51F4CF6
:20210000012023689B699847236801205B6B98470228F9D1124CFEF739F9236819201B6A1D
:202120009847236812201B6A9847236819201B699847236812201B6998470DB906F026FC7A
:2021400007B030BD0E4A01E0013ACCD0BDF80A3003F44063B3F5806FF6D1BDF80A30C2E74C
:20216000B00100109C21084010100460141004602C2008402820086028200840B8010010F0
:2021800020A1070008B506F0A1FB052803460BD003280DD018B101280FD0002008BD094BC5
:2021A00003221A60012008BD064A0120136008BD044B02221A60012008BD024A052111603B
:2021C00008BD00BFD021084008B5FFF71BFFFFF7E1FE012802D0FFF759FF002008BD00BFB3
:2021E000F8B5174B174A19781268174B002914BF00241C46D30700D4F8BD06F0C3FB06461D
:20220000124A134B1348144F144D00213B60046011602B6819201B6A98472B6812201B6ADA
:2022200098472B6819201B6998472B6812201B69984706B1F8BDBDE8F84006F0A7BB00BF08
:20224000273100209C2108400000C08010100460000040801410046018100460B0010010A8
:20226000084B1B7833B1002002460749074B0A6018607047064B0749074A002814BF1846A6
:202280000846F2E72731002010100460141004600800C0800200C0800000C080044A054B2B
:2022A0001178054A002918BF00231360704700BF273100200000C08014100460014B18682E
:2022C000704700BFEC100020014B1860704700BFF410002038B5064B064C1D6806484FF468
:2022E0003441064A0023256003F072F9012038BD04300440C8100020CC10002071230000FD
:20230000164B1B68DBB170B59B68984708B9002070BD06F037FB124B124C1D680646002163
:2023200015F1804022684FF0000341F10001994208BF904209D325601EB1012070BD0020C6
:20234000704706F023FB012070BDFEF73FFF064A06491368086001331360ECE7F410002011
:2023600004300440C8100020F0100020F810002070B5134B1B68B3B19B689847D8B9114D6A
:202380002B6A984701280ED1FFF7BAFF6B6A0446984744B1BDE870400B484FF434410B4A6A
:2023A000002303F015B908488021084A0023BDE8704003F00DB9FFF7A3FF0446E9E700BF54
:2023C000F410002090520100CC10002071230000F8B5224C2368002B3DD09B68064698475A
:2023E00000B3FFF78DFF1E4BB6F1404F1F6825D822681C4BB2F90C401968E517641A65EB52
:20240000E1750022A41945F10005A01845EB0701090241EA106143F609520023000211F0FB
:2024200075FFF8BD104D2B6A9847FFF769FF6B6A98470B4BB6F1404F1F68D9D9FEF7C6FE12
:202440000A4B1B68C3F17E4303F57203C34248BF07F1FF37CCE71846F8BD00BFF4100020DF
:20246000F01000200011002090520100F810002010B5104B1B68DA0704D4FFF723FD012865
:2024800000D010BD0C4C23685B0204D40A4B6FF000421A6010BD094B012209481A7003F005
:2024A0002DFC6FF480032360034B6FF000421A6010BD00BF9C210840101004602631002095
:2024C0001806002008B5124B1B68D90707D4114807F0DAF9FFF7F6FC012800D008BD06F0A7
:2024E00051FA0D4B1A6812020BD40B4B1A6812F00A0F1CBF6FF00A021A60BDE8084006F02E
:2025000045BA6FF400021A60044803F0F7FBECE79C210840305C0100101004601806002085
:20252000014B1878704700BF2931002008B500F08BF880B208BD00BF00F010B938B50C4DEA
:2025400004202B685B6998472B6804205B6B984701280446064BF7D11B6840F20140DB69FF
:202560009847044B044A1C6013689B07FCD538BDB80100102820086028200840034B1B68A6
:20258000002B14BF01200220704700BF04110020F8B503880446002B2ED0B3F5847F05D123
:2025A000184B1B788B4205D00120F8BD002303800320F8BD144D2B6873B1144B144A1B68D7
:2025C00012685B680220174698470026301847F100012B6898472E600E4B40F201401B686A
:2025E0009B6A98470C4B01210C4A196013689B07FCD50B48FFF7CCFA4FF4847323800120B4
:20260000F8BD00BF3009002004110020CC01001004800240B801001028200860282008400C
:202620002806002008B5064B04201B685B6B9847012803BF034B1868C0F34000002008BD61
:20264000B80100103C20084070B5274B1B689BB1264C0023224612F8011B29B90133042B3F
:20266000F9D10020014670BD214A002502EBC302E55492E8030070BDFFF7D4FF00282FD0E7
:202680001C4A1D4B1268134073B91C4A01211346116018680028FCD102464FF4807105F03B
:2026A0008BFF174B01221A6006F06CF90646114A1368DB07FCD5134B134A1B6814685B68E4
:2026C0000220984723460022141843F1000516B12046294670BD06F059F92046294670BDF6
:2026E000FFF72CFFCCE700BF0411002008110020400900200880024001000080F09F024054
:20270000A8025042CC0100100480024038B50E4D00240E4A2C6013680D4923F00103096831
:2027200013604B6931209847204622464FF4807105F042FF0122074B2A6019782246BDE86D
:202740003840054803F08EBAA80250420C800240B0010010300900203C06002010B5074CDB
:202760002378802B00D010BD03F0FAF9207000210348BDE8104003F0A1BA00BF3009002039
:202780003C06002008B506F0FDF8003018BF012008BD00BF80F31088704700BF827A044BB7
:2027A00003EBC2035B68C01AB0FA80F0400970470C110020F0B54749837A85B001EBC30359
:2027C000D3E84F2F12F0FF0F09D10124C3E8424F1346BFF35F8F3BB1032005B0F0BD0123E7
:2027E000BFF35F8F002BF7D10446827A3A4B01EBC20148601B68C078DB6B384F9847384D38
:20280000A37A3A6805EB0313526958689047A37A3A6805EB03135868536B9847012806460A
:202820002E4A2F4BF3D1A17A126803EB0113D269986890472B4B2C4A1E6013689B07FCD5E1
:20284000A37A03201B01EA582849536923F00F035361A37A1B01EB581862A37A0A682689A0
:202860001B01E85817683EB1237A002B2CD0637A002B14BF032602266168082332468DE8BD
:202880000A001B490023B847A37A134A26781B01E85813686178A27800965E6C4FF0FF33F5
:2028A000B047A37A114E1B01EA58536843F002035360A37A32681B01E85803A91369984787
:2028C0000028F6D105B0F0BD637A002B14BF01260326D1E70C110020B4010010B8010010F9
:2028E000945C01002820086028200840C4010010006CDC0270B5214D837A05EBC302526889
:20290000904201D0042070BD1D491E4A096802EB031304460A6A986890471B4B01221A60E9
:202920001A4A13689B07FCD5194E607833689B6B9847336860784FF400519B699847336801
:20294000A0789B6B98473368A0784FF400519B699847336820789B6B9847336820789B6901
:202960004FF400519847A37A002005EBC3035860A37ABFF35F8F05F8330070BD0C110020E2
:20298000B8010010945C01002820086028200840B40100102DE9F04F344C857A85B004EB80
:2029A000C5046468A04203D0042005B0BDE8F08F1F462F4BDFF8C4901B6809EB05150446EB
:2029C0005B6B686890460E469847012803D0052005B0BDE8F08FA37A264909EB0312D2688F
:2029E00009681142F3D00E9A0F9902EB010AC2455246B8BF4246002A019235D0D8BF03AD61
:202A000026DDDFF874A04FF0000B03ADD845CCBF16F80B1000210391DAF800201B0159F8E9
:202A2000030053689847A27ADAF800301201DB6859F80200294698470E9B5B45C4BF039B7A
:202A400007F80B30019B0BF1010B9B45A37ADDD1094E00E0A37A32681B0159F80300294620
:202A6000136998470028F5D100209EE70C110020B801001078200840C4010010945C0100BC
:202A800070B584681CB194F90830002B00DB70BD236A002BFBD01A68002AF8D007490546CE
:202AA000097821B11B6A13B19847236A1A682846BDE87040002301F05FB900BF2A31002063
:202AC0002DE9F047064682B014480F4692469946DDF8288003F0E6FC044668B1656845B14B
:202AE000CDF800803046394652464B46A847054630B92468002CF1D1002002B0BDE8F087E8
:202B0000B379012B03D0284602B0BDE8F087002031463A4601F0E6FA2846F5E71C110020CF
:202B20002DE9F04FA94D07468BB02846884600F0DBFDA74E0446C5F8A0703070E8B9AB794D
:202B4000013B032B48D96B6823F07F4323F0FF03002B3ED06B79032B00F05881288901F077
:202B600003FA40B1C46BD0F8409001F083F914B148469649A04734783CB34FF00009C22C49
:202B800076D0944C484601F075F93278904BC32A73D0BF2A84BFA0221A7002212B898B484B
:202BA00000F02AFC2468204612F0C4F921460246864800F0C9FF4146844800F02BFC414628
:202BC00082B2384601F046F8347820460BB0BDE8F08FC3233370C1E72889394601F030F9A8
:202BE0008146002800F0EA806B794022069407940894ADF81620002B4DD177480221452208
:202C00002B8900F0F9FBAA7A002A40F09B8007AB00936E4806A900220DF1160300F05CFF55
:202C200000282ED1089B002B3EDB08A9BDF8163009F1840B00915A46644867490393FFF738
:202C40003FFF002836D03478614A002C97D1AB7D18077CD5604B93F90610002977DB9B7DA5
:202C6000190774D45B4C5D49A1232160137089E7484601F0FFF83478A7E700221A700321E7
:202C80008CE7BDF81620079B402A28BF40220893ADF81620C7E700F0A7FB012103464522F9
:202CA0004D4800F0A9FBAEE74A4C4D4A82232260337067E70AA941F8040D444800F0FAFEA0
:202CC0000446484803F0EEFB824678B990E007DD9AF80830DB0603D509990B5C2F2B0CD02F
:202CE000DAF800A0BAF1000F00F08280DAF8040012F020F98442EAD109990246DAF8040084
:202D000012F046F90028EBD1AA790123013A9340DBB2D80740F1A380DAF81040002C00F03B
:202D20009E8008AB00935A46039B28482A49A0479AF808305B0686D550462449264A01F03D
:202D4000D1F980E72849244800F0A0FE5FE7697DC91160D0089A079B9A4272D0013206996D
:202D600000F09E80BDF816301B4C0122DFF868A0504600F0CBFEB4F8A430BDF81620934252
:202D800000F287803478002C7FF4F9AE124809F1460100F03FFB80B2A9F8440090B334787D
:202DA000DFF82CA0002C7FF4EAAE484601F078F89AF8004020460BB0BDE8F08F054C0B4A8D
:202DC000A323226033701C46D7E600BF241100202B31002080060020D0110020D45C010081
:202DE000B45C0100201100202F110020C45C01003E48842100F044FE3C48842100F040FE3C
:202E00003478C0E7C1233370394CBBE63846298901F048F9A2E6089A002AB7D0334C0132C3
:202E200018BF01222046402300F070FEB4F8A42020463F2A88BF4022D4F8A81000F084FE93
:202E4000A0E72A4CB4F8A4108A4233D382232046A37128490F2200F077FE347893E7990757
:202E600004D5DAF81440002C7FF45BAF5A0704D5DAF81840002C7FF454AF1C0704D5DAF8D6
:202E80001C40002C7FF44DAF8521184800F0F8FDB2E75046DAF8A81000F056FE347872E74E
:202EA000124CBDF81630B4F8A4209A4294BF002201225BE7BDF816308A1A9A4294BF0022A3
:202EC00001222046069900F021FE0798B4F8A430BDF816201B1AD4F8A8109A42014428BFF0
:202EE0001A46204600F030FE34784CE7D011002080060020B45C010010B504460D48616032
:202F0000214603F0D1FA94F90830002B00DB10BD206A0028FBD0036A002BF8D00268002A83
:202F2000F5D0054B0461C360BDE810400830002300F022BF20110020812A000008B50B4BC4
:202F40001A7802B108BD012209481A7003F0A6FA084803F0A3FA08480849FFF7CDFF00F0A3
:202F600073FEBDE8084000F037BA00BF2A3100201C110020201100204C060020E45C010087
:202F8000014803F08FBA00BF2011002003F006BB2DE9F04F83B00191914698460C9FFFF778
:202FA000EFFF0646002800F0A68000252C463B684FF02F0B9C4207D3A8450DD94FF03C03DD
:202FC00009F805303B680135621C9A4204D3A84584BF09F805B00135706811F0ABFF0234DC
:202FE0003A6800EB040A924552D805D3A84503D93E2309F805300135F0680AF10104A0B11E
:20300000037893B13B689C4206D3A84504D93B2309F80530F068013511F08CFF0AF1020A18
:203020003A6800EB0A04944210D8A84503D23B68621B9A4254D83046FFF7A8FF06460028C6
:203040003AD0CCB93B689C42BED3B5E7F368CAEB020208F10101002AA8BF9B18491B09EB88
:203060000500284A06F036FC0544A84538D33046FFF78CFF0646F8B13B68A34206D8A84531
:2030800004D92C2309F805303B680135013491E77368121B08F10101002AA8BF9B18491B9D
:2030A00009EB0500174A06F015FC0544A84503D93B689A459CD29FE795B934B9DEB13B68BA
:2030C00043443B6003B0BDE8F08F019C8221204600F0D6FC20460C490F2200F035FDEDE7AD
:2030E000019C49462A46204600F02EFD2046282100F0D8FCE2E74FF0FF333B6003B0BDE813
:20310000F08F00BFF85C0100B45C0100014802F0F5BD00BF7006002010B5038804465BB123
:203120005D2B05D188290FD082290DD0012010BD00230380032010BD1948802102F008FC9D
:203140005D232380012010BD00F046FEE8B900F025FE50EA010318D0C90141EA50614FF467
:203160007A720023C00111F0D1F800234FF4F0528B4208BF82420FD350EA010314BF01467B
:203180000121074802F0E4FBDAE7064802F0B6FD5D232380012010BD4FF4F051F1E700BF0D
:2031A000801200207006002070B5FDF7C5FF0E490A68821A12D04FF47A73A2FB03230B4E57
:2031C000D40944EA4364DD09D6E9002312196B41C6E9002308601046194670BD034BD3E978
:2031E00000231046194670BD7C120020600900200148002102F062BD700600200C2830B46A
:2032000038D80301DBB20C292ED8CCB22343B0F5867F137012D96FF4867543191B0A0D38B2
:203220005370907002230320B1F5867F11D80C2902D90D391154013030BC70470C281FD934
:203240000D38B1F5867F50704FF001034FF00200EDD96FF486740C19240AD5180D39145429
:20326000A970D81C30BC7047B1F5867F94BF0D240E24CBE7B0F5867F94BFD023E023C2E7EF
:2032800001200023D0E700BF13F07F4F2DE9F8434FEA134614BF012700271C4615463B4660
:2032A0004FEA064906B17B1C34F0FF0819D001330133401A2A461946FFF7A0FF17B1230E05
:2032C0002B540130B9F1000F01D02E540130B8F1000F09D0230A2B5401302C540130BDE83D
:2032E000F883002CE5D0E3E7002CF6D1BDE8F883F8B50E689DF8187016B902600B60F8BD04
:203300000C461D46036811469F5523682A46013323600068184411F079FB23682B442360DA
:20332000F8BD00BFF8B5069C401A21461F461646FFF764FF054639463018224611F0F0FA8A
:203340002819F8BD2DE9F04F83B09DF83480DDF830A0B8F1000F37D0934600221E46994604
:2033600084468E46144617460AF1010303E001349C42224624D8B15CB518414501D05245D7
:20338000F5D1C9EB0505CEEB0C000BEB070229460193CDF800C0FFF731FF074449460BEB67
:2033A00007002A4611F0BCFA0134019BDDF800C006EB040901349C42E6462F442246DAD9AE
:2033C000384603B0BDE8F08FCDF830A003B0BDE8F04FFFF7A7BF00BF08B511F0C9FB014B83
:2033E000188008BD10310020024B1888013080B21880704710310020F8B504460F46164667
:203400001D460021AC2211F065FB6771A6712581F8BD00BFF0B501220023016002710B70B6
:2034200004680579227883B042EA85122270056842792C78120102F0300222432A70056811
:20344000827A2C7802F00F0222432A7002688479547002890468120AA27002680489D4703F
:20346000827912B9042003B0F0BD0568827A04354AB100F10A0212F8014F013305F8014B91
:20348000847A9C42F7D8C37C0E46C3F34001044661B190F86A30002100932A4604F16B03F2
:2034A0000120FFF73FFFE37C054401211A0709D5226C636C032000922A46FFF733FFE37CE5
:2034C00005440321DF060BD594F824302A460093042004F12503FFF725FFE37C05440421AF
:2034E000980607D52A4600230520FFF7CDFEE37C054405215A0607D52A46636E0620FFF772
:20350000C3FEE37C05440621DB0907D02A460720B4F85030FFF7B8FE07210544237DDF07FA
:203520000BD5A06C2F22E36C8DE805002A460820FFF708FF237D0544082118070BD5E06D92
:203540002F22236E8DE805002A460B20FFF7FAFE237D05440B21DA0607D52A46A38B0C20EB
:20356000FFF792FE237D05440C215F0607D52A46236A0E20FFF788FE237D05440E21DB09CB
:203580000CD0D4F894002622D4F898308DE805002A460F20FFF7D6FE0F210544637D980738
:2035A00008D52A46B4F868301120FFF76DFE637D05441121DA060BD5606D2622A36D8DE833
:2035C00005002A461420FFF7BDFE637D05441421DB091AD0676F94F878303F010BB147F028
:2035E0000807B4F87A3000201B0900E01046421C5B0892B2FAD10AB100F00F032A463B4371
:203600001720FFF741FE17210544A37D1F071CD5D4F8807094F884303F010BB147F0080748
:20362000B4F8863000201B0900E01046421C5B0892B2FAD10AB100F00F033B432A461B20F8
:20364000FFF722FEA37D05441B21D80607D52A461C20D4F88C30FFF717FE1C210544E37DD0
:203660001A0709D5226B636B232000922A46FFF759FEE37D05442321DB0908D0A26BE36B5A
:20368000272000922A46FFF74DFE27210544A37EDB0606D52A463C20D4F89030FFF7F4FDF3
:2036A00005442368EB1A3E2B12DCB4F8A42022B1FF2305F8013BB4F8A4202846D4F8A810DA
:2036C00011F0A4F9B4F8A430AD1BE81803B0F0BD034B044A002020601A6003B0F0BD00BFCF
:2036E00080060020245D01002DE9F04F0C460546002185B01746AC2211F0ECF92C6026781F
:20370000B6092E712378012EC3F301136B71227802F00F02AA726378AB71A178E37843EA8A
:2037200001232B8106D0B04BB04A80201A6005B0BDE8F08F082A06D9AB4BAD4A80201A60E3
:2037400005B0BDE8F08F04F10408414605F10B0011F0E6F805F113000021082211F0BAF920
:20376000AB7A04EB070A984405F154034FF0000905F1580B0393D04580F0678198F8003097
:2037800003F0F002F02A00F0628118090D2803F00F0300F03E810E2800F0418108F101016A
:2037A0000D2B00F032810E2B00F0448101EB0308D04500F248818144B9F13C0F00F2438109
:2037C00005EBD90E9EF8132009F0070006FA00F0104309F1FF328EF813003B2A00F20C815E
:2037E000DFE812F0F6000A01F300E800E500DB00D000C6000A010A01BC00B2000A01A80097
:203800009E000A0193000A010A018B000A010A0172000A010A010A0157004C000A010A0169
:203820000A010A010A010A013C000A010A010A013C000A010A010A010A010A010A010A0176
:203840000A010A010A010A010A010A010A010A010A010A010A010A010A014100624B654A3C
:20386000A5201A6063E733B1002311F8012B414542EA0323F9D1C5F890307CE733B10023FA
:2038800011F8012B414542EA0323F9D1C5F88C3071E733B1002311F8012B414542EA03236C
:2038A000F9D103F0070023F00F02102181408240C3F3C0001B09A5F88610C5F8882085F8BD
:2038C0008400C5F8803056E733B1002311F8012B414542EA0323F9D103F0070023F00F02BE
:2038E000102181408240C3F3C0001B09A5F87A10EA6785F878006B673DE726200A460090F1
:2039000003995846FFF7F4FC35E733B1002311F8012B414542EA0323F9D1A5F868302AE747
:2039200026200A46009005F1940105F19800FFF7DFFC20E733B1002311F8012B414542EA82
:203940000323F9D12B6216E733B1002311F8012B414542EA0323F9D1AB830CE72F200A464F
:20396000009005F15C0105F16000FFF7C1FC02E72F200A46009005F1480105F14C00FFF7CC
:20398000B7FCF8E633B1002311F8012B414542EA0323F9D1A5F85030EDE633B1002311F8B8
:2039A000012B414542EA0323F9D16B66E3E685F89C60E0E6082B28BF08231A4685F82430EA
:2039C00005F1250010F0ACFFD5E669642B64D2E6082B28BF08231A4685F86A3005F16B0035
:2039E00010F09EFFC7E600BF80060020545D01006C5D0100945D010019F0010F3FF4BBAEF5
:203A00001D4B1E4A82201A6091E611F8013B0D33CCE698F8010008F102010D30C0E698F80C
:203A2000022098F8010002F20D1202EB002008F10301B5E691F801E011F8022B0EF20D135B
:203A400003EB0223B2E6802071E600206FE608F10102A31A3B449BB2402B84BF40210B466A
:203A60004FF00000C5F8A82094BFA5F8A430A5F8A410D0545BE600BF80060020BC5D010089
:203A8000FF299ABF817101200020704710B50446082A28BF0822A2720B3010F041FFA07AC0
:203AA00010BD00BF037D818343F0100303750120704700BF037DC3F3C00313B1036E0B6008
:203AC000C36D1846704700BFC37C416643F04003C3740120704700BF30B4447D029DE4117F
:203AE0000ED009B1446F0C6012B190F87810117013B1B0F87A201A802DB1C36F01242B605B
:203B0000204630BC70470124FAE700BF10B4A3F11004B4F5FE6F02D8B1F5801F03D3002040
:203B20005DF8044B7047447D003218BF012280F8782064F07F024167A0F87A3042755DF862
:203B4000044B0120704700BF402A28BF4022C0F8A810A0F8A4201046704700BFF8B504463D
:203B6000008878B1B0F5DA7F08D11C4B1B788B4216D04FF4DA7323800120F8BD0023238041
:203B80000320F8BD014602460AF034FD43F21632134B028218604FF4DA7323800120F8BDB3
:203BA000104B1B789B07E4D50F4A104B1278104D2832DFF844C00F4F32F803E008330FCB6C
:203BC000002685E80F002846DCF800103A88A5F810E0AE74FEF7A4FFCBE700BF903D00208A
:203BE00090120020083B0020413100200836002094120020F8350020103B0020CB688A680D
:203C000030B40D684C68056044608260C3600B8A30BC03828B7C8374704700BF38B51022F0
:203C200005460C4610F04AFE20B92A8A238A9A4202D038BD002038BDAB7CA07C181AB0FA8E
:203C400080F0400938BD00BF0148002102F036B88406002070B582B0B8B148F2FE031446AE
:203C6000028805469A420E4603D00A4B5B6A984758B12B8A084A31461068009322462B4608
:203C80000AF0C6FB204602B070BD4FF0FF34204602B070BD108F010090120020064B10B5F5
:203CA000012206481A7002F0F9FB054B1B6813B1BDE81040184710BD2C310020A812002014
:203CC000185D01002DE9D04D1F4B83B01B7804460BB9FFF7E3FF1D4802F0E4FB21468046C2
:203CE0001A4802F025FC194802F0DCFB014628B3D4E90467D0E904239F4208BF964207D2A2
:203D00001FE0D3E904AB5F4508BF564503D319460B68002BF5D122460C4802F01FFC0B487E
:203D200002F0C0FB804506D0094B9B68019303B0BDE8D04D184703B0BDE8D08D002CEAD1E0
:203D4000EDE70021E7E700BF2C310020A8120020185D0100064B10B55B6804469847C4E965
:203D600004012146BDE81040024802F0E1BB00BF185D0100A8120020074970B54968064689
:203D800014461D46884724184D41C6E904453046BDE87040FFF796BF185D010010B50C4830
:203DA00002F080FB044678B10A4B5B689847D4E90423994208BF904203D2101A63EB010185
:203DC00010BD0020002110BD4EF66020002110BDA8120020185D01002DE97043164D6E6804
:203DE000B04780461548894602F05CFB044628B1D0E90423994508BF904502D20020BDE87B
:203E000070830E48214602F093FB63680BB120469847AB689847094802F044FB0028EDD04D
:203E2000D0E90445B047A94208BFA0422CBF01200020BDE8708300BF185D0100A812002022
:203E400070B5064609480D4602F0BEFB044658B10023868080F8243029462630FFF7CEFED3
:203E60000348214602F020FB204670BD94060020AC12002070B110B504460830FFF76AFF91
:203E80002146054802F054FB2146BDE81040034802F0B8BB704700BFAC1200209406002013
:203EA0002DE9F04190F846500446C5F3011535BB90F82430042B13D8263004F14601B4F861
:203EC0004420FFF7C7FE94F8243033B3226A04F10800520022620023BDE8F041FFF74CBFA4
:203EE000C66B2630276C00F063F82046FFF7C2FF8EB1384629463346BDE8F041184704F171
:203F00004601B4F844202630FFF7A4FE2046BDE8F041FFF7AFBFBDE8F0810B4B2461E36088
:203F200010F026FE40F2DD52084BA3FB00139B0A02FB130202F6B832226204F108000023BB
:203F4000BDE8F041FFF718BF513F0000B76FA5AE83683BB193F824201846013283F82420BF
:203F6000FFF79EBF704700BF10B50446074802F099FA48B18388A34203D106E08388A34202
:203F800002D000680028F9D110BD10BDAC12002010B504460448214602F034FB2146BDE88E
:203FA0001040024802F0C4BAA0060020B812002070B505460D4802F075FA044698B1002668
:203FC00001E024686CB104F118002946FFF726FE0028F6D02046FFF7DBFF24680136002CAE
:203FE000F1D1304670BD0646FBE700BFB81200202DE9F041054613488846164602F052FA30
:204000000446E8B1002704F118002946FFF706FE18B194F82C30B34205D02468002CF2D12A
:204020003846BDE8F08104F12D004146324610F045FC0028F1D12046FFF7AAFF0137ECE790
:204040000746EDE7B81200202DE9F041064614480F4602F027FA0446F8B14FF0000804F1CF
:204060001800251D1EB13146FFF7D8FD78B1BD4208D0284610F05EFF39460246284610F0D5
:204080001DFC20B9204608F10108FFF781FF2468002CE4D14046BDE8F0818046FAE700BFE1
:2040A000B8120020F8B505460D480E4602F0FAF9044698B1002704F118002946FFF7AEFDB9
:2040C00010B1E38EB34204D02468002CF3D13846F8BD2046FFF75CFF0137F5E70746F6E741
:2040E000B81200202DE9F84F0B468979012901D0BDE8F88F92F906100029F9DBD97C4906BD
:204100000FD5D3F8A060002E4AD0596E59B10129EED1304603F10B019A7ABDE8F84FFFF782
:2041200067BFBDE8F88FD3F860B030465946DF6D144603F10B0A93F80A90FFF785FF1E4889
:2041400002F042FAB846054660B3122FC4BF1327B8463A46594600270430A84410F0E0FB98
:20416000314605F1180088F80470FFF747FD4A46514685F82C9005F12D0010F0D1FB0F48E6
:204180002946EF8602F090F9A96B20464B1CAB63FFF79AFCAB6B23F07F43AB63BDE8F88F20
:2041A000BDE8F88FA323A3712046BDE8F84F04491022FFF7C9BC00BFA0060020B81200203E
:2041C000185E010010B5BAB00A460446282168460CF032F96B46C021034A0AA805F07AFB86
:2041E0000AA8A0473AB010BDF85C0100F0B50746B1B0D9B10D460126002404B3E3070DD51C
:20420000C021134A2B78684605F064FB6846B847082E12D0013601350134EEE76846C021F0
:204220000C4A05F057FB6846B847E9E76846C021094A05F04FFB6846B84731B0F0BD68465A
:20424000C021034A2B7805F045FB6846B847E1E7405E01003C5E01002C5E0100F0B50388EE
:20426000B1B006460D461BB36F2B1CD1254B264F186843683A68254829469847012836D944
:204280006C46234AC021204605F024FB2046A84728462049FFF7AAFF2046C0211E4A05F035
:2042A00019FB2046A84700233380032031B0F0BD13781446202B03D114F8013F202BFBD0A8
:2042C0002046202110F094FC0F4F386018B1002300F8013B3860204600F090FF094B186048
:2042E00038B10A4A00216F2311803380C1E70020DCE76846C021094A05F0ECFA68466C46E2
:20430000A847BEE7BC120020C4120020C0120020805E010078310020845E0100485E010001
:2043200000F054BF074A106858B170B40648074E074D0024146031702B80006870BC01F024
:20434000DDBC70471C130020F81200202D3100201231002030B50388B1B004465BB90D4631
:20436000074AC021684605F0B5FA6846A847054B05489B6A984700230320238031B030BDE4
:20438000545F0100108F0100785F010030B50388B1B004465BB90D46074AC021684605F09A
:2043A00099FA6846A847054B0548DB6A984700230320238031B030BD805F0100108F0100D5
:2043C000785F0100F0B50388B1B0074623B1002303203B8031B0F0BD114A0D466846C02187
:2043E00005F078FA6846A8470E4802F05BF806460028ECD0746823685BB1A368C0210A4A3B
:20440000684605F067FA6846A84754F80C3F002BF3D1304602F0C2F806460028EAD1D6E767
:20442000A45F0100C81200205C63010070B50388B0B0054623B1002303202B8030B070BD91
:204440000C46374AC021684605F044FA6846A047344BC0211B68344A344E684605F03AFA78
:204460006846A0473368C021314A684605F032FA6846A0473368002BDDD005F0A3FA0646FB
:2044800003F01CFAC02103462A4A684605F022FA6846A047284BC0211B68284A684605F035
:2044A00019FA6846A047264BC0211B78254A684605F010FA6846A0476846C021224A05F0CE
:2044C00009FA6846A04716B3311D2046FFF78EFE6846C0211D4A05F0FDF96846A047FCF7DC
:2044E0002BFE1B4BC0211B681A4AC31ADB09684605F0F0F96846A04708F018FCC02103464D
:20450000154A684605F0E6F96846A04793E76846C021124A05F0DEF96846A047DFE700BFDA
:20452000BC5F0100D4230020CC5F0100CC230020E45F0100FC5F0100942400201060010024
:20454000C03100202860010040600100388B0100403200205C600100846001005460010073
:20456000F0B50488B5B0074624B1002303203B8035B0F0BD0D4608F043FA18B102203C80C1
:2045800035B0F0BD07F05CFA0646C02104A8002E39D0204A05F09EF904A8A847306901F011
:2045A00081FF0446F288B38804A80092C0211A4A05F090F904A8A847F4B1627D237D00922A
:2045C000228AC0210192628A04A80292134A05F081F904A8A847A11D2846FFF707FEC02120
:2045E0000F4A04A805F076F904A8A847204601F0D5FF04460028E0D1304607F027FA06468F
:204600000028CBD1B1E7074A05F064F904A8A847ABE700BFCC600100DC60010008610100DB
:20462000388B0100AC6001002DE9F0430788B3B00546002F29D188461446002A33D0167817
:20464000002E3BD130463C4910F038FB00282CD13A4E0123336014B12378002B39D1384C75
:204660000023236002AF3368ABB1364B364AC02100923846354A05F02DF93846C047206853
:2046800006F0C0F9306806F0A9F900232B80032033B0BDE8F08320682D492B4A2D4B00283C
:2046A00018BF0A46E3E71646CCE730462A4910F005FB002838D1214E3060CCE71046202197
:2046C00010F096FA002834D000F8017B26460446B8E72046202110F08BFA08B100230370DA
:2046E0002046154910F0EAFA814658B902AFC0211A4A3846124C05F0EDF83846C047C4F84D
:204700000090B0E72046144910F0D8FA0028A6D02346134A02A8C02105F0DCF802A8C04774
:2047200000232B800220B3E7334602A8C0210D4AF2E72646044685E76C6101000013002098
:20474000F01200205461010060610100CC6101006461010050610100005D01008C610100CD
:20476000AC61010070610100F0B50388B1B0054623B1002303202B8031B0F0BD0E46134A79
:20478000C021684605F0A6F86846B047104C04F1600714F8023C227C0BB1012A03D920349B
:2047A000BC42F6D1E5E70B4AC021684605F092F86846B04730462146FFF704FD6846C021FD
:2047C000054A05F087F86846B047E8E7E8610100A634002000620100388B010070B5038887
:2047E000CAB0064623B10023032033804AB070BD304A0D461AA8C02105F06CF81AA8A84785
:2048000009F0A8FE09F05AFE0446C0211AA8002C49D0294A05F05EF81AA8A8472846211D5B
:20482000FFF7D0FCA3691AA8C0215BBB234A05F051F81AA8A84709F087F900282BDD09F0F3
:2048400083F9C02103461E4A1AA805F043F81AA8A84709F043FA04460028C4D0224664217E
:2048600001A809F09DFAC021164A01AB1AA805F031F81AA8A847204609F036FA0446002880
:20488000ECD1B0E7104A05F025F81AA8A84709F05BF90028D3DC1AA8C0210C4A05F01AF883
:2048A0001AA8A8479FE70A4A05F014F81AA8A847C1E700BF046201000062010030620100F7
:2048C0005462010074620100146201007C62010048620100F0B50388CFB006466BB91B4BC4
:2048E0000D461B7B13B10CF0E1FD58B91EA8C021174A04F0EFFF1EA8A84700230320338088
:204900004FB0F0BD134F386802F028F80446C0211EA8114A04F0DEFF1EA8A847002CECD01D
:204920002246782168460CF067FEC0210B4A6B461EA804F0CFFF1EA8A8472146386801F04B
:20494000D5FF04460028EBD1D7E700BF1C3C002090620100DC080020A86201005C6301009E
:20496000F0B50388B5B0064623B100230320338035B0F0BD0C467D4AC02104A87C4D04F094
:20498000A9FF04A8A0472B7B04A8C021002B00F0DC806B7B774A04F09DFF04A8A047764BA7
:2049A0001B699847002840F0C88004A8C021734A04F090FF04A8A047714AC02104A804F058
:2049C00089FF04A8A04720466E49FFF7FBFB95F85430C0216C4A04A804F07CFF04A8A0475D
:2049E0006A4AC02104A804F075FF04A8A04720466749FFF7E7FB674AC02195F8403004A852
:204A000004F068FF04A8A047AB7BC021032B96BF614A624B52F8233004A8614A04F05AFF85
:204A200004A8A047AB681B8C002B00F094805D4A5A49012B0CBF13460B46C0215A4A04A8DE
:204A400004F048FF04A8A047C021584AEB8A04A804F040FF04A8A0472A7E454BFF2A16BFE8
:204A60005B8B4FF0FF335343C021514A04A804F031FF04A8A04795F85E30C021032B96BFEB
:204A80004C4A464B52F8233004A84B4A04F022FF04A8A047C021494A04A804F01BFF04A88F
:204AA000A047686C324F002857D00CF037FD01462046FFF787FB7B6C04A89B79C021404A04
:204AC00004F008FF04A8A047B5F84A30C0213D4A04A804F0FFFE04A8A047AA8AB5F8483030
:204AE0000092C021384A04A804F0F4FE04A8A047EB7BC021354A04A804F0ECFE04A8A047B9
:204B000095F85B2095F85A300092C021304A04A804F0E0FE04A8A047697C2A7CA87C0A447B
:204B20008DE80600029095F8573004A8C021294A04F0D0FE04A8A04717E704A8C021264A04
:204B400004F0C8FE04A8A04736E7244A04F0C2FE04A8A04709E7224B6FE704A8C021214A8B
:204B600004F0B8FE04A8A047AEE700BFCC6201001C3C0020F0620100108F01001463010092
:204B800024630100383C00203063010040630100483C00204C630100346C0100B8620100B1
:204BA00054630100C4620100606301006C63010088630100246C0100AC630100BC630100D5
:204BC000D4630100F0630100006401001C640100306401006064010004630100DC62010062
:204BE000C0620100E863010030B50388B1B0044653B90D46074AC021684604F06BFE6846E1
:204C0000A84705480DF05AFA00230320238031B030BD00BFA0640100785F01002DE9F0416D
:204C20000788B0B00546002F3ED188461446002A5BD01678002E62D130464A4910F03EF851
:204C4000002854D1484E0123336014B12378002B5FD1464B0022FD2119805A809A80DA8047
:204C60001A815A819A81DA813368414C13B3236998470646C0216846002E30D13D4A04F06A
:204C800029FE6846C04740463849FFF79BFAC021394A684604F01EFE6846C047A36831464D
:204CA00032489847E368984700232B80032030B0BDE8F0812369984748B1C0212F4A68461E
:204CC00004F008FE6846C047E3699847ECE76846C0212B4A04F0FEFD6846C047E4E7294A41
:204CE00004F0F8FD6846C047DEE71646A4E7304625490FF0E3FF28BB1B4E3060A5E71046E7
:204D000020210FF075FF48B300F8017B2646044692E7204620210FF06BFF08B100230370E2
:204D2000204612490BF01CFB074600289CD12346C021164A684604F0CDFD6846C0472F8044
:204D40000220B4E73346C021114A684604F0C2FD6846C04700232B800220A8E72646044696
:204D60006AE700BF6C610100F4120020E0120020108F0100E86401000C6501003065010028
:204D80005865010014650100005D0100D4640100BC640100F0B50588B5B004460E46D5B168
:204DA000B5F5847F12D1474D2B68464D1BB3464800F0E2FD68B12B68EBB1C021434A04A81C
:204DC00004F088FD04A8B04700232B6000232380032035B0F0BD12B11378002B2FD1C02134
:204DE0003B4A04A804F076FD04A8B04700230220238035B0F0BD374AC02104A804F06AFD95
:204E000004A8B04730463449FFF7DCF9334A344B15881F78FCF790F92B4B4FF47A7219685F
:204E20000097401A02FB00F0C00901902B4604A8C0212C4A04F04EFD04A8B047C6E71046E1
:204E4000202103920FF0D4FE039A00B105701046214903920BF084FA039A054658B91346C8
:204E6000C021214A04A804F035FD04A8B0470220258035B0F0BD1D4AC02104A804F02AFD09
:204E800004A8B04730461449FFF79CF9C021184A04A804F01FFD04A8B047164A164B126834
:204EA000084D09484FF420711A602E6000F050FD042309488021002208F0D6FD4FF48473F3
:204EC000238071E71C1300200C13002098650100E0650100A4650100CC120020123100209A
:204EE0002D310020C0650100706501008C650100388B010050130020F8120020F0B5B3B0CD
:204F00000746C0210E4A02A80E4C04F0E3FC02A8B847256895B163681E68304600F054FCB1
:204F20002B460190C021084A009602A804F0D2FC02A8B84754F80C5F002DECD133B0F0BD60
:204F40000C660100DC0600201C6601002DE9F0430688B3B00446002E4CD10F46154612B117
:204F60001378002B4CD1002000F00CFC4F4B002518602B46C0214E4A02A804F0ABFC02A836
:204F8000B8473846FFF7BAFF00232380022034E0404620210FF02CFE08B100230370404624
:204FA00001A90A2210F0CCF8DFF81491C9F80000002857D1019B984546D03368984216D0E0
:204FC0000146284600F0BAFB28463A490FF076FE002854D1D9F80030032B46DC08F02CFB56
:204FE00002A8C021344A04F075FC02A8B8473846FFF784FF00232380032033B0BDE8F083BF
:20500000104620210FF0F4FD814600283ED08046284608F8016B00F0B5FB244E294630605B
:2050200026480FF04BFE10B133680133A1D0B8F1000F03D099F80130002BA9D1204B4FF01D
:20504000FF321A604FF000084346C0211D4A02A804F040FC02A8B84700230220238033B03F
:20506000BDE8F0830428EFD8A7E708F0D5FA02A8C021154A04F02EFC02A8B847B7E7284613
:205080000E490FF01BFE0028A4D0B0E7284600F079FB064E2946306008480FF00FFE0028C5
:2050A000CCD033680133C9D163E700BFDC1200207061010034660100506601003066010019
:2050C000FC120020AC6101003866010070B50388B2B0064623B100233380032032B070BDBB
:2050E0000D4609F0FBFF0446C02102A8002C3ED0234A04F0EFFB02A8A847224AC02102A880
:2051000004F0E8FB02A8A847204609F0DFFF01462846FFF757F81C4AC02102A804F0DAFB2E
:2051200002A8A847204609F0D3FF01462846FFF75DF8627C1549042A94BF51F82200144821
:20514000237CC021134A009002A804F0C3FB02A8A847C021104A02A804F0BCFB02A8A847C4
:20516000204609F0C1FF04460028C6D1B3E70B4A04F0B0FB02A8A84734800220AEE700BFB6
:2051800084660100006201009C660100106C0100B8620100A4660100388B01006866010088
:2051A00030B50388B1B004464BB9074A0D466846C02104F08FFB6846A847FCF731F9002342
:2051C0000320238031B030BDBC66010010B5074C204601F063F92046054901F065F9BDE8A5
:2051E00010400448044908F07FBC00BFC8120020AC060020041300202543000070B50546F9
:205200000D4801F04FF9064698B17468206818B909E054F80C0F30B129460FF04FFD002823
:20522000F7D1204670BD304601F0B8F906460028EBD1002070BD00BFC812002010B5038875
:205240000446442B0CD0452B14D01BB100230380032010BDFFF764F844232380012010BDB9
:20526000094B1B788B420DD162B10849002045230880238005480649FEF7F0FF0128EBD819
:20528000002010BD012010BD8F3D002020130020955200000146014804F0F6BAF85C010084
:2052A0000148002100F00ABDB406002070B5694CFAF77AFFFBF7F4FE00F02CFD00F058FC6E
:2052C0006548002100F0FAFC00F048F9FCF774F800F086FA00F06EFDFAF7A4FF01F004FA3C
:2052E00001F026FE00F086FB2368022B3EDC08225A495B480FF014FB5A48002100F0DEFC4B
:205300004FF0FF3008F03AFE23680546022B514E15DCFAF7A3FFFFF7C3FFFDF70FFE524876
:2053200000F0C6F8FCF756F800F03CFC0446FCF769F814F0FF0FF7D1FAF7FAFFF4E74B4985
:205340004B4A4C4804F0A0FA4B4804F09DFA3368022BDEDD002D7AD0A81C00F097F92368AF
:20536000022BD6DD454804F08FFAD2E73F49404A404804F089FA424804F086FA2368022BC3
:20538000B5DD3A493A4A3B4804F07EFA3D4B3E48196804F079FA2368022BA8DD3349344A58
:2053A000344804F071FA394B3948196804F06CFA2368022B9BDD2D492D4A2E4804F064FA4D
:2053C000344B3548196804F05FFA2368022B8EDD2649274A274804F057FA304848F2A511E4
:2053E00004F052FA2368022B81DD2049204A214804F04AFA2A48042104F046FA2368022B60
:205400007FF775AF19491A4A1A4804F03DFA254B2548198804F038FA2368022B7FF767AFB7
:205420001249134A134804F02FFA204804F02CFA2368022B7FF75BAF084800F037F9236887
:20544000022B7FF754AF0D4804F01EFA4FE7284683E700BFD406002070070020783100201E
:205460000036002080080020DC900100685101005C6C0100585101003C6D0100388B010026
:20548000646C0100108F0100986C0100D87D0100A86C010084770100B46C0100C06C0100E1
:2054A000DC6C010014310020146D0100246D010010B50446006830B1002100F0FFFB54F87B
:2054C000040F0028F8D110BDF0B5038883B005465BB14A2B04D188291BD0012003B0F0BDDA
:2054E00000230380032003B0F0BD194800F0DAFF044630B1201DA16800F02AFA2468002C1C
:20550000F8D1144B01221A704A2301202B8003B0F0BD0F48019200F0C5FF04460028F3D04A
:20552000019A031D9A4205D02468231D002CEBD09A42F9D10648214600F0FAFF064E6269E9
:20554000A369376832600BB1E06998473760DBE7241300202E3100205013002010B5064B62
:20556000002406481C7000F099FF2146BDE81040034800F0A3BB00BF2E310020241300201B
:20558000C406002070B504460D48049D0078A261E361656130B9A1600A482146BDE870403F
:2055A00000F082BF084D094B2E68201D2B6000F0CFF92E602146BDE87040024800F074BF44
:2055C0002E3100202413002050130020C406002010B5044C82B024680094FFF7D3FF02B0A7
:2055E00010BD00BF5013002070B5094B04461B783BB1084D084B2E6804302B6000F0B2F9C2
:205600002E602146BDE87040044800F04DBF00BF2E31002050130020C406002024130020F6
:2056200010B50A4B04461B783BB9C36003612146BDE81040064800F07BBF043000F0B4F953
:205640002146BDE81040024800F072BF2E3100202413002038B50B4B1D785DB904460A4823
:2056600000F020FF10B90AE0006840B18442FBD1002038BD0430BDE8384000F07DB90120D0
:2056800038BD00BF2E3100202413002000B58BB00246282168460AF0CFFE6946024804F09D
:2056A000F3F80BB05DF804FBF85C0100D0B170B5054601260024C4B1E30709D50D4829782C
:2056C00004F0E2F8082E0CD0013601350134F2E7094804F0D9F80748297804F0D5F8082E72
:2056E000F2D170BD054804F0CFB82978014804F0CBF8E9E7405E01003C5E01002C5E0100BC
:2057000090B110B50A49044601F028FC20B1BDE81040084804F0B8B8E188074849BA89B261
:20572000BDE8104004F0B0B8024804F0ADB800BF906E0100A06D0100A86D0100042900D98D
:205740007047F8B506460D460C4831460FF0B6FA0B4C0746216851B157B9A3686268AB42CB
:20576000A8BF2B46136054F80C1F0029F4D1F8BD30460FF0A3FA0028EFD0F4E73066010059
:20578000DC060020D0B1F8B50E4F396899B106463D46002403E055F80C1F013459B130468E
:2057A0000FF08CFA0028F6D104EB440407EB840463681868F8BD4FF0FF30F8BD4FF0FF3033
:2057C000704700BFDC06002004289ABF024B53F820000248704700BF706D0100B06D010058
:2057E000704700BF10B50E4C2368B3B1FBF7A4FC22685168136892681944091A4AB192E8E6
:20580000180023441B1A9268994228BF1946002AF5D1044B0844186010BD024A136010BD5D
:20582000481300204C1300202DE9F041038805467BB1592B08D1872912D0822920D059231F
:205840002B800120BDE8F081002303800320BDE8F081254A0120136059232B80BDE8F08147
:20586000214F3B68002BEAD0D9688A4203D024E0D9688A4220D19B68002BF9D13B60DEE7F6
:20588000194F4FF000083C68002CD8D0002604E0A3682646002BD2D01C46204600F07CFA65
:2058A0000028F5D0E0688821224600F0DBF978B10E4800F023FAEBE73B6099680029BED02D
:2058C000C86882420BBF89680B4699608968F5E7E060A3682EB1B360C4F80880FFF782FF0A
:2058E000D1E73B60F8E700BF481300207007002010B50446104800F001FA1049E3680A683D
:205900004BB142B194420FD0134601E09C420BD09B68002BFAD10A4BA2601B680C60E3606E
:20592000BDE81040FFF75EBF054B1B68E360BDE81040FFF757BF00BF700700204813002077
:2059400050130020014800F0D9B900BF7007002010B5044600F00AFA2046BDE81040FFF74F
:20596000C7BF00BF10B5044600F008FA2046BDE81040FFF7BDBF00BFC068B0FA80F04009CA
:20598000704700BF024B1868003018BF0120704748130020024B186808B1024B1868704760
:2059A000481300204C13002010B5114B04461A68904218D05AB19368834208BF13460AD081
:2059C0002BB19A68A24206D01346002BF9D10023A360E36010BDA2689A60FFF703FF00238C
:2059E000A360E36010BD82681A60FFF7FBFEEEE748130020034A04499079D37903EB0023F1
:205A00000B807047783100201431002010B541600446FBF7C9FB206010BD00BF10B5044695
:205A2000FBF7C2FB94E80A00034A0B44C01A90428CBF0020012010BDFEFFFF7F2DE9F843C4
:205A4000DFF8A480274DD8F800702E68874247D077B33B4601E0002B3BD01B689842FAD137
:205A600033B3837B8946044623B3002383736FB1BC424FF0870106D0BB7BDB0703D5384611
:205A8000224600F033F83F68002FF1D1A3683BB14C4505D02C6004F10C008321002298475C
:205AA000D8F80000844208D12368C8F800302E60BDE8F88338468442F6D00028F7D00368EA
:205AC000A34208D0002BF2D01A68A24204D01346F8E7BDE8F883034622681A602E60E7E7E1
:205AE0003B46BDE7501300205413002070B586687EB104460A4802230460A37304F10C00F9
:205B00000D46B0470238012804D9832D02D00123A37370BD20462146BDE87040FFF78EBFAD
:205B20005013002070B50C4A0C4B146800251D7084B1012601E0246864B1E37B002BFAD0B1
:205B4000A673E573204682210022FFF7CFFF2468002CF2D170BD00BF541300203131002075
:205B6000024B1878421C1A70704700BF3231002070B407480749084A0023084D084C8A26D6
:205B800003700B6013602E70237070BC704700BF30310020541300205013002032310020D3
:205BA0002F3100202DE9F041244D2B780BB1FFF7B9FF234E3378D3B1DFF890E0214F9EF8B3
:205BC0000020013B02EB420189007C180132A068DBB202F01F0233708EF800207F5CD4F851
:205BE000048098B1812F06D0827BD20705D428781844BDE8F0810123837339464246FFF77A
:205C000075FF337828781844BDE8F0810E4A146834B9ECE7A37BD9070AD42468002CF0D06B
:205C20002B78002BF6D0FFF77DFFA37BD907F4D5204639464246FFF759FFEEE73131002085
:205C40003031002058130020541300202F310020024A034B10781B781844704730310020E8
:205C600031310020F0B40C4D2C78202C11D00B4B0B4E1B78671C234403F01F0303EB43035F
:205C80009B00F418A06062602F70F1540020F0BC70470120F0BC7047303100202F310020AF
:205CA0005813002038B5837B034CDB07256801D5FFF71CFF256038BD5013002070B404465E
:205CC0000D4D2868A04206D038B1034600E023B11B689C42FBD170BC7047002CFBD001260E
:205CE00000232060A673A3810A4620462C60812170BCFFF7D7BF00BF5413002038B1837BFB
:205D0000013B012B03D8024A01231370C373704731310020FBF754BA38B5094C049D226871
:205D200022B180E82A002060002038BD024680E82A0008462260FBF745FA002038BD00BFBA
:205D4000D814002010B5084C206858B100224368816822609847236823B1BDE810401868A2
:205D6000FBF730BA10BD00BFD814002010B541600446FBF7E1F9206010BD00BF10B5044618
:205D8000FBF7DAF922686168C2F101031844884284BF5218226010BD10B50446FBF7CCF94C
:205DA00023686268C3F10103184482422CBF0020012010BD00B50B4B83B001A90A4A9942A6
:205DC0001160019388BFCD2005D95A1C01921870019B8B42F9D305480021FFF76FFF03B061
:205DE0005DF804FB913D0020DC1400208007002038B5134CFBF706FB2378124DCD2B08D0A1
:205E0000AC4202D316E0AC4214D014F8013FCD2BF9D1AC4202D30DE0AC420BD014F8013F24
:205E2000CD2BF9D0FBF7EEFAAC42064804D2001B80B238BDFBF7E6FA4FF6FF7038BD00BF39
:205E4000913D00200050002070B5038804465BB1902B05D11848FFF78FFD70B9012070BDF4
:205E600000230380032070BD13484FF4A061FFF76FFD90232380012070BDFFF7B9FF0F4D7D
:205E80000F4B06465D1BADB2A8420DD90D4B1B68002B09DD0C490D4A0D4803F0F5FC31466D
:205EA0002A460C4803F0F0FC0348FFF75BFD90232380012070BD00BFE0140020913D002041
:205EC00000500020D4060020386E01003C6E010058510100446E010010B5044690F84C3096
:205EE0008021013384F84C3020302346054AFFF76FFB054B2246BDE8104019780020FFF719
:205F0000B1BE00BFD95E00008D3D002070B5038804464BB1CB2B03D1822909D0012070BDA0
:205F200000230380032070BDCB232380012070BDFCF728FCBFF35F8F104B00221E681A6058
:205F4000BFF35F8F0E4DFCF725FC286820B9EBE755F8040F0028E7D090F8453026FA03F3A5
:205F6000DB07F5D5FFF776FB0028F1D0286802210346044AFFF72CFBEAE700BFFC140020FE
:205F8000F0040020C55F0000034A1368034303481360FFF7B3BE00BFFC14002090070020F0
:205FA00010B5044690F84500FBF760FE10B994F8440010BD012806BF94F8440080F0010020
:205FC000002010BD70B50446FFF744FB00B970BD04F120052846FFF73DFB06462046FFF7EC
:205FE000DFFF01280ED00028F1D1002EEFD12846FFF716FB0A4B30462246BDE87040197856
:20600000FFF730BE002EE2D000262346284684F84C607E21034AFFF7DBFA034BEBE700BF01
:206020008C3D0020D95E00008E3D00202DE9F843FFF796FD244B254C1870FFF791FD244B20
:20604000DFF8A0801870FFF78BFD224D2368224A00212870C8F80810C8F8042053B3DFF88B
:2060600088901E4F0126D9F800209D6C926B93F845009047236845F08C05294693F8450046
:20608000FBF7BAFD2268D9F8003092F8450006FA00F23A601B6B98472368D8F8082093F8FE
:2060A000451054F8043F06FA01F10A43C8F80820002BD8D10A480021FFF700FEBDE8F843BA
:2060C000084800F083B900BF8E3D0020F00400208C3D00208D3D0020895F0000E020024089
:2060E00090070020F0140020B4010010F8B5048805466C2C0CD07E2C1BD01CB10023038000
:206100000320F8BDFFF72CFD1E4A1F4B10701C601D4C264604E00A2813D023687E2B2BDDB0
:206120001A4800F0CDFA431CF5D16C232B800120F8BD852901D00120F8BD134C00232360B7
:20614000E6E7114C124F23680E49002603F1010E3A4609783046FE54C4F800E0FFF782FDCF
:206160000C4B324618688521FFF77CFD0028E5D17E232B800120F8BD05495A1CC854326049
:20618000CEE700BF8F3D0020081600208015002088150020501300200D281FD010B5104C27
:2061A0000146237833B10A2810D00E48FFF7A6FD012010BD0C4800F06BFA0028F5D101236F
:2061C00008482370FFF79AFD012010BD064800F05FFA0028E9D000232370E6E7002070478F
:2061E00033310020A00700208015002008B505480549802200F044FABDE80840034800211E
:20620000FFF75CBD8015002000150020A007002010B1837A012B01D901207047FCF7CABAAB
:2062200010B1837A012B01D901207047FCF762BB10B50446FCF7B2FA08B9042010BDE178F9
:20624000024A01238B401360002010BDA0200240C178034A01238B4013600020704700BF23
:206260009020024010B584B08DF80F1010B1827A012A02D9012004B010BD0446FCF78EFA65
:2062800010B9032004B010BD00232046009301930DF10F010122FCF77DFBECE780B170B51C
:2062A000847A82B0012C02D9012002B070BD044615460E46FCF772FA20B9032002B070BD73
:2062C000012070470023204631462A4600930193FCF760FBE9E700BF80B170B5857A82B0EB
:2062E000012D044602D9012002B070BD16460D46FCF754FA20B9032002B070BD01207047A8
:206300000021009620462B4601910A46FCF742FBEAE700BFF0B40E4C0E4F22460E4E00230B
:20632000012540FA03F1C90706D5517851B114F8131005FA01F1316002320BB1F0BC70478F
:206340000123EEE714F8131005FA01F13960F3E7B851010090200240A0200240F0B40E4CB5
:206360000E4F22460E4E0023012540FA03F1C90706D5517851B114F8131005FA01F131605E
:2063800002320BB1F0BC70470123EEE714F8131005FA01F13960F3E7B8510100A020024012
:2063A0009020024038B5074D074C2B682078DB6B98472B68A078DB6B9847BDE838400320F7
:2063C000FFF7CCBFB4010010B85101000146014800F06AB80C16002038B50546074800F012
:2063E00061F8044640B1A068284002D0636803B198472468002CF6D138BD00BF0C160020F4
:20640000014800F04BB800BF0C160020002301390170437083707047417883780278CB1A01
:2064200013409A4204D001310A4042700120704700207047427883780078D31A0340984245
:2064400014BF10464FF0FF30704700BF0346807859781A78091A11421DBF411C0A409A7088
:206460004FF0FF30704700BF8278437801789B1A0B4214BF10464FF0FF3070474378827805
:2064800000789B1A184070474378817802785B1A13420CBF01200020704700BF00230360C0
:2064A000704700BF00687047026842B1914203D11BE099420ED01A461368002BF9D100239C
:2064C0000B6002680AB90EE01A461368002BFBD1116070470B68136000230B6000230B603A
:2064E0000268002AF1D1016070470B680360F3E710B404684CB1A14217D0224602E0994262
:2065000008D01A461368002BF9D10C6001605DF8044B70470C460B68136000232360046861
:206520000C6001605DF8044B70470B680360F4E7026842B18A4203D10BE0994204D01A468B
:206540001368002BF9D170471968116000221A607047134612680260F8E700BFD9B110B4AE
:206560000446006840B1824203D110E09A4209D018460368002BF9D10B6813600A605DF8D8
:20658000044B70471468046000201860F4E7106813462060F8E71146FFF7AABF00B10068A3
:2065A000704700BF10B504460021628840680EF091FA23886288A06802FB03F2BDE8104096
:2065C00000210EF087BA00BF30B44588BDB141680B7863B14A1C002303E0147811460132BB
:2065E0002CB10133AB42F8D1002030BC704701220A700288806830BC03FB020070472846F1
:20660000F3E700BFF0B44588074682686DB18A420ED006880023324402E0914209D0224654
:206620000133AB4202EB0604F7D1FF20F0BC704700237A68D05C0028F8D00138D0547A6898
:20664000F0BCD05C704700BF83688B4208D84288008800FB023081422CBF0020012070472F
:2066600000207047418849B143680020194413F8012B02B901308B42F9D1704708467047E2
:206680000023013A0160027143718371704700BF10B44479827903460079A21A024090429C
:2066A0000AD01A68012011555A79197902440A405A715DF8044B704700205DF8044B704761
:2066C0000346807959791A79091A114208D010B4411C1C680A40205C9A715DF8044B7047F4
:2066E0004FF0FF30704700BF08B50448FFF75AFFBDE808400248FFF755BF00BFBC0700207B
:20670000B007002038B50F48FFF75EFF044688B10D48FFF759FF0546206060B100F092FA8D
:2067200005F19C01A5F8800005F1820000F08EFB204638BD38BD21460248FFF763FF2846F1
:2067400038BD00BFB0070020BC07002010B5044607482146FFF778FF00B910BD216805483D
:20676000FFF750FF2146BDE810400148FFF74ABFB0070020BC07002010B5044609482146AF
:20678000FFF762FF00B910BD2468B4F88010204600F03CFB04F1820004F19C01BDE81040C9
:2067A00000F066BBB007002010B5044603482146FFF74AFF00B1206810BD00BFB007002055
:2067C0000368B3F880007047006800EBC1003430704700BF036803EB4101B1F88200704701
:2067E000F9B1EAB130B4CD684C68521B92FBF4F2541C18D053B90C68835C012101FA04F4DB
:2068000023EA04038354084630BC70470B68845C012101FA03F32343835430BC0846704708
:206820001146084670470021EDE700BF38B50F4D002818BF05460E48FFF734FE044650B1EC
:206840002846211D00F08AFB40B92046FFF7A6FE04460028F4D14FF0FF3038BD054B0648E6
:206860009B68E41AA41000FB04F038BD906E0100C01B0020C8070020ABAAAAAA78B179B19A
:20688000C2684368891A91FBF3F14B1C06D0054A0368505C184100F0010070470020704795
:2068A00008467047841C002010B10368072B0ED90C4A1368072B12D830B40B4D5C1C0360CA
:2068C0008160146045F82300012030BC7047064A52F823309842EBD18160012070470020E3
:2068E000704700BFB41C0020941C0020F8B507460C46184D184E1FB344B3FB687868E41A41
:2069000094FBF0F4611C04EB440421D0AB6803EB8400FFF743FEB0B1AC68001B841006FB7E
