:020000040000FA
:2000000000500020E9000000E1000000C9000000E5000000E5000000E5000000000000002E
:20002000000000000000000000000000E5000000E500000000000000E5000000E50000002C
:20004000E91B0000E500000071240000E5000000ED1200008D180000E5000000E5000000CF
:20006000E5000000C5240000E5000000E5000000E5000000E5000000E5000000E500000054
:20008000E5000000E5000000E5000000E5000000E5000000E5000000E5000000E500000038
:2000A000E5000000E5000000E5000000E5000000E5000000E5000000E5000000E500000018
:2000C000E50000000D270000044B1A68B2F5806F03D01B689B0500D4FEE7704728ED00E045
:2000E000FEE700BFFEE700BF08B506F0B1FF104A104B9A420DD2D0430F4918440B4620F0BD
:2001000003000430084453F8041B834242F8041BF9D10A480A494FF000028842B8BF40F8AB
:20012000042BFADB03F020FDFFF7CEFF08BD00BF00000020D1080020F4760100D8080020E0
:20014000E5320020F0B5002706463C463D4683B0304604F03BFD0195019B9C4206DD00BFC4
:20016000019B01330193019B9C42F8DC304604F051FD0195019BC4F5C874A34206DA00BF6A
:20018000019B01330193019BA342F8DB0137B7F5487F06D0B7F5C87FCCBFC7F548743C46AE
:2001A000D6E703B0F0BD00BF38B5194D194C2B6820465B68012198472B6801210A461B6866
:2001C0002046984707F01AF801F064FD01F0E6FC00F0FAF804F070FD04F040FD0120FFF721
:2001E000B1FF0D490D4A0E4809680123136003600B691020A2F5FF521268984707F002F80B
:2002000000F0E6FFBDE838400020FFF79BBF00BFD801001000400340B00100100C400940FB
:200220000800094008B541F2342002F085F901F0C7FA04F037FC074801F0EAFA0648082145
:2002400001F090F904F04EFBBDE808400220FFF779BF00BF514A00002C2B0020F0B585B0FF
:20026000002602A80821294C0096019601F07AF99DF80F309DF80E70E56A43EA072748F2B4
:20028000A6110220A84739460320A84731460120A847636B02A908221D4D0B209847A46A59
:2002A00001206946A0472B68022B1ADC022001A9A04758B92B68022B04DC0020FFF742FF16
:2002C00005B0F0BD1348019907F01AFF2B68022BF3DD114807F014FF0020FFF733FF05B0C7
:2002E000F0BD0E490E4A0F4807F00AFF0E4807F007FF2B68022BD9DD0849094A094807F096
:20030000FFFE0099094807F0FBFECFE7FC380100740600201438010034700100D437010083
:20032000DC370100C4370100EC3701000438010001F0E0BA024B4FF080421A60704700BF83
:20034000A020024038B50A4D0A4C2B681E20DB6B98472B684FF080422260DB6B01209847AF
:20036000022323600448BDE8384001F00BBC00BFB4010010A020024028040020024B4FF056
:2003800080421A60704700BF90200240024B4FF080421A60704700BFA0200240014B1870A5
:2003A000704700BF0120024010B5064C042023685B699847236804205B6B98470128F9D1B4
:2003C00010BD00BFB8010010F0B591B006F016FF0746FFF7E9FF1E4B4FF4A0601B68DB6939
:2003E00098471C4B01211C4A196013689907FCD500201A4C06F004FA01AD194801F0C2FB93
:200400000FCC0FC50FCC0FC50FCC0FC594E80700019C85E80700621C0FD0124E01AD336835
:2004200020469B6B9847336820469B694FF40051984755F8044F631CF1D1FFF783FF0FB1E0
:2004400011B0F0BD11B0BDE8F04006F0DBBE00BFB80100102820086028200840A838010060
:200460003C040020B40100100120704708B501F0B7FC30B1034B5888A0F10200B0FA80F062
:20048000400908BDFC04002008B501F0A9FC30B1044B5B88022B0CBF0120022008BD0220A6
:2004A00008BD00BFFC04002030B583B001F006FF044601F095FC08B903B030BD0E4801A95D
:2004C00001F096FC0128F7D100F080FE638803F44063002BF0D16FF03F052D1A06E000F009
:2004E00091FF638803F44063002BE5D100F06EFEE842F4D4E0E700BF0100010470B582B0D5
:2005000001F06EFC234C10BB00256580E37B214E23F01003E373E37B304643F02003E37373
:20052000E37B01A943F04003E373E37B63F07F03E373A37F5BB2C3F5FF6307339BB22383E8
:2005400001F056FC012809D0284602B070BD6388022B08BF0120D7D102B070BD00F036FE5E
:2005600073889BB2022B0DD06FF03F052D1A05E000F048FF63889BB2022B03D000F026FED7
:20058000E842F5D4608880B2A0F10200B0FA80F04009E1E7FC04002008B50346B32994BF3B
:2005A0000A46B4220248194612F05AFD002008BD5A0B002070B50E4D0E4E2C68002006E033
:2005C0002379022B06D024682B68A3420ED02379032BF5D133780120002BF4D1064803F00D
:2005E000E9FF24682B680120A342F0D170BD00BF0C090020DD2A00201806002038B50D4A63
:200600000024136819681C725C721C71116002F0B9F80546BFF35F8F074B1A7812B11C709F
:20062000FFF76CFFBFF35F8F2846BDE8384002F0B1B800BF14090020DC2A00202DE9F04368
:200640002E4B83B080460F461D6800F0BFFD2C4E361A03E000F0BAFDC6420AD52C79022C94
:20066000F8D0284B0020032C187008D003B0BDE8F0832C79234B0020032C1870F6D1B5F867
:200680000890B9F1060F27DDA9F10606BE4223DC0A3540462946324612F0E2FCDFF8748003
:2006A000AA5DAB1988F800205B79A9F10501164F0422294401A83B7012F0D2FC019801F0B5
:2006C00087FE124B124A1B7810605BB1FFF796FF304603B0BDE8F083FFF790FF002003B0A9
:2006E000BDE8F08398F80010042049B289B205F00FF83978204605F00BF8E7E714090020D2
:20070000E2FAFFFFDA2A0020DE2A0020DD2A0020540C0020CF0800200C2801D00120704738
:20072000042A01D0022070470029FBD0024B00201B680B60704700BF540C002070B582B045
:2007400001F04EFB002837D01D4C6388022B33D11C4E00F03BFD7388022B0BD11A4D2D1A67
:2007600004E000F04FFE7388022B03D100F02EFDE842F6D401A9154801F03AFB00F026FD0D
:200780006FF03F052D1A08E06388022B09D100F01DFDC54205D500F035FE01F021FB002852
:2007A000F2D16088A0F55050043880B201288CBF0020012002B070BD012002B070BD00BF98
:2007C000FC0400206C05002000FEFFFF0100010410B5012082B0FFF7E1FD104C104B05219D
:2007E0001A68237E84F82410928803F0F80343F00803204601A96283237601F0F9FA012845
:2008000002D0002002B010BD204601F043FBA0F10100B0FA80F0400902B010BD44050020F5
:200820000006002000B583B00A4801A901F0E0FA012803D0002003B05DF804FB054801F082
:2008400029FBA0F10100B0FA80F0400903B05DF804FB00BF2C05002008B5FFF7B9FF0128D4
:2008600001D0002008BDFFF7DDFF0128F9D1FFF745FEC0B208BD00BF08B501F051FE0128A8
:2008800012D0FFF75BFF01F001FC002210460749074B4A8003F510711A799033022A08BF92
:2008A00003F88C0C8B42F7D1012008BDFC040020180900202DE9F84F01F032FE012818D03A
:2008C00001F08EFA88B901F011FA01F089FA0446002840F08E8001F0F5FA012805460BD00F
:2008E00001F0D4FB0020BDE8F88F574B5B88022BE9D10120BDE8F88F01F044FC53494FF423
:200900002372534812F0ACFBDFF88CB15148DFF88C91DFF88CC1504F504E5149514B524A2A
:2009200004704FF0020A8BF800504FF003084FF0040E052406204D4D89F800A08CF800807C
:2009400087F800E0347008701A602B684749002BFBD00020464A474BDFF84881086052F8F5
:200960001CCC52F818EC52F8146C52F8105C52F80C4C52F8207C12E90300203343F8207C11
:2009800043F81CCC43F818EC43F8146C43F8105C43F80C4C43F8080C43F8041C434502F1DB
:2009A0002002DCD1344B354ADFF8FCC0DFF8FCE0334934482D4C344F344E00251862C3F854
:2009C00024C00120C3F828E0DF621E632560116006F0B0FE2E4806F011FE22461368234929
:2009E000002BFBD000230B6001F0D4FA01287FF477AF01F0F5FB2748002103460E460225BD
:200A000088245A791E7102F0FC0265F383025A71DC80903343509031B1F5107F1D4AF0D160
:200A2000C2F8B02101F07AF9FFF7D2FE012802D00020BDE8F88FFFF7F5FE0128F8D1BDE83A
:200A4000F84FFFF75BBD00BFFC040020F83F01001C04002190030021AE030021AB03002194
:200A600081030021C0030021BD0500211C1004406439010000C0002180C600210010044060
:200A800001010E046039536311161216546B00704405002018090020790300217503002195
:200AA00077030021A0C600212010101A136F236E70B582B0072800F2AC80DFE800F0212A01
:200AC000AAAA5E6B70045E4B197001F089F900285DD05C4B5B88022B59D1FFF72FFE01285E
:200AE0000CBF0024032401F06FFB012800F0A080FFF7B2FE01280CBF2046032002B070BD4A
:200B0000012900F08E80002900F08580022002B070BD8029FAD84C4C4FF47A72208AE38936
:200B200002FB03F302FB00F2A3F55C2302F57F42FF32A3F58763454803EB2243A0FB0323B0
:200B4000CAB2C3F387139A4221D0C82303FB01F13F4801F55C2303F58763A0FB03213D4AFD
:200B6000890902FB01331B04A0FB03233A488AB29B092382E2810284A7E731F00403C5D196
:200B8000364BC1F380011A7819708A429DD1002002B070BD31F00103B8D1C8B2AEE74FF649
:200BA000FF742F4DAE88A64208BFFF2309D02A460023083290880133A042DBB2F9D1013BD8
:200BC000DBB255F83330264C99429FDB236899429CDC0191FFF768FC4FF6FF739E42019916
:200BE0002CD022461C460023083290880133A042DBB2F9D1013BDBB255F8332005EBC30031
:200C0000914203F1FF3316DD5A1CF5D1FFF724FEBDE7012072E70191FFF72EFE01990846DA
:200C20006CE7FFF747FE012814BF0320002065E701F066FB5CE70B4B1860E7E70023D9E787
:200C4000CE080020FC0400202C0500201F85EB51D34D621018FCFFFF44050020DD2A002019
:200C6000283801000006002099B1F0B50C4683B0172800F2B980DFE800F05E9DB7B7950E4C
:200C80008B58297886B7B7B70E7E126BB78274700E91022070470020086003B0F0BD4FF65A
:200CA000FF705B4DAB88834208BFFF2309D02A4600230832918801338142DBB2F9D1013BF3
:200CC000DBB255F8333000202360E6E701F088F8002840F08D80FFF7EDFD012840F0938045
:200CE00007460A2580266B1E13F0FF054FF000014FF004020FD001A812F08CFA40F2034335
:200D000001A86946ADF8043001F072F818B19DF802607306E7D0002F72D176B216F1800F27
:200D200026600CBF03200020B7E73A4B002093F900300B60B1E701F053F830B1364B58889F
:200D4000A0F10200B0FA80F0400920600020A4E72F4B00201B680B609FE73E230B60002078
:200D60009BE7A0230B60002097E72C4B00201B785BB20B6091E780230B6000208DE7062340
:200D80000B60002089E7264B00201B780B6084E7244B00201B681B680B607EE718230B6053
:200DA00000207AE70020204B08601B78F3B104230B6072E71D494FF47A72CB89098A02FB24
:200DC00003F302FB01F2A3F55C2302F57F42FF32A3F58763164903EB2243A1FB0323C3F381
:200DE00087132360002058E7012056E7184654E7094B5B88022B08BF00273FF472AF6AE789
:200E0000FFF73AFD89E76FF07F032360032044E728380100CE080020FC040020CF08002015
:200E2000DE2A002000060020DD2A00202C0500201F85EB5170B582B0044600F0D1FF28B3D0
:200E4000244B5B88022B08BF00251FD12249221DA31C224C92B29BB2100A2382E161487016
:200E60000A70FFF76BFC002001F0FAF9204601A900F0BEFF88B9012601F010FA0023638071
:200E8000FFF73CFBE5B9304602B070BDFFF712FD01281AD0012002B070BD00F0B3FA104E1F
:200EA000317800E099B163880C4A03F44063002BF8D0508880B2B0F5505618BF0126DBE77C
:200EC000FFF7DAFC304602B070BD0546BEE700F007FDE5E7FC040020580B00206C0500200D
:200EE000DD2A002010B50C46B32C014694BF2246B422044812F0B4F82046BDE81040FFF7B2
:200F000099BF00BF5A0B002030B583B001F008FB01281BD000F064FFD0B1154B5B88022BD1
:200F20001FD000258024134801A900F061FF012803D19DF806406306F5D07DB90E4B64B2F9
:200F400093F90000A042D4BF0020012003B030BDFFF7B0FC012806D10546E3E7FFF78CFC7A
:200F6000ECE70120F2E7FFF787FC0120EEE700BF6C05002001000304CE08002010B500F032
:200F80002FFF80B10F4B5B88022B0BD10E4C237853B90E4B1B689B0601D501232370207809
:200FA000C0B210BD002010BDFFF7AEFFB0FA80F0400920702378002BF1D1044B6FF0200217
:200FC0001A60ECE7FC040020DA2A002008100440F8B51F4800F0D6FD06F08CF8012802D0D8
:200FE00000242046F8BD1B4C002120464FF4107212F010F940F2863043F23331164B174AB1
:20100000DFF874C0164DDFF874E0164F0026CCF8004083E85000AB62C5F82CE03884D0810A
:201020001182FFF747FC01280446D9D10E4B0F4A1E6013680E4843F02003136001F044F9CF
:2010400001F048F931460B4803F094FAC9E700BFEC050020180900200C0900202C050020CC
:20106000FC04002044050020081004400C1004403439010018060020140900200009002019
:2010800010B5064C042023685B699847236804205B6B98470128F9D110BD00BFB80100104B
:2010A000F8B51A4A00200021C2E90001184B04201B685B6B9847012801D0FFF7E1FF144B54
:2010C00000201B68DB699847124B0121124A196013689B07FCD5114A11491368096823F450
:2010E000807323F001030F4C13600B6820460E49984740F221200D4D0D490E4B042731260B
:20110000012227602E6008601A60F8BDD8080020B801001028200860282008400C000140AA
:20112000C801001000000140002100043C000140080001400400244310B40949094C0B6861
:20114000226808688342FAD1DB01074903EB52620023C1E900235DF8044BD1E90001704731
:20116000082009400C200940D808002010B50B490B4C0B68226808688342FAD1DB010949EE
:2011800003EB52620023C1E9002303F057F800B910BDBDE8104003F031B800BF08200940F4
:2011A0000C200940D808002010B506F027F8034B1C6808B906F026F8204610BD0820094095
:2011C000704700BF0146012000F052B805F0ACBE2DE9F04106F012F81D4E1E4B1E4F3268B6
:2011E0000124002580464FF480314FF480703D601C60186019601368284623219847336807
:2012000020461B6824219847336802201B6825219847124A1249136843F4E02313600D6010
:2012200005F082FE0F4B1049104A1B6800F50070086014603C601B6914209847B8F1000F7D
:2012400001D0BDE8F081BDE8F04105F0DBBF00BF84010010042009400000244300200940B1
:2012600008200940B00100101C200940A0022443431E012B10B41BD9042802D05DF8044BC7
:20128000704700231A4610F004001CBF0E4C216013B10E4B0121196012B10D4B01221A60EA
:2012A0000028EBD00B4B01221A605DF8044B704710F0010302D0084A0123116010F002023C
:2012C000E1D0064C2160DEE72020094080022443A0022443C0022443182009401C2009401B
:2012E000014B1868704700BF100C002008B5FFF76DFF184B1860FFF739FF174B1B686BB93F
:20130000164B1B68E3B9164B1B6833B11549164B00204FF4803208601A6008BD124B4FF46A
:2013200080721A6005F000FE00F205200F4B20F4FF7020F001001860084B1B68002BE2D01E
:201340000B49094B0020012208601A6003F056F9D9E700BF100C0020A000244380002443D5
:20136000C0002443C0022443042009401C20094080022443820702D5034B01221A60C3072D
:2013800000D4704705F03EBF000C084008B505F035FF074B1A68012A03BF064902221960E9
:2013A0000022002814BF104642F0010008BD00BF000C084051E5CC1A03490448044B012289
:2013C00008601A60704700BF00000840FFFF0F00000C084038B5FFF7D9FF064C064D07495C
:2013E000074A012325600B601360BDE83840FFF7C1BF00BF00000840FFFF0F000C0008401A
:201400000401004303490448044B012208601A60704700BF00000840FFFF0F000C00084079
:2014200008B5FFF7D7FFFEE708B5064803F096FC30B1054B0121054A196013689B06FCD5A6
:2014400008BD00BF140C0020000222431410094070B5054605F0D2FE0B4C294606460B485A
:2014600003F07EFCFFF7E0FF236868681B689847236868689B6898471128F9D106B170BD49
:20148000BDE8704005F0BEBEA0010010140C002038B5044648B9134803F060FC28B1234671
:2014A00005C813430028FBD19BB90F490F480B680F4D104C0068002223F4C0530B602A603E
:2014C0002260C368012098470B4A13689B06FCD438BD054A136823F4C05343F40063136028
:2014E00038BD00BF140C002004100940A001001080012243000222431410094038B50546F8
:2015000005F07CFE04462946054803F06DFC0020FFF7BEFF04B138BDBDE8384005F072BE3B
:20152000140C002070B50446B0B10078C0B1A9B10025661804E014F8010F38B1B44205D001
:2015400000F052F9631C05F10105F4D100F092F90128FBD0284670BD0546F7E70D46F5E7AE
:201560000546F3E710B40B4B0B4C13F8012FFF2A0ED1A342F9D1094A39B1114401380139DE
:201580000B78914200F8013FF9D15DF8044B7047034AF1E7C7FF0100CFFF0100F01200508B
:2015A000C8FF010038B50C4D02202B685B6998472B6802205B6B984701280446064BF7D1DF
:2015C0001B684FF40070DB699847044B044A1C6013689B07FCD538BDB8010010282008603D
:2015E000282008402DE9F04340F2F275DFF8DC8083B0FFF7D7FFD8F800302A4EDB682A481A
:2016000098473368294C5B69152098472368DFF8C090274F23F4FE63D9F8002023F002035A
:2016200023603D60D36B032098472249D9F800300820122208600092D3F840C01A48022138
:2016400003221323E047D8F800301748D3F804C019494FF4E1326023E04740F2011240F241
:20166000013E1649164B142008601968154841F01001196003681449002B0CBF1346734666
:201680000B603D60036853B12368326843F0500323601369152003B0BDE8F043184703B057
:2016A000BDE8F083B001001000100040381000404410004090200240006CDC023410004025
:2016C0002C100040180C002030100040D0010010B401001008B5064B02201B685B6B9847CC
:2016E000012803BF034B186800F00100002008BDB80100106C20084038B50446FFF7EAFFA8
:2017000018B1254A13681907FCD4032C03D0234B1B6803B138BDFFF7DDFFE0B9204D4FF46F
:2017200000702B681B6A9847032C2AD01D4B01211D4A196013689B07FCD5032000F03EFA76
:20174000022000F03BFA132000F038FABDE83840122000F033BA154B15481B68DB6898475F
:20176000144B15201B685B69984740F2F270124A1249136823F4FE6323F00203136008607E
:20178000CCE72B684FF400709B6A98472B684FF400701B6B9847C9E718100040180C002065
:2017A000B80100102820086028200840D001001000100040B0010010381000404410004012
:2017C00010B505F01BFD0446054800F0DBF9054B00221A6004B110BDBDE8104005F012BDB5
:2017E00004060020180C002010B50446FFF772FF08B9FFF7F7FE044B2146BDE810401B682B
:201800000248DB69184700BFD00100100010004010B5134B134C1860134A2368A8B102218D
:2018200011615B6A4FF40070984723684FF40070DB6A98470D4B01210D4A196013689B0716
:20184000FCD5BDE81040FFF7CDBE10619B6A4FF40070984723684FF400701B6B9847E9E7C6
:20186000180C0020B801001004060020282008602820084008B5FFF72DFF18B1024B18687C
:20188000C0F3C00008BD00BF1810004038B5FFF789FE40F2F2710C4B0C4A1B68116013F046
:2018A000500F10D00A4C0B4D05E02B681B699847094B1B6823B923680848DB06F5D538BD32
:2018C000C0B29847F7E738BD401000404410004018100040D0010010180C002000100040E3
:2018E000034A136823F00403136030BF704700BF10ED00E02DE9F84305F080FC02F004FE9B
:2019000018B1BDE8F84305F07DBC8E4803F026FA0225044648B1636823B19847A84228BF4E
:201920002846C5B22468002CF5D1FFF74FFC864B80461B68CBB91F46994602F07FFC00288C
:2019400040F0A780012D0446064600F0EC80022DD7D1E7B1A9F14101B4B18B1B002B13DBA1
:2019600031460220FFF784FC18E0784BD3F80090C0EB0903022B00F1BE80A3F28F23002BBD
:20198000C0F2CB800127D8E70420FFF771FC002CE6D108F1FF310220FFF76AFC694803F0AE
:2019A000DDF906250446002800F0AA80A368022003B198472369246825EA0305002CF5D1B9
:2019C000FFF720FD6B0705F0060400F19C80002C40F09D8000F0BCF90020FFF759FD5C4947
:2019E0005C4A0B685C4823F003030B601368016843F00F0313608B6939209847574A58499C
:201A000000231360184613600B6005F02FFC062C00F08580534C544D544E2B682368326813
:201A200023F00303236053685148032198474A4B1B689B6B98472B6805F070FD4D4A33688F
:201A4000002111604A485B680121984723684A4A012143F00303236011602B6805F090FD1B
:201A6000FFF7E2FCFFF782FBFFF7CCFC354803F075F9044628B1E36803B198472468002CCA
:201A8000F9D100F033F905F0BDFBBDE8F84305F0B9BB02F0DBFB0646FFF74EFB361A002E99
:201AA0007FF72FAFFFF71CFC344B00EB4626C8EB0303F34240D40124A5427FF448AF6FF017
:201AC0000703C8EB0303F34233D408F58038C6EB080336EA230628BF464631460220FFF74B
:201AE000C7FB274A136823F00403136030BFBDE8F84305F087BB00239D4288BF1D4641E7D1
:201B0000FFF780FC06241C4B00221A605FE7124B20461B689B6998475CE70123ECE702205B
:201B200005F074FB76E708F580310220FFF7A0FBD7E708F10806D0E7022DC0D0012D7FF4A7
:201B4000E0AEBCE71C0C002080022443182009400010094008100940B80100104010094086
:201B600020042243242208402C200940D801001000400340800104430C40094071FDFFFF84
:201B800010ED00E00146014803F0EAB81C0C00200146014803F028B91C0C002010B505483D
:201BA00003F0D8F8BDE81040034B03201B6820211B6818471C0C002084010010421C0ED03D
:201BC00010B50446064B4FF4C0421B6800211B689847044AA3001A430023136010BD7047F2
:201BE000B4010010001A4442024B1868186003F04FB800BFE020024070B51B4B0C461B68E0
:201C000005465B68984714F00C0320F0E06222F4EC2207D0042B20D0082B21D00C2B08BF36
:201C200042F4403214F003030DD142F4C04223060D4B2846BDE870401B6848BF42F4802236
:201C40001B6800211847022B04D0012B08BF42F48042ECE742F40052E9E742F40032E1E73A
:201C600042F48032DEE700BFB4010010064B1B68C340DB074CBF054B054B1B6823FA00F03F
:201C800000F00100704700BFD020024080200240C020024010B584B00022412302A80292EA
:201CA0000393FFF7D5FB042005F028F9032813D00420032105F0F2F8042005F01FF90328FD
:201CC0000346F9D1074A084812680093546800214FF040521C23A04702A8FFF70FFC04B010
:201CE00010BD00BFA401001000A00C4000B583B00022412368468DE80C00FFF7A9FB01205F
:201D000005F0FCF8012803D00320012105F0C6F86846FFF7F3FB03B05DF804FB00B583B065
:201D20000022412368468DE80C00FFF791FB012005F0E4F8012803D0044B986B05F006F938
:201D40006846FFF7DBFB03B05DF804FB4800001010B582B041236846002401930094FFF75F
:201D600077FB0320214605F099F8012005F0C6F818B1044B986B05F0E9F86846FFF7BEFBBF
:201D800002B010BD4800001070B50388044653B1B3F52F7F03D182290AD0012070BD00234E
:201DA0000380032070BD4FF42F732380012070BD094B0A4E1D69FFF725FB03F053FC03F0FD
:201DC000EBFB8021A847002880B2ECDD03F0DEFBF3689847EFE700BFFC380100805C0100BD
:201DE000024B186800F00100704700BF9C21084010F0030370B506460D4602D1028811056D
:201E00001FD405F0FBF91F4B00301B6818BF0120DB0720D51C4B1D4C1E6023684CF2503261
:201E20002B6003E02368013A2B6014D013F0FF0FF8D018B32878A0F10100B0FA80F04009C6
:201E400070BD438005F0DAF90E4B00301B6818BF0120DA0702D468B1002070BD338813F4E7
:201E6000405FD7D003F44063B3F5006F04BF084B1E60CFE705F0C6F9002070BD05F0C2F970
:201E8000D8E700BF9C2108400010044004100440440C00200A4A01E0013A0ED0438803F493
:201EA0004063B3F5806FF7D1428802F44062A2F58060B0FA80F0400970471046704700BF61
:201EC00020A1070030B583B005F098F9264C0546236819201B6A9847236812201B6A984796
:201EE000236819205B699847236812205B6908349847236801205B699847236801205B6B1E
:201F000098470128F9D11949194B1A4A0860186013689B07FCD5144C17481849226800232A
:201F200003600B60136919209847236812201B699847B5B140F2FF35FEF720FA104B114A8E
:201F400011481249002405600C60114801A91A60FFF74EFFA0F10100B0FA80F0400903B070
:201F600030BD05F04FF9E5E7B00100102C20084028200860282008401010046014100460CA
:201F80000010044051000706000004601C1004400100060410B586B00021142201A811F0B4
:201FA00039F940F60A0215499DF811300C68012161F3030301A8694605948DF81130ADF82D
:201FC0000420FFF715FF012802D0002006B010BD0B4801E00138F9D0BDF8063003F440637A
:201FE000B3F5806FF6D1BDF8060000F44060A0F58060B0FA80F0400906B010BD580C002055
:2020000020A1070000B587B00021142201A811F001F940F609029DF81130012161F303037E
:2020200001A869468DF81130ADF80420FFF7E0FE012803D0C0B207B05DF804FB104801E033
:202040000138F8D0BDF8063003F44063B3F5806FF6D1BDF8063003F44063B3F5806F03D0AD
:20206000002007B05DF804FB064B1A782AB9064A0599012011601870DDE70120DBE700BF01
:2020800020A10700DB2A0020580C002030B587B005F0B4F8324C0546236819205B699847E2
:2020A000236812205B6998472E4B1B68DA071AD52D492E4A00230B6002A8194613601022CA
:2020C00011F0A8F840F60D029DF81530012161F3030302A801A98DF81530ADF80820FFF7E3
:2020E00087FE01282ED0FFF78DFF2148214B00240121214A0460196013689B07FCD51F4CF6
:20210000012023689B699847236801205B6B98470228F9D1124CFEF739F9236819201B6A1D
:202120009847236812201B6A9847236819201B699847236812201B6998470DB905F062F843
:2021400007B030BD0E4A01E0013ACCD0BDF80A3003F44063B3F5806FF6D1BDF80A30C2E74C
:20216000B00100109C21084010100460141004602C2008402820086028200840B8010010F0
:2021800020A1070008B504F0DDFF052803460BD003280DD018B101280FD0002008BD094B87
:2021A00003221A60012008BD064A0120136008BD044B02221A60012008BD024A052111603B
:2021C00008BD00BFD021084008B5FFF71BFFFFF7E1FE012802D0FFF759FF002008BD00BFB3
:2021E000F8B5174B174A19781268174B002914BF00241C46D30700D4F8BD04F0FFFF0646DF
:20220000124A134B1348144F144D00213B60046011602B6819201B6A98472B6812201B6ADA
:2022200098472B6819201B6998472B6812201B69984706B1F8BDBDE8F84004F0E3BF00BFCA
:20224000DD2A00209C2108400000C08010100460000040801410046018100460B0010010F9
:20226000084B1B7833B1002002460749074B0A6018607047064B0749074A002814BF1846A6
:202280000846F2E7DD2A002010100460141004600800C0800200C0800000C080044A054B7C
:2022A0001178054A002918BF00231360704700BFDD2A00200000C08014100460014B18687F
:2022C000704700BF440C0020014B1860704700BF4C0C002038B5064B064C1D6806484FF4C0
:2022E0003441064A0023256001F0CEFD012038BD04300440200C0020240C002071230000F7
:20230000164B1B68DBB170B59B68984708B9002070BD04F073FF124B124C1D680646002125
:2023200015F1804022684FF0000341F10001994208BF904209D325601EB1012070BD0020C6
:20234000704704F05FFF012070BDFEF73FFF064A06491368086001331360ECE74C0C00207F
:2023600004300440200C0020480C0020500C002070B5134B1B68B3B19B689847D8B9114D6E
:202380002B6A984701280ED1FFF7BAFF6B6A0446984744B1BDE870400B484FF434410B4A6A
:2023A000002301F071BD08488021084A0023BDE8704001F069BDFFF7A3FF0446E9E700BF98
:2023C0004C0C0020FC380100240C002071230000F8B5224C2368002B3DD09B680646984760
:2023E00000B3FFF78DFF1E4BB6F1404F1F6825D822681C4BB2F90C401968E517641A65EB52
:20240000E1750022A41945F10005A01845EB0701090241EA106143F609520023000210F0FC
:2024200015FBF8BD104D2B6A9847FFF769FF6B6A98470B4BB6F1404F1F68D9D9FEF7C6FE76
:202440000A4B1B68C3F17E4303F57203C34248BF07F1FF37CCE71846F8BD00BF4C0C00208B
:20246000480C0020580C0020FC380100500C002010B5104B1B68DA0704D4FFF723FD012818
:2024800000D010BD0C4C23685B0204D40A4B6FF000421A6010BD094B012209481A7002F006
:2024A00089F86FF480032360034B6FF000421A6010BD00BF9C21084010100460DC2A00208E
:2024C0001806002008B5124B1B68D90707D4114805F016FEFFF7F6FC012800D008BD04F06A
:2024E0008DFE0D4B1A6812020BD40B4B1A6812F00A0F1CBF6FF00A021A60BDE8084004F0F0
:2025000081BE6FF400021A60044802F053F8ECE79C2108409C42010010100460180600209B
:20252000014B1878704700BFDF2A002008B500F08BF880B208BD00BF00F010B938B50C4D3B
:2025400004202B685B6998472B6804205B6B984701280446064BF7D11B6840F20140DB69FF
:202560009847044B044A1C6013689B07FCD538BDB80100102820086028200840034B1B68A6
:20258000002B14BF01200220704700BF5C0C0020F8B503880446002B2ED0B3F5847F05D1D0
:2025A000184B1B788B4205D00120F8BD002303800320F8BD144D2B6873B1144B144A1B68D7
:2025C00012685B680220174698470026301847F100012B6898472E600E4B40F201401B686A
:2025E0009B6A98470C4B01210C4A196013689B07FCD50B48FFF7CCFA4FF4847323800120B4
:20260000F8BD00BFD00800205C0C0020CC01001004800240B801001028200860282008401A
:202620002806002008B5064B04201B685B6B9847012803BF034B1868C0F34000002008BD61
:20264000B80100103C20084070B5274B1B689BB1264C0023224612F8011B29B90133042B3F
:20266000F9D10020014670BD214A002502EBC302E55492E8030070BDFFF7D4FF00282FD0E7
:202680001C4A1D4B1268134073B91C4A01211346116018680028FCD102464FF4807104F03C
:2026A000C7FB174B01221A6004F0A8FD0646114A1368DB07FCD5134B134A1B6814685B686E
:2026C0000220984723460022141843F1000516B12046294670BD04F095FD2046294670BDB8
:2026E000FFF72CFFCCE700BF5C0C0020600C0020E00800200880024001000080F09F02400F
:20270000A8025042CC0100100480024038B50E4D00240E4A2C6013680D4923F00103096831
:2027200013604B6931209847204622464FF4807104F07EFB0122074B2A6019782246BDE836
:202740003840054801F0EABEA80250420C800240B0010010D00800203C06002010B5074CDE
:202760002378802B00D010BD01F056FE207000210348BDE8104001F0FDBE00BFD0080020DD
:202780003C06002008B504F039FD003018BF012008BD00BF80F31088704700BF827A044B78
:2027A00003EBC2035B68C01AB0FA80F040097047640C0020F0B54749837A85B001EBC30306
:2027C000D3E84F2F12F0FF0F09D10124C3E8424F1346BFF35F8F3BB1032005B0F0BD0123E7
:2027E000BFF35F8F002BF7D10446827A3A4B01EBC20148601B68C078DB6B384F9847384D38
:20280000A37A3A6805EB0313526958689047A37A3A6805EB03135868536B9847012806460A
:202820002E4A2F4BF3D1A17A126803EB0113D269986890472B4B2C4A1E6013689B07FCD5E1
:20284000A37A03201B01EA582849536923F00F035361A37A1B01EB581862A37A0A682689A0
:202860001B01E85817683EB1237A002B2CD0637A002B14BF032602266168082332468DE8BD
:202880000A001B490023B847A37A134A26781B01E85813686178A27800965E6C4FF0FF33F5
:2028A000B047A37A114E1B01EA58536843F002035360A37A32681B01E85803A91369984787
:2028C0000028F6D105B0F0BD637A002B14BF01260326D1E7640C0020B4010010B8010010A6
:2028E000004301002820086028200840C4010010006CDC0270B5214D837A05EBC302526836
:20290000904201D0042070BD1D491E4A096802EB031304460A6A986890471B4B01221A60E9
:202920001A4A13689B07FCD5194E607833689B6B9847336860784FF400519B699847336801
:20294000A0789B6B98473368A0784FF400519B699847336820789B6B9847336820789B6901
:202960004FF400519847A37A002005EBC3035860A37ABFF35F8F05F8330070BD640C00208F
:20298000B8010010004301002820086028200840B40100102DE9F04F344C857A85B004EB2D
:2029A000C5046468A04203D0042005B0BDE8F08F1F462F4BDFF8C4901B6809EB05150446EB
:2029C0005B6B686890460E469847012803D0052005B0BDE8F08FA37A264909EB0312D2688F
:2029E00009681142F3D00E9A0F9902EB010AC2455246B8BF4246002A019235D0D8BF03AD61
:202A000026DDDFF874A04FF0000B03ADD845CCBF16F80B1000210391DAF800201B0159F8E9
:202A2000030053689847A27ADAF800301201DB6859F80200294698470E9B5B45C4BF039B7A
:202A400007F80B30019B0BF1010B9B45A37ADDD1094E00E0A37A32681B0159F80300294620
:202A6000136998470028F5D100209EE7640C0020B801001078200840C40100100043010016
:202A800010B5BAB00A460446282168460CF072F86B46C021034A0AA805F058FB0AA8A0479E
:202AA0003AB010BD20430100F0B50746B1B0D9B10D460126002404B3E3070DD5C021134ABF
:202AC0002B78684605F042FB6846B847082E12D0013601350134EEE76846C0210C4A05F05D
:202AE00035FB6846B847E9E76846C021094A05F02DFB6846B84731B0F0BD6846C021034A13
:202B00002B7805F023FB6846B847E1E7384301003443010024430100F0B50388B1B0064651
:202B20000D461BB36F2B1CD1254B264F186843683A68254829469847012836D96C46234A29
:202B4000C021204605F002FB2046A84728462049FFF7AAFF2046C0211E4A05F0F7FA204676
:202B6000A84700233380032031B0F0BD13781446202B03D114F8013F202BFBD020462021D2
:202B800010F0B6FB0F4F386018B1002300F8013B3860204600F090FF094B186038B10A4AE8
:202BA00000216F2311803380C1E70020DCE76846C021094A05F0CAFA68466C46A847BEE704
:202BC000740C00207C0C0020780C0020784301002C2B00207C4301004043010000F054BF8F
:202BE000074A106858B170B40648074E074D0024146031702B80006870BC01F0DBBC704731
:202C0000D40C0020B00C0020E02A0020C82A002030B50388B1B004465BB90D46074AC021E8
:202C2000684605F093FA6846A847054B05489B6A984700230320238031B030BD4C440100FE
:202C40000C7401007044010030B50388B1B004465BB90D46074AC021684605F077FA6846C8
:202C6000A847054B0548DB6A984700230320238031B030BD784401000C74010070440100FA
:202C8000F0B50388B1B0074623B1002303203B8031B0F0BD114A0D466846C02105F056FA71
:202CA0006846A8470E4802F059F806460028ECD0746823685BB1A368C0210A4A684605F058
:202CC00045FA6846A84754F80C3F002BF3D1304602F0A0F806460028EAD1D6E79C440100C5
:202CE000800C00205848010070B50388B0B0054623B1002303202B8030B070BD0C46374A87
:202D0000C021684605F022FA6846A047344BC0211B68344A344E684605F018FA6846A04751
:202D20003368C021314A684605F010FA6846A0473368002BDDD005F081FA064603F0FAF945
:202D4000C02103462A4A684605F000FA6846A047284BC0211B68284A684605F0F7F9684619
:202D6000A047264BC0211B78254A684605F0EEF96846A0476846C021224A05F0E7F968467B
:202D8000A04716B3311D2046FFF78EFE6846C0211D4A05F0DBF96846A047FEF7CDF91B4BD8
:202DA000C0211B681A4AC31ADB09684605F0CEF96846A04708F0F6FBC0210346154A68466B
:202DC00005F0C4F96846A04793E76846C021124A05F0BCF96846A047DFE700BFB44401008A
:202DE0008C1D0020C4440100841D0020DC440100F44401004C1E002008450100742B00204F
:202E0000204501003845010034700100F42B0020544501007C4501004C450100F0B50488CB
:202E2000B5B0074624B1002303203B8035B0F0BD0D4608F021FA18B102203C8035B0F0BDD9
:202E400007F03AFA0646C02104A8002E39D0204A05F07CF904A8A847306901F07FFF044676
:202E6000F288B38804A80092C0211A4A05F06EF904A8A847F4B1627D237D0092228AC021E0
:202E80000192628A04A80292134A05F05FF904A8A847A11D2846FFF707FEC0210F4A04A821
:202EA00005F054F904A8A847204601F0B3FF04460028E0D1304607F005FA06460028CBD18D
:202EC000B1E7074A05F042F904A8A847ABE700BFC4450100D44501000046010034700100DD
:202EE000A44501002DE9F0430788B3B00546002F29D188461446002A33D01678002E3BD11C
:202F000030463C4910F05AFA00282CD13A4E0123336014B12378002B39D1384C002323603F
:202F200002AF3368ABB1364B364AC02100923846354A05F00BF93846C047206806F09EF9E5
:202F4000306806F087F900232B80032033B0BDE8F08320682D492B4A2D4B002818BF0A463D
:202F6000E3E71646CCE730462A4910F027FA002838D1214E3060CCE71046202110F0B8F943
:202F8000002834D000F8017B26460446B8E72046202110F0ADF908B10023037020461549DC
:202FA00010F00CFA814658B902AFC0211A4A3846124C05F0CBF83846C047C4F80090B0E741
:202FC0002046144910F0FAF90028A6D02346134A02A8C02105F0BAF802A8C04700232B8026
:202FE0000220B3E7334602A8C0210D4AF2E72646044685E764460100B80C0020A80C00205C
:203000004C46010058460100C84601005C460100484601006846010088460100A8460100D0
:203020006C460100F0B50388B1B0054623B1002303202B8031B0F0BD0E46134AC02168466E
:2030400005F084F86846B047104C04F1600714F8023C227C0BB1012A03D92034BC42F6D1DE
:20306000E5E70B4AC021684605F070F86846B04730462146FFF704FD6846C021054A05F0F7
:2030800065F86846B047E8E7E44601005A2E0020FC4601003470010070B50388CAB006462E
:2030A00023B10023032033804AB070BD304A0D461AA8C02105F04AF81AA8A84709F042FE8B
:2030C00009F0F4FD0446C0211AA8002C49D0294A05F03CF81AA8A8472846211DFFF7D0FC19
:2030E000A3691AA8C0215BBB234A05F02FF81AA8A84709F065F900282BDD09F061F9C02116
:2031000003461E4A1AA805F021F81AA8A84709F021FA04460028C4D02246642101A809F0D4
:203120007BFAC021164A01AB1AA805F00FF81AA8A847204609F014FA04460028ECD1B0E78B
:20314000104A05F003F81AA8A84709F039F90028D3DC1AA8C0210C4A04F0F8FF1AA8A847DD
:203160009FE70A4A04F0F2FF1AA8A847C1E700BF00470100FC4601002C47010050470100E1
:2031800070470100104701007847010044470100F0B50388CFB006466BB91B4B0D461B7B65
:2031A00013B10CF021FD58B91EA8C021174A04F0CDFF1EA8A8470023032033804FB0F0BDFE
:2031C000134F386802F006F80446C0211EA8114A04F0BCFF1EA8A847002CECD02246782164
:2031E00068460CF0A7FDC0210B4A6B461EA804F0ADFF1EA8A8472146386801F0B3FF04468B
:203200000028EBD1D7E700BF703100208C4701007C080020A447010058480100F0B5038857
:20322000B5B0064623B100230320338035B0F0BD0C467D4AC02104A87C4D04F087FF04A8E9
:20324000A0472B7B04A8C021002B00F0DC806B7B774A04F07BFF04A8A047764B1B69984711
:20326000002840F0C88004A8C021734A04F06EFF04A8A047714AC02104A804F067FF04A822
:20328000A04720466E49FFF7FBFB95F85430C0216C4A04A804F05AFF04A8A0476A4AC02175
:2032A00004A804F053FF04A8A04720466749FFF7E7FB674AC02195F8403004A804F046FF27
:2032C00004A8A047AB7BC021032B96BF614A624B52F8233004A8614A04F038FF04A8A047C7
:2032E000AB681B8C002B00F094805D4A5A49012B0CBF13460B46C0215A4A04A804F026FFB0
:2033000004A8A047C021584AEB8A04A804F01EFF04A8A0472A7E454BFF2A16BF5B8B4FF077
:20332000FF335343C021514A04A804F00FFF04A8A04795F85E30C021032B96BF4C4A464B62
:2033400052F8233004A84B4A04F000FF04A8A047C021494A04A804F0F9FE04A8A047686C97
:20336000324F002857D00CF077FC01462046FFF787FB7B6C04A89B79C021404A04F0E6FEFF
:2033800004A8A047B5F84A30C0213D4A04A804F0DDFE04A8A047AA8AB5F848300092C02131
:2033A000384A04A804F0D2FE04A8A047EB7BC021354A04A804F0CAFE04A8A04795F85B20BF
:2033C00095F85A300092C021304A04A804F0BEFE04A8A047697C2A7CA87C0A448DE8060082
:2033E000029095F8573004A8C021294A04F0AEFE04A8A04717E704A8C021264A04F0A6FE61
:2034000004A8A04736E7244A04F0A0FE04A8A04709E7224B6FE704A8C021214A04F096FE36
:2034200004A8A047AEE700BFC847010070310020EC4701000C74010010480100204801005D
:203440008C3100202C4801003C4801009C3100204848010030510100B44701005048010000
:20346000C04701005C480100684801008448010020510100A8480100B8480100D0480100A4
:20348000EC480100FC480100184901002C4901005C49010000480100D8470100BC470100C7
:2034A000E448010030B50388B1B0044653B90D46074AC021684604F049FE6846A847054860
:2034C0000DF09AF900230320238031B030BD00BF9C490100704401002DE9F0410788B0B015
:2034E0000546002F3ED188461446002A5BD01678002E62D130464A490FF060FF002854D123
:20350000484E0123336014B12378002B5FD1464B0022FD2119805A809A80DA801A815A8175
:203520009A81DA813368414C13B3236998470646C0216846002E30D13D4A04F007FE684684
:20354000C04740463849FFF79BFAC021394A684604F0FCFD6846C047A36831463248984743
:20356000E368984700232B80032030B0BDE8F0812369984748B1C0212F4A684604F0E6FDF7
:203580006846C047E3699847ECE76846C0212B4A04F0DCFD6846C047E4E7294A04F0D6FDED
:2035A0006846C047DEE71646A4E7304625490FF005FF28BB1B4E3060A5E7104620210FF0C5
:2035C00097FE48B300F8017B2646044692E7204620210FF08DFE08B1002303702046124977
:2035E0000BF05CFA074600289CD12346C021164A684604F0ABFD6846C0472F800220B4E783
:203600003346C021114A684604F0A0FD6846C04700232B800220A8E7264604466AE700BFBC
:2036200064460100AC0C0020980C00200C740100E4490100084A01002C4A0100544A01002B
:20364000104A010068460100D0490100B8490100F0B50588B5B004460E46D5B1B5F5847FDC
:2036600012D1474D2B68464D1BB3464800F0E0FD68B12B68EBB1C021434A04A804F066FDCB
:2036800004A8B04700232B6000232380032035B0F0BD12B11378002B2FD1C0213B4A04A8D3
:2036A00004F054FD04A8B04700230220238035B0F0BD374AC02104A804F048FD04A8B047BE
:2036C00030463449FFF7DCF9334A344B15881F78FDF732FD2B4B4FF47A7219680097401AC2
:2036E00002FB00F0C00901902B4604A8C0212C4A04F02CFD04A8B047C6E710462021039276
:203700000FF0F6FD039A00B105701046214903920BF0C4F9039A054658B91346C021214A49
:2037200004A804F013FD04A8B0470220258035B0F0BD1D4AC02104A804F008FD04A8B0474D
:2037400030461449FFF79CF9C021184A04A804F0FDFC04A8B047164A164B1268084D0948AB
:203760004FF420711A602E6000F04EFD042309488021002208F0B4FD4FF48473238071E719
:20378000D40C0020C40C0020944A0100DC4A0100A04A0100840C0020C82A0020E02A00205C
:2037A000BC4A01006C4A0100884A010034700100080D0020B00C0020F0B5B3B00746C0218C
:2037C0000E4A02A80E4C04F0C1FC02A8B847256895B163681E68304600F052FC2B46019059
:2037E000C021084A009602A804F0B0FC02A8B84754F80C5F002DECD133B0F0BD084B010088
:203800007C060020184B01002DE9F0430688B3B00446002E4CD10F46154612B11378002BAA
:203820004CD1002000F00AFC4F4B002518602B46C0214E4A02A804F089FC02A8B8473846EA
:20384000FFF7BAFF00232380022034E0404620210FF04EFD08B100230370404601A90A2201
:203860000FF0A4FFDFF81491C9F80000002857D1019B984546D03368984216D0014628467A
:2038800000F0B8FB28463A490FF098FD002854D1D9F80030032B46DC08F00AFB02A8C021DA
:2038A000344A04F053FC02A8B8473846FFF784FF00232380032033B0BDE8F083104620212C
:2038C0000FF016FD814600283ED08046284608F8016B00F0B3FB244E2946306026480FF0BD
:2038E0006DFD10B133680133A1D0B8F1000F03D099F80130002BA9D1204B4FF0FF321A6016
:203900004FF000084346C0211D4A02A804F01EFC02A8B84700230220238033B0BDE8F0834B
:203920000428EFD8A7E708F0B3FA02A8C021154A04F00CFC02A8B847B7E728460E490FF070
:203940003DFD0028A4D0B0E7284600F077FB064E2946306008480FF031FD0028CCD03368FB
:203960000133C9D163E700BF940C00206C460100304B01004C4B01002C4B0100B40C002091
:20398000A8460100344B010070B50388B2B0064623B100233380032032B070BD0D4609F032
:2039A0003DFF0446C02102A8002C3ED0234A04F0CDFB02A8A847224AC02102A804F0C6FB4E
:2039C00002A8A847204609F021FF01462846FFF757F81C4AC02102A804F0B8FB02A8A847A4
:2039E000204609F015FF01462846FFF75DF8627C1549042A94BF51F822001448237CC02150
:203A0000134A009002A804F0A1FB02A8A847C021104A02A804F09AFB02A8A847204609F080
:203A200003FF04460028C6D1B3E70B4A04F08EFB02A8A84734800220AEE700BF804B010080
:203A4000FC460100984B01000C510100B4470100A04B010034700100644B010030B5038834
:203A6000B1B004464BB9074A0D466846C02104F06DFB6846A847FDF7D3FC002303202380BF
:203A800031B030BDB84B010010B5074C204601F061F92046054901F063F9BDE81040044849
:203AA000044908F05DBC00BF800C00204C060020BC0C0020E12B000070B505460D4801F021
:203AC0004DF9064698B17468206818B909E054F80C0F30B129460FF071FC0028F7D1204674
:203AE00070BD304601F096F906460028EBD1002070BD00BF800C002010B503880446442BB2
:203B00000CD0452B14D01BB100230380032010BDFFF764F844232380012010BD094B1B78E2
:203B20008B420DD162B10849002045230880238005480649FEF7F0FF0128EBD8002010BD6A
:203B4000012010BDE3320020D80C0020513B00000146014804F0D4BA2043010001480021D2
:203B600000F008BD5406002070B5684CFCF71CFBFDF796FA00F02AFD00F056FC6448002189
:203B800000F0F8FC00F046F9FDF716FC00F084FA00F06CFDFCF746FB01F0E2F901F004FE52
:203BA00000F084FB2368022B3CDC082259495A480FF056FA5948002100F0DCFC4FF0FF3011
:203BC00008F018FE23680546022B504E13DCFCF745FBFFF7C3FF524800F0C6F8FDF7FAFB2B
:203BE00000F03CFC0446FDF70DFC14F0FF0FF7D1FCF79EFBF4E74B494B4A4C4804F080FAEA
:203C00004B4804F07DFA3368022BE0DD002D7AD0A81C00F097F92368022BD8DD454804F078
:203C20006FFAD4E73F49404A404804F069FA424804F066FA2368022BB7DD3A493A4A3B48BB
:203C400004F05EFA3D4B3E48196804F059FA2368022BAADD3349344A344804F051FA394BCA
:203C60003948196804F04CFA2368022B9DDD2D492D4A2E4804F044FA344B3548196804F0D0
:203C80003FFA2368022B90DD2649274A274804F037FA304848F2A61104F032FA2368022B11
:203CA00083DD2049204A214804F02AFA2A48042104F026FA2368022B7FF777AF19491A4A8B
:203CC0001A4804F01DFA254B2548198804F018FA2368022B7FF769AF1249134A134804F0A6
:203CE0000FFA204804F00CFA2368022B7FF75DAF084800F037F92368022B7FF756AF0D4827
:203D000004F0FEF951E7284683E700BF74060020100700202C2B0020B42F00202008002056
:203D2000D8750100D437010058510100C43701003852010034700100605101000C74010020
:203D400094510100D4620100A4510100805C0100B0510100BC510100D8510100CA2A002025
:203D6000105201002052010010B50446006830B1002100F0FFFB54F8040F0028F8D110BDED
:203D8000F0B5038883B005465BB14A2B04D188291BD0012003B0F0BD00230380032003B086
:203DA000F0BD194800F0DAFF044630B1201DA16800F02AFA2468002CF8D1144B01221A701A
:203DC0004A2301202B8003B0F0BD0F48019200F0C5FF04460028F3D0019A031D9A4205D00B
:203DE0002468231D002CEBD09A42F9D10648214600F0FAFF064E6269A369376832600BB1B4
:203E0000E06998473760DBE7DC0C0020E12A0020080D002010B5064B002406481C7000F0B5
:203E200099FF2146BDE81040034800F0A3BB00BFE12A0020DC0C00206406002070B504460A
:203E40000D48049D0078A261E361656130B9A1600A482146BDE8704000F082BF084D094B15
:203E60002E68201D2B6000F0CFF92E602146BDE87040024800F074BFE12A0020DC0C002042
:203E8000080D00206406002010B5044C82B024680094FFF7D3FF02B010BD00BF080D0020C1
:203EA00070B5094B04461B783BB1084D084B2E6804302B6000F0B2F92E602146BDE87040DE
:203EC000044800F04DBF00BFE12A0020080D002064060020DC0C002010B50A4B04461B78F2
:203EE0003BB9C36003612146BDE81040064800F07BBF043000F0B4F92146BDE810400248FC
:203F000000F072BFE12A0020DC0C002038B50B4B1D785DB904460A4800F020FF10B90AE001
:203F2000006840B18442FBD1002038BD0430BDE8384000F07DB9012038BD00BFE12A00200A
:203F4000DC0C002000B58BB00246282168460AF011FE6946024804F0D3F80BB05DF804FB5A
:203F600020430100D0B170B5054601260024C4B1E30709D50D48297804F0C2F8082E0CD0AE
:203F8000013601350134F2E7094804F0B9F80748297804F0B5F8082EF2D170BD054804F0B8
:203FA000AFB82978014804F0ABF8E9E738430100344301002443010090B110B50A4904464A
:203FC00001F008FC20B1BDE81040084804F098B8E188074849BA89B2BDE8104004F090B86B
:203FE000024804F08DB800BF8C5301009C520100A4520100042900D97047F8B506460D46B0
:204000000C4831460FF0DAF90B4C0746216851B157B9A3686268AB42A8BF2B46136054F86B
:204020000C1F0029F4D1F8BD30460FF0C7F90028EFD0F4E72C4B01007C060020D0B1F8B573
:204040000E4F396899B106463D46002403E055F80C1F013459B130460FF0B0F90028F6D17E
:2040600004EB440407EB840463681868F8BD4FF0FF30F8BD4FF0FF30704700BF7C060020E6
:2040800004289ABF024B53F820000248704700BF6C520100AC520100704700BF10B50E4CD0
:2040A0002368B3B1FDF748F822685168136892681944091A4AB192E8180023441B1A926882
:2040C000994228BF1946002AF5D1044B0844186010BD024A136010BD000D0020040D002005
:2040E0002DE9F041038805467BB1592B08D1872912D0822920D059232B800120BDE8F0818F
:20410000002303800320BDE8F081254A0120136059232B80BDE8F081214F3B68002BEAD088
:20412000D9688A4203D024E0D9688A4220D19B68002BF9D13B60DEE7194F4FF000083C68F2
:20414000002CD8D0002604E0A3682646002BD2D01C46204600F07CFA0028F5D0E068882131
:20416000224600F0DBF978B10E4800F023FAEBE73B6099680029BED0C86882420BBF8968B3
:204180000B4699608968F5E7E060A3682EB1B360C4F80880FFF782FFD1E73B60F8E700BF1F
:2041A000000D00201007002010B50446104800F001FA1049E3680A684BB142B194420FD08F
:2041C000134601E09C420BD09B68002BFAD10A4BA2601B680C60E360BDE81040FFF75EBF62
:2041E000054B1B68E360BDE81040FFF757BF00BF10070020000D0020080D0020014800F017
:20420000D9B900BF1007002010B5044600F00AFA2046BDE81040FFF7C7BF00BF10B504466E
:2042200000F008FA2046BDE81040FFF7BDBF00BFC068B0FA80F04009704700BF024B186832
:20424000003018BF01207047000D0020024B186808B1024B18687047000D0020040D0020EA
:2042600010B5114B04461A68904218D05AB19368834208BF13460AD02BB19A68A24206D03A
:204280001346002BF9D10023A360E36010BDA2689A60FFF703FF0023A360E36010BD82687E
:2042A0001A60FFF7FBFEEEE7000D0020034A04499079D37903EB00230B8070472C2B0020DA
:2042C000CA2A002010B541600446FCF76DFF206010BD00BF10B50446FCF766FF94E80A00C2
:2042E000034A0B44C01A90428CBF0020012010BDFEFFFF7F2DE9F843DFF8A480274DD8F812
:2043000000702E68874247D077B33B4601E0002B3BD01B689842FAD133B3837B89460446D0
:2043200023B3002383736FB1BC424FF0870106D0BB7BDB0703D53846224600F033F83F683B
:20434000002FF1D1A3683BB14C4505D02C6004F10C00832100229847D8F80000844208D16E
:204360002368C8F800302E60BDE8F88338468442F6D00028F7D00368A34208D0002BF2D006
:204380001A68A24204D01346F8E7BDE8F883034622681A602E60E7E73B46BDE7080D002088
:2043A0000C0D002070B586687EB104460A4802230460A37304F10C000D46B0470238012899
:2043C00004D9832D02D00123A37370BD20462146BDE87040FFF78EBF080D002070B50C4A02
:2043E0000C4B146800251D7084B1012601E0246864B1E37B002BFAD0A673E573204682218D
:204400000022FFF7CFFF2468002CF2D170BD00BF0C0D0020E42A0020024B1878421C1A7023
:20442000704700BFE52A002070B407480749084A0023084D084C8A2603700B6013602E7057
:20444000237070BC704700BFE32A00200C0D0020080D0020E52A0020E22A00202DE9F041EA
:20446000244D2B780BB1FFF7B9FF234E3378D3B1DFF890E0214F9EF80020013B02EB420145
:2044800089007C180132A068DBB202F01F0233708EF800207F5CD4F8048098B1812F06D0E1
:2044A000827BD20705D428781844BDE8F0810123837339464246FFF775FF33782878184409
:2044C000BDE8F0810E4A146834B9ECE7A37BD9070AD42468002CF0D02B78002BF6D0FFF754
:2044E0007DFFA37BD907F4D5204639464246FFF759FFEEE7E42A0020E32A0020100D002051
:204500000C0D0020E22A0020024A034B10781B7818447047E32A0020E42A0020F0B40C4D16
:204520002C78202C11D00B4B0B4E1B78671C234403F01F0303EB43039B00F418A0606260CC
:204540002F70F1540020F0BC70470120F0BC7047E32A0020E22A0020100D002038B5837BEF
:20456000034CDB07256801D5FFF71CFF256038BD080D002070B404460D4D2868A04206D0D7
:2045800038B1034600E023B11B689C42FBD170BC7047002CFBD0012600232060A673A38127
:2045A0000A4620462C60812170BCFFF7D7BF00BF0C0D002038B1837B013B012B03D8024AF1
:2045C00001231370C3737047E42A0020FCF7F8BD38B5094C049D226822B180E82A0020601F
:2045E000002038BD024680E82A0008462260FCF7E9FD002038BD00BF900E002010B5084C78
:20460000206858B100224368816822609847236823B1BDE810401868FCF7D4BD10BD00BF0E
:20462000900E002010B541600446FCF785FD206010BD00BF10B50446FCF77EFD22686168BB
:20464000C2F101031844884284BF5218226010BD10B50446FCF770FD23686268C3F1010305
:20466000184482422CBF0020012010BD00B50B4B83B001A90A4A99421160019388BFCD20D1
:2046800005D95A1C01921870019B8B42F9D305480021FFF76FFF03B05DF804FBE532002066
:2046A000940E00202007002038B5134CFCF7AAFE2378124DCD2B08D0AC4202D316E0AC4299
:2046C00014D014F8013FCD2BF9D1AC4202D30DE0AC420BD014F8013FCD2BF9D0FCF792FEDF
:2046E000AC42064804D2001B80B238BDFCF78AFE4FF6FF7038BD00BFE532002000500020DC
:2047000070B5038804465BB1902B05D11848FFF78FFD70B9012070BD00230380032070BDB3
:2047200013484FF4A061FFF76FFD90232380012070BDFFF7B9FF0F4D0F4B06465D1BADB24D
:20474000A8420DD90D4B1B68002B09DD0C490D4A0D4803F0D5FC31462A460C4803F0D0FCDE
:204760000348FFF75BFD90232380012070BD00BF980E0020E5320020005000207406002036
:204780003453010038530100C43701004053010010B5044690F84C308021013384F84C3095
:2047A00020302346054AFFF76FFB054B2246BDE8104019780020FFF7B1BE00BF9147000037
:2047C000E132002070B5038804464BB1CB2B03D1822909D0012070BD00230380032070BD1E
:2047E000CB232380012070BDFDF7CCFFBFF35F8F104B00221E681A60BFF35F8F0E4DFDF70F
:20480000C9FF286820B9EBE755F8040F0028E7D090F8453026FA03F3DB07F5D5FFF776FB30
:204820000028F1D0286802210346044AFFF72CFBEAE700BFB40E0020F00400207D480000DD
:20484000034A1368034303481360FFF7B3BE00BFB40E00203007002010B5044690F8450051
:20486000FDF704FA10B994F8440010BD012806BF94F8440080F00100002010BD70B5044655
:20488000FFF744FB00B970BD04F120052846FFF73DFB06462046FFF7DFFF01280ED0002892
:2048A000F1D1002EEFD12846FFF716FB0A4B30462246BDE870401978FFF730BE002EE2D0F6
:2048C00000262346284684F84C607E21034AFFF7DBFA034BEBE700BFE03200209147000013
:2048E000E23200202DE9F843FFF796FD244B254C1870FFF791FD244BDFF8A0801870FFF7DA
:204900008BFD224D2368224A00212870C8F80810C8F8042053B3DFF888901E4F0126D9F8DA
:2049200000209D6C926B93F845009047236845F08C05294693F84500FDF75EF92268D9F874
:20494000003092F8450006FA00F23A601B6B98472368D8F8082093F8451054F8043F06FA75
:2049600001F10A43C8F80820002BD8D10A480021FFF700FEBDE8F843084800F083B900BFBA
:20498000E2320020F0040020E0320020E132002041480000E020024030070020A80E002072
:2049A000B4010010F8B5048805466C2C0CD07E2C1BD01CB1002303800320F8BDFFF72CFD3B
:2049C0001E4A1F4B10701C601D4C264604E00A2813D023687E2B2BDD1A4800F0ADFA431CA7
:2049E000F5D16C232B800120F8BD852901D00120F8BD134C00232360E6E7114C124F236871
:204A00000E49002603F1010E3A4609783046FE54C4F800E0FFF782FD0C4B32461868852147
:204A2000FFF77CFD0028E5D17E232B800120F8BD05495A1CC8543260CEE700BFE3320020EC
:204A4000C00F0020380F0020400F0020080D00200D281FD010B5104C0146237833B10A281F
:204A600010D00E48FFF7A6FD012010BD0C4800F04BFA0028F5D1012308482370FFF79AFD6E
:204A8000012010BD064800F03FFA0028E9D000232370E6E700207047E62A002040070020DF
:204AA000380F002008B505480549802200F024FABDE8084003480021FFF75CBD380F0020B8
:204AC000B80E00204007002010B1837A012B01D901207047FDF76EBE10B1837A012B01D909
:204AE00001207047FDF706BF10B50446FDF756FE08B9042010BDE178024A01238B40136015
:204B0000002010BDA0200240C178034A01238B4013600020704700BF9020024010B584B03D
:204B20008DF80F1010B1827A012A02D9012004B010BD0446FDF732FE10B9032004B010BD91
:204B400000232046009301930DF10F010122FDF721FFECE780B170B5847A82B0012C02D9FF
:204B6000012002B070BD044615460E46FDF716FE20B9032002B070BD0120704700232046F8
:204B800031462A4600930193FDF704FFE9E700BF80B170B5857A82B0012D044602D9012086
:204BA00002B070BD16460D46FDF7F8FD20B9032002B070BD012070470021009620462B463D
:204BC00001910A46FDF7E6FEEAE700BFF0B40E4C0E4F22460E4E0023012540FA03F1C90725
:204BE00006D5517851B114F8131005FA01F1316002320BB1F0BC70470123EEE714F81310E3
:204C000005FA01F13960F3E72438010090200240A0200240F0B40E4C0E4F22460E4E00239D
:204C2000012540FA03F1C90706D5517851B114F8131005FA01F1316002320BB1F0BC7047A6
:204C40000123EEE714F8131005FA01F13960F3E724380100A02002409020024038B5074D36
:204C6000074C2B682078DB6B98472B68A078DB6B9847BDE838400320FFF7CCBFB40100103B
:204C8000243801000146014800F06AB8C40F002038B50546074800F061F8044640B1A0680F
:204CA000284002D0636803B198472468002CF6D138BD00BFC40F0020014800F04BB800BF3B
:204CC000C40F0020002301390170437083707047417883780278CB1A13409A4204D001316E
:204CE0000A4042700120704700207047427883780078D31A0340984214BF10464FF0FF303B
:204D0000704700BF0346807859781A78091A11421DBF411C0A409A704FF0FF30704700BF92
:204D20008278437801789B1A0B4214BF10464FF0FF3070474378827800789B1A1840704704
:204D40004378817802785B1A13420CBF01200020704700BF00230360704700BF00687047BE
:204D6000026842B1914203D11BE099420ED01A461368002BF9D100230B6002680AB90EE002
:204D80001A461368002BFBD1116070470B68136000230B6000230B600268002AF1D1016060
:204DA00070470B680360F3E710B404684CB1A14217D0224602E0994208D01A461368002B92
:204DC000F9D10C6001605DF8044B70470C460B6813600023236004680C6001605DF8044B26
:204DE00070470B680360F4E7026842B18A4203D10BE0994204D01A461368002BF9D170472D
:204E00001968116000221A607047134612680260F8E700BF00B10068704700BF10B50446DC
:204E20000021628840680EF0F5F923886288A06802FB03F2BDE8104000210EF0EBB900BFCD
:204E400030B44588BDB141680B7863B14A1C002303E01478114601322CB10133AB42F8D1AA
:204E6000002030BC704701220A700288806830BC03FB020070472846F3E700BFF0B4458845
:204E8000074682686DB18A420ED006880023324402E0914209D022460133AB4202EB0604DE
:204EA000F7D1FF20F0BC704700237A68D05C0028F8D00138D0547A68F0BCD05C704700BFFA
:204EC00083688B4208D84288008800FB023081422CBF00200120704700207047418849B17B
:204EE00043680020194413F8012B02B901308B42F9D17047084670470023013A01600271E2
:204F000043718371704700BF10B44479827903460079A21A024090420AD01A680120115582
:204F20005A79197902440A405A715DF8044B704700205DF8044B70470346807959791A7934
:204F4000091A114208D010B4411C1C680A40205C9A715DF8044B70474FF0FF30704700BF4E
:204F600008B50448FFF75AFFBDE808400248FFF755BF00BF5C0700205007002038B50F489B
:204F8000FFF75EFF044688B10D48FFF759FF0546206060B100F092FA05F19C01A5F8800090
:204FA00005F1820000F08EFB204638BD38BD21460248FFF763FF284638BD00BF500700200E
:204FC0005C07002010B5044607482146FFF778FF00B910BD21680548FFF750FF2146BDE86F
:204FE00010400148FFF74ABF500700205C07002010B5044609482146FFF762FF00B910BD7B
:205000002468B4F88010204600F03CFB04F1820004F19C01BDE8104000F066BB50070020B5
:2050200010B5044603482146FFF74AFF00B1206810BD00BF500700200368B3F880007047E7
:20504000006800EBC1003430704700BF036803EB4101B1F882007047F9B1EAB130B4CD6887
:205060004C68521B92FBF4F2541C18D053B90C68835C012101FA04F423EA04038354084697
:2050800030BC70470B68845C012101FA03F32343835430BC0846704711460846704700215C
:2050A000EDE700BF38B50F4D002818BF05460E48FFF754FE044650B12846211D00F08AFBC0
:2050C00040B92046FFF7A6FE04460028F4D14FF0FF3038BD054B06489B68E41AA41000FBEF
:2050E00004F038BD8C5301007815002068070020ABAAAAAA78B179B1C2684368891A91FBAB
:20510000F3F14B1C06D0054A0368505C184100F00100704700207047084670473C160020B9
:2051200010B10368072B0ED90C4A1368072B12D830B40B4D5C1C03608160146045F8230071
:20514000012030BC7047064A52F823309842EBD18160012070470020704700BF6C16002017
:205160004C160020F8B507460C46184D184E1FB344B3FB687868E41A94FBF0F4611C04EBAD
:20518000440421D0AB6803EB8400FFF743FEB0B1AC68001B841006FB04F35A1C0FD07C68C5
:2051A000FA6804FB032454B138462146FFF7A2FF0028DCD02046F8BD3846FFF72BFE002436
:2051C0002046F8BD2046E0E70020DEE768070020ABAAAAAA38B505461148FFF7BFFD0446DD
:2051E00068B1104A104B9268841AA41003FB04F4A5B1631C10D06B68EA6803FB0424284631
:205200002146FFF777FF08B1204638BD28462146BDE83840FFF7A6BF0024F0E72C46EEE718
:205220007815002068070020ABAAAAAA2DE9F04F6C4D85B0002918BF0D46044628461F46D6
:205240009146FFF72FFF431C064612D05CB36268E36802FB0636002130460DF0DBFF214694
:20526000614832460123FFF7F7FE304605B0BDE8F08FDFF888814046FFF7E2FD0646A8B1CF
:2052800007465A483946FFF76BFDD8F80820584BB61AB610381D294603FB06F600F096FAD3
:2052A0000CB1731CD3D162680026D4E7484639460DF006F900287ED0FFF7F4FE471C4ED06B
:2052C000D8F808204B4B00EB400A12EB8A07195C019744D000293BD1434BC2EB070A029346
:2052E0000395019E5546DFF818B1A24614E084680CB33F4B03FB07F77A1C1BBF4168C268EC
:205300004FF0000901FB07294946FFF7F3FE01280BD0394B9B4510D05BF8040FAF1000280E
:20532000E5D1334B03FB07F7F3E74846A047D8F80830019AD51AAF10F3E70199029A00236A
:205340002A48D3555446039D0F46FFF74DFD98E71E54019BC2EB030A234B0293C0E7234888
:20536000FFF7FCFC019030B34FF0000BD946214F1F4E019802E0FFF74DFDF0B1D8F8083021
:20538000C3EB000A4FEAAA0306FB03F3FA5C002AF1D11549CB5C0291DBB1D90748BF013278
:2053A0005B10FAD1B9F1000F01D09345E3DDB2B193468146DFE7002657E7B9F1000FFAD0E5
:2053C000D8F80820084BCDF804900293C2EB090A86E7B9F1000F02D0BBF1000FCBD00190F5
:2053E0007EE700BF8C5301003C16002078150020ABAAAAAA68150020681600206807002017
:205400004816002038B505460846FFF74BFE85B1431C0CD06C68EB6804FB003428462146A9
:20542000FFF768FE002814BF2046002038BD0024F4E72C46F2E700BF70B505460C460023AC
:20544000294622460548FFF707FE06462946224600230348FFF700FE304670BD3C16002093
:205460006815002003460A46024819460123FFF7F3BD00BF6815002003460A4602481946E5
:205480000023FFF7E9BD00BF6815002088B189B1C2684368881A90FBF3F0431C08D0064B11
:2054A00000EB40009B6813EB800002D004307047002070470846704768070020F8B50E4D10
:2054C0000E4C2A7823881344802B01DD0020F8BD06460B4F39460DF0C3FD0A4B29781B7805
:2054E00070181944C9B2394422880DF0B9FD287823881844F8BD00BFE72A0020CC2A002010
:2055000070160020CE2A0020F0B4114B114F1B783E78114A33441288DBB213449BB21A1855
:20552000802A12DC013B9BB21AB2002A08DB0B4C2518A15C013B9BB2A9541AB2511CF8D158
:2055400030443870F0BC012070470020F0BC7047CE2A0020E72A0020CC2A00207016002023
:20556000084A138883420BDB10B4074C80B221881B1A13800844208001205DF8044B704771
:2055800000207047CC2A0020CE2A0020014B1880704700BFCC2A0020044B054A1B781278DB
:2055A00004481344DBB21844704700BFCE2A0020E72A002070160020004870477016002055
:2055C000014B1888704700BFCC2A0020034A044B10781B781844C0B2704700BFE72A002027
:2055E000CE2A0020054A064B10781B78054A03441088DBB2184480B2704700BFE72A0020E8
:20560000CE2A0020CC2A00200649074A074B127808781B881044C3F18003C0B2181A80B25C
:20562000704700BFE72A0020CE2A0020CC2A002038B5094D094C00211A2209480DF0EAFD6B
:205640002846214600F0C2F805F108002146BDE8384000F0BBB800BF002B00208C530100FC
:20566000102B002004480549054A002303800B801370FFF7DDBF00BFCE2A0020CC2A0020B3
:20568000E72A0020802928BF802170B50C4606460849094A094D00230B8013702B80FFF719
:2056A000C7FF3146224606480DF0DAFC2C80204670BD00BFCE2A0020E72A0020CC2A0020C7
:2056C0007016002010B50C461A2205490DF0C8FC2046BDE81040034910220DF0C1BC00BFB0
:2056E000102B0020002B0020034610B50C461A22194605480DF0B4FC2146BDE81040034868
:2057000010220DF0ADBC00BF102B0020002B0020024B23F810100120704700BF102B002012
:20572000014B33F810007047102B002008B5044B0D3803EBC00000F049F8012008BD00BFFB
:20574000002B0020024B0D3803EBC000704700BF002B00200148024900F03CB8082B002032
:205760008C53010070B505460E480E46FFF7F6FA044660B1012D0CD01DB963680BB19847A8
:2057800070B92046FFF746FB04460028F2D1002070BDA368002BF4D0304698470028F0D08A
:2057A00070BD00BFF0160020054B10B51B689847044B5B689847BDE81040034B5B6818470A
:2057C000FC380100805C0100D462010008220DF047BC00BF08B508220DF010FCB0FA80F08D
:2057E000400908BD08B50848FEF75AFB0748FFF7F1FC40B1037A01465B0803720348FFF744
:20580000B1FC0028F6D108BD342B00207407002001460148FFF7F6BD7407002080B110B543
:205820000446FBF789FC2368C01AB0F5963F05D2207A032894BF0020012010BD002010BDDE
:2058400000207047F8B5074614460E4659B3022900D0F8BD34483946FFF7D4FD05460028D8
:2058600031D0FBF769FC2B7A28602344102BA8BF10232B720C342846FFF7D0FFAA880028FD
:2058800014BF5A234B2302FB03F24FEAC414A4B214BF0A21192104FB01232448A0FB032369
:2058A0005B09AB80F8BD20483946FFF7ABFD054648B1FBF741FC2B7A28602344102BA8BF76
:2058C00010232B72D7E73946174809220023FFF7ADFC05460028BCD0C38813B31BB26FF033
:2058E0003B029342A8BF13466FF058029342B8BF13464FF470625A3392FBF3F39BB2B3F56E
:20590000C07F28BF4FF4C073AB80FBF715FC2B7A28602344102BA8BF1023022E2B72AAD10C
:20592000A8E74FF48073EFE7740700201F85EB5138B505460420FFF7F3FE294684B21D4804
:20594000FFF760FD80B122B2B0F9061002EB82025A23520003FB01221749D31781FB0212F5
:20596000C3EB6212C28038BD0346294611480922FFF75CFC0028F6D0C480C4B122B26FF06A
:205980003B039A42A8BF1A466FF058018A42B8BF0A464FF4706102F15A0391FBF3F39BB2B8
:2059A000B3F5C07F28BF4FF4C073838038BD4FF48073FAE7740700201F85EB5110B5084804
:2059C000FFF708FC044650B121460548FFF734FD21460348FFF7C6FB04460028F4D110BD3A
:2059E0007407002010B500210548FFF799FBBDE8104004484FF4E131034A0023FEF744BA56
:205A000074070020342B0020E5570000F8B5FBF793FB104F06463C4600250D20FFF792FEFE
:205A20002146FFF7D7FE103420B90135102DF4D10020F8BD0720FFF773FE07EB05152B7BCA
:205A40008342F5D1A868301AB0F5206F8CBF00200120F8BDB4170020F8B5194F00243D4645
:205A60000D20FFF76FFE2946FFF7B4FE18BB0134102C05F11005F3D112480F24013C07EBB0
:205A8000041600E0013C314610220DF0E9FA3046103E002CF6D10720FFF742FE3873FBF795
:205AA0004BFBB8600D20FFF74DFEBDE8F84001460348FFF78BBE002CEDD02846DEE700BF91
:205AC000B4170020A4180020844618B1084611461A466047704700BF032913DD92B110B427
:205AE00013889278C3F30B030AB143F400431C0A02210F228370C470017042705DF8044BA0
:205B0000042070474FF0FF30704700BF012906DD2AB100223F2302704370022070474FF01D
:205B2000FF30704701290CDD5AB193880222C3F30A03A3F5F0439BB2190A037041701046AA
:205B400070474FF0FF32FAE7072916DDAAB1034630B491680625817091681A24090AC17002
:205B6000518908201971D17A5971117B9971127C1D70DA715C7030BC70474FF0FF307047F4
:205B8000002A43D0F0B492F82E3092F82A5003EB8304043405FB04F4012D04F1010630DC5D
:205BA000042B2EDCA71C8F422BDA012D857006D01B220670E31C4270F0BC1846704792F86B
:205BC0002B10C170918D0171918D8371090A4171002BEDD0014603EB430302EB4303158EB9
:205BE0000632CD71558D05312D0ACD70958D0D71958D2D0A4D7192F82E509A428D71EED14B
:205C0000D6E74FF0FF331846F0BC70474FF0FF331846704730B402B3537C002B0BBF02248C
:205C20001A2401251925A14217DD8370537C6BB1014602F11003283233F8024F02314C70FB
:205C40001C8893424FEA14248C70F5D11C23057043700235284630BC70474FF0FF35F9E796
:205C6000DAB3F8B5B2F84A30042B33D892F848E0BEF1000F2AD10223012799422ADD0446A8
:205C80001546002680F802E0C670067146718671C67106724672B2F84A3002F14C01A372EE
:205CA000B2F84A300C301B0AE372B2F84A200DF0D7F9B5F84A30C82223441E73B5F84A30F9
:205CC000B81C23445E7327706270F8BD03F10C070D33D2E74FF0FF30F8BD4FF0FF30704752
:205CE0002DE9F04717462AB30025D570002900F0178101291ED98046A9462E4604464278B4
:205D000014F8023B023943EA0223012D9AB25FFA81FA4FEAD33357D035D3022D0ED030466E
:205D2000F1B2C1EB0A0111F0FF01204400F0F0800129E3D14FF0FF30BDE8F087002B53D08E
:205D4000C2F30A065645C2F3C322F3D8092AF1D1002EEFD08378012E87F8483007D0C27A68
:205D6000837A43EA0222042AA7F84A2073D96FF001039B1B9944B9F1000FDBDB3046F1B2D4
:205D800008BF0125CDE7002BD4D1C2F3C7137E2B02F07F0655D07F2B46D05645CAD81E2B78
:205DA000C8D1022EC6D1C278837843EA0223D90B9AB2B97011054CBF42F47043C3F30B03D5
:205DC00002213B800846ACE7002BB3D0C2F3C323012BC2F30A022ED00F2BABD1002AA9D176
:205DE000C8EB0400BDE8F087D6B25645C2F30622A0D81B2A50D01C2A38D01A2A9AD1062EC2
:205E000098D18378BB60C27843EA0223BB60027943EA0243BB60427943EA0263BB608379F0
:205E20003B73C3793B74A2E7002E83D1C8EB0400F870BDE8F0870021914608460E460225C2
:205E40006FE7002E7FF476AFC8EB0403FB7031463046012565E702F10C039E4287D100F177
:205E60000C0107F14C000DF0FBF880E7012E54D0192E7FF45FAF0346827807F110017A7425
:205E800007F1280E1879DA78023342EA002221F8022F7145F6D16AE7002E3FF44BAF827801
:205EA0008379002A3FF463AF012A7FF443AF042B3FF740AF03EB83014A1D96427FF43AAF86
:205EC000012287F82A20C27887F82B2090F805E0027942EA0E22BA85827987F82E20002B5C
:205EE0003FF445AF3B46014490F808E0C279053042EA0E221A8690F805E00279063342EA8C
:205F00000E229A858279884283F82E20ECD12EE7C8EB000045B1BDE8F08783787B7426E716
:205F20000846F970BDE8F087C1B2FAE730B591B0FFF732FB0446FFF743FB6A460146204616
:205F400000F0FCFA98B30446FFF70AFB78B30C209DF81010FFF7DCFB9DF817308BB1BDF825
:205F60001C5000F0E7F8854205D04FF6FF73BDF81C209A421BD19DF81700694600F0A6F9F0
:205F8000C8B10D2002A9FFF7D1FB9DF81530072033B14FF6FF71FFF7BBFB204611B030BD94
:205FA0009DF81A10FFF7B4FB204611B030BD4FF0FF3011B030BD69460E20FFF7B7FBE0E701
:205FC000F8B5054660B3144652B30C200E46A84700232074A37426B30122E37462750920C7
:205FE000A847002702232376A07567740720A847A07600F09FF8E0830A20A847012816BFB0
:2060000003236776637600F095F8A0830B20A847012813D056B10223E37501232375F8BDE9
:20602000F8BD0820A8476675E074D8E70323E375637E022BF1D000232375F8BD0023E3756E
:20604000F6E700BF30B591B0054600F073F84FF6FF73984258D04022684600210DF0DAF81F
:206060002D4B1A7822B35DBBFFF774FB6A46C1B22A48FFF7A5FFFFF76DFB00283CD0FF23E1
:206080008DF800308DF801300D20FFF75BFB014602A8FFF79BFBFFF77FFA0E90FFF790FA12
:2060A0000F90684600F06EF90446CDB911B030BD01221A70FCF73AFA194B1870002DD3D02E
:2060C0000720FFF72DFB0028CED1154C2178F1B189B20720FFF71CFB237801332370C3E79D
:2060E000FFF712FA80B1FFF767FA0146684600F095F9204611B030BD0E20FFF723FB014606
:206100006846FFF763FBBFE74FF0FF30CEE7012319462370DDE700BFE92A00202157000070
:20612000E82A00200120FFF78DBF00BF0020FFF789BF00BF014B1888704700BFCC08002098
:20614000014B1880704700BFCC080020B8B1037A30B4022B14D00378022B1DD00379F3B959
:20616000447A14F0030418BF0124C37913F0030318BF012301B10C6002B1136030BC704733
:20618000C579447A037965B1B4B1032D29D1032C31D0022C16D0D3B100231C46EAE70024A0
:2061A000E3E70CB9012B23D0002BF5D1023C012C8CBF00240124DDE72BB1032D11D1234626
:2061C0000024D7E7A3B90DB90123EFE70123022DECD0032DF4D1A4F10204B4FA84F464098F
:2061E000C8E7022DD5D1002CECD143B12346C1E701230024BEE7002BE8D00023E0E723460A
:20620000D4E700BF30B50D460446002183B0284606220CF0FFFF637DD9075CBF01232B7004
:20622000237E012B23D904F11000694601AAFFF78DFF009B0BB10223EB70019B0BB1022360
:206240006B70E37D03F00303022B03D0032B0CBF08230023AB70637E03F00303022B03D0CE
:20626000032B0CBF082300232B7103B030BDE37D9A0706D0637E9B0703D0E28BA38B9A42F7
:2062800002D000232375CEE701232375CBE700BF10B5002182B0019178B1044601AA103087
:2062A000FFF754FF019B43B1074AA38B12889A4206D04FF6FF72934202D0002002B010BD3E
:2062C000012002B010BD00BFCC08002002280CBF022308230B4403E013F8012DFF2A03D1BE
:2062E0008B42F9D10120704700207047002844D0B0B50446637E1746084663B1022B38D098
:2063000004F1080108228B1803E013F8015DFF2D1AD18B42F9D110B11949FFF757FAE37DEE
:206320005BB1022B0CBF02220822A31803E013F8011DFF2913D1A342F9D14FB138461049B2
:20634000FFF744FA0120B0BD082A03D00020B0BD0120B0BD0028E2D0FFF738FADFE7082A61
:20636000F4D1002FF4D038462146FFF72FFA0120B0BD1A4604F10801C5E70020704700BF33
:206380008C53010000B583B06946FFF73BFF9DF800309DF801109DF8022002330B449DF81B
:2063A000031013449DF804200B449DF805001344184403B05DF804FB70B4857843780478BF
:2063C00005F00102C678150103F0010245EAC202037904F00704144306F0010244EA42123B
:2063E00003F0010342EA83130B704479437A8579C27904F0010444EA831405F00105037A80
:2064000002F0030244EA450040EA820203F0030342EA03134B7070BC704700BFF0B50C46D5
:20642000074683B06946FFF7EDFE07F110002146FFF7C2FF9DF80030012B02BFBB7E032018
:20644000A3709DF8013018BF0220022B2ED09DF802E0BEF1000F0ED0034600EB0E02D2B264
:2064600007EB0E0111F8016D5D1CE654EBB29342F8D17044C0B29DF80330022B20D09DF816
:2064800004E0BEF1000F0FD003460EF1080200EB0E063A44F6B212F8015D591CE554CBB271
:2064A000B342F8D17044C0B203B0F0BDBA8B431C2254BA8BDBB2120A0230E254C0B2C6E709
:2064C000FA8B431C2254FA8BDBB2120A0230E254C0B2D4E72DE9F0470278437884B0C2F334
:2064E000001CC2F3401E02F00709C2F3C008C2F3801403F0010AC3F34007C3F38106C3F3B7
:20650000011508469B0901A90A228DF804908DF805808DF806C08DF807E08DF808408DF871
:2065200009A08DF80A708DF80B608DF80C508DF80D300CF095FD04B0BDE8F087012950DD6B
:206540002DE9F041144686B00F4603A90546FFF7C1FF03A904F110000A220CF081FD9DF876
:206560001130002B39D0AE1C03A801A902AAFFF7EDFD9DF81380B8F1000F43D0029B002B40
:2065800034D0727816F8023B03EB0223A383B8F1020F56D0B8F1030F3BD09DF81580B8F110
:2065A000000F27D0019BF3B1717816F8023B029A03EB01239BB2E383D2B1B8F1020F4AD0A9
:2065C000B8F1030F31D0701B3B1A8742B8BF0020A663E36306B0BDE8F081AB78EE1CA3765E
:2065E000C2E700207047A38BE383E6E7A383CEE7A383E2E704F108001C49FFF7E7F8A4F81D
:206600001E80E0E720461949FFF7E0F8A4F81C80C3E706F108000346621E13F8011DB342B7
:2066200002F8011FF9D10646B7E708363246E31D04F10F0012F8011D03F8011F8342F9D100
:20664000C1E720460949FFF7C1F87378237016F8023B6370A1E704F108000449FFF7B6F819
:206660007378237216F8023B6372ACE78C53010030B504461A4A83B01068002301902046AF
:206680008DF800308DF80130FEF72EFA10B1FE2003B030BD01A920460422FEF75BFA28B19A
:2066A0002046FEF731FAFF2003B030BD204669460222FEF76DFA05462046FEF725FA0DB17D
:2066C000FF20E5E79DF80030C22B01D02846DFE79DF80100A0F11400B0FA80F04009D7E7BC
:2066E000A053010030B5052383B08DF804300446FEF7FAF940B9204601A90122FEF72AFA36
:2067000048B12046FEF700FA002003B030BD9DF80730DB0708D520460DF107010122FEF75C
:2067200037FA0028F3D0ECE72046FEF7EDF9012003B030BD10B5184C82B0002818BF0446C4
:206740002378FF2B03D02046FEF7BEF910B1002002B010BD2046FEF7D7F9AB2320468DF84B
:206760000730FEF7C1F948B920460DF107010122FEF7F0F958B12046FEF7C6F92046FFF746
:2067800077FF0128E4D02046FEF7A6F9DFE72046FFF7A8FFEFE700BFA453010070B5174CCE
:2067A000002818BF04462046FFF79CFF054640B900252046FEF790F9002818BF00252846BA
:2067C00070BD2046FEF790F906460028F0D12046B921FEF7A3F960B92046FEF795F90A2670
:2067E0002046FFF745FF731E0028E2D013F0FF06F6D120463546FEF787F9DAE7A4530100B0
:2068000010B50446FFF796FF00B910BD2046BDE81040FFF7C3BF00BF064B1B68C3F30260DA
:20682000C3F3C162800040EA0220C3F381531843704700BF98130050064B1B68C3F30510BE
:20684000C3F3892200041B0340EA82509BB21843704700BF98130050F0B5234B1B68C3F354
:206860000467152F214B34D91B78203F03F01F03152B1ED81E4A002111601E4C1E496FF089
:206880000106012010E0B242B8BF3246134403F01F0242F4F852BB420D68DFF85CE02280EB
:2068A0004FF0010C086008D0FA1A022AEBDD0222ECE7203B9F42DDD1F0BD0D4BDEF8002068
:2068C000CEF800C0DEF80020C3F800C0DEF80030F0BD1A7802F01F03152B01D9203BC9E743
:2068E0009F42C7D1F0BD00BF8813005006620840980020436C6208402C20094000F04073CF
:20690000B3F1807F70B504462BD0224B1B68C3F30463152B36D803EB24730133152B1DDC1D
